{
  "contracts/Wastemanagement.sol": {
    "WasteManagement": {
      "abi": [
        {
          "inputs": [
            {
              "internalType": "address",
              "name": "_escrowContract",
              "type": "address"
            }
          ],
          "stateMutability": "nonpayable",
          "type": "constructor"
        },
        {
          "inputs": [],
          "name": "ALLREADY_ACCEPTED",
          "type": "error"
        },
        {
          "inputs": [],
          "name": "ALREADY_ACCEPTED",
          "type": "error"
        },
        {
          "inputs": [],
          "name": "ALREADY_COMPLETED",
          "type": "error"
        },
        {
          "inputs": [],
          "name": "AMOUNT_LESS_THAN_AMOUNT_VALUED",
          "type": "error"
        },
        {
          "inputs": [],
          "name": "COLLECTORALREADYADDED",
          "type": "error"
        },
        {
          "inputs": [],
          "name": "INVALIDAMOUNT",
          "type": "error"
        },
        {
          "inputs": [],
          "name": "INVALIDLATITUTUDE",
          "type": "error"
        },
        {
          "inputs": [],
          "name": "INVALIDLONGITUDE",
          "type": "error"
        },
        {
          "inputs": [],
          "name": "INVALIDOFFERNAME",
          "type": "error"
        },
        {
          "inputs": [],
          "name": "INVALIDPRICE",
          "type": "error"
        },
        {
          "inputs": [],
          "name": "INVALIDQUANTITY",
          "type": "error"
        },
        {
          "inputs": [],
          "name": "INVALIDRECYCLER",
          "type": "error"
        },
        {
          "inputs": [],
          "name": "LOWER_THAN_MINQUANTITY",
          "type": "error"
        },
        {
          "inputs": [],
          "name": "NOT_ACCEPTED_YET",
          "type": "error"
        },
        {
          "inputs": [],
          "name": "NOT_ASSIGNED",
          "type": "error"
        },
        {
          "inputs": [],
          "name": "NOT_AUTHORIZED",
          "type": "error"
        },
        {
          "inputs": [],
          "name": "NOT_FOUND",
          "type": "error"
        },
        {
          "inputs": [],
          "name": "NOT_REGISTERED",
          "type": "error"
        },
        {
          "inputs": [],
          "name": "OFFERNOTFOUND",
          "type": "error"
        },
        {
          "inputs": [],
          "name": "ONLY_A_RECYCLER",
          "type": "error"
        },
        {
          "inputs": [],
          "name": "RECYCLERNOTFOUND",
          "type": "error"
        },
        {
          "inputs": [],
          "name": "RECYCLER_ALREADY_REGISTERED",
          "type": "error"
        },
        {
          "inputs": [],
          "name": "REGISTERED",
          "type": "error"
        },
        {
          "inputs": [],
          "name": "REQUESTALREADYASSIGNED",
          "type": "error"
        },
        {
          "inputs": [],
          "name": "REQUESTNOTFOUND",
          "type": "error"
        },
        {
          "anonymous": false,
          "inputs": [
            {
              "indexed": false,
              "internalType": "uint256",
              "name": "requestID",
              "type": "uint256"
            }
          ],
          "name": "CollectionRequestCanceled",
          "type": "event"
        },
        {
          "anonymous": false,
          "inputs": [
            {
              "indexed": true,
              "internalType": "address",
              "name": "owner",
              "type": "address"
            },
            {
              "indexed": false,
              "internalType": "uint256",
              "name": "amount",
              "type": "uint256"
            }
          ],
          "name": "FundsWithdrawn",
          "type": "event"
        },
        {
          "anonymous": false,
          "inputs": [
            {
              "indexed": false,
              "internalType": "address",
              "name": "sender",
              "type": "address"
            },
            {
              "indexed": false,
              "internalType": "uint256",
              "name": "value",
              "type": "uint256"
            },
            {
              "indexed": false,
              "internalType": "bytes",
              "name": "data",
              "type": "bytes"
            }
          ],
          "name": "LogFallback",
          "type": "event"
        },
        {
          "anonymous": false,
          "inputs": [
            {
              "indexed": false,
              "internalType": "address",
              "name": "sender",
              "type": "address"
            },
            {
              "indexed": false,
              "internalType": "uint256",
              "name": "value",
              "type": "uint256"
            }
          ],
          "name": "LogReceive",
          "type": "event"
        },
        {
          "anonymous": false,
          "inputs": [
            {
              "indexed": false,
              "internalType": "address",
              "name": "userAddress",
              "type": "address"
            },
            {
              "indexed": false,
              "internalType": "int32",
              "name": "latitude",
              "type": "int32"
            },
            {
              "indexed": false,
              "internalType": "int32",
              "name": "longitude",
              "type": "int32"
            }
          ],
          "name": "NewUserJoined",
          "type": "event"
        },
        {
          "anonymous": false,
          "inputs": [
            {
              "indexed": true,
              "internalType": "address",
              "name": "recycler",
              "type": "address"
            },
            {
              "indexed": false,
              "internalType": "string",
              "name": "_wasteType",
              "type": "string"
            },
            {
              "indexed": false,
              "internalType": "uint256",
              "name": "_pricePerKg",
              "type": "uint256"
            },
            {
              "indexed": false,
              "internalType": "uint256",
              "name": "_miniQuantity",
              "type": "uint256"
            }
          ],
          "name": "OfferCreated",
          "type": "event"
        },
        {
          "anonymous": false,
          "inputs": [
            {
              "indexed": true,
              "internalType": "address",
              "name": "_recyclerAddress",
              "type": "address"
            },
            {
              "indexed": false,
              "internalType": "string",
              "name": "_location",
              "type": "string"
            },
            {
              "indexed": false,
              "internalType": "int32",
              "name": "lat",
              "type": "int32"
            },
            {
              "indexed": false,
              "internalType": "int32",
              "name": "lon",
              "type": "int32"
            }
          ],
          "name": "RecyclerCreated",
          "type": "event"
        },
        {
          "anonymous": false,
          "inputs": [
            {
              "indexed": false,
              "internalType": "uint256",
              "name": "requestID",
              "type": "uint256"
            },
            {
              "indexed": false,
              "internalType": "address",
              "name": "collectorAddress",
              "type": "address"
            }
          ],
          "name": "RequestAccepted",
          "type": "event"
        },
        {
          "anonymous": false,
          "inputs": [
            {
              "indexed": false,
              "internalType": "uint256",
              "name": "_requestId",
              "type": "uint256"
            }
          ],
          "name": "RequestCancelled",
          "type": "event"
        },
        {
          "anonymous": false,
          "inputs": [
            {
              "indexed": false,
              "internalType": "uint256",
              "name": "requestID",
              "type": "uint256"
            },
            {
              "indexed": false,
              "internalType": "address",
              "name": "collectorAddress",
              "type": "address"
            }
          ],
          "name": "RequestConfirmed",
          "type": "event"
        },
        {
          "anonymous": false,
          "inputs": [
            {
              "indexed": false,
              "internalType": "uint256",
              "name": "requestID",
              "type": "uint256"
            },
            {
              "indexed": false,
              "internalType": "address",
              "name": "userAddress",
              "type": "address"
            },
            {
              "indexed": false,
              "internalType": "address",
              "name": "recyclerAddress",
              "type": "address"
            },
            {
              "indexed": false,
              "internalType": "uint256",
              "name": "offerId",
              "type": "uint256"
            },
            {
              "indexed": false,
              "internalType": "uint256",
              "name": "weight",
              "type": "uint256"
            },
            {
              "indexed": false,
              "internalType": "uint256",
              "name": "priceAgreed",
              "type": "uint256"
            }
          ],
          "name": "RequestCreated",
          "type": "event"
        },
        {
          "stateMutability": "payable",
          "type": "fallback"
        },
        {
          "inputs": [
            {
              "internalType": "uint256",
              "name": "_requestID",
              "type": "uint256"
            },
            {
              "internalType": "address",
              "name": "_collectorAddress",
              "type": "address"
            }
          ],
          "name": "acceptRequest",
          "outputs": [],
          "stateMutability": "payable",
          "type": "function"
        },
        {
          "inputs": [
            {
              "internalType": "address",
              "name": "",
              "type": "address"
            },
            {
              "internalType": "uint256",
              "name": "",
              "type": "uint256"
            }
          ],
          "name": "allUserRequest",
          "outputs": [
            {
              "internalType": "uint256",
              "name": "id",
              "type": "uint256"
            },
            {
              "internalType": "address",
              "name": "userAddress",
              "type": "address"
            },
            {
              "internalType": "address",
              "name": "recyclerAddress",
              "type": "address"
            },
            {
              "internalType": "uint256",
              "name": "offerId",
              "type": "uint256"
            },
            {
              "internalType": "uint256",
              "name": "weight",
              "type": "uint256"
            },
            {
              "internalType": "uint256",
              "name": "valuedAt",
              "type": "uint256"
            },
            {
              "internalType": "uint256",
              "name": "amountPaid",
              "type": "uint256"
            },
            {
              "internalType": "bool",
              "name": "isCompleted",
              "type": "bool"
            },
            {
              "internalType": "bool",
              "name": "isAccepted",
              "type": "bool"
            },
            {
              "internalType": "address",
              "name": "assignedCollector",
              "type": "address"
            },
            {
              "internalType": "uint256",
              "name": "escrowRequestID",
              "type": "uint256"
            },
            {
              "internalType": "enum WasteManagement.RequestStatus",
              "name": "status",
              "type": "uint8"
            }
          ],
          "stateMutability": "view",
          "type": "function"
        },
        {
          "inputs": [
            {
              "internalType": "uint256",
              "name": "_requestID",
              "type": "uint256"
            }
          ],
          "name": "cancelRequestAndRefund",
          "outputs": [],
          "stateMutability": "nonpayable",
          "type": "function"
        },
        {
          "inputs": [
            {
              "internalType": "address",
              "name": "",
              "type": "address"
            }
          ],
          "name": "collectors",
          "outputs": [
            {
              "internalType": "uint256",
              "name": "id",
              "type": "uint256"
            },
            {
              "internalType": "string",
              "name": "name",
              "type": "string"
            },
            {
              "internalType": "address",
              "name": "collectorAddress",
              "type": "address"
            },
            {
              "internalType": "string",
              "name": "contact",
              "type": "string"
            },
            {
              "internalType": "uint256",
              "name": "numberOfWasteCollected",
              "type": "uint256"
            },
            {
              "internalType": "bool",
              "name": "isAvailable",
              "type": "bool"
            }
          ],
          "stateMutability": "view",
          "type": "function"
        },
        {
          "inputs": [
            {
              "internalType": "address",
              "name": "",
              "type": "address"
            },
            {
              "internalType": "uint256",
              "name": "",
              "type": "uint256"
            }
          ],
          "name": "collectorsRequests",
          "outputs": [
            {
              "internalType": "uint256",
              "name": "",
              "type": "uint256"
            }
          ],
          "stateMutability": "view",
          "type": "function"
        },
        {
          "inputs": [
            {
              "internalType": "uint256",
              "name": "_requestID",
              "type": "uint256"
            }
          ],
          "name": "confirmRequest",
          "outputs": [],
          "stateMutability": "payable",
          "type": "function"
        },
        {
          "inputs": [
            {
              "internalType": "address",
              "name": "_collectorAddress",
              "type": "address"
            },
            {
              "internalType": "string",
              "name": "_name",
              "type": "string"
            },
            {
              "internalType": "string",
              "name": "_contact",
              "type": "string"
            }
          ],
          "name": "createCollector",
          "outputs": [],
          "stateMutability": "nonpayable",
          "type": "function"
        },
        {
          "inputs": [
            {
              "internalType": "string",
              "name": "_wasteType",
              "type": "string"
            },
            {
              "internalType": "uint256",
              "name": "_pricePerKg",
              "type": "uint256"
            },
            {
              "internalType": "uint256",
              "name": "_miniQuantity",
              "type": "uint256"
            }
          ],
          "name": "createOffer",
          "outputs": [],
          "stateMutability": "nonpayable",
          "type": "function"
        },
        {
          "inputs": [
            {
              "internalType": "address",
              "name": "_recyclerAddress",
              "type": "address"
            },
            {
              "internalType": "string",
              "name": "_location",
              "type": "string"
            },
            {
              "internalType": "int32",
              "name": "lat",
              "type": "int32"
            },
            {
              "internalType": "int32",
              "name": "lon",
              "type": "int32"
            }
          ],
          "name": "createRecycler",
          "outputs": [],
          "stateMutability": "nonpayable",
          "type": "function"
        },
        {
          "inputs": [],
          "name": "escrowContract",
          "outputs": [
            {
              "internalType": "contract IEscrow",
              "name": "",
              "type": "address"
            }
          ],
          "stateMutability": "view",
          "type": "function"
        },
        {
          "inputs": [],
          "name": "getAllCollectorRequests",
          "outputs": [
            {
              "internalType": "uint256[]",
              "name": "",
              "type": "uint256[]"
            }
          ],
          "stateMutability": "view",
          "type": "function"
        },
        {
          "inputs": [],
          "name": "getAllUserRequest",
          "outputs": [
            {
              "components": [
                {
                  "internalType": "uint256",
                  "name": "id",
                  "type": "uint256"
                },
                {
                  "internalType": "address",
                  "name": "userAddress",
                  "type": "address"
                },
                {
                  "internalType": "address",
                  "name": "recyclerAddress",
                  "type": "address"
                },
                {
                  "internalType": "uint256",
                  "name": "offerId",
                  "type": "uint256"
                },
                {
                  "internalType": "uint256",
                  "name": "weight",
                  "type": "uint256"
                },
                {
                  "internalType": "uint256",
                  "name": "valuedAt",
                  "type": "uint256"
                },
                {
                  "internalType": "uint256",
                  "name": "amountPaid",
                  "type": "uint256"
                },
                {
                  "internalType": "bool",
                  "name": "isCompleted",
                  "type": "bool"
                },
                {
                  "internalType": "bool",
                  "name": "isAccepted",
                  "type": "bool"
                },
                {
                  "internalType": "address",
                  "name": "assignedCollector",
                  "type": "address"
                },
                {
                  "internalType": "uint256",
                  "name": "escrowRequestID",
                  "type": "uint256"
                },
                {
                  "internalType": "enum WasteManagement.RequestStatus",
                  "name": "status",
                  "type": "uint8"
                }
              ],
              "internalType": "struct WasteManagement.WasteCollectionRequest[]",
              "name": "",
              "type": "tuple[]"
            }
          ],
          "stateMutability": "view",
          "type": "function"
        },
        {
          "inputs": [
            {
              "internalType": "uint256",
              "name": "id",
              "type": "uint256"
            }
          ],
          "name": "getRecyclerById",
          "outputs": [
            {
              "components": [
                {
                  "internalType": "uint256",
                  "name": "id",
                  "type": "uint256"
                },
                {
                  "internalType": "address",
                  "name": "recyclerAddress",
                  "type": "address"
                },
                {
                  "internalType": "string",
                  "name": "location",
                  "type": "string"
                },
                {
                  "internalType": "uint256",
                  "name": "rating",
                  "type": "uint256"
                },
                {
                  "internalType": "bool",
                  "name": "isRegistered",
                  "type": "bool"
                }
              ],
              "internalType": "struct WasteManagement.Recycler",
              "name": "",
              "type": "tuple"
            }
          ],
          "stateMutability": "view",
          "type": "function"
        },
        {
          "inputs": [
            {
              "internalType": "address",
              "name": "_recyclerAddress",
              "type": "address"
            }
          ],
          "name": "getRecyclerCollectors",
          "outputs": [
            {
              "components": [
                {
                  "internalType": "uint256",
                  "name": "id",
                  "type": "uint256"
                },
                {
                  "internalType": "string",
                  "name": "name",
                  "type": "string"
                },
                {
                  "internalType": "address",
                  "name": "collectorAddress",
                  "type": "address"
                },
                {
                  "internalType": "string",
                  "name": "contact",
                  "type": "string"
                },
                {
                  "internalType": "uint256",
                  "name": "numberOfWasteCollected",
                  "type": "uint256"
                },
                {
                  "internalType": "bool",
                  "name": "isAvailable",
                  "type": "bool"
                }
              ],
              "internalType": "struct WasteManagement.Collector[]",
              "name": "",
              "type": "tuple[]"
            }
          ],
          "stateMutability": "view",
          "type": "function"
        },
        {
          "inputs": [
            {
              "internalType": "uint256",
              "name": "_id",
              "type": "uint256"
            }
          ],
          "name": "getRecyclerOffers",
          "outputs": [
            {
              "components": [
                {
                  "internalType": "uint256",
                  "name": "offerId",
                  "type": "uint256"
                },
                {
                  "internalType": "string",
                  "name": "name",
                  "type": "string"
                },
                {
                  "internalType": "address",
                  "name": "recyclerAddress",
                  "type": "address"
                },
                {
                  "internalType": "uint256",
                  "name": "recyclerId",
                  "type": "uint256"
                },
                {
                  "internalType": "uint256",
                  "name": "pricePerKg",
                  "type": "uint256"
                },
                {
                  "internalType": "uint256",
                  "name": "minQuantity",
                  "type": "uint256"
                }
              ],
              "internalType": "struct WasteManagement.Offer[]",
              "name": "",
              "type": "tuple[]"
            }
          ],
          "stateMutability": "view",
          "type": "function"
        },
        {
          "inputs": [
            {
              "internalType": "address",
              "name": "_userAddress",
              "type": "address"
            }
          ],
          "name": "getUserRole",
          "outputs": [
            {
              "internalType": "string",
              "name": "role",
              "type": "string"
            },
            {
              "internalType": "uint256",
              "name": "id",
              "type": "uint256"
            },
            {
              "internalType": "address",
              "name": "addr",
              "type": "address"
            },
            {
              "internalType": "int32",
              "name": "latitude",
              "type": "int32"
            },
            {
              "internalType": "int32",
              "name": "longitude",
              "type": "int32"
            },
            {
              "internalType": "string",
              "name": "location",
              "type": "string"
            },
            {
              "internalType": "bool",
              "name": "isRegistered",
              "type": "bool"
            }
          ],
          "stateMutability": "view",
          "type": "function"
        },
        {
          "inputs": [
            {
              "internalType": "uint256",
              "name": "_recyclerId",
              "type": "uint256"
            },
            {
              "internalType": "uint256",
              "name": "_offerId",
              "type": "uint256"
            },
            {
              "internalType": "uint256",
              "name": "_weight",
              "type": "uint256"
            },
            {
              "internalType": "uint256",
              "name": "_price",
              "type": "uint256"
            },
            {
              "internalType": "int32",
              "name": "_latitude",
              "type": "int32"
            },
            {
              "internalType": "int32",
              "name": "_longitude",
              "type": "int32"
            }
          ],
          "name": "makeRequest",
          "outputs": [],
          "stateMutability": "nonpayable",
          "type": "function"
        },
        {
          "inputs": [],
          "name": "numOfCollector",
          "outputs": [
            {
              "internalType": "uint256",
              "name": "",
              "type": "uint256"
            }
          ],
          "stateMutability": "view",
          "type": "function"
        },
        {
          "inputs": [],
          "name": "numOfRequest",
          "outputs": [
            {
              "internalType": "uint256",
              "name": "",
              "type": "uint256"
            }
          ],
          "stateMutability": "view",
          "type": "function"
        },
        {
          "inputs": [],
          "name": "numberOfRecyclers",
          "outputs": [
            {
              "internalType": "uint256",
              "name": "",
              "type": "uint256"
            }
          ],
          "stateMutability": "view",
          "type": "function"
        },
        {
          "inputs": [
            {
              "internalType": "address",
              "name": "",
              "type": "address"
            }
          ],
          "name": "recyclerCordinates",
          "outputs": [
            {
              "internalType": "int32",
              "name": "latitude",
              "type": "int32"
            },
            {
              "internalType": "int32",
              "name": "longitude",
              "type": "int32"
            }
          ],
          "stateMutability": "view",
          "type": "function"
        },
        {
          "inputs": [
            {
              "internalType": "address",
              "name": "",
              "type": "address"
            },
            {
              "internalType": "uint256",
              "name": "",
              "type": "uint256"
            }
          ],
          "name": "recyclerOffers",
          "outputs": [
            {
              "internalType": "uint256",
              "name": "offerId",
              "type": "uint256"
            },
            {
              "internalType": "string",
              "name": "name",
              "type": "string"
            },
            {
              "internalType": "address",
              "name": "recyclerAddress",
              "type": "address"
            },
            {
              "internalType": "uint256",
              "name": "recyclerId",
              "type": "uint256"
            },
            {
              "internalType": "uint256",
              "name": "pricePerKg",
              "type": "uint256"
            },
            {
              "internalType": "uint256",
              "name": "minQuantity",
              "type": "uint256"
            }
          ],
          "stateMutability": "view",
          "type": "function"
        },
        {
          "inputs": [
            {
              "internalType": "address",
              "name": "",
              "type": "address"
            }
          ],
          "name": "recyclers",
          "outputs": [
            {
              "internalType": "uint256",
              "name": "id",
              "type": "uint256"
            },
            {
              "internalType": "address",
              "name": "recyclerAddress",
              "type": "address"
            },
            {
              "internalType": "string",
              "name": "location",
              "type": "string"
            },
            {
              "internalType": "uint256",
              "name": "rating",
              "type": "uint256"
            },
            {
              "internalType": "bool",
              "name": "isRegistered",
              "type": "bool"
            }
          ],
          "stateMutability": "view",
          "type": "function"
        },
        {
          "inputs": [
            {
              "internalType": "uint256",
              "name": "",
              "type": "uint256"
            }
          ],
          "name": "recyclersById",
          "outputs": [
            {
              "internalType": "uint256",
              "name": "id",
              "type": "uint256"
            },
            {
              "internalType": "address",
              "name": "recyclerAddress",
              "type": "address"
            },
            {
              "internalType": "string",
              "name": "location",
              "type": "string"
            },
            {
              "internalType": "uint256",
              "name": "rating",
              "type": "uint256"
            },
            {
              "internalType": "bool",
              "name": "isRegistered",
              "type": "bool"
            }
          ],
          "stateMutability": "view",
          "type": "function"
        },
        {
          "inputs": [],
          "name": "seeAllRecyclers",
          "outputs": [
            {
              "components": [
                {
                  "internalType": "uint256",
                  "name": "id",
                  "type": "uint256"
                },
                {
                  "internalType": "address",
                  "name": "recyclerAddress",
                  "type": "address"
                },
                {
                  "internalType": "string",
                  "name": "location",
                  "type": "string"
                },
                {
                  "internalType": "uint256",
                  "name": "rating",
                  "type": "uint256"
                },
                {
                  "internalType": "bool",
                  "name": "isRegistered",
                  "type": "bool"
                }
              ],
              "internalType": "struct WasteManagement.Recycler[]",
              "name": "",
              "type": "tuple[]"
            }
          ],
          "stateMutability": "view",
          "type": "function"
        },
        {
          "inputs": [
            {
              "internalType": "uint256",
              "name": "_requestID",
              "type": "uint256"
            }
          ],
          "name": "showRequest",
          "outputs": [
            {
              "components": [
                {
                  "internalType": "uint256",
                  "name": "id",
                  "type": "uint256"
                },
                {
                  "internalType": "address",
                  "name": "userAddress",
                  "type": "address"
                },
                {
                  "internalType": "address",
                  "name": "recyclerAddress",
                  "type": "address"
                },
                {
                  "internalType": "uint256",
                  "name": "offerId",
                  "type": "uint256"
                },
                {
                  "internalType": "uint256",
                  "name": "weight",
                  "type": "uint256"
                },
                {
                  "internalType": "uint256",
                  "name": "valuedAt",
                  "type": "uint256"
                },
                {
                  "internalType": "uint256",
                  "name": "amountPaid",
                  "type": "uint256"
                },
                {
                  "internalType": "bool",
                  "name": "isCompleted",
                  "type": "bool"
                },
                {
                  "internalType": "bool",
                  "name": "isAccepted",
                  "type": "bool"
                },
                {
                  "internalType": "address",
                  "name": "assignedCollector",
                  "type": "address"
                },
                {
                  "internalType": "uint256",
                  "name": "escrowRequestID",
                  "type": "uint256"
                },
                {
                  "internalType": "enum WasteManagement.RequestStatus",
                  "name": "status",
                  "type": "uint8"
                }
              ],
              "internalType": "struct WasteManagement.WasteCollectionRequest",
              "name": "",
              "type": "tuple"
            }
          ],
          "stateMutability": "view",
          "type": "function"
        },
        {
          "inputs": [
            {
              "internalType": "uint256",
              "name": "_offerId",
              "type": "uint256"
            },
            {
              "internalType": "string",
              "name": "_name",
              "type": "string"
            },
            {
              "internalType": "address",
              "name": "_recyclerAddress",
              "type": "address"
            },
            {
              "internalType": "uint256",
              "name": "_pricePerKg",
              "type": "uint256"
            },
            {
              "internalType": "uint256",
              "name": "_minQuantity",
              "type": "uint256"
            }
          ],
          "name": "updateOffer",
          "outputs": [
            {
              "components": [
                {
                  "internalType": "uint256",
                  "name": "offerId",
                  "type": "uint256"
                },
                {
                  "internalType": "string",
                  "name": "name",
                  "type": "string"
                },
                {
                  "internalType": "address",
                  "name": "recyclerAddress",
                  "type": "address"
                },
                {
                  "internalType": "uint256",
                  "name": "recyclerId",
                  "type": "uint256"
                },
                {
                  "internalType": "uint256",
                  "name": "pricePerKg",
                  "type": "uint256"
                },
                {
                  "internalType": "uint256",
                  "name": "minQuantity",
                  "type": "uint256"
                }
              ],
              "internalType": "struct WasteManagement.Offer",
              "name": "",
              "type": "tuple"
            }
          ],
          "stateMutability": "nonpayable",
          "type": "function"
        },
        {
          "inputs": [
            {
              "internalType": "uint256",
              "name": "_requestID",
              "type": "uint256"
            }
          ],
          "name": "userCancelRequest",
          "outputs": [],
          "stateMutability": "nonpayable",
          "type": "function"
        },
        {
          "inputs": [
            {
              "internalType": "uint256",
              "name": "",
              "type": "uint256"
            }
          ],
          "name": "userWasteRequests",
          "outputs": [
            {
              "internalType": "uint256",
              "name": "id",
              "type": "uint256"
            },
            {
              "internalType": "address",
              "name": "userAddress",
              "type": "address"
            },
            {
              "internalType": "address",
              "name": "recyclerAddress",
              "type": "address"
            },
            {
              "internalType": "uint256",
              "name": "offerId",
              "type": "uint256"
            },
            {
              "internalType": "uint256",
              "name": "weight",
              "type": "uint256"
            },
            {
              "internalType": "uint256",
              "name": "valuedAt",
              "type": "uint256"
            },
            {
              "internalType": "uint256",
              "name": "amountPaid",
              "type": "uint256"
            },
            {
              "internalType": "bool",
              "name": "isCompleted",
              "type": "bool"
            },
            {
              "internalType": "bool",
              "name": "isAccepted",
              "type": "bool"
            },
            {
              "internalType": "address",
              "name": "assignedCollector",
              "type": "address"
            },
            {
              "internalType": "uint256",
              "name": "escrowRequestID",
              "type": "uint256"
            },
            {
              "internalType": "enum WasteManagement.RequestStatus",
              "name": "status",
              "type": "uint8"
            }
          ],
          "stateMutability": "view",
          "type": "function"
        },
        {
          "inputs": [
            {
              "internalType": "address",
              "name": "",
              "type": "address"
            }
          ],
          "name": "users",
          "outputs": [
            {
              "internalType": "uint256",
              "name": "id",
              "type": "uint256"
            },
            {
              "internalType": "address",
              "name": "userAddress",
              "type": "address"
            },
            {
              "components": [
                {
                  "internalType": "int32",
                  "name": "latitude",
                  "type": "int32"
                },
                {
                  "internalType": "int32",
                  "name": "longitude",
                  "type": "int32"
                }
              ],
              "internalType": "struct WasteManagement.Coordinates",
              "name": "location",
              "type": "tuple"
            },
            {
              "internalType": "bool",
              "name": "isRegistered",
              "type": "bool"
            }
          ],
          "stateMutability": "view",
          "type": "function"
        },
        {
          "inputs": [
            {
              "internalType": "address",
              "name": "_recyclerAddress",
              "type": "address"
            },
            {
              "internalType": "uint256",
              "name": "_offerId",
              "type": "uint256"
            }
          ],
          "name": "viewOffer",
          "outputs": [
            {
              "components": [
                {
                  "internalType": "uint256",
                  "name": "offerId",
                  "type": "uint256"
                },
                {
                  "internalType": "string",
                  "name": "name",
                  "type": "string"
                },
                {
                  "internalType": "address",
                  "name": "recyclerAddress",
                  "type": "address"
                },
                {
                  "internalType": "uint256",
                  "name": "recyclerId",
                  "type": "uint256"
                },
                {
                  "internalType": "uint256",
                  "name": "pricePerKg",
                  "type": "uint256"
                },
                {
                  "internalType": "uint256",
                  "name": "minQuantity",
                  "type": "uint256"
                }
              ],
              "internalType": "struct WasteManagement.Offer",
              "name": "",
              "type": "tuple"
            }
          ],
          "stateMutability": "view",
          "type": "function"
        },
        {
          "inputs": [],
          "name": "withdrawFunds",
          "outputs": [],
          "stateMutability": "nonpayable",
          "type": "function"
        },
        {
          "stateMutability": "payable",
          "type": "receive"
        }
      ],
      "evm": {
        "bytecode": {
          "linkReferences": {},
          "object": "60806040523480156200001157600080fd5b5060405162003bb838038062003bb8833981016040819052620000349162000063565b600080546001600160a01b039092166001600160a01b0319928316179055600180549091163317905562000095565b6000602082840312156200007657600080fd5b81516001600160a01b03811681146200008e57600080fd5b9392505050565b613b1380620000a56000396000f3fe6080604052600436106101e75760003560e01c80637a7bd4c211610102578063b570a8f511610095578063eb73836a11610064578063eb73836a146107a5578063ecec10d4146107c5578063f6556c2a146107e5578063fdc570041461080557610227565b8063b570a8f514610708578063c345008314610728578063daba858a1461075a578063e42a96e71461076d57610227565b80639be32e85116100d15780639be32e8514610602578063a6b2c43714610624578063a7fd1dbd14610637578063a87430ba1461065757610227565b80637a7bd4c2146105785780638425f48f1461059a5780639593b523146105ba57806398b195d1146105ec57610227565b8063554909011161017a578063753cc97711610149578063753cc977146104cd578063768b3f67146104ed57806377acab571461051a5780637a3a9cbd1461054757610227565b806355490901146104315780635959ae7b146104515780635ccdd4261461047e5780636eebc5f3146104ab57610227565b806327820851116101b6578063278208511461031c5780633d0a31451461034f57806348175e421461037357806351dc01211461038957610227565b806301f1d4581461025d5780630de6c71f1461027f5780631e8d6bcf146102da57806324600fc31461030757610227565b3661022757604080513381523460208201527f98c44cd71a4f8250380570aaf8bf1f0fd2a19bc3428a18a782e9e4d6c1928b1391015b60405180910390a1005b7f20b9b3489992921b2007700aa9859d96f2e511d719c19c44fbf72becb1e356d9333460003660405161021d9493929190612e7d565b34801561026957600080fd5b5061027d610278366004612f84565b610825565b005b34801561028b57600080fd5b506102bb61029a366004612ff8565b600960205260009081526040902054600381810b91600160201b9004900b82565b60408051600393840b81529190920b6020820152015b60405180910390f35b3480156102e657600080fd5b506102fa6102f536600461301a565b6109d4565b6040516102d191906130cc565b34801561031357600080fd5b5061027d610afd565b34801561032857600080fd5b5061033c610337366004612ff8565b610c0d565b6040516102d197969594939291906130df565b34801561035b57600080fd5b50610365600d5481565b6040519081526020016102d1565b34801561037f57600080fd5b5061036560045481565b34801561039557600080fd5b506104196103a436600461301a565b600e60205260009081526040902080546001820154600283015460038401546004850154600586015460068701546007880154600889015460099099015497986001600160a01b039788169896881697959694959394929360ff8084169461010085048216946201000090049092169291168c565b6040516102d19c9b9a9998979695949392919061317b565b34801561043d57600080fd5b5061027d61044c36600461301a565b610e95565b34801561045d57600080fd5b5061047161046c3660046131f7565b610f8a565b6040516102d191906132ba565b34801561048a57600080fd5b5061049e61049936600461301a565b61116a565b6040516102d19190613388565b3480156104b757600080fd5b506104c06112dc565b6040516102d19190613397565b3480156104d957600080fd5b506104716104e83660046133e6565b611409565b3480156104f957600080fd5b5061050d610508366004612ff8565b6115c3565b6040516102d19190613410565b34801561052657600080fd5b5061053a61053536600461301a565b6117d6565b6040516102d191906134cf565b34801561055357600080fd5b50610567610562366004612ff8565b61195b565b6040516102d1959493929190613533565b34801561058457600080fd5b5061058d611a20565b6040516102d19190613576565b3480156105a657600080fd5b5061027d6105b53660046135df565b611b47565b3480156105c657600080fd5b506105da6105d5366004612ff8565b612005565b6040516102d196959493929190613637565b3480156105f857600080fd5b50610365600a5481565b34801561060e57600080fd5b5061061761215d565b6040516102d1919061368c565b61027d61063236600461301a565b6121f8565b34801561064357600080fd5b5061027d6106523660046136c4565b612336565b34801561066357600080fd5b506106c4610672366004612ff8565b600360208181526000928352604092839020805460018201548551808701909652600283015480860b8752600160201b9004850b9386019390935292015491926001600160a01b039091169160ff1684565b604080519485526001600160a01b039093166020808601919091528251600390810b948601949094529091015190910b60608301521515608082015260a0016102d1565b34801561071457600080fd5b506103656107233660046133e6565b6124e7565b34801561073457600080fd5b506107486107433660046133e6565b612518565b6040516102d196959493929190613712565b61027d610768366004613759565b612604565b34801561077957600080fd5b5060005461078d906001600160a01b031681565b6040516001600160a01b0390911681526020016102d1565b3480156107b157600080fd5b5061027d6107c036600461301a565b612843565b3480156107d157600080fd5b506104196107e03660046133e6565b61296f565b3480156107f157600080fd5b5061027d610800366004613785565b612a04565b34801561081157600080fd5b5061056761082036600461301a565b612cdf565b336000818152600660205260409020600181015490916001600160a01b039091161461086457604051633d83866f60e01b815260040160405180910390fd5b6001600160a01b0384166000908152600b60205260409020541561089b5760405163a9e0611b60e01b815260040160405180910390fd5b6000600a5460016108ac919061380a565b6001600160a01b0386166000908152600b60205260409020818155909150600181016108d886826138a8565b506002810180546001600160a01b0319166001600160a01b0388161790556003810161090485826138a8565b5060006004820181905560058201805460ff19166001908117909155338252600c60209081526040832080548084018255908452922083546006909302019182558291908181019061095890840182613968565b5060028281015490820180546001600160a01b0319166001600160a01b0390921691909117905560038082019061099190840182613968565b50600482810154908201556005918201549101805460ff191660ff9092161515919091179055600a80549060006109c783613a43565b9190505550505050505050565b610a116040518060a001604052806000815260200160006001600160a01b0316815260200160608152602001600081526020016000151581525090565b600082815260076020908152604091829020825160a0810184528154815260018201546001600160a01b0316928101929092526002810180549293919291840191610a5b9061381d565b80601f0160208091040260200160405190810160405280929190818152602001828054610a879061381d565b8015610ad45780601f10610aa957610100808354040283529160200191610ad4565b820191906000526020600020905b815481529060010190602001808311610ab757829003601f168201915b50505091835250506003820154602082015260049091015460ff16151560409091015292915050565b6001546001600160a01b03163314610b4b5760405162461bcd60e51b815260206004820152600c60248201526b155b985d5d1a1bdc9a5e995960a21b60448201526064015b60405180910390fd5b476000819003610ba75760405162461bcd60e51b815260206004820152602160248201527f4e6f2066756e647320617661696c61626c6520666f72207769746864726177616044820152601b60fa1b6064820152608401610b42565b604051339082156108fc029083906000818181858888f19350505050158015610bd4573d6000803e3d6000fd5b5060405181815233907feaff4b37086828766ad3268786972c0cd24259d4c87a80f9d3963a3c3d999b0d9060200160405180910390a250565b6001600160a01b038116600090815260036020819052604082200154606091908190819081908590829060ff1615610cb157505050506001600160a01b038481166000908152600360208181526040808420805460018201546002830154928601548451808601865260048152632ab9b2b960e11b81880152855196870190955296855292995097509416945083820b93600160201b900490910b9160ff16610e8a565b6001600160a01b03881660009081526006602052604090206004015460ff1615610df0576001600160a01b03808916600090815260066020908152604080832060098352928190208354600185015482546004870154855180870190965260088652672932b1bcb1b632b960c11b9686019690965260028701805497989497959693959290941693600382810b94600160201b909304900b92909160ff16908290610d5b9061381d565b80601f0160208091040260200160405190810160405280929190818152602001828054610d879061381d565b8015610dd45780601f10610da957610100808354040283529160200191610dd4565b820191906000526020600020905b815481529060010190602001808311610db757829003601f168201915b5050505050915098509850985098509850985098505050610e8a565b6001600160a01b0388166000908152600b602052604090205415610e71575050506001600160a01b038086166000908152600b60209081526040808320805460029091015482518084018452600981526831b7b63632b1ba37b960b91b81860152835194850190935284845291985096509092169350915081906001610e8a565b604051632ffe710560e11b815260040160405180910390fd5b919395979092949650565b6000818152600e602052604081208054909103610ec557604051639e9468f360e01b815260040160405180910390fd5b60018101546001600160a01b03163314610ef257604051633d83866f60e01b815260040160405180910390fd5b600781015460ff1615610f1857604051638c53d03560e01b815260040160405180910390fd5b6007810154610100900460ff1615610f4357604051633d63e09560e21b815260040160405180910390fd5b60098101805460ff191660031790556040518281527fee243f878b7fc2f54e934ca33783d4395d42bc07612e2bd4b8e0e178639f7a28906020015b60405180910390a15050565b610f92612e3e565b3360009081526006602052604090206004015460ff16610fc557604051630b7e3f9d60e41b815260040160405180910390fd5b336000908152600560205260409020805487908110610fe657610fe6613a5c565b90600052602060002090600602016000015460000361101857604051637c4afa1160e01b815260040160405180910390fd5b33600090815260056020526040812080548890811061103957611039613a5c565b906000526020600020906006020190508581600101908161105a91906138a8565b506002810180546001600160a01b0319166001600160a01b03871617905560048101849055600581018390556040805160c0810190915281548152600182018054839160208401916110ab9061381d565b80601f01602080910402602001604051908101604052809291908181526020018280546110d79061381d565b80156111245780601f106110f957610100808354040283529160200191611124565b820191906000526020600020905b81548152906001019060200180831161110757829003601f168201915b505050918352505060028201546001600160a01b031660208201526003820154604082015260048201546060820152600590910154608090910152979650505050505050565b6111cf6040805161018081018252600080825260208201819052918101829052606081018290526080810182905260a0810182905260c0810182905260e081018290526101008101829052610120810182905261014081018290529061016082015290565b6000828152600e602052604081205490036111fd57604051639e9468f360e01b815260040160405180910390fd5b6000828152600e60209081526040918290208251610180810184528154815260018201546001600160a01b03908116938201939093526002820154831693810193909352600380820154606085015260048201546080850152600582015460a0850152600682015460c0850152600782015460ff808216151560e087015261010080830482161515908701526201000090910490931661012085015260088201546101408501526009820154919261016085019216908111156112c2576112c2613143565b60038111156112d3576112d3613143565b90525092915050565b336000908152600f60209081526040808320805482518185028101850190935280835260609492939192909184015b828210156114005760008481526020908190206040805161018081018252600a86029092018054835260018101546001600160a01b03908116948401949094526002810154841691830191909152600380820154606084015260048201546080840152600582015460a0840152600682015460c0840152600782015460ff808216151560e0860152610100808304821615159086015262010000909104909416610120840152600882015461014084015260098201549293919261016085019216908111156113dc576113dc613143565b60038111156113ed576113ed613143565b815250508152602001906001019061130b565b50505050905090565b611411612e3e565b6001600160a01b03831660009081526006602052604090206004015460ff1661144d57604051630b7e3f9d60e41b815260040160405180910390fd5b6001600160a01b038316600090815260056020526040902080548390811061147757611477613a5c565b9060005260206000209060060201600001546000036114a957604051637c4afa1160e01b815260040160405180910390fd5b6001600160a01b03831660009081526005602052604090208054839081106114d3576114d3613a5c565b90600052602060002090600602016040518060c0016040529081600082015481526020016001820180546115069061381d565b80601f01602080910402602001604051908101604052809291908181526020018280546115329061381d565b801561157f5780601f106115545761010080835404028352916020019161157f565b820191906000526020600020905b81548152906001019060200180831161156257829003601f168201915b505050918352505060028201546001600160a01b03166020820152600382015460408201526004820154606082015260059091015460809091015290505b92915050565b6001600160a01b03811660009081526006602052604090206004015460609060ff16611602576040516315ee14f560e31b815260040160405180910390fd5b6001600160a01b0382166000908152600c6020908152604080832080548251818502810185019093528083529193909284015b828210156117cb57838290600052602060002090600602016040518060c0016040529081600082015481526020016001820180546116729061381d565b80601f016020809104026020016040519081016040528092919081815260200182805461169e9061381d565b80156116eb5780601f106116c0576101008083540402835291602001916116eb565b820191906000526020600020905b8154815290600101906020018083116116ce57829003601f168201915b505050918352505060028201546001600160a01b0316602082015260038201805460409092019161171b9061381d565b80601f01602080910402602001604051908101604052809291908181526020018280546117479061381d565b80156117945780601f1061176957610100808354040283529160200191611794565b820191906000526020600020905b81548152906001019060200180831161177757829003601f168201915b5050509183525050600482015460208083019190915260059092015460ff1615156040909101529082526001929092019101611635565b505050509050919050565b60008181526007602052604090206001810154606091906001600160a01b031661181357604051632ffe710560e11b815260040160405180910390fd5b60018101546001600160a01b0316600090815260056020908152604080832080548251818502810185019093528083529193909284015b8282101561194f57838290600052602060002090600602016040518060c0016040529081600082015481526020016001820180546118879061381d565b80601f01602080910402602001604051908101604052809291908181526020018280546118b39061381d565b80156119005780601f106118d557610100808354040283529160200191611900565b820191906000526020600020905b8154815290600101906020018083116118e357829003601f168201915b505050918352505060028201546001600160a01b03166020808301919091526003830154604083015260048301546060830152600590920154608090910152908252600192909201910161184a565b50505050915050919050565b60066020526000908152604090208054600182015460028301805492936001600160a01b039092169261198d9061381d565b80601f01602080910402602001604051908101604052809291908181526020018280546119b99061381d565b8015611a065780601f106119db57610100808354040283529160200191611a06565b820191906000526020600020905b8154815290600101906020018083116119e957829003601f168201915b50505050600383015460049093015491929160ff16905085565b60606008805480602002602001604051908101604052809291908181526020016000905b828210156114005760008481526020908190206040805160a081018252600586029092018054835260018101546001600160a01b03169383019390935260028301805492939291840191611a979061381d565b80601f0160208091040260200160405190810160405280929190818152602001828054611ac39061381d565b8015611b105780601f10611ae557610100808354040283529160200191611b10565b820191906000526020600020905b815481529060010190602001808311611af357829003601f168201915b5050509183525050600382015460208083019190915260049092015460ff1615156040909101529082526001929092019101611a44565b33600090815260036020818152604080842081516080810183528154815260018201546001600160a01b03168185015282518084018452600283015480870b8252600160201b9004860b818601528184015293015460ff161515606084019081528a855260079092529092209151909190611c1557611bc533612d11565b611bd0338585612d9b565b60408051338152600386810b602083015285900b8183015290517f1c7a52659230b09cf86607b0422c07afead12b34ecc5a7a4eaebfcbf761b1b079181900360600190a15b600481015460ff16611c3a576040516315ee14f560e31b815260040160405180910390fd5b60018101546001600160a01b03166000908152600560205260409020805488908110611c6857611c68613a5c565b906000526020600020906006020160000154600003611c9a57604051637c4afa1160e01b815260040160405180910390fd5b60018101546001600160a01b03166000908152600560205260408120805489908110611cc857611cc8613a5c565b90600052602060002090600602016040518060c001604052908160008201548152602001600182018054611cfb9061381d565b80601f0160208091040260200160405190810160405280929190818152602001828054611d279061381d565b8015611d745780601f10611d4957610100808354040283529160200191611d74565b820191906000526020600020905b815481529060010190602001808311611d5757829003601f168201915b505050918352505060028201546001600160a01b03166020820152600382015460408201526004820154606082015260059091015460809091015260a0810151909150871015611dd757604051634cababad60e01b815260040160405180910390fd5b6000600d546001611de8919061380a565b6000818152600e60205260408120828155600180820180546001600160a01b03199081163317909155878201546002840180549092166001600160a01b0391909116179055600382018d9055600482018c9055600582018b9055600982018054949550919360ff191690830217905550336000908152600f602090815260408220805460018181018355918452919092208354600a909202019081558183015481830180546001600160a01b03199081166001600160a01b039384161790915560028086015490840180549092169083161790556003808501548184015560048086015490840155600580860154908401556006808601549084015560078086018054918501805460ff938416151560ff1980831682178455845461010090819004871615150261ff001990921661ffff1990931692909217178083559254620100009081900490961690950262010000600160b01b03199092169190911790556008808701549085015560098087015490850180548897929093169490939216918490811115611f7b57611f7b613143565b021790555050600d805491506000611f9283613a43565b90915550506001840154604080518481523360208201526001600160a01b0390921682820152606082018c9052608082018b905260a082018a9052517f5b55842672aaa440d337fd65bb0154c3a00b886297daf13f4f92aea626a9300b9181900360c00190a15050505050505050505050565b600b60205260009081526040902080546001820180549192916120279061381d565b80601f01602080910402602001604051908101604052809291908181526020018280546120539061381d565b80156120a05780601f10612075576101008083540402835291602001916120a0565b820191906000526020600020905b81548152906001019060200180831161208357829003601f168201915b505050600284015460038501805494956001600160a01b039092169491935091506120ca9061381d565b80601f01602080910402602001604051908101604052809291908181526020018280546120f69061381d565b80156121435780601f1061211857610100808354040283529160200191612143565b820191906000526020600020905b81548152906001019060200180831161212657829003601f168201915b50505050600483015460059093015491929160ff16905086565b336000908152600b60205260409020600201546060906001600160a01b031661219957604051632ffe710560e11b815260040160405180910390fd5b33600090815260106020908152604091829020805483518184028101840190945280845290918301828280156121ee57602002820191906000526020600020905b8154815260200190600101908083116121da575b5050505050905090565b6000818152600e6020526040902060078101546201000090046001600160a01b031633146122395760405163d6a0f13160e01b815260040160405180910390fd5b6007810154610100900460ff1661226257604051622a020960e31b815260040160405180910390fd5b600781015460ff161561228857604051638c53d03560e01b815260040160405180910390fd5b60078101805460ff191660011790556000546008820154604051633b594c5960e21b81526001600160a01b039092169163ed653164916122ce9160040190815260200190565b600060405180830381600087803b1580156122e857600080fd5b505af11580156122fc573d6000803e3d6000fd5b5050604080518581523360208201527fb67202e01de5d26f86def24fccaf7364a01b9f5d52d7b122157f5c10907f294f9350019050610f7e565b3360009081526006602052604090206004015460ff1661236957604051630b7e3f9d60e41b815260040160405180910390fd5b60038351101561238c5760405163a8936bf560e01b815260040160405180910390fd5b600082116123ad5760405163608a7e4d60e01b815260040160405180910390fd5b806000036123ce576040516334283a8760e11b815260040160405180910390fd5b33600090815260056020526040908190208054825160c0810190935291806123f784600161380a565b81526020808201889052336040808401829052600091825260068084529082205460608501526080840189905260a090930187905284546001818101875595825290829020845191909302909201918255820151919290919082019061245d90826138a8565b506040828101516002830180546001600160a01b0319166001600160a01b03909216919091179055606083015160038301556080830151600483015560a0909201516005909101555133907fed1ffb8900074c0ed38aa50f58a811976aebd6b5a02c3a17e53b4fc78704c1e9906124d990879087908790613a72565b60405180910390a250505050565b6010602052816000526040600020818154811061250357600080fd5b90600052602060002001600091509150505481565b6005602052816000526040600020818154811061253457600080fd5b90600052602060002090600602016000915091505080600001549080600101805461255e9061381d565b80601f016020809104026020016040519081016040528092919081815260200182805461258a9061381d565b80156125d75780601f106125ac576101008083540402835291602001916125d7565b820191906000526020600020905b8154815290600101906020018083116125ba57829003601f168201915b5050505060028301546003840154600485015460059095015493946001600160a01b039092169390925086565b6001600160a01b038082166000908152600b60209081526040808320868452600e909252909120600281015491929091163314612654576040516382bc9d7960e01b815260040160405180910390fd5b6007810154610100900460ff161561267f5760405163bc177a8960e01b815260040160405180910390fd5b600781015460ff16156126a557604051638c53d03560e01b815260040160405180910390fd5b60078101546201000090046001600160a01b0316156126d757604051630de81ff560e01b815260040160405180910390fd5b80600501543410156126fc5760405163adea324160e01b815260040160405180910390fd5b6007810180546001600160a01b0385166201000002610100600160b01b03199091161761010017905560048201805490600061273783613a43565b9091555050600080546005830154600184015460028501546040516319560bc160e21b81526001600160a01b0392831660048201529082166024820152604481018590529216916365582f04919060640160206040518083038185885af11580156127a6573d6000803e3d6000fd5b50505050506040513d601f19601f820116820180604052508101906127cb9190613a97565b600883018190556001600160a01b03851660008181526010602090815260408083208054600181018255908452928290209092018990558151898152908101929092529192507fa74a28866064b16e695ebbf53f8b0f9aa0bb93885dbbcc373004f1a052cc4248910160405180910390a15050505050565b6000818152600e60205260409020600781015460ff161561287757604051638c53d03560e01b815260040160405180910390fd5b60028101546001600160a01b031633148015906128a7575060078101546201000090046001600160a01b03163314155b156128c557604051633d83866f60e01b815260040160405180910390fd5b600054600882015460405163356f9dfd60e01b81526001600160a01b039092169163356f9dfd916128fc9160040190815260200190565b600060405180830381600087803b15801561291657600080fd5b505af115801561292a573d6000803e3d6000fd5b50505060078201805460ff19166001179055506040517fef59a0001e061d6024146ff061c594fe7dd6cd8036e34925ee279d24840ca50d90610f7e9084815260200190565b600f602052816000526040600020818154811061298b57600080fd5b60009182526020909120600a90910201805460018201546002830154600384015460048501546005860154600687015460078801546008890154600990990154979a506001600160a01b03968716995094861697939692959194909360ff8083169461010084048216946201000090940490931692168c565b6001600160a01b03841660009081526006602052604090206004015460ff161515600103612a455760405163c55c3d0960e01b815260040160405180910390fd5b8160030b600003612a6957604051630f03c5e760e41b815260040160405180910390fd5b8060030b600003612a8d57604051632df428a360e01b815260040160405180910390fd5b60006004546001612a9e919061380a565b6001600160a01b03861660008181526006602052604090208281556001810180546001600160a01b03191690921790915590915060028101612ae086826138a8565b5060048101805460ff19166001908117909155600880548083018255600091909152825460059091027ff3f7a9fe364faab93b216da50a3214154f22a0a2b415b23a84c8169e8b636ee38101918255918301547ff3f7a9fe364faab93b216da50a3214154f22a0a2b415b23a84c8169e8b636ee4830180546001600160a01b0319166001600160a01b0390921691909117905582917ff3f7a9fe364faab93b216da50a3214154f22a0a2b415b23a84c8169e8b636ee501612ba46002840182613968565b5060038281015490820155600491820154908201805460ff909216151560ff199092169190911790556001600160a01b0387166000908152600960205260408120805463ffffffff878116600160201b0267ffffffffffffffff1990921690891617178155825490929091612c1883613a43565b909155505060008381526007602052604090208254815560018084015490820180546001600160a01b0319166001600160a01b039092169190911790558290600280820190612c6990840182613968565b50600382810154908201556004918201549101805460ff191660ff90921615159190911790556040516001600160a01b038816907f168c9bcc539365110d1cb9f13db60e10583c31a292115a6eee4760220e0cce0190612cce90899089908990613ab0565b60405180910390a250505050505050565b60076020526000908152604090208054600182015460028301805492936001600160a01b039092169261198d9061381d565b6001600160a01b03811660009081526003602081905260409091209081015460ff1615612d51576040516305855bbb60e11b815260040160405180910390fd5b600260008154612d6090613a43565b91829055508155600180820180546001600160a01b0319166001600160a01b039490941693909317909255600301805460ff19169091179055565b6001600160a01b0383166000908152600360208190526040909120015460ff16612dd8576040516360f4985360e01b815260040160405180910390fd5b604080518082018252600393840b815291830b60208084019182526001600160a01b03909516600090815293909452909120905160029091018054925163ffffffff908116600160201b0267ffffffffffffffff19909416921691909117919091179055565b6040518060c00160405280600081526020016060815260200160006001600160a01b031681526020016000815260200160008152602001600081525090565b6001600160a01b0385168152602081018490526060604082018190528101829052818360808301376000818301608090810191909152601f909201601f191601019392505050565b80356001600160a01b0381168114612edc57600080fd5b919050565b634e487b7160e01b600052604160045260246000fd5b600082601f830112612f0857600080fd5b813567ffffffffffffffff80821115612f2357612f23612ee1565b604051601f8301601f19908116603f01168101908282118183101715612f4b57612f4b612ee1565b81604052838152866020858801011115612f6457600080fd5b836020870160208301376000602085830101528094505050505092915050565b600080600060608486031215612f9957600080fd5b612fa284612ec5565b9250602084013567ffffffffffffffff80821115612fbf57600080fd5b612fcb87838801612ef7565b93506040860135915080821115612fe157600080fd5b50612fee86828701612ef7565b9150509250925092565b60006020828403121561300a57600080fd5b61301382612ec5565b9392505050565b60006020828403121561302c57600080fd5b5035919050565b6000815180845260005b818110156130595760208185018101518683018201520161303d565b506000602082860101526020601f19601f83011685010191505092915050565b8051825260018060a01b0360208201511660208301526000604082015160a060408501526130aa60a0850182613033565b9050606083015160608501526080830151151560808501528091505092915050565b6020815260006130136020830184613079565b60e0815260006130f260e083018a613033565b602083018990526001600160a01b0388166040840152600387810b606085015286900b608084015282810360a084015261312c8186613033565b91505082151560c083015298975050505050505050565b634e487b7160e01b600052602160045260246000fd5b6004811061317757634e487b7160e01b600052602160045260246000fd5b9052565b8c81526001600160a01b038c811660208301528b81166040830152606082018b9052608082018a905260a0820189905260c0820188905286151560e08301528515156101008301528416610120820152610140810183905261018081016131e6610160830184613159565b9d9c50505050505050505050505050565b600080600080600060a0868803121561320f57600080fd5b85359450602086013567ffffffffffffffff81111561322d57600080fd5b61323988828901612ef7565b94505061324860408701612ec5565b94979396509394606081013594506080013592915050565b805182526000602082015160c0602085015261327f60c0850182613033565b6040848101516001600160a01b031690860152606080850151908601526080808501519086015260a093840151949093019390935250919050565b6020815260006130136020830184613260565b8051825260208101516132eb60208401826001600160a01b03169052565b50604081015161330660408401826001600160a01b03169052565b50606081015160608301526080810151608083015260a081015160a083015260c081015160c083015260e081015161334260e084018215159052565b5061010081810151151590830152610120808201516001600160a01b03169083015261014080820151908301526101608082015161338282850182613159565b50505050565b61018081016115bd82846132cd565b6020808252825182820181905260009190848201906040850190845b818110156133da576133c68385516132cd565b9284019261018092909201916001016133b3565b50909695505050505050565b600080604083850312156133f957600080fd5b61340283612ec5565b946020939093013593505050565b600060208083018184528085518083526040925060408601915060408160051b87010184880160005b838110156134c157603f19898403018552815160c08151855288820151818a87015261346782870182613033565b838a01516001600160a01b0316878b0152606080850151888303828a015291935091506134948382613033565b6080858101519089015260a094850151151594909701939093525050509386019390860190600101613439565b509098975050505050505050565b600060208083016020845280855180835260408601915060408160051b87010192506020870160005b8281101561352657603f19888603018452613514858351613260565b945092850192908501906001016134f8565b5092979650505050505050565b8581526001600160a01b038516602082015260a06040820181905260009061355d90830186613033565b6060830194909452509015156080909101529392505050565b600060208083016020845280855180835260408601915060408160051b87010192506020870160005b8281101561352657603f198886030184526135bb858351613079565b9450928501929085019060010161359f565b8035600381900b8114612edc57600080fd5b60008060008060008060c087890312156135f857600080fd5b8635955060208701359450604087013593506060870135925061361d608088016135cd565b915061362b60a088016135cd565b90509295509295509295565b86815260c06020820152600061365060c0830188613033565b6001600160a01b038716604084015282810360608401526136718187613033565b6080840195909552505090151560a090910152949350505050565b6020808252825182820181905260009190848201906040850190845b818110156133da578351835292840192918401916001016136a8565b6000806000606084860312156136d957600080fd5b833567ffffffffffffffff8111156136f057600080fd5b6136fc86828701612ef7565b9660208601359650604090950135949350505050565b86815260c06020820152600061372b60c0830188613033565b6001600160a01b03969096166040830152506060810193909352608083019190915260a09091015292915050565b6000806040838503121561376c57600080fd5b8235915061377c60208401612ec5565b90509250929050565b6000806000806080858703121561379b57600080fd5b6137a485612ec5565b9350602085013567ffffffffffffffff8111156137c057600080fd5b6137cc87828801612ef7565b9350506137db604086016135cd565b91506137e9606086016135cd565b905092959194509250565b634e487b7160e01b600052601160045260246000fd5b808201808211156115bd576115bd6137f4565b600181811c9082168061383157607f821691505b60208210810361385157634e487b7160e01b600052602260045260246000fd5b50919050565b601f8211156138a3576000816000526020600020601f850160051c810160208610156138805750805b601f850160051c820191505b8181101561389f5782815560010161388c565b5050505b505050565b815167ffffffffffffffff8111156138c2576138c2612ee1565b6138d6816138d0845461381d565b84613857565b602080601f83116001811461390b57600084156138f35750858301515b600019600386901b1c1916600185901b17855561389f565b600085815260208120601f198616915b8281101561393a5788860151825594840194600190910190840161391b565b50858210156139585787850151600019600388901b60f8161c191681555b5050505050600190811b01905550565b818103613973575050565b61397d825461381d565b67ffffffffffffffff81111561399557613995612ee1565b6139a3816138d0845461381d565b6000601f8211600181146139d757600083156139bf5750848201545b600019600385901b1c1916600184901b178455613a3c565b600085815260209020601f19841690600086815260209020845b83811015613a1157828601548255600195860195909101906020016139f1565b5085831015613a2f5781850154600019600388901b60f8161c191681555b50505060018360011b0184555b5050505050565b600060018201613a5557613a556137f4565b5060010190565b634e487b7160e01b600052603260045260246000fd5b606081526000613a856060830186613033565b60208301949094525060400152919050565b600060208284031215613aa957600080fd5b5051919050565b606081526000613ac36060830186613033565b600394850b60208401529290930b6040909101529291505056fea26469706673582212202b38b002e0dccd66243af1cd5754a623add22f3caff47d63f0166b81247f6c3164736f6c63430008180033",
          "opcodes": "PUSH1 0x80 PUSH1 0x40 MSTORE CALLVALUE DUP1 ISZERO PUSH3 0x11 JUMPI PUSH1 0x0 DUP1 REVERT JUMPDEST POP PUSH1 0x40 MLOAD PUSH3 0x3BB8 CODESIZE SUB DUP1 PUSH3 0x3BB8 DUP4 CODECOPY DUP2 ADD PUSH1 0x40 DUP2 SWAP1 MSTORE PUSH3 0x34 SWAP2 PUSH3 0x63 JUMP JUMPDEST PUSH1 0x0 DUP1 SLOAD PUSH1 0x1 PUSH1 0x1 PUSH1 0xA0 SHL SUB SWAP1 SWAP3 AND PUSH1 0x1 PUSH1 0x1 PUSH1 0xA0 SHL SUB NOT SWAP3 DUP4 AND OR SWAP1 SSTORE PUSH1 0x1 DUP1 SLOAD SWAP1 SWAP2 AND CALLER OR SWAP1 SSTORE PUSH3 0x95 JUMP JUMPDEST PUSH1 0x0 PUSH1 0x20 DUP3 DUP5 SUB SLT ISZERO PUSH3 0x76 JUMPI PUSH1 0x0 DUP1 REVERT JUMPDEST DUP2 MLOAD PUSH1 0x1 PUSH1 0x1 PUSH1 0xA0 SHL SUB DUP2 AND DUP2 EQ PUSH3 0x8E JUMPI PUSH1 0x0 DUP1 REVERT JUMPDEST SWAP4 SWAP3 POP POP POP JUMP JUMPDEST PUSH2 0x3B13 DUP1 PUSH3 0xA5 PUSH1 0x0 CODECOPY PUSH1 0x0 RETURN INVALID PUSH1 0x80 PUSH1 0x40 MSTORE PUSH1 0x4 CALLDATASIZE LT PUSH2 0x1E7 JUMPI PUSH1 0x0 CALLDATALOAD PUSH1 0xE0 SHR DUP1 PUSH4 0x7A7BD4C2 GT PUSH2 0x102 JUMPI DUP1 PUSH4 0xB570A8F5 GT PUSH2 0x95 JUMPI DUP1 PUSH4 0xEB73836A GT PUSH2 0x64 JUMPI DUP1 PUSH4 0xEB73836A EQ PUSH2 0x7A5 JUMPI DUP1 PUSH4 0xECEC10D4 EQ PUSH2 0x7C5 JUMPI DUP1 PUSH4 0xF6556C2A EQ PUSH2 0x7E5 JUMPI DUP1 PUSH4 0xFDC57004 EQ PUSH2 0x805 JUMPI PUSH2 0x227 JUMP JUMPDEST DUP1 PUSH4 0xB570A8F5 EQ PUSH2 0x708 JUMPI DUP1 PUSH4 0xC3450083 EQ PUSH2 0x728 JUMPI DUP1 PUSH4 0xDABA858A EQ PUSH2 0x75A JUMPI DUP1 PUSH4 0xE42A96E7 EQ PUSH2 0x76D JUMPI PUSH2 0x227 JUMP JUMPDEST DUP1 PUSH4 0x9BE32E85 GT PUSH2 0xD1 JUMPI DUP1 PUSH4 0x9BE32E85 EQ PUSH2 0x602 JUMPI DUP1 PUSH4 0xA6B2C437 EQ PUSH2 0x624 JUMPI DUP1 PUSH4 0xA7FD1DBD EQ PUSH2 0x637 JUMPI DUP1 PUSH4 0xA87430BA EQ PUSH2 0x657 JUMPI PUSH2 0x227 JUMP JUMPDEST DUP1 PUSH4 0x7A7BD4C2 EQ PUSH2 0x578 JUMPI DUP1 PUSH4 0x8425F48F EQ PUSH2 0x59A JUMPI DUP1 PUSH4 0x9593B523 EQ PUSH2 0x5BA JUMPI DUP1 PUSH4 0x98B195D1 EQ PUSH2 0x5EC JUMPI PUSH2 0x227 JUMP JUMPDEST DUP1 PUSH4 0x55490901 GT PUSH2 0x17A JUMPI DUP1 PUSH4 0x753CC977 GT PUSH2 0x149 JUMPI DUP1 PUSH4 0x753CC977 EQ PUSH2 0x4CD JUMPI DUP1 PUSH4 0x768B3F67 EQ PUSH2 0x4ED JUMPI DUP1 PUSH4 0x77ACAB57 EQ PUSH2 0x51A JUMPI DUP1 PUSH4 0x7A3A9CBD EQ PUSH2 0x547 JUMPI PUSH2 0x227 JUMP JUMPDEST DUP1 PUSH4 0x55490901 EQ PUSH2 0x431 JUMPI DUP1 PUSH4 0x5959AE7B EQ PUSH2 0x451 JUMPI DUP1 PUSH4 0x5CCDD426 EQ PUSH2 0x47E JUMPI DUP1 PUSH4 0x6EEBC5F3 EQ PUSH2 0x4AB JUMPI PUSH2 0x227 JUMP JUMPDEST DUP1 PUSH4 0x27820851 GT PUSH2 0x1B6 JUMPI DUP1 PUSH4 0x27820851 EQ PUSH2 0x31C JUMPI DUP1 PUSH4 0x3D0A3145 EQ PUSH2 0x34F JUMPI DUP1 PUSH4 0x48175E42 EQ PUSH2 0x373 JUMPI DUP1 PUSH4 0x51DC0121 EQ PUSH2 0x389 JUMPI PUSH2 0x227 JUMP JUMPDEST DUP1 PUSH4 0x1F1D458 EQ PUSH2 0x25D JUMPI DUP1 PUSH4 0xDE6C71F EQ PUSH2 0x27F JUMPI DUP1 PUSH4 0x1E8D6BCF EQ PUSH2 0x2DA JUMPI DUP1 PUSH4 0x24600FC3 EQ PUSH2 0x307 JUMPI PUSH2 0x227 JUMP JUMPDEST CALLDATASIZE PUSH2 0x227 JUMPI PUSH1 0x40 DUP1 MLOAD CALLER DUP2 MSTORE CALLVALUE PUSH1 0x20 DUP3 ADD MSTORE PUSH32 0x98C44CD71A4F8250380570AAF8BF1F0FD2A19BC3428A18A782E9E4D6C1928B13 SWAP2 ADD JUMPDEST PUSH1 0x40 MLOAD DUP1 SWAP2 SUB SWAP1 LOG1 STOP JUMPDEST PUSH32 0x20B9B3489992921B2007700AA9859D96F2E511D719C19C44FBF72BECB1E356D9 CALLER CALLVALUE PUSH1 0x0 CALLDATASIZE PUSH1 0x40 MLOAD PUSH2 0x21D SWAP5 SWAP4 SWAP3 SWAP2 SWAP1 PUSH2 0x2E7D JUMP JUMPDEST CALLVALUE DUP1 ISZERO PUSH2 0x269 JUMPI PUSH1 0x0 DUP1 REVERT JUMPDEST POP PUSH2 0x27D PUSH2 0x278 CALLDATASIZE PUSH1 0x4 PUSH2 0x2F84 JUMP JUMPDEST PUSH2 0x825 JUMP JUMPDEST STOP JUMPDEST CALLVALUE DUP1 ISZERO PUSH2 0x28B JUMPI PUSH1 0x0 DUP1 REVERT JUMPDEST POP PUSH2 0x2BB PUSH2 0x29A CALLDATASIZE PUSH1 0x4 PUSH2 0x2FF8 JUMP JUMPDEST PUSH1 0x9 PUSH1 0x20 MSTORE PUSH1 0x0 SWAP1 DUP2 MSTORE PUSH1 0x40 SWAP1 KECCAK256 SLOAD PUSH1 0x3 DUP2 DUP2 SIGNEXTEND SWAP2 PUSH1 0x1 PUSH1 0x20 SHL SWAP1 DIV SWAP1 SIGNEXTEND DUP3 JUMP JUMPDEST PUSH1 0x40 DUP1 MLOAD PUSH1 0x3 SWAP4 DUP5 SIGNEXTEND DUP2 MSTORE SWAP2 SWAP1 SWAP3 SIGNEXTEND PUSH1 0x20 DUP3 ADD MSTORE ADD JUMPDEST PUSH1 0x40 MLOAD DUP1 SWAP2 SUB SWAP1 RETURN JUMPDEST CALLVALUE DUP1 ISZERO PUSH2 0x2E6 JUMPI PUSH1 0x0 DUP1 REVERT JUMPDEST POP PUSH2 0x2FA PUSH2 0x2F5 CALLDATASIZE PUSH1 0x4 PUSH2 0x301A JUMP JUMPDEST PUSH2 0x9D4 JUMP JUMPDEST PUSH1 0x40 MLOAD PUSH2 0x2D1 SWAP2 SWAP1 PUSH2 0x30CC JUMP JUMPDEST CALLVALUE DUP1 ISZERO PUSH2 0x313 JUMPI PUSH1 0x0 DUP1 REVERT JUMPDEST POP PUSH2 0x27D PUSH2 0xAFD JUMP JUMPDEST CALLVALUE DUP1 ISZERO PUSH2 0x328 JUMPI PUSH1 0x0 DUP1 REVERT JUMPDEST POP PUSH2 0x33C PUSH2 0x337 CALLDATASIZE PUSH1 0x4 PUSH2 0x2FF8 JUMP JUMPDEST PUSH2 0xC0D JUMP JUMPDEST PUSH1 0x40 MLOAD PUSH2 0x2D1 SWAP8 SWAP7 SWAP6 SWAP5 SWAP4 SWAP3 SWAP2 SWAP1 PUSH2 0x30DF JUMP JUMPDEST CALLVALUE DUP1 ISZERO PUSH2 0x35B JUMPI PUSH1 0x0 DUP1 REVERT JUMPDEST POP PUSH2 0x365 PUSH1 0xD SLOAD DUP2 JUMP JUMPDEST PUSH1 0x40 MLOAD SWAP1 DUP2 MSTORE PUSH1 0x20 ADD PUSH2 0x2D1 JUMP JUMPDEST CALLVALUE DUP1 ISZERO PUSH2 0x37F JUMPI PUSH1 0x0 DUP1 REVERT JUMPDEST POP PUSH2 0x365 PUSH1 0x4 SLOAD DUP2 JUMP JUMPDEST CALLVALUE DUP1 ISZERO PUSH2 0x395 JUMPI PUSH1 0x0 DUP1 REVERT JUMPDEST POP PUSH2 0x419 PUSH2 0x3A4 CALLDATASIZE PUSH1 0x4 PUSH2 0x301A JUMP JUMPDEST PUSH1 0xE PUSH1 0x20 MSTORE PUSH1 0x0 SWAP1 DUP2 MSTORE PUSH1 0x40 SWAP1 KECCAK256 DUP1 SLOAD PUSH1 0x1 DUP3 ADD SLOAD PUSH1 0x2 DUP4 ADD SLOAD PUSH1 0x3 DUP5 ADD SLOAD PUSH1 0x4 DUP6 ADD SLOAD PUSH1 0x5 DUP7 ADD SLOAD PUSH1 0x6 DUP8 ADD SLOAD PUSH1 0x7 DUP9 ADD SLOAD PUSH1 0x8 DUP10 ADD SLOAD PUSH1 0x9 SWAP1 SWAP10 ADD SLOAD SWAP8 SWAP9 PUSH1 0x1 PUSH1 0x1 PUSH1 0xA0 SHL SUB SWAP8 DUP9 AND SWAP9 SWAP7 DUP9 AND SWAP8 SWAP6 SWAP7 SWAP5 SWAP6 SWAP4 SWAP5 SWAP3 SWAP4 PUSH1 0xFF DUP1 DUP5 AND SWAP5 PUSH2 0x100 DUP6 DIV DUP3 AND SWAP5 PUSH3 0x10000 SWAP1 DIV SWAP1 SWAP3 AND SWAP3 SWAP2 AND DUP13 JUMP JUMPDEST PUSH1 0x40 MLOAD PUSH2 0x2D1 SWAP13 SWAP12 SWAP11 SWAP10 SWAP9 SWAP8 SWAP7 SWAP6 SWAP5 SWAP4 SWAP3 SWAP2 SWAP1 PUSH2 0x317B JUMP JUMPDEST CALLVALUE DUP1 ISZERO PUSH2 0x43D JUMPI PUSH1 0x0 DUP1 REVERT JUMPDEST POP PUSH2 0x27D PUSH2 0x44C CALLDATASIZE PUSH1 0x4 PUSH2 0x301A JUMP JUMPDEST PUSH2 0xE95 JUMP JUMPDEST CALLVALUE DUP1 ISZERO PUSH2 0x45D JUMPI PUSH1 0x0 DUP1 REVERT JUMPDEST POP PUSH2 0x471 PUSH2 0x46C CALLDATASIZE PUSH1 0x4 PUSH2 0x31F7 JUMP JUMPDEST PUSH2 0xF8A JUMP JUMPDEST PUSH1 0x40 MLOAD PUSH2 0x2D1 SWAP2 SWAP1 PUSH2 0x32BA JUMP JUMPDEST CALLVALUE DUP1 ISZERO PUSH2 0x48A JUMPI PUSH1 0x0 DUP1 REVERT JUMPDEST POP PUSH2 0x49E PUSH2 0x499 CALLDATASIZE PUSH1 0x4 PUSH2 0x301A JUMP JUMPDEST PUSH2 0x116A JUMP JUMPDEST PUSH1 0x40 MLOAD PUSH2 0x2D1 SWAP2 SWAP1 PUSH2 0x3388 JUMP JUMPDEST CALLVALUE DUP1 ISZERO PUSH2 0x4B7 JUMPI PUSH1 0x0 DUP1 REVERT JUMPDEST POP PUSH2 0x4C0 PUSH2 0x12DC JUMP JUMPDEST PUSH1 0x40 MLOAD PUSH2 0x2D1 SWAP2 SWAP1 PUSH2 0x3397 JUMP JUMPDEST CALLVALUE DUP1 ISZERO PUSH2 0x4D9 JUMPI PUSH1 0x0 DUP1 REVERT JUMPDEST POP PUSH2 0x471 PUSH2 0x4E8 CALLDATASIZE PUSH1 0x4 PUSH2 0x33E6 JUMP JUMPDEST PUSH2 0x1409 JUMP JUMPDEST CALLVALUE DUP1 ISZERO PUSH2 0x4F9 JUMPI PUSH1 0x0 DUP1 REVERT JUMPDEST POP PUSH2 0x50D PUSH2 0x508 CALLDATASIZE PUSH1 0x4 PUSH2 0x2FF8 JUMP JUMPDEST PUSH2 0x15C3 JUMP JUMPDEST PUSH1 0x40 MLOAD PUSH2 0x2D1 SWAP2 SWAP1 PUSH2 0x3410 JUMP JUMPDEST CALLVALUE DUP1 ISZERO PUSH2 0x526 JUMPI PUSH1 0x0 DUP1 REVERT JUMPDEST POP PUSH2 0x53A PUSH2 0x535 CALLDATASIZE PUSH1 0x4 PUSH2 0x301A JUMP JUMPDEST PUSH2 0x17D6 JUMP JUMPDEST PUSH1 0x40 MLOAD PUSH2 0x2D1 SWAP2 SWAP1 PUSH2 0x34CF JUMP JUMPDEST CALLVALUE DUP1 ISZERO PUSH2 0x553 JUMPI PUSH1 0x0 DUP1 REVERT JUMPDEST POP PUSH2 0x567 PUSH2 0x562 CALLDATASIZE PUSH1 0x4 PUSH2 0x2FF8 JUMP JUMPDEST PUSH2 0x195B JUMP JUMPDEST PUSH1 0x40 MLOAD PUSH2 0x2D1 SWAP6 SWAP5 SWAP4 SWAP3 SWAP2 SWAP1 PUSH2 0x3533 JUMP JUMPDEST CALLVALUE DUP1 ISZERO PUSH2 0x584 JUMPI PUSH1 0x0 DUP1 REVERT JUMPDEST POP PUSH2 0x58D PUSH2 0x1A20 JUMP JUMPDEST PUSH1 0x40 MLOAD PUSH2 0x2D1 SWAP2 SWAP1 PUSH2 0x3576 JUMP JUMPDEST CALLVALUE DUP1 ISZERO PUSH2 0x5A6 JUMPI PUSH1 0x0 DUP1 REVERT JUMPDEST POP PUSH2 0x27D PUSH2 0x5B5 CALLDATASIZE PUSH1 0x4 PUSH2 0x35DF JUMP JUMPDEST PUSH2 0x1B47 JUMP JUMPDEST CALLVALUE DUP1 ISZERO PUSH2 0x5C6 JUMPI PUSH1 0x0 DUP1 REVERT JUMPDEST POP PUSH2 0x5DA PUSH2 0x5D5 CALLDATASIZE PUSH1 0x4 PUSH2 0x2FF8 JUMP JUMPDEST PUSH2 0x2005 JUMP JUMPDEST PUSH1 0x40 MLOAD PUSH2 0x2D1 SWAP7 SWAP6 SWAP5 SWAP4 SWAP3 SWAP2 SWAP1 PUSH2 0x3637 JUMP JUMPDEST CALLVALUE DUP1 ISZERO PUSH2 0x5F8 JUMPI PUSH1 0x0 DUP1 REVERT JUMPDEST POP PUSH2 0x365 PUSH1 0xA SLOAD DUP2 JUMP JUMPDEST CALLVALUE DUP1 ISZERO PUSH2 0x60E JUMPI PUSH1 0x0 DUP1 REVERT JUMPDEST POP PUSH2 0x617 PUSH2 0x215D JUMP JUMPDEST PUSH1 0x40 MLOAD PUSH2 0x2D1 SWAP2 SWAP1 PUSH2 0x368C JUMP JUMPDEST PUSH2 0x27D PUSH2 0x632 CALLDATASIZE PUSH1 0x4 PUSH2 0x301A JUMP JUMPDEST PUSH2 0x21F8 JUMP JUMPDEST CALLVALUE DUP1 ISZERO PUSH2 0x643 JUMPI PUSH1 0x0 DUP1 REVERT JUMPDEST POP PUSH2 0x27D PUSH2 0x652 CALLDATASIZE PUSH1 0x4 PUSH2 0x36C4 JUMP JUMPDEST PUSH2 0x2336 JUMP JUMPDEST CALLVALUE DUP1 ISZERO PUSH2 0x663 JUMPI PUSH1 0x0 DUP1 REVERT JUMPDEST POP PUSH2 0x6C4 PUSH2 0x672 CALLDATASIZE PUSH1 0x4 PUSH2 0x2FF8 JUMP JUMPDEST PUSH1 0x3 PUSH1 0x20 DUP2 DUP2 MSTORE PUSH1 0x0 SWAP3 DUP4 MSTORE PUSH1 0x40 SWAP3 DUP4 SWAP1 KECCAK256 DUP1 SLOAD PUSH1 0x1 DUP3 ADD SLOAD DUP6 MLOAD DUP1 DUP8 ADD SWAP1 SWAP7 MSTORE PUSH1 0x2 DUP4 ADD SLOAD DUP1 DUP7 SIGNEXTEND DUP8 MSTORE PUSH1 0x1 PUSH1 0x20 SHL SWAP1 DIV DUP6 SIGNEXTEND SWAP4 DUP7 ADD SWAP4 SWAP1 SWAP4 MSTORE SWAP3 ADD SLOAD SWAP2 SWAP3 PUSH1 0x1 PUSH1 0x1 PUSH1 0xA0 SHL SUB SWAP1 SWAP2 AND SWAP2 PUSH1 0xFF AND DUP5 JUMP JUMPDEST PUSH1 0x40 DUP1 MLOAD SWAP5 DUP6 MSTORE PUSH1 0x1 PUSH1 0x1 PUSH1 0xA0 SHL SUB SWAP1 SWAP4 AND PUSH1 0x20 DUP1 DUP7 ADD SWAP2 SWAP1 SWAP2 MSTORE DUP3 MLOAD PUSH1 0x3 SWAP1 DUP2 SIGNEXTEND SWAP5 DUP7 ADD SWAP5 SWAP1 SWAP5 MSTORE SWAP1 SWAP2 ADD MLOAD SWAP1 SWAP2 SIGNEXTEND PUSH1 0x60 DUP4 ADD MSTORE ISZERO ISZERO PUSH1 0x80 DUP3 ADD MSTORE PUSH1 0xA0 ADD PUSH2 0x2D1 JUMP JUMPDEST CALLVALUE DUP1 ISZERO PUSH2 0x714 JUMPI PUSH1 0x0 DUP1 REVERT JUMPDEST POP PUSH2 0x365 PUSH2 0x723 CALLDATASIZE PUSH1 0x4 PUSH2 0x33E6 JUMP JUMPDEST PUSH2 0x24E7 JUMP JUMPDEST CALLVALUE DUP1 ISZERO PUSH2 0x734 JUMPI PUSH1 0x0 DUP1 REVERT JUMPDEST POP PUSH2 0x748 PUSH2 0x743 CALLDATASIZE PUSH1 0x4 PUSH2 0x33E6 JUMP JUMPDEST PUSH2 0x2518 JUMP JUMPDEST PUSH1 0x40 MLOAD PUSH2 0x2D1 SWAP7 SWAP6 SWAP5 SWAP4 SWAP3 SWAP2 SWAP1 PUSH2 0x3712 JUMP JUMPDEST PUSH2 0x27D PUSH2 0x768 CALLDATASIZE PUSH1 0x4 PUSH2 0x3759 JUMP JUMPDEST PUSH2 0x2604 JUMP JUMPDEST CALLVALUE DUP1 ISZERO PUSH2 0x779 JUMPI PUSH1 0x0 DUP1 REVERT JUMPDEST POP PUSH1 0x0 SLOAD PUSH2 0x78D SWAP1 PUSH1 0x1 PUSH1 0x1 PUSH1 0xA0 SHL SUB AND DUP2 JUMP JUMPDEST PUSH1 0x40 MLOAD PUSH1 0x1 PUSH1 0x1 PUSH1 0xA0 SHL SUB SWAP1 SWAP2 AND DUP2 MSTORE PUSH1 0x20 ADD PUSH2 0x2D1 JUMP JUMPDEST CALLVALUE DUP1 ISZERO PUSH2 0x7B1 JUMPI PUSH1 0x0 DUP1 REVERT JUMPDEST POP PUSH2 0x27D PUSH2 0x7C0 CALLDATASIZE PUSH1 0x4 PUSH2 0x301A JUMP JUMPDEST PUSH2 0x2843 JUMP JUMPDEST CALLVALUE DUP1 ISZERO PUSH2 0x7D1 JUMPI PUSH1 0x0 DUP1 REVERT JUMPDEST POP PUSH2 0x419 PUSH2 0x7E0 CALLDATASIZE PUSH1 0x4 PUSH2 0x33E6 JUMP JUMPDEST PUSH2 0x296F JUMP JUMPDEST CALLVALUE DUP1 ISZERO PUSH2 0x7F1 JUMPI PUSH1 0x0 DUP1 REVERT JUMPDEST POP PUSH2 0x27D PUSH2 0x800 CALLDATASIZE PUSH1 0x4 PUSH2 0x3785 JUMP JUMPDEST PUSH2 0x2A04 JUMP JUMPDEST CALLVALUE DUP1 ISZERO PUSH2 0x811 JUMPI PUSH1 0x0 DUP1 REVERT JUMPDEST POP PUSH2 0x567 PUSH2 0x820 CALLDATASIZE PUSH1 0x4 PUSH2 0x301A JUMP JUMPDEST PUSH2 0x2CDF JUMP JUMPDEST CALLER PUSH1 0x0 DUP2 DUP2 MSTORE PUSH1 0x6 PUSH1 0x20 MSTORE PUSH1 0x40 SWAP1 KECCAK256 PUSH1 0x1 DUP2 ADD SLOAD SWAP1 SWAP2 PUSH1 0x1 PUSH1 0x1 PUSH1 0xA0 SHL SUB SWAP1 SWAP2 AND EQ PUSH2 0x864 JUMPI PUSH1 0x40 MLOAD PUSH4 0x3D83866F PUSH1 0xE0 SHL DUP2 MSTORE PUSH1 0x4 ADD PUSH1 0x40 MLOAD DUP1 SWAP2 SUB SWAP1 REVERT JUMPDEST PUSH1 0x1 PUSH1 0x1 PUSH1 0xA0 SHL SUB DUP5 AND PUSH1 0x0 SWAP1 DUP2 MSTORE PUSH1 0xB PUSH1 0x20 MSTORE PUSH1 0x40 SWAP1 KECCAK256 SLOAD ISZERO PUSH2 0x89B JUMPI PUSH1 0x40 MLOAD PUSH4 0xA9E0611B PUSH1 0xE0 SHL DUP2 MSTORE PUSH1 0x4 ADD PUSH1 0x40 MLOAD DUP1 SWAP2 SUB SWAP1 REVERT JUMPDEST PUSH1 0x0 PUSH1 0xA SLOAD PUSH1 0x1 PUSH2 0x8AC SWAP2 SWAP1 PUSH2 0x380A JUMP JUMPDEST PUSH1 0x1 PUSH1 0x1 PUSH1 0xA0 SHL SUB DUP7 AND PUSH1 0x0 SWAP1 DUP2 MSTORE PUSH1 0xB PUSH1 0x20 MSTORE PUSH1 0x40 SWAP1 KECCAK256 DUP2 DUP2 SSTORE SWAP1 SWAP2 POP PUSH1 0x1 DUP2 ADD PUSH2 0x8D8 DUP7 DUP3 PUSH2 0x38A8 JUMP JUMPDEST POP PUSH1 0x2 DUP2 ADD DUP1 SLOAD PUSH1 0x1 PUSH1 0x1 PUSH1 0xA0 SHL SUB NOT AND PUSH1 0x1 PUSH1 0x1 PUSH1 0xA0 SHL SUB DUP9 AND OR SWAP1 SSTORE PUSH1 0x3 DUP2 ADD PUSH2 0x904 DUP6 DUP3 PUSH2 0x38A8 JUMP JUMPDEST POP PUSH1 0x0 PUSH1 0x4 DUP3 ADD DUP2 SWAP1 SSTORE PUSH1 0x5 DUP3 ADD DUP1 SLOAD PUSH1 0xFF NOT AND PUSH1 0x1 SWAP1 DUP2 OR SWAP1 SWAP2 SSTORE CALLER DUP3 MSTORE PUSH1 0xC PUSH1 0x20 SWAP1 DUP2 MSTORE PUSH1 0x40 DUP4 KECCAK256 DUP1 SLOAD DUP1 DUP5 ADD DUP3 SSTORE SWAP1 DUP5 MSTORE SWAP3 KECCAK256 DUP4 SLOAD PUSH1 0x6 SWAP1 SWAP4 MUL ADD SWAP2 DUP3 SSTORE DUP3 SWAP2 SWAP1 DUP2 DUP2 ADD SWAP1 PUSH2 0x958 SWAP1 DUP5 ADD DUP3 PUSH2 0x3968 JUMP JUMPDEST POP PUSH1 0x2 DUP3 DUP2 ADD SLOAD SWAP1 DUP3 ADD DUP1 SLOAD PUSH1 0x1 PUSH1 0x1 PUSH1 0xA0 SHL SUB NOT AND PUSH1 0x1 PUSH1 0x1 PUSH1 0xA0 SHL SUB SWAP1 SWAP3 AND SWAP2 SWAP1 SWAP2 OR SWAP1 SSTORE PUSH1 0x3 DUP1 DUP3 ADD SWAP1 PUSH2 0x991 SWAP1 DUP5 ADD DUP3 PUSH2 0x3968 JUMP JUMPDEST POP PUSH1 0x4 DUP3 DUP2 ADD SLOAD SWAP1 DUP3 ADD SSTORE PUSH1 0x5 SWAP2 DUP3 ADD SLOAD SWAP2 ADD DUP1 SLOAD PUSH1 0xFF NOT AND PUSH1 0xFF SWAP1 SWAP3 AND ISZERO ISZERO SWAP2 SWAP1 SWAP2 OR SWAP1 SSTORE PUSH1 0xA DUP1 SLOAD SWAP1 PUSH1 0x0 PUSH2 0x9C7 DUP4 PUSH2 0x3A43 JUMP JUMPDEST SWAP2 SWAP1 POP SSTORE POP POP POP POP POP POP POP JUMP JUMPDEST PUSH2 0xA11 PUSH1 0x40 MLOAD DUP1 PUSH1 0xA0 ADD PUSH1 0x40 MSTORE DUP1 PUSH1 0x0 DUP2 MSTORE PUSH1 0x20 ADD PUSH1 0x0 PUSH1 0x1 PUSH1 0x1 PUSH1 0xA0 SHL SUB AND DUP2 MSTORE PUSH1 0x20 ADD PUSH1 0x60 DUP2 MSTORE PUSH1 0x20 ADD PUSH1 0x0 DUP2 MSTORE PUSH1 0x20 ADD PUSH1 0x0 ISZERO ISZERO DUP2 MSTORE POP SWAP1 JUMP JUMPDEST PUSH1 0x0 DUP3 DUP2 MSTORE PUSH1 0x7 PUSH1 0x20 SWAP1 DUP2 MSTORE PUSH1 0x40 SWAP2 DUP3 SWAP1 KECCAK256 DUP3 MLOAD PUSH1 0xA0 DUP2 ADD DUP5 MSTORE DUP2 SLOAD DUP2 MSTORE PUSH1 0x1 DUP3 ADD SLOAD PUSH1 0x1 PUSH1 0x1 PUSH1 0xA0 SHL SUB AND SWAP3 DUP2 ADD SWAP3 SWAP1 SWAP3 MSTORE PUSH1 0x2 DUP2 ADD DUP1 SLOAD SWAP3 SWAP4 SWAP2 SWAP3 SWAP2 DUP5 ADD SWAP2 PUSH2 0xA5B SWAP1 PUSH2 0x381D JUMP JUMPDEST DUP1 PUSH1 0x1F ADD PUSH1 0x20 DUP1 SWAP2 DIV MUL PUSH1 0x20 ADD PUSH1 0x40 MLOAD SWAP1 DUP2 ADD PUSH1 0x40 MSTORE DUP1 SWAP3 SWAP2 SWAP1 DUP2 DUP2 MSTORE PUSH1 0x20 ADD DUP3 DUP1 SLOAD PUSH2 0xA87 SWAP1 PUSH2 0x381D JUMP JUMPDEST DUP1 ISZERO PUSH2 0xAD4 JUMPI DUP1 PUSH1 0x1F LT PUSH2 0xAA9 JUMPI PUSH2 0x100 DUP1 DUP4 SLOAD DIV MUL DUP4 MSTORE SWAP2 PUSH1 0x20 ADD SWAP2 PUSH2 0xAD4 JUMP JUMPDEST DUP3 ADD SWAP2 SWAP1 PUSH1 0x0 MSTORE PUSH1 0x20 PUSH1 0x0 KECCAK256 SWAP1 JUMPDEST DUP2 SLOAD DUP2 MSTORE SWAP1 PUSH1 0x1 ADD SWAP1 PUSH1 0x20 ADD DUP1 DUP4 GT PUSH2 0xAB7 JUMPI DUP3 SWAP1 SUB PUSH1 0x1F AND DUP3 ADD SWAP2 JUMPDEST POP POP POP SWAP2 DUP4 MSTORE POP POP PUSH1 0x3 DUP3 ADD SLOAD PUSH1 0x20 DUP3 ADD MSTORE PUSH1 0x4 SWAP1 SWAP2 ADD SLOAD PUSH1 0xFF AND ISZERO ISZERO PUSH1 0x40 SWAP1 SWAP2 ADD MSTORE SWAP3 SWAP2 POP POP JUMP JUMPDEST PUSH1 0x1 SLOAD PUSH1 0x1 PUSH1 0x1 PUSH1 0xA0 SHL SUB AND CALLER EQ PUSH2 0xB4B JUMPI PUSH1 0x40 MLOAD PUSH3 0x461BCD PUSH1 0xE5 SHL DUP2 MSTORE PUSH1 0x20 PUSH1 0x4 DUP3 ADD MSTORE PUSH1 0xC PUSH1 0x24 DUP3 ADD MSTORE PUSH12 0x155B985D5D1A1BDC9A5E9959 PUSH1 0xA2 SHL PUSH1 0x44 DUP3 ADD MSTORE PUSH1 0x64 ADD JUMPDEST PUSH1 0x40 MLOAD DUP1 SWAP2 SUB SWAP1 REVERT JUMPDEST SELFBALANCE PUSH1 0x0 DUP2 SWAP1 SUB PUSH2 0xBA7 JUMPI PUSH1 0x40 MLOAD PUSH3 0x461BCD PUSH1 0xE5 SHL DUP2 MSTORE PUSH1 0x20 PUSH1 0x4 DUP3 ADD MSTORE PUSH1 0x21 PUSH1 0x24 DUP3 ADD MSTORE PUSH32 0x4E6F2066756E647320617661696C61626C6520666F7220776974686472617761 PUSH1 0x44 DUP3 ADD MSTORE PUSH1 0x1B PUSH1 0xFA SHL PUSH1 0x64 DUP3 ADD MSTORE PUSH1 0x84 ADD PUSH2 0xB42 JUMP JUMPDEST PUSH1 0x40 MLOAD CALLER SWAP1 DUP3 ISZERO PUSH2 0x8FC MUL SWAP1 DUP4 SWAP1 PUSH1 0x0 DUP2 DUP2 DUP2 DUP6 DUP9 DUP9 CALL SWAP4 POP POP POP POP ISZERO DUP1 ISZERO PUSH2 0xBD4 JUMPI RETURNDATASIZE PUSH1 0x0 DUP1 RETURNDATACOPY RETURNDATASIZE PUSH1 0x0 REVERT JUMPDEST POP PUSH1 0x40 MLOAD DUP2 DUP2 MSTORE CALLER SWAP1 PUSH32 0xEAFF4B37086828766AD3268786972C0CD24259D4C87A80F9D3963A3C3D999B0D SWAP1 PUSH1 0x20 ADD PUSH1 0x40 MLOAD DUP1 SWAP2 SUB SWAP1 LOG2 POP JUMP JUMPDEST PUSH1 0x1 PUSH1 0x1 PUSH1 0xA0 SHL SUB DUP2 AND PUSH1 0x0 SWAP1 DUP2 MSTORE PUSH1 0x3 PUSH1 0x20 DUP2 SWAP1 MSTORE PUSH1 0x40 DUP3 KECCAK256 ADD SLOAD PUSH1 0x60 SWAP2 SWAP1 DUP2 SWAP1 DUP2 SWAP1 DUP2 SWAP1 DUP6 SWAP1 DUP3 SWAP1 PUSH1 0xFF AND ISZERO PUSH2 0xCB1 JUMPI POP POP POP POP PUSH1 0x1 PUSH1 0x1 PUSH1 0xA0 SHL SUB DUP5 DUP2 AND PUSH1 0x0 SWAP1 DUP2 MSTORE PUSH1 0x3 PUSH1 0x20 DUP2 DUP2 MSTORE PUSH1 0x40 DUP1 DUP5 KECCAK256 DUP1 SLOAD PUSH1 0x1 DUP3 ADD SLOAD PUSH1 0x2 DUP4 ADD SLOAD SWAP3 DUP7 ADD SLOAD DUP5 MLOAD DUP1 DUP7 ADD DUP7 MSTORE PUSH1 0x4 DUP2 MSTORE PUSH4 0x2AB9B2B9 PUSH1 0xE1 SHL DUP2 DUP9 ADD MSTORE DUP6 MLOAD SWAP7 DUP8 ADD SWAP1 SWAP6 MSTORE SWAP7 DUP6 MSTORE SWAP3 SWAP10 POP SWAP8 POP SWAP5 AND SWAP5 POP DUP4 DUP3 SIGNEXTEND SWAP4 PUSH1 0x1 PUSH1 0x20 SHL SWAP1 DIV SWAP1 SWAP2 SIGNEXTEND SWAP2 PUSH1 0xFF AND PUSH2 0xE8A JUMP JUMPDEST PUSH1 0x1 PUSH1 0x1 PUSH1 0xA0 SHL SUB DUP9 AND PUSH1 0x0 SWAP1 DUP2 MSTORE PUSH1 0x6 PUSH1 0x20 MSTORE PUSH1 0x40 SWAP1 KECCAK256 PUSH1 0x4 ADD SLOAD PUSH1 0xFF AND ISZERO PUSH2 0xDF0 JUMPI PUSH1 0x1 PUSH1 0x1 PUSH1 0xA0 SHL SUB DUP1 DUP10 AND PUSH1 0x0 SWAP1 DUP2 MSTORE PUSH1 0x6 PUSH1 0x20 SWAP1 DUP2 MSTORE PUSH1 0x40 DUP1 DUP4 KECCAK256 PUSH1 0x9 DUP4 MSTORE SWAP3 DUP2 SWAP1 KECCAK256 DUP4 SLOAD PUSH1 0x1 DUP6 ADD SLOAD DUP3 SLOAD PUSH1 0x4 DUP8 ADD SLOAD DUP6 MLOAD DUP1 DUP8 ADD SWAP1 SWAP7 MSTORE PUSH1 0x8 DUP7 MSTORE PUSH8 0x2932B1BCB1B632B9 PUSH1 0xC1 SHL SWAP7 DUP7 ADD SWAP7 SWAP1 SWAP7 MSTORE PUSH1 0x2 DUP8 ADD DUP1 SLOAD SWAP8 SWAP9 SWAP5 SWAP8 SWAP6 SWAP7 SWAP4 SWAP6 SWAP3 SWAP1 SWAP5 AND SWAP4 PUSH1 0x3 DUP3 DUP2 SIGNEXTEND SWAP5 PUSH1 0x1 PUSH1 0x20 SHL SWAP1 SWAP4 DIV SWAP1 SIGNEXTEND SWAP3 SWAP1 SWAP2 PUSH1 0xFF AND SWAP1 DUP3 SWAP1 PUSH2 0xD5B SWAP1 PUSH2 0x381D JUMP JUMPDEST DUP1 PUSH1 0x1F ADD PUSH1 0x20 DUP1 SWAP2 DIV MUL PUSH1 0x20 ADD PUSH1 0x40 MLOAD SWAP1 DUP2 ADD PUSH1 0x40 MSTORE DUP1 SWAP3 SWAP2 SWAP1 DUP2 DUP2 MSTORE PUSH1 0x20 ADD DUP3 DUP1 SLOAD PUSH2 0xD87 SWAP1 PUSH2 0x381D JUMP JUMPDEST DUP1 ISZERO PUSH2 0xDD4 JUMPI DUP1 PUSH1 0x1F LT PUSH2 0xDA9 JUMPI PUSH2 0x100 DUP1 DUP4 SLOAD DIV MUL DUP4 MSTORE SWAP2 PUSH1 0x20 ADD SWAP2 PUSH2 0xDD4 JUMP JUMPDEST DUP3 ADD SWAP2 SWAP1 PUSH1 0x0 MSTORE PUSH1 0x20 PUSH1 0x0 KECCAK256 SWAP1 JUMPDEST DUP2 SLOAD DUP2 MSTORE SWAP1 PUSH1 0x1 ADD SWAP1 PUSH1 0x20 ADD DUP1 DUP4 GT PUSH2 0xDB7 JUMPI DUP3 SWAP1 SUB PUSH1 0x1F AND DUP3 ADD SWAP2 JUMPDEST POP POP POP POP POP SWAP2 POP SWAP9 POP SWAP9 POP SWAP9 POP SWAP9 POP SWAP9 POP SWAP9 POP SWAP9 POP POP POP PUSH2 0xE8A JUMP JUMPDEST PUSH1 0x1 PUSH1 0x1 PUSH1 0xA0 SHL SUB DUP9 AND PUSH1 0x0 SWAP1 DUP2 MSTORE PUSH1 0xB PUSH1 0x20 MSTORE PUSH1 0x40 SWAP1 KECCAK256 SLOAD ISZERO PUSH2 0xE71 JUMPI POP POP POP PUSH1 0x1 PUSH1 0x1 PUSH1 0xA0 SHL SUB DUP1 DUP7 AND PUSH1 0x0 SWAP1 DUP2 MSTORE PUSH1 0xB PUSH1 0x20 SWAP1 DUP2 MSTORE PUSH1 0x40 DUP1 DUP4 KECCAK256 DUP1 SLOAD PUSH1 0x2 SWAP1 SWAP2 ADD SLOAD DUP3 MLOAD DUP1 DUP5 ADD DUP5 MSTORE PUSH1 0x9 DUP2 MSTORE PUSH9 0x31B7B63632B1BA37B9 PUSH1 0xB9 SHL DUP2 DUP7 ADD MSTORE DUP4 MLOAD SWAP5 DUP6 ADD SWAP1 SWAP4 MSTORE DUP5 DUP5 MSTORE SWAP2 SWAP9 POP SWAP7 POP SWAP1 SWAP3 AND SWAP4 POP SWAP2 POP DUP2 SWAP1 PUSH1 0x1 PUSH2 0xE8A JUMP JUMPDEST PUSH1 0x40 MLOAD PUSH4 0x2FFE7105 PUSH1 0xE1 SHL DUP2 MSTORE PUSH1 0x4 ADD PUSH1 0x40 MLOAD DUP1 SWAP2 SUB SWAP1 REVERT JUMPDEST SWAP2 SWAP4 SWAP6 SWAP8 SWAP1 SWAP3 SWAP5 SWAP7 POP JUMP JUMPDEST PUSH1 0x0 DUP2 DUP2 MSTORE PUSH1 0xE PUSH1 0x20 MSTORE PUSH1 0x40 DUP2 KECCAK256 DUP1 SLOAD SWAP1 SWAP2 SUB PUSH2 0xEC5 JUMPI PUSH1 0x40 MLOAD PUSH4 0x9E9468F3 PUSH1 0xE0 SHL DUP2 MSTORE PUSH1 0x4 ADD PUSH1 0x40 MLOAD DUP1 SWAP2 SUB SWAP1 REVERT JUMPDEST PUSH1 0x1 DUP2 ADD SLOAD PUSH1 0x1 PUSH1 0x1 PUSH1 0xA0 SHL SUB AND CALLER EQ PUSH2 0xEF2 JUMPI PUSH1 0x40 MLOAD PUSH4 0x3D83866F PUSH1 0xE0 SHL DUP2 MSTORE PUSH1 0x4 ADD PUSH1 0x40 MLOAD DUP1 SWAP2 SUB SWAP1 REVERT JUMPDEST PUSH1 0x7 DUP2 ADD SLOAD PUSH1 0xFF AND ISZERO PUSH2 0xF18 JUMPI PUSH1 0x40 MLOAD PUSH4 0x8C53D035 PUSH1 0xE0 SHL DUP2 MSTORE PUSH1 0x4 ADD PUSH1 0x40 MLOAD DUP1 SWAP2 SUB SWAP1 REVERT JUMPDEST PUSH1 0x7 DUP2 ADD SLOAD PUSH2 0x100 SWAP1 DIV PUSH1 0xFF AND ISZERO PUSH2 0xF43 JUMPI PUSH1 0x40 MLOAD PUSH4 0x3D63E095 PUSH1 0xE2 SHL DUP2 MSTORE PUSH1 0x4 ADD PUSH1 0x40 MLOAD DUP1 SWAP2 SUB SWAP1 REVERT JUMPDEST PUSH1 0x9 DUP2 ADD DUP1 SLOAD PUSH1 0xFF NOT AND PUSH1 0x3 OR SWAP1 SSTORE PUSH1 0x40 MLOAD DUP3 DUP2 MSTORE PUSH32 0xEE243F878B7FC2F54E934CA33783D4395D42BC07612E2BD4B8E0E178639F7A28 SWAP1 PUSH1 0x20 ADD JUMPDEST PUSH1 0x40 MLOAD DUP1 SWAP2 SUB SWAP1 LOG1 POP POP JUMP JUMPDEST PUSH2 0xF92 PUSH2 0x2E3E JUMP JUMPDEST CALLER PUSH1 0x0 SWAP1 DUP2 MSTORE PUSH1 0x6 PUSH1 0x20 MSTORE PUSH1 0x40 SWAP1 KECCAK256 PUSH1 0x4 ADD SLOAD PUSH1 0xFF AND PUSH2 0xFC5 JUMPI PUSH1 0x40 MLOAD PUSH4 0xB7E3F9D PUSH1 0xE4 SHL DUP2 MSTORE PUSH1 0x4 ADD PUSH1 0x40 MLOAD DUP1 SWAP2 SUB SWAP1 REVERT JUMPDEST CALLER PUSH1 0x0 SWAP1 DUP2 MSTORE PUSH1 0x5 PUSH1 0x20 MSTORE PUSH1 0x40 SWAP1 KECCAK256 DUP1 SLOAD DUP8 SWAP1 DUP2 LT PUSH2 0xFE6 JUMPI PUSH2 0xFE6 PUSH2 0x3A5C JUMP JUMPDEST SWAP1 PUSH1 0x0 MSTORE PUSH1 0x20 PUSH1 0x0 KECCAK256 SWAP1 PUSH1 0x6 MUL ADD PUSH1 0x0 ADD SLOAD PUSH1 0x0 SUB PUSH2 0x1018 JUMPI PUSH1 0x40 MLOAD PUSH4 0x7C4AFA11 PUSH1 0xE0 SHL DUP2 MSTORE PUSH1 0x4 ADD PUSH1 0x40 MLOAD DUP1 SWAP2 SUB SWAP1 REVERT JUMPDEST CALLER PUSH1 0x0 SWAP1 DUP2 MSTORE PUSH1 0x5 PUSH1 0x20 MSTORE PUSH1 0x40 DUP2 KECCAK256 DUP1 SLOAD DUP9 SWAP1 DUP2 LT PUSH2 0x1039 JUMPI PUSH2 0x1039 PUSH2 0x3A5C JUMP JUMPDEST SWAP1 PUSH1 0x0 MSTORE PUSH1 0x20 PUSH1 0x0 KECCAK256 SWAP1 PUSH1 0x6 MUL ADD SWAP1 POP DUP6 DUP2 PUSH1 0x1 ADD SWAP1 DUP2 PUSH2 0x105A SWAP2 SWAP1 PUSH2 0x38A8 JUMP JUMPDEST POP PUSH1 0x2 DUP2 ADD DUP1 SLOAD PUSH1 0x1 PUSH1 0x1 PUSH1 0xA0 SHL SUB NOT AND PUSH1 0x1 PUSH1 0x1 PUSH1 0xA0 SHL SUB DUP8 AND OR SWAP1 SSTORE PUSH1 0x4 DUP2 ADD DUP5 SWAP1 SSTORE PUSH1 0x5 DUP2 ADD DUP4 SWAP1 SSTORE PUSH1 0x40 DUP1 MLOAD PUSH1 0xC0 DUP2 ADD SWAP1 SWAP2 MSTORE DUP2 SLOAD DUP2 MSTORE PUSH1 0x1 DUP3 ADD DUP1 SLOAD DUP4 SWAP2 PUSH1 0x20 DUP5 ADD SWAP2 PUSH2 0x10AB SWAP1 PUSH2 0x381D JUMP JUMPDEST DUP1 PUSH1 0x1F ADD PUSH1 0x20 DUP1 SWAP2 DIV MUL PUSH1 0x20 ADD PUSH1 0x40 MLOAD SWAP1 DUP2 ADD PUSH1 0x40 MSTORE DUP1 SWAP3 SWAP2 SWAP1 DUP2 DUP2 MSTORE PUSH1 0x20 ADD DUP3 DUP1 SLOAD PUSH2 0x10D7 SWAP1 PUSH2 0x381D JUMP JUMPDEST DUP1 ISZERO PUSH2 0x1124 JUMPI DUP1 PUSH1 0x1F LT PUSH2 0x10F9 JUMPI PUSH2 0x100 DUP1 DUP4 SLOAD DIV MUL DUP4 MSTORE SWAP2 PUSH1 0x20 ADD SWAP2 PUSH2 0x1124 JUMP JUMPDEST DUP3 ADD SWAP2 SWAP1 PUSH1 0x0 MSTORE PUSH1 0x20 PUSH1 0x0 KECCAK256 SWAP1 JUMPDEST DUP2 SLOAD DUP2 MSTORE SWAP1 PUSH1 0x1 ADD SWAP1 PUSH1 0x20 ADD DUP1 DUP4 GT PUSH2 0x1107 JUMPI DUP3 SWAP1 SUB PUSH1 0x1F AND DUP3 ADD SWAP2 JUMPDEST POP POP POP SWAP2 DUP4 MSTORE POP POP PUSH1 0x2 DUP3 ADD SLOAD PUSH1 0x1 PUSH1 0x1 PUSH1 0xA0 SHL SUB AND PUSH1 0x20 DUP3 ADD MSTORE PUSH1 0x3 DUP3 ADD SLOAD PUSH1 0x40 DUP3 ADD MSTORE PUSH1 0x4 DUP3 ADD SLOAD PUSH1 0x60 DUP3 ADD MSTORE PUSH1 0x5 SWAP1 SWAP2 ADD SLOAD PUSH1 0x80 SWAP1 SWAP2 ADD MSTORE SWAP8 SWAP7 POP POP POP POP POP POP POP JUMP JUMPDEST PUSH2 0x11CF PUSH1 0x40 DUP1 MLOAD PUSH2 0x180 DUP2 ADD DUP3 MSTORE PUSH1 0x0 DUP1 DUP3 MSTORE PUSH1 0x20 DUP3 ADD DUP2 SWAP1 MSTORE SWAP2 DUP2 ADD DUP3 SWAP1 MSTORE PUSH1 0x60 DUP2 ADD DUP3 SWAP1 MSTORE PUSH1 0x80 DUP2 ADD DUP3 SWAP1 MSTORE PUSH1 0xA0 DUP2 ADD DUP3 SWAP1 MSTORE PUSH1 0xC0 DUP2 ADD DUP3 SWAP1 MSTORE PUSH1 0xE0 DUP2 ADD DUP3 SWAP1 MSTORE PUSH2 0x100 DUP2 ADD DUP3 SWAP1 MSTORE PUSH2 0x120 DUP2 ADD DUP3 SWAP1 MSTORE PUSH2 0x140 DUP2 ADD DUP3 SWAP1 MSTORE SWAP1 PUSH2 0x160 DUP3 ADD MSTORE SWAP1 JUMP JUMPDEST PUSH1 0x0 DUP3 DUP2 MSTORE PUSH1 0xE PUSH1 0x20 MSTORE PUSH1 0x40 DUP2 KECCAK256 SLOAD SWAP1 SUB PUSH2 0x11FD JUMPI PUSH1 0x40 MLOAD PUSH4 0x9E9468F3 PUSH1 0xE0 SHL DUP2 MSTORE PUSH1 0x4 ADD PUSH1 0x40 MLOAD DUP1 SWAP2 SUB SWAP1 REVERT JUMPDEST PUSH1 0x0 DUP3 DUP2 MSTORE PUSH1 0xE PUSH1 0x20 SWAP1 DUP2 MSTORE PUSH1 0x40 SWAP2 DUP3 SWAP1 KECCAK256 DUP3 MLOAD PUSH2 0x180 DUP2 ADD DUP5 MSTORE DUP2 SLOAD DUP2 MSTORE PUSH1 0x1 DUP3 ADD SLOAD PUSH1 0x1 PUSH1 0x1 PUSH1 0xA0 SHL SUB SWAP1 DUP2 AND SWAP4 DUP3 ADD SWAP4 SWAP1 SWAP4 MSTORE PUSH1 0x2 DUP3 ADD SLOAD DUP4 AND SWAP4 DUP2 ADD SWAP4 SWAP1 SWAP4 MSTORE PUSH1 0x3 DUP1 DUP3 ADD SLOAD PUSH1 0x60 DUP6 ADD MSTORE PUSH1 0x4 DUP3 ADD SLOAD PUSH1 0x80 DUP6 ADD MSTORE PUSH1 0x5 DUP3 ADD SLOAD PUSH1 0xA0 DUP6 ADD MSTORE PUSH1 0x6 DUP3 ADD SLOAD PUSH1 0xC0 DUP6 ADD MSTORE PUSH1 0x7 DUP3 ADD SLOAD PUSH1 0xFF DUP1 DUP3 AND ISZERO ISZERO PUSH1 0xE0 DUP8 ADD MSTORE PUSH2 0x100 DUP1 DUP4 DIV DUP3 AND ISZERO ISZERO SWAP1 DUP8 ADD MSTORE PUSH3 0x10000 SWAP1 SWAP2 DIV SWAP1 SWAP4 AND PUSH2 0x120 DUP6 ADD MSTORE PUSH1 0x8 DUP3 ADD SLOAD PUSH2 0x140 DUP6 ADD MSTORE PUSH1 0x9 DUP3 ADD SLOAD SWAP2 SWAP3 PUSH2 0x160 DUP6 ADD SWAP3 AND SWAP1 DUP2 GT ISZERO PUSH2 0x12C2 JUMPI PUSH2 0x12C2 PUSH2 0x3143 JUMP JUMPDEST PUSH1 0x3 DUP2 GT ISZERO PUSH2 0x12D3 JUMPI PUSH2 0x12D3 PUSH2 0x3143 JUMP JUMPDEST SWAP1 MSTORE POP SWAP3 SWAP2 POP POP JUMP JUMPDEST CALLER PUSH1 0x0 SWAP1 DUP2 MSTORE PUSH1 0xF PUSH1 0x20 SWAP1 DUP2 MSTORE PUSH1 0x40 DUP1 DUP4 KECCAK256 DUP1 SLOAD DUP3 MLOAD DUP2 DUP6 MUL DUP2 ADD DUP6 ADD SWAP1 SWAP4 MSTORE DUP1 DUP4 MSTORE PUSH1 0x60 SWAP5 SWAP3 SWAP4 SWAP2 SWAP3 SWAP1 SWAP2 DUP5 ADD JUMPDEST DUP3 DUP3 LT ISZERO PUSH2 0x1400 JUMPI PUSH1 0x0 DUP5 DUP2 MSTORE PUSH1 0x20 SWAP1 DUP2 SWAP1 KECCAK256 PUSH1 0x40 DUP1 MLOAD PUSH2 0x180 DUP2 ADD DUP3 MSTORE PUSH1 0xA DUP7 MUL SWAP1 SWAP3 ADD DUP1 SLOAD DUP4 MSTORE PUSH1 0x1 DUP2 ADD SLOAD PUSH1 0x1 PUSH1 0x1 PUSH1 0xA0 SHL SUB SWAP1 DUP2 AND SWAP5 DUP5 ADD SWAP5 SWAP1 SWAP5 MSTORE PUSH1 0x2 DUP2 ADD SLOAD DUP5 AND SWAP2 DUP4 ADD SWAP2 SWAP1 SWAP2 MSTORE PUSH1 0x3 DUP1 DUP3 ADD SLOAD PUSH1 0x60 DUP5 ADD MSTORE PUSH1 0x4 DUP3 ADD SLOAD PUSH1 0x80 DUP5 ADD MSTORE PUSH1 0x5 DUP3 ADD SLOAD PUSH1 0xA0 DUP5 ADD MSTORE PUSH1 0x6 DUP3 ADD SLOAD PUSH1 0xC0 DUP5 ADD MSTORE PUSH1 0x7 DUP3 ADD SLOAD PUSH1 0xFF DUP1 DUP3 AND ISZERO ISZERO PUSH1 0xE0 DUP7 ADD MSTORE PUSH2 0x100 DUP1 DUP4 DIV DUP3 AND ISZERO ISZERO SWAP1 DUP7 ADD MSTORE PUSH3 0x10000 SWAP1 SWAP2 DIV SWAP1 SWAP5 AND PUSH2 0x120 DUP5 ADD MSTORE PUSH1 0x8 DUP3 ADD SLOAD PUSH2 0x140 DUP5 ADD MSTORE PUSH1 0x9 DUP3 ADD SLOAD SWAP3 SWAP4 SWAP2 SWAP3 PUSH2 0x160 DUP6 ADD SWAP3 AND SWAP1 DUP2 GT ISZERO PUSH2 0x13DC JUMPI PUSH2 0x13DC PUSH2 0x3143 JUMP JUMPDEST PUSH1 0x3 DUP2 GT ISZERO PUSH2 0x13ED JUMPI PUSH2 0x13ED PUSH2 0x3143 JUMP JUMPDEST DUP2 MSTORE POP POP DUP2 MSTORE PUSH1 0x20 ADD SWAP1 PUSH1 0x1 ADD SWAP1 PUSH2 0x130B JUMP JUMPDEST POP POP POP POP SWAP1 POP SWAP1 JUMP JUMPDEST PUSH2 0x1411 PUSH2 0x2E3E JUMP JUMPDEST PUSH1 0x1 PUSH1 0x1 PUSH1 0xA0 SHL SUB DUP4 AND PUSH1 0x0 SWAP1 DUP2 MSTORE PUSH1 0x6 PUSH1 0x20 MSTORE PUSH1 0x40 SWAP1 KECCAK256 PUSH1 0x4 ADD SLOAD PUSH1 0xFF AND PUSH2 0x144D JUMPI PUSH1 0x40 MLOAD PUSH4 0xB7E3F9D PUSH1 0xE4 SHL DUP2 MSTORE PUSH1 0x4 ADD PUSH1 0x40 MLOAD DUP1 SWAP2 SUB SWAP1 REVERT JUMPDEST PUSH1 0x1 PUSH1 0x1 PUSH1 0xA0 SHL SUB DUP4 AND PUSH1 0x0 SWAP1 DUP2 MSTORE PUSH1 0x5 PUSH1 0x20 MSTORE PUSH1 0x40 SWAP1 KECCAK256 DUP1 SLOAD DUP4 SWAP1 DUP2 LT PUSH2 0x1477 JUMPI PUSH2 0x1477 PUSH2 0x3A5C JUMP JUMPDEST SWAP1 PUSH1 0x0 MSTORE PUSH1 0x20 PUSH1 0x0 KECCAK256 SWAP1 PUSH1 0x6 MUL ADD PUSH1 0x0 ADD SLOAD PUSH1 0x0 SUB PUSH2 0x14A9 JUMPI PUSH1 0x40 MLOAD PUSH4 0x7C4AFA11 PUSH1 0xE0 SHL DUP2 MSTORE PUSH1 0x4 ADD PUSH1 0x40 MLOAD DUP1 SWAP2 SUB SWAP1 REVERT JUMPDEST PUSH1 0x1 PUSH1 0x1 PUSH1 0xA0 SHL SUB DUP4 AND PUSH1 0x0 SWAP1 DUP2 MSTORE PUSH1 0x5 PUSH1 0x20 MSTORE PUSH1 0x40 SWAP1 KECCAK256 DUP1 SLOAD DUP4 SWAP1 DUP2 LT PUSH2 0x14D3 JUMPI PUSH2 0x14D3 PUSH2 0x3A5C JUMP JUMPDEST SWAP1 PUSH1 0x0 MSTORE PUSH1 0x20 PUSH1 0x0 KECCAK256 SWAP1 PUSH1 0x6 MUL ADD PUSH1 0x40 MLOAD DUP1 PUSH1 0xC0 ADD PUSH1 0x40 MSTORE SWAP1 DUP2 PUSH1 0x0 DUP3 ADD SLOAD DUP2 MSTORE PUSH1 0x20 ADD PUSH1 0x1 DUP3 ADD DUP1 SLOAD PUSH2 0x1506 SWAP1 PUSH2 0x381D JUMP JUMPDEST DUP1 PUSH1 0x1F ADD PUSH1 0x20 DUP1 SWAP2 DIV MUL PUSH1 0x20 ADD PUSH1 0x40 MLOAD SWAP1 DUP2 ADD PUSH1 0x40 MSTORE DUP1 SWAP3 SWAP2 SWAP1 DUP2 DUP2 MSTORE PUSH1 0x20 ADD DUP3 DUP1 SLOAD PUSH2 0x1532 SWAP1 PUSH2 0x381D JUMP JUMPDEST DUP1 ISZERO PUSH2 0x157F JUMPI DUP1 PUSH1 0x1F LT PUSH2 0x1554 JUMPI PUSH2 0x100 DUP1 DUP4 SLOAD DIV MUL DUP4 MSTORE SWAP2 PUSH1 0x20 ADD SWAP2 PUSH2 0x157F JUMP JUMPDEST DUP3 ADD SWAP2 SWAP1 PUSH1 0x0 MSTORE PUSH1 0x20 PUSH1 0x0 KECCAK256 SWAP1 JUMPDEST DUP2 SLOAD DUP2 MSTORE SWAP1 PUSH1 0x1 ADD SWAP1 PUSH1 0x20 ADD DUP1 DUP4 GT PUSH2 0x1562 JUMPI DUP3 SWAP1 SUB PUSH1 0x1F AND DUP3 ADD SWAP2 JUMPDEST POP POP POP SWAP2 DUP4 MSTORE POP POP PUSH1 0x2 DUP3 ADD SLOAD PUSH1 0x1 PUSH1 0x1 PUSH1 0xA0 SHL SUB AND PUSH1 0x20 DUP3 ADD MSTORE PUSH1 0x3 DUP3 ADD SLOAD PUSH1 0x40 DUP3 ADD MSTORE PUSH1 0x4 DUP3 ADD SLOAD PUSH1 0x60 DUP3 ADD MSTORE PUSH1 0x5 SWAP1 SWAP2 ADD SLOAD PUSH1 0x80 SWAP1 SWAP2 ADD MSTORE SWAP1 POP JUMPDEST SWAP3 SWAP2 POP POP JUMP JUMPDEST PUSH1 0x1 PUSH1 0x1 PUSH1 0xA0 SHL SUB DUP2 AND PUSH1 0x0 SWAP1 DUP2 MSTORE PUSH1 0x6 PUSH1 0x20 MSTORE PUSH1 0x40 SWAP1 KECCAK256 PUSH1 0x4 ADD SLOAD PUSH1 0x60 SWAP1 PUSH1 0xFF AND PUSH2 0x1602 JUMPI PUSH1 0x40 MLOAD PUSH4 0x15EE14F5 PUSH1 0xE3 SHL DUP2 MSTORE PUSH1 0x4 ADD PUSH1 0x40 MLOAD DUP1 SWAP2 SUB SWAP1 REVERT JUMPDEST PUSH1 0x1 PUSH1 0x1 PUSH1 0xA0 SHL SUB DUP3 AND PUSH1 0x0 SWAP1 DUP2 MSTORE PUSH1 0xC PUSH1 0x20 SWAP1 DUP2 MSTORE PUSH1 0x40 DUP1 DUP4 KECCAK256 DUP1 SLOAD DUP3 MLOAD DUP2 DUP6 MUL DUP2 ADD DUP6 ADD SWAP1 SWAP4 MSTORE DUP1 DUP4 MSTORE SWAP2 SWAP4 SWAP1 SWAP3 DUP5 ADD JUMPDEST DUP3 DUP3 LT ISZERO PUSH2 0x17CB JUMPI DUP4 DUP3 SWAP1 PUSH1 0x0 MSTORE PUSH1 0x20 PUSH1 0x0 KECCAK256 SWAP1 PUSH1 0x6 MUL ADD PUSH1 0x40 MLOAD DUP1 PUSH1 0xC0 ADD PUSH1 0x40 MSTORE SWAP1 DUP2 PUSH1 0x0 DUP3 ADD SLOAD DUP2 MSTORE PUSH1 0x20 ADD PUSH1 0x1 DUP3 ADD DUP1 SLOAD PUSH2 0x1672 SWAP1 PUSH2 0x381D JUMP JUMPDEST DUP1 PUSH1 0x1F ADD PUSH1 0x20 DUP1 SWAP2 DIV MUL PUSH1 0x20 ADD PUSH1 0x40 MLOAD SWAP1 DUP2 ADD PUSH1 0x40 MSTORE DUP1 SWAP3 SWAP2 SWAP1 DUP2 DUP2 MSTORE PUSH1 0x20 ADD DUP3 DUP1 SLOAD PUSH2 0x169E SWAP1 PUSH2 0x381D JUMP JUMPDEST DUP1 ISZERO PUSH2 0x16EB JUMPI DUP1 PUSH1 0x1F LT PUSH2 0x16C0 JUMPI PUSH2 0x100 DUP1 DUP4 SLOAD DIV MUL DUP4 MSTORE SWAP2 PUSH1 0x20 ADD SWAP2 PUSH2 0x16EB JUMP JUMPDEST DUP3 ADD SWAP2 SWAP1 PUSH1 0x0 MSTORE PUSH1 0x20 PUSH1 0x0 KECCAK256 SWAP1 JUMPDEST DUP2 SLOAD DUP2 MSTORE SWAP1 PUSH1 0x1 ADD SWAP1 PUSH1 0x20 ADD DUP1 DUP4 GT PUSH2 0x16CE JUMPI DUP3 SWAP1 SUB PUSH1 0x1F AND DUP3 ADD SWAP2 JUMPDEST POP POP POP SWAP2 DUP4 MSTORE POP POP PUSH1 0x2 DUP3 ADD SLOAD PUSH1 0x1 PUSH1 0x1 PUSH1 0xA0 SHL SUB AND PUSH1 0x20 DUP3 ADD MSTORE PUSH1 0x3 DUP3 ADD DUP1 SLOAD PUSH1 0x40 SWAP1 SWAP3 ADD SWAP2 PUSH2 0x171B SWAP1 PUSH2 0x381D JUMP JUMPDEST DUP1 PUSH1 0x1F ADD PUSH1 0x20 DUP1 SWAP2 DIV MUL PUSH1 0x20 ADD PUSH1 0x40 MLOAD SWAP1 DUP2 ADD PUSH1 0x40 MSTORE DUP1 SWAP3 SWAP2 SWAP1 DUP2 DUP2 MSTORE PUSH1 0x20 ADD DUP3 DUP1 SLOAD PUSH2 0x1747 SWAP1 PUSH2 0x381D JUMP JUMPDEST DUP1 ISZERO PUSH2 0x1794 JUMPI DUP1 PUSH1 0x1F LT PUSH2 0x1769 JUMPI PUSH2 0x100 DUP1 DUP4 SLOAD DIV MUL DUP4 MSTORE SWAP2 PUSH1 0x20 ADD SWAP2 PUSH2 0x1794 JUMP JUMPDEST DUP3 ADD SWAP2 SWAP1 PUSH1 0x0 MSTORE PUSH1 0x20 PUSH1 0x0 KECCAK256 SWAP1 JUMPDEST DUP2 SLOAD DUP2 MSTORE SWAP1 PUSH1 0x1 ADD SWAP1 PUSH1 0x20 ADD DUP1 DUP4 GT PUSH2 0x1777 JUMPI DUP3 SWAP1 SUB PUSH1 0x1F AND DUP3 ADD SWAP2 JUMPDEST POP POP POP SWAP2 DUP4 MSTORE POP POP PUSH1 0x4 DUP3 ADD SLOAD PUSH1 0x20 DUP1 DUP4 ADD SWAP2 SWAP1 SWAP2 MSTORE PUSH1 0x5 SWAP1 SWAP3 ADD SLOAD PUSH1 0xFF AND ISZERO ISZERO PUSH1 0x40 SWAP1 SWAP2 ADD MSTORE SWAP1 DUP3 MSTORE PUSH1 0x1 SWAP3 SWAP1 SWAP3 ADD SWAP2 ADD PUSH2 0x1635 JUMP JUMPDEST POP POP POP POP SWAP1 POP SWAP2 SWAP1 POP JUMP JUMPDEST PUSH1 0x0 DUP2 DUP2 MSTORE PUSH1 0x7 PUSH1 0x20 MSTORE PUSH1 0x40 SWAP1 KECCAK256 PUSH1 0x1 DUP2 ADD SLOAD PUSH1 0x60 SWAP2 SWAP1 PUSH1 0x1 PUSH1 0x1 PUSH1 0xA0 SHL SUB AND PUSH2 0x1813 JUMPI PUSH1 0x40 MLOAD PUSH4 0x2FFE7105 PUSH1 0xE1 SHL DUP2 MSTORE PUSH1 0x4 ADD PUSH1 0x40 MLOAD DUP1 SWAP2 SUB SWAP1 REVERT JUMPDEST PUSH1 0x1 DUP2 ADD SLOAD PUSH1 0x1 PUSH1 0x1 PUSH1 0xA0 SHL SUB AND PUSH1 0x0 SWAP1 DUP2 MSTORE PUSH1 0x5 PUSH1 0x20 SWAP1 DUP2 MSTORE PUSH1 0x40 DUP1 DUP4 KECCAK256 DUP1 SLOAD DUP3 MLOAD DUP2 DUP6 MUL DUP2 ADD DUP6 ADD SWAP1 SWAP4 MSTORE DUP1 DUP4 MSTORE SWAP2 SWAP4 SWAP1 SWAP3 DUP5 ADD JUMPDEST DUP3 DUP3 LT ISZERO PUSH2 0x194F JUMPI DUP4 DUP3 SWAP1 PUSH1 0x0 MSTORE PUSH1 0x20 PUSH1 0x0 KECCAK256 SWAP1 PUSH1 0x6 MUL ADD PUSH1 0x40 MLOAD DUP1 PUSH1 0xC0 ADD PUSH1 0x40 MSTORE SWAP1 DUP2 PUSH1 0x0 DUP3 ADD SLOAD DUP2 MSTORE PUSH1 0x20 ADD PUSH1 0x1 DUP3 ADD DUP1 SLOAD PUSH2 0x1887 SWAP1 PUSH2 0x381D JUMP JUMPDEST DUP1 PUSH1 0x1F ADD PUSH1 0x20 DUP1 SWAP2 DIV MUL PUSH1 0x20 ADD PUSH1 0x40 MLOAD SWAP1 DUP2 ADD PUSH1 0x40 MSTORE DUP1 SWAP3 SWAP2 SWAP1 DUP2 DUP2 MSTORE PUSH1 0x20 ADD DUP3 DUP1 SLOAD PUSH2 0x18B3 SWAP1 PUSH2 0x381D JUMP JUMPDEST DUP1 ISZERO PUSH2 0x1900 JUMPI DUP1 PUSH1 0x1F LT PUSH2 0x18D5 JUMPI PUSH2 0x100 DUP1 DUP4 SLOAD DIV MUL DUP4 MSTORE SWAP2 PUSH1 0x20 ADD SWAP2 PUSH2 0x1900 JUMP JUMPDEST DUP3 ADD SWAP2 SWAP1 PUSH1 0x0 MSTORE PUSH1 0x20 PUSH1 0x0 KECCAK256 SWAP1 JUMPDEST DUP2 SLOAD DUP2 MSTORE SWAP1 PUSH1 0x1 ADD SWAP1 PUSH1 0x20 ADD DUP1 DUP4 GT PUSH2 0x18E3 JUMPI DUP3 SWAP1 SUB PUSH1 0x1F AND DUP3 ADD SWAP2 JUMPDEST POP POP POP SWAP2 DUP4 MSTORE POP POP PUSH1 0x2 DUP3 ADD SLOAD PUSH1 0x1 PUSH1 0x1 PUSH1 0xA0 SHL SUB AND PUSH1 0x20 DUP1 DUP4 ADD SWAP2 SWAP1 SWAP2 MSTORE PUSH1 0x3 DUP4 ADD SLOAD PUSH1 0x40 DUP4 ADD MSTORE PUSH1 0x4 DUP4 ADD SLOAD PUSH1 0x60 DUP4 ADD MSTORE PUSH1 0x5 SWAP1 SWAP3 ADD SLOAD PUSH1 0x80 SWAP1 SWAP2 ADD MSTORE SWAP1 DUP3 MSTORE PUSH1 0x1 SWAP3 SWAP1 SWAP3 ADD SWAP2 ADD PUSH2 0x184A JUMP JUMPDEST POP POP POP POP SWAP2 POP POP SWAP2 SWAP1 POP JUMP JUMPDEST PUSH1 0x6 PUSH1 0x20 MSTORE PUSH1 0x0 SWAP1 DUP2 MSTORE PUSH1 0x40 SWAP1 KECCAK256 DUP1 SLOAD PUSH1 0x1 DUP3 ADD SLOAD PUSH1 0x2 DUP4 ADD DUP1 SLOAD SWAP3 SWAP4 PUSH1 0x1 PUSH1 0x1 PUSH1 0xA0 SHL SUB SWAP1 SWAP3 AND SWAP3 PUSH2 0x198D SWAP1 PUSH2 0x381D JUMP JUMPDEST DUP1 PUSH1 0x1F ADD PUSH1 0x20 DUP1 SWAP2 DIV MUL PUSH1 0x20 ADD PUSH1 0x40 MLOAD SWAP1 DUP2 ADD PUSH1 0x40 MSTORE DUP1 SWAP3 SWAP2 SWAP1 DUP2 DUP2 MSTORE PUSH1 0x20 ADD DUP3 DUP1 SLOAD PUSH2 0x19B9 SWAP1 PUSH2 0x381D JUMP JUMPDEST DUP1 ISZERO PUSH2 0x1A06 JUMPI DUP1 PUSH1 0x1F LT PUSH2 0x19DB JUMPI PUSH2 0x100 DUP1 DUP4 SLOAD DIV MUL DUP4 MSTORE SWAP2 PUSH1 0x20 ADD SWAP2 PUSH2 0x1A06 JUMP JUMPDEST DUP3 ADD SWAP2 SWAP1 PUSH1 0x0 MSTORE PUSH1 0x20 PUSH1 0x0 KECCAK256 SWAP1 JUMPDEST DUP2 SLOAD DUP2 MSTORE SWAP1 PUSH1 0x1 ADD SWAP1 PUSH1 0x20 ADD DUP1 DUP4 GT PUSH2 0x19E9 JUMPI DUP3 SWAP1 SUB PUSH1 0x1F AND DUP3 ADD SWAP2 JUMPDEST POP POP POP POP PUSH1 0x3 DUP4 ADD SLOAD PUSH1 0x4 SWAP1 SWAP4 ADD SLOAD SWAP2 SWAP3 SWAP2 PUSH1 0xFF AND SWAP1 POP DUP6 JUMP JUMPDEST PUSH1 0x60 PUSH1 0x8 DUP1 SLOAD DUP1 PUSH1 0x20 MUL PUSH1 0x20 ADD PUSH1 0x40 MLOAD SWAP1 DUP2 ADD PUSH1 0x40 MSTORE DUP1 SWAP3 SWAP2 SWAP1 DUP2 DUP2 MSTORE PUSH1 0x20 ADD PUSH1 0x0 SWAP1 JUMPDEST DUP3 DUP3 LT ISZERO PUSH2 0x1400 JUMPI PUSH1 0x0 DUP5 DUP2 MSTORE PUSH1 0x20 SWAP1 DUP2 SWAP1 KECCAK256 PUSH1 0x40 DUP1 MLOAD PUSH1 0xA0 DUP2 ADD DUP3 MSTORE PUSH1 0x5 DUP7 MUL SWAP1 SWAP3 ADD DUP1 SLOAD DUP4 MSTORE PUSH1 0x1 DUP2 ADD SLOAD PUSH1 0x1 PUSH1 0x1 PUSH1 0xA0 SHL SUB AND SWAP4 DUP4 ADD SWAP4 SWAP1 SWAP4 MSTORE PUSH1 0x2 DUP4 ADD DUP1 SLOAD SWAP3 SWAP4 SWAP3 SWAP2 DUP5 ADD SWAP2 PUSH2 0x1A97 SWAP1 PUSH2 0x381D JUMP JUMPDEST DUP1 PUSH1 0x1F ADD PUSH1 0x20 DUP1 SWAP2 DIV MUL PUSH1 0x20 ADD PUSH1 0x40 MLOAD SWAP1 DUP2 ADD PUSH1 0x40 MSTORE DUP1 SWAP3 SWAP2 SWAP1 DUP2 DUP2 MSTORE PUSH1 0x20 ADD DUP3 DUP1 SLOAD PUSH2 0x1AC3 SWAP1 PUSH2 0x381D JUMP JUMPDEST DUP1 ISZERO PUSH2 0x1B10 JUMPI DUP1 PUSH1 0x1F LT PUSH2 0x1AE5 JUMPI PUSH2 0x100 DUP1 DUP4 SLOAD DIV MUL DUP4 MSTORE SWAP2 PUSH1 0x20 ADD SWAP2 PUSH2 0x1B10 JUMP JUMPDEST DUP3 ADD SWAP2 SWAP1 PUSH1 0x0 MSTORE PUSH1 0x20 PUSH1 0x0 KECCAK256 SWAP1 JUMPDEST DUP2 SLOAD DUP2 MSTORE SWAP1 PUSH1 0x1 ADD SWAP1 PUSH1 0x20 ADD DUP1 DUP4 GT PUSH2 0x1AF3 JUMPI DUP3 SWAP1 SUB PUSH1 0x1F AND DUP3 ADD SWAP2 JUMPDEST POP POP POP SWAP2 DUP4 MSTORE POP POP PUSH1 0x3 DUP3 ADD SLOAD PUSH1 0x20 DUP1 DUP4 ADD SWAP2 SWAP1 SWAP2 MSTORE PUSH1 0x4 SWAP1 SWAP3 ADD SLOAD PUSH1 0xFF AND ISZERO ISZERO PUSH1 0x40 SWAP1 SWAP2 ADD MSTORE SWAP1 DUP3 MSTORE PUSH1 0x1 SWAP3 SWAP1 SWAP3 ADD SWAP2 ADD PUSH2 0x1A44 JUMP JUMPDEST CALLER PUSH1 0x0 SWAP1 DUP2 MSTORE PUSH1 0x3 PUSH1 0x20 DUP2 DUP2 MSTORE PUSH1 0x40 DUP1 DUP5 KECCAK256 DUP2 MLOAD PUSH1 0x80 DUP2 ADD DUP4 MSTORE DUP2 SLOAD DUP2 MSTORE PUSH1 0x1 DUP3 ADD SLOAD PUSH1 0x1 PUSH1 0x1 PUSH1 0xA0 SHL SUB AND DUP2 DUP6 ADD MSTORE DUP3 MLOAD DUP1 DUP5 ADD DUP5 MSTORE PUSH1 0x2 DUP4 ADD SLOAD DUP1 DUP8 SIGNEXTEND DUP3 MSTORE PUSH1 0x1 PUSH1 0x20 SHL SWAP1 DIV DUP7 SIGNEXTEND DUP2 DUP7 ADD MSTORE DUP2 DUP5 ADD MSTORE SWAP4 ADD SLOAD PUSH1 0xFF AND ISZERO ISZERO PUSH1 0x60 DUP5 ADD SWAP1 DUP2 MSTORE DUP11 DUP6 MSTORE PUSH1 0x7 SWAP1 SWAP3 MSTORE SWAP1 SWAP3 KECCAK256 SWAP2 MLOAD SWAP1 SWAP2 SWAP1 PUSH2 0x1C15 JUMPI PUSH2 0x1BC5 CALLER PUSH2 0x2D11 JUMP JUMPDEST PUSH2 0x1BD0 CALLER DUP6 DUP6 PUSH2 0x2D9B JUMP JUMPDEST PUSH1 0x40 DUP1 MLOAD CALLER DUP2 MSTORE PUSH1 0x3 DUP7 DUP2 SIGNEXTEND PUSH1 0x20 DUP4 ADD MSTORE DUP6 SWAP1 SIGNEXTEND DUP2 DUP4 ADD MSTORE SWAP1 MLOAD PUSH32 0x1C7A52659230B09CF86607B0422C07AFEAD12B34ECC5A7A4EAEBFCBF761B1B07 SWAP2 DUP2 SWAP1 SUB PUSH1 0x60 ADD SWAP1 LOG1 JUMPDEST PUSH1 0x4 DUP2 ADD SLOAD PUSH1 0xFF AND PUSH2 0x1C3A JUMPI PUSH1 0x40 MLOAD PUSH4 0x15EE14F5 PUSH1 0xE3 SHL DUP2 MSTORE PUSH1 0x4 ADD PUSH1 0x40 MLOAD DUP1 SWAP2 SUB SWAP1 REVERT JUMPDEST PUSH1 0x1 DUP2 ADD SLOAD PUSH1 0x1 PUSH1 0x1 PUSH1 0xA0 SHL SUB AND PUSH1 0x0 SWAP1 DUP2 MSTORE PUSH1 0x5 PUSH1 0x20 MSTORE PUSH1 0x40 SWAP1 KECCAK256 DUP1 SLOAD DUP9 SWAP1 DUP2 LT PUSH2 0x1C68 JUMPI PUSH2 0x1C68 PUSH2 0x3A5C JUMP JUMPDEST SWAP1 PUSH1 0x0 MSTORE PUSH1 0x20 PUSH1 0x0 KECCAK256 SWAP1 PUSH1 0x6 MUL ADD PUSH1 0x0 ADD SLOAD PUSH1 0x0 SUB PUSH2 0x1C9A JUMPI PUSH1 0x40 MLOAD PUSH4 0x7C4AFA11 PUSH1 0xE0 SHL DUP2 MSTORE PUSH1 0x4 ADD PUSH1 0x40 MLOAD DUP1 SWAP2 SUB SWAP1 REVERT JUMPDEST PUSH1 0x1 DUP2 ADD SLOAD PUSH1 0x1 PUSH1 0x1 PUSH1 0xA0 SHL SUB AND PUSH1 0x0 SWAP1 DUP2 MSTORE PUSH1 0x5 PUSH1 0x20 MSTORE PUSH1 0x40 DUP2 KECCAK256 DUP1 SLOAD DUP10 SWAP1 DUP2 LT PUSH2 0x1CC8 JUMPI PUSH2 0x1CC8 PUSH2 0x3A5C JUMP JUMPDEST SWAP1 PUSH1 0x0 MSTORE PUSH1 0x20 PUSH1 0x0 KECCAK256 SWAP1 PUSH1 0x6 MUL ADD PUSH1 0x40 MLOAD DUP1 PUSH1 0xC0 ADD PUSH1 0x40 MSTORE SWAP1 DUP2 PUSH1 0x0 DUP3 ADD SLOAD DUP2 MSTORE PUSH1 0x20 ADD PUSH1 0x1 DUP3 ADD DUP1 SLOAD PUSH2 0x1CFB SWAP1 PUSH2 0x381D JUMP JUMPDEST DUP1 PUSH1 0x1F ADD PUSH1 0x20 DUP1 SWAP2 DIV MUL PUSH1 0x20 ADD PUSH1 0x40 MLOAD SWAP1 DUP2 ADD PUSH1 0x40 MSTORE DUP1 SWAP3 SWAP2 SWAP1 DUP2 DUP2 MSTORE PUSH1 0x20 ADD DUP3 DUP1 SLOAD PUSH2 0x1D27 SWAP1 PUSH2 0x381D JUMP JUMPDEST DUP1 ISZERO PUSH2 0x1D74 JUMPI DUP1 PUSH1 0x1F LT PUSH2 0x1D49 JUMPI PUSH2 0x100 DUP1 DUP4 SLOAD DIV MUL DUP4 MSTORE SWAP2 PUSH1 0x20 ADD SWAP2 PUSH2 0x1D74 JUMP JUMPDEST DUP3 ADD SWAP2 SWAP1 PUSH1 0x0 MSTORE PUSH1 0x20 PUSH1 0x0 KECCAK256 SWAP1 JUMPDEST DUP2 SLOAD DUP2 MSTORE SWAP1 PUSH1 0x1 ADD SWAP1 PUSH1 0x20 ADD DUP1 DUP4 GT PUSH2 0x1D57 JUMPI DUP3 SWAP1 SUB PUSH1 0x1F AND DUP3 ADD SWAP2 JUMPDEST POP POP POP SWAP2 DUP4 MSTORE POP POP PUSH1 0x2 DUP3 ADD SLOAD PUSH1 0x1 PUSH1 0x1 PUSH1 0xA0 SHL SUB AND PUSH1 0x20 DUP3 ADD MSTORE PUSH1 0x3 DUP3 ADD SLOAD PUSH1 0x40 DUP3 ADD MSTORE PUSH1 0x4 DUP3 ADD SLOAD PUSH1 0x60 DUP3 ADD MSTORE PUSH1 0x5 SWAP1 SWAP2 ADD SLOAD PUSH1 0x80 SWAP1 SWAP2 ADD MSTORE PUSH1 0xA0 DUP2 ADD MLOAD SWAP1 SWAP2 POP DUP8 LT ISZERO PUSH2 0x1DD7 JUMPI PUSH1 0x40 MLOAD PUSH4 0x4CABABAD PUSH1 0xE0 SHL DUP2 MSTORE PUSH1 0x4 ADD PUSH1 0x40 MLOAD DUP1 SWAP2 SUB SWAP1 REVERT JUMPDEST PUSH1 0x0 PUSH1 0xD SLOAD PUSH1 0x1 PUSH2 0x1DE8 SWAP2 SWAP1 PUSH2 0x380A JUMP JUMPDEST PUSH1 0x0 DUP2 DUP2 MSTORE PUSH1 0xE PUSH1 0x20 MSTORE PUSH1 0x40 DUP2 KECCAK256 DUP3 DUP2 SSTORE PUSH1 0x1 DUP1 DUP3 ADD DUP1 SLOAD PUSH1 0x1 PUSH1 0x1 PUSH1 0xA0 SHL SUB NOT SWAP1 DUP2 AND CALLER OR SWAP1 SWAP2 SSTORE DUP8 DUP3 ADD SLOAD PUSH1 0x2 DUP5 ADD DUP1 SLOAD SWAP1 SWAP3 AND PUSH1 0x1 PUSH1 0x1 PUSH1 0xA0 SHL SUB SWAP2 SWAP1 SWAP2 AND OR SWAP1 SSTORE PUSH1 0x3 DUP3 ADD DUP14 SWAP1 SSTORE PUSH1 0x4 DUP3 ADD DUP13 SWAP1 SSTORE PUSH1 0x5 DUP3 ADD DUP12 SWAP1 SSTORE PUSH1 0x9 DUP3 ADD DUP1 SLOAD SWAP5 SWAP6 POP SWAP2 SWAP4 PUSH1 0xFF NOT AND SWAP1 DUP4 MUL OR SWAP1 SSTORE POP CALLER PUSH1 0x0 SWAP1 DUP2 MSTORE PUSH1 0xF PUSH1 0x20 SWAP1 DUP2 MSTORE PUSH1 0x40 DUP3 KECCAK256 DUP1 SLOAD PUSH1 0x1 DUP2 DUP2 ADD DUP4 SSTORE SWAP2 DUP5 MSTORE SWAP2 SWAP1 SWAP3 KECCAK256 DUP4 SLOAD PUSH1 0xA SWAP1 SWAP3 MUL ADD SWAP1 DUP2 SSTORE DUP2 DUP4 ADD SLOAD DUP2 DUP4 ADD DUP1 SLOAD PUSH1 0x1 PUSH1 0x1 PUSH1 0xA0 SHL SUB NOT SWAP1 DUP2 AND PUSH1 0x1 PUSH1 0x1 PUSH1 0xA0 SHL SUB SWAP4 DUP5 AND OR SWAP1 SWAP2 SSTORE PUSH1 0x2 DUP1 DUP7 ADD SLOAD SWAP1 DUP5 ADD DUP1 SLOAD SWAP1 SWAP3 AND SWAP1 DUP4 AND OR SWAP1 SSTORE PUSH1 0x3 DUP1 DUP6 ADD SLOAD DUP2 DUP5 ADD SSTORE PUSH1 0x4 DUP1 DUP7 ADD SLOAD SWAP1 DUP5 ADD SSTORE PUSH1 0x5 DUP1 DUP7 ADD SLOAD SWAP1 DUP5 ADD SSTORE PUSH1 0x6 DUP1 DUP7 ADD SLOAD SWAP1 DUP5 ADD SSTORE PUSH1 0x7 DUP1 DUP7 ADD DUP1 SLOAD SWAP2 DUP6 ADD DUP1 SLOAD PUSH1 0xFF SWAP4 DUP5 AND ISZERO ISZERO PUSH1 0xFF NOT DUP1 DUP4 AND DUP3 OR DUP5 SSTORE DUP5 SLOAD PUSH2 0x100 SWAP1 DUP2 SWAP1 DIV DUP8 AND ISZERO ISZERO MUL PUSH2 0xFF00 NOT SWAP1 SWAP3 AND PUSH2 0xFFFF NOT SWAP1 SWAP4 AND SWAP3 SWAP1 SWAP3 OR OR DUP1 DUP4 SSTORE SWAP3 SLOAD PUSH3 0x10000 SWAP1 DUP2 SWAP1 DIV SWAP1 SWAP7 AND SWAP1 SWAP6 MUL PUSH3 0x10000 PUSH1 0x1 PUSH1 0xB0 SHL SUB NOT SWAP1 SWAP3 AND SWAP2 SWAP1 SWAP2 OR SWAP1 SSTORE PUSH1 0x8 DUP1 DUP8 ADD SLOAD SWAP1 DUP6 ADD SSTORE PUSH1 0x9 DUP1 DUP8 ADD SLOAD SWAP1 DUP6 ADD DUP1 SLOAD DUP9 SWAP8 SWAP3 SWAP1 SWAP4 AND SWAP5 SWAP1 SWAP4 SWAP3 AND SWAP2 DUP5 SWAP1 DUP2 GT ISZERO PUSH2 0x1F7B JUMPI PUSH2 0x1F7B PUSH2 0x3143 JUMP JUMPDEST MUL OR SWAP1 SSTORE POP POP PUSH1 0xD DUP1 SLOAD SWAP2 POP PUSH1 0x0 PUSH2 0x1F92 DUP4 PUSH2 0x3A43 JUMP JUMPDEST SWAP1 SWAP2 SSTORE POP POP PUSH1 0x1 DUP5 ADD SLOAD PUSH1 0x40 DUP1 MLOAD DUP5 DUP2 MSTORE CALLER PUSH1 0x20 DUP3 ADD MSTORE PUSH1 0x1 PUSH1 0x1 PUSH1 0xA0 SHL SUB SWAP1 SWAP3 AND DUP3 DUP3 ADD MSTORE PUSH1 0x60 DUP3 ADD DUP13 SWAP1 MSTORE PUSH1 0x80 DUP3 ADD DUP12 SWAP1 MSTORE PUSH1 0xA0 DUP3 ADD DUP11 SWAP1 MSTORE MLOAD PUSH32 0x5B55842672AAA440D337FD65BB0154C3A00B886297DAF13F4F92AEA626A9300B SWAP2 DUP2 SWAP1 SUB PUSH1 0xC0 ADD SWAP1 LOG1 POP POP POP POP POP POP POP POP POP POP POP JUMP JUMPDEST PUSH1 0xB PUSH1 0x20 MSTORE PUSH1 0x0 SWAP1 DUP2 MSTORE PUSH1 0x40 SWAP1 KECCAK256 DUP1 SLOAD PUSH1 0x1 DUP3 ADD DUP1 SLOAD SWAP2 SWAP3 SWAP2 PUSH2 0x2027 SWAP1 PUSH2 0x381D JUMP JUMPDEST DUP1 PUSH1 0x1F ADD PUSH1 0x20 DUP1 SWAP2 DIV MUL PUSH1 0x20 ADD PUSH1 0x40 MLOAD SWAP1 DUP2 ADD PUSH1 0x40 MSTORE DUP1 SWAP3 SWAP2 SWAP1 DUP2 DUP2 MSTORE PUSH1 0x20 ADD DUP3 DUP1 SLOAD PUSH2 0x2053 SWAP1 PUSH2 0x381D JUMP JUMPDEST DUP1 ISZERO PUSH2 0x20A0 JUMPI DUP1 PUSH1 0x1F LT PUSH2 0x2075 JUMPI PUSH2 0x100 DUP1 DUP4 SLOAD DIV MUL DUP4 MSTORE SWAP2 PUSH1 0x20 ADD SWAP2 PUSH2 0x20A0 JUMP JUMPDEST DUP3 ADD SWAP2 SWAP1 PUSH1 0x0 MSTORE PUSH1 0x20 PUSH1 0x0 KECCAK256 SWAP1 JUMPDEST DUP2 SLOAD DUP2 MSTORE SWAP1 PUSH1 0x1 ADD SWAP1 PUSH1 0x20 ADD DUP1 DUP4 GT PUSH2 0x2083 JUMPI DUP3 SWAP1 SUB PUSH1 0x1F AND DUP3 ADD SWAP2 JUMPDEST POP POP POP PUSH1 0x2 DUP5 ADD SLOAD PUSH1 0x3 DUP6 ADD DUP1 SLOAD SWAP5 SWAP6 PUSH1 0x1 PUSH1 0x1 PUSH1 0xA0 SHL SUB SWAP1 SWAP3 AND SWAP5 SWAP2 SWAP4 POP SWAP2 POP PUSH2 0x20CA SWAP1 PUSH2 0x381D JUMP JUMPDEST DUP1 PUSH1 0x1F ADD PUSH1 0x20 DUP1 SWAP2 DIV MUL PUSH1 0x20 ADD PUSH1 0x40 MLOAD SWAP1 DUP2 ADD PUSH1 0x40 MSTORE DUP1 SWAP3 SWAP2 SWAP1 DUP2 DUP2 MSTORE PUSH1 0x20 ADD DUP3 DUP1 SLOAD PUSH2 0x20F6 SWAP1 PUSH2 0x381D JUMP JUMPDEST DUP1 ISZERO PUSH2 0x2143 JUMPI DUP1 PUSH1 0x1F LT PUSH2 0x2118 JUMPI PUSH2 0x100 DUP1 DUP4 SLOAD DIV MUL DUP4 MSTORE SWAP2 PUSH1 0x20 ADD SWAP2 PUSH2 0x2143 JUMP JUMPDEST DUP3 ADD SWAP2 SWAP1 PUSH1 0x0 MSTORE PUSH1 0x20 PUSH1 0x0 KECCAK256 SWAP1 JUMPDEST DUP2 SLOAD DUP2 MSTORE SWAP1 PUSH1 0x1 ADD SWAP1 PUSH1 0x20 ADD DUP1 DUP4 GT PUSH2 0x2126 JUMPI DUP3 SWAP1 SUB PUSH1 0x1F AND DUP3 ADD SWAP2 JUMPDEST POP POP POP POP PUSH1 0x4 DUP4 ADD SLOAD PUSH1 0x5 SWAP1 SWAP4 ADD SLOAD SWAP2 SWAP3 SWAP2 PUSH1 0xFF AND SWAP1 POP DUP7 JUMP JUMPDEST CALLER PUSH1 0x0 SWAP1 DUP2 MSTORE PUSH1 0xB PUSH1 0x20 MSTORE PUSH1 0x40 SWAP1 KECCAK256 PUSH1 0x2 ADD SLOAD PUSH1 0x60 SWAP1 PUSH1 0x1 PUSH1 0x1 PUSH1 0xA0 SHL SUB AND PUSH2 0x2199 JUMPI PUSH1 0x40 MLOAD PUSH4 0x2FFE7105 PUSH1 0xE1 SHL DUP2 MSTORE PUSH1 0x4 ADD PUSH1 0x40 MLOAD DUP1 SWAP2 SUB SWAP1 REVERT JUMPDEST CALLER PUSH1 0x0 SWAP1 DUP2 MSTORE PUSH1 0x10 PUSH1 0x20 SWAP1 DUP2 MSTORE PUSH1 0x40 SWAP2 DUP3 SWAP1 KECCAK256 DUP1 SLOAD DUP4 MLOAD DUP2 DUP5 MUL DUP2 ADD DUP5 ADD SWAP1 SWAP5 MSTORE DUP1 DUP5 MSTORE SWAP1 SWAP2 DUP4 ADD DUP3 DUP3 DUP1 ISZERO PUSH2 0x21EE JUMPI PUSH1 0x20 MUL DUP3 ADD SWAP2 SWAP1 PUSH1 0x0 MSTORE PUSH1 0x20 PUSH1 0x0 KECCAK256 SWAP1 JUMPDEST DUP2 SLOAD DUP2 MSTORE PUSH1 0x20 ADD SWAP1 PUSH1 0x1 ADD SWAP1 DUP1 DUP4 GT PUSH2 0x21DA JUMPI JUMPDEST POP POP POP POP POP SWAP1 POP SWAP1 JUMP JUMPDEST PUSH1 0x0 DUP2 DUP2 MSTORE PUSH1 0xE PUSH1 0x20 MSTORE PUSH1 0x40 SWAP1 KECCAK256 PUSH1 0x7 DUP2 ADD SLOAD PUSH3 0x10000 SWAP1 DIV PUSH1 0x1 PUSH1 0x1 PUSH1 0xA0 SHL SUB AND CALLER EQ PUSH2 0x2239 JUMPI PUSH1 0x40 MLOAD PUSH4 0xD6A0F131 PUSH1 0xE0 SHL DUP2 MSTORE PUSH1 0x4 ADD PUSH1 0x40 MLOAD DUP1 SWAP2 SUB SWAP1 REVERT JUMPDEST PUSH1 0x7 DUP2 ADD SLOAD PUSH2 0x100 SWAP1 DIV PUSH1 0xFF AND PUSH2 0x2262 JUMPI PUSH1 0x40 MLOAD PUSH3 0x2A0209 PUSH1 0xE3 SHL DUP2 MSTORE PUSH1 0x4 ADD PUSH1 0x40 MLOAD DUP1 SWAP2 SUB SWAP1 REVERT JUMPDEST PUSH1 0x7 DUP2 ADD SLOAD PUSH1 0xFF AND ISZERO PUSH2 0x2288 JUMPI PUSH1 0x40 MLOAD PUSH4 0x8C53D035 PUSH1 0xE0 SHL DUP2 MSTORE PUSH1 0x4 ADD PUSH1 0x40 MLOAD DUP1 SWAP2 SUB SWAP1 REVERT JUMPDEST PUSH1 0x7 DUP2 ADD DUP1 SLOAD PUSH1 0xFF NOT AND PUSH1 0x1 OR SWAP1 SSTORE PUSH1 0x0 SLOAD PUSH1 0x8 DUP3 ADD SLOAD PUSH1 0x40 MLOAD PUSH4 0x3B594C59 PUSH1 0xE2 SHL DUP2 MSTORE PUSH1 0x1 PUSH1 0x1 PUSH1 0xA0 SHL SUB SWAP1 SWAP3 AND SWAP2 PUSH4 0xED653164 SWAP2 PUSH2 0x22CE SWAP2 PUSH1 0x4 ADD SWAP1 DUP2 MSTORE PUSH1 0x20 ADD SWAP1 JUMP JUMPDEST PUSH1 0x0 PUSH1 0x40 MLOAD DUP1 DUP4 SUB DUP2 PUSH1 0x0 DUP8 DUP1 EXTCODESIZE ISZERO DUP1 ISZERO PUSH2 0x22E8 JUMPI PUSH1 0x0 DUP1 REVERT JUMPDEST POP GAS CALL ISZERO DUP1 ISZERO PUSH2 0x22FC JUMPI RETURNDATASIZE PUSH1 0x0 DUP1 RETURNDATACOPY RETURNDATASIZE PUSH1 0x0 REVERT JUMPDEST POP POP PUSH1 0x40 DUP1 MLOAD DUP6 DUP2 MSTORE CALLER PUSH1 0x20 DUP3 ADD MSTORE PUSH32 0xB67202E01DE5D26F86DEF24FCCAF7364A01B9F5D52D7B122157F5C10907F294F SWAP4 POP ADD SWAP1 POP PUSH2 0xF7E JUMP JUMPDEST CALLER PUSH1 0x0 SWAP1 DUP2 MSTORE PUSH1 0x6 PUSH1 0x20 MSTORE PUSH1 0x40 SWAP1 KECCAK256 PUSH1 0x4 ADD SLOAD PUSH1 0xFF AND PUSH2 0x2369 JUMPI PUSH1 0x40 MLOAD PUSH4 0xB7E3F9D PUSH1 0xE4 SHL DUP2 MSTORE PUSH1 0x4 ADD PUSH1 0x40 MLOAD DUP1 SWAP2 SUB SWAP1 REVERT JUMPDEST PUSH1 0x3 DUP4 MLOAD LT ISZERO PUSH2 0x238C JUMPI PUSH1 0x40 MLOAD PUSH4 0xA8936BF5 PUSH1 0xE0 SHL DUP2 MSTORE PUSH1 0x4 ADD PUSH1 0x40 MLOAD DUP1 SWAP2 SUB SWAP1 REVERT JUMPDEST PUSH1 0x0 DUP3 GT PUSH2 0x23AD JUMPI PUSH1 0x40 MLOAD PUSH4 0x608A7E4D PUSH1 0xE0 SHL DUP2 MSTORE PUSH1 0x4 ADD PUSH1 0x40 MLOAD DUP1 SWAP2 SUB SWAP1 REVERT JUMPDEST DUP1 PUSH1 0x0 SUB PUSH2 0x23CE JUMPI PUSH1 0x40 MLOAD PUSH4 0x34283A87 PUSH1 0xE1 SHL DUP2 MSTORE PUSH1 0x4 ADD PUSH1 0x40 MLOAD DUP1 SWAP2 SUB SWAP1 REVERT JUMPDEST CALLER PUSH1 0x0 SWAP1 DUP2 MSTORE PUSH1 0x5 PUSH1 0x20 MSTORE PUSH1 0x40 SWAP1 DUP2 SWAP1 KECCAK256 DUP1 SLOAD DUP3 MLOAD PUSH1 0xC0 DUP2 ADD SWAP1 SWAP4 MSTORE SWAP2 DUP1 PUSH2 0x23F7 DUP5 PUSH1 0x1 PUSH2 0x380A JUMP JUMPDEST DUP2 MSTORE PUSH1 0x20 DUP1 DUP3 ADD DUP9 SWAP1 MSTORE CALLER PUSH1 0x40 DUP1 DUP5 ADD DUP3 SWAP1 MSTORE PUSH1 0x0 SWAP2 DUP3 MSTORE PUSH1 0x6 DUP1 DUP5 MSTORE SWAP1 DUP3 KECCAK256 SLOAD PUSH1 0x60 DUP6 ADD MSTORE PUSH1 0x80 DUP5 ADD DUP10 SWAP1 MSTORE PUSH1 0xA0 SWAP1 SWAP4 ADD DUP8 SWAP1 MSTORE DUP5 SLOAD PUSH1 0x1 DUP2 DUP2 ADD DUP8 SSTORE SWAP6 DUP3 MSTORE SWAP1 DUP3 SWAP1 KECCAK256 DUP5 MLOAD SWAP2 SWAP1 SWAP4 MUL SWAP1 SWAP3 ADD SWAP2 DUP3 SSTORE DUP3 ADD MLOAD SWAP2 SWAP3 SWAP1 SWAP2 SWAP1 DUP3 ADD SWAP1 PUSH2 0x245D SWAP1 DUP3 PUSH2 0x38A8 JUMP JUMPDEST POP PUSH1 0x40 DUP3 DUP2 ADD MLOAD PUSH1 0x2 DUP4 ADD DUP1 SLOAD PUSH1 0x1 PUSH1 0x1 PUSH1 0xA0 SHL SUB NOT AND PUSH1 0x1 PUSH1 0x1 PUSH1 0xA0 SHL SUB SWAP1 SWAP3 AND SWAP2 SWAP1 SWAP2 OR SWAP1 SSTORE PUSH1 0x60 DUP4 ADD MLOAD PUSH1 0x3 DUP4 ADD SSTORE PUSH1 0x80 DUP4 ADD MLOAD PUSH1 0x4 DUP4 ADD SSTORE PUSH1 0xA0 SWAP1 SWAP3 ADD MLOAD PUSH1 0x5 SWAP1 SWAP2 ADD SSTORE MLOAD CALLER SWAP1 PUSH32 0xED1FFB8900074C0ED38AA50F58A811976AEBD6B5A02C3A17E53B4FC78704C1E9 SWAP1 PUSH2 0x24D9 SWAP1 DUP8 SWAP1 DUP8 SWAP1 DUP8 SWAP1 PUSH2 0x3A72 JUMP JUMPDEST PUSH1 0x40 MLOAD DUP1 SWAP2 SUB SWAP1 LOG2 POP POP POP POP JUMP JUMPDEST PUSH1 0x10 PUSH1 0x20 MSTORE DUP2 PUSH1 0x0 MSTORE PUSH1 0x40 PUSH1 0x0 KECCAK256 DUP2 DUP2 SLOAD DUP2 LT PUSH2 0x2503 JUMPI PUSH1 0x0 DUP1 REVERT JUMPDEST SWAP1 PUSH1 0x0 MSTORE PUSH1 0x20 PUSH1 0x0 KECCAK256 ADD PUSH1 0x0 SWAP2 POP SWAP2 POP POP SLOAD DUP2 JUMP JUMPDEST PUSH1 0x5 PUSH1 0x20 MSTORE DUP2 PUSH1 0x0 MSTORE PUSH1 0x40 PUSH1 0x0 KECCAK256 DUP2 DUP2 SLOAD DUP2 LT PUSH2 0x2534 JUMPI PUSH1 0x0 DUP1 REVERT JUMPDEST SWAP1 PUSH1 0x0 MSTORE PUSH1 0x20 PUSH1 0x0 KECCAK256 SWAP1 PUSH1 0x6 MUL ADD PUSH1 0x0 SWAP2 POP SWAP2 POP POP DUP1 PUSH1 0x0 ADD SLOAD SWAP1 DUP1 PUSH1 0x1 ADD DUP1 SLOAD PUSH2 0x255E SWAP1 PUSH2 0x381D JUMP JUMPDEST DUP1 PUSH1 0x1F ADD PUSH1 0x20 DUP1 SWAP2 DIV MUL PUSH1 0x20 ADD PUSH1 0x40 MLOAD SWAP1 DUP2 ADD PUSH1 0x40 MSTORE DUP1 SWAP3 SWAP2 SWAP1 DUP2 DUP2 MSTORE PUSH1 0x20 ADD DUP3 DUP1 SLOAD PUSH2 0x258A SWAP1 PUSH2 0x381D JUMP JUMPDEST DUP1 ISZERO PUSH2 0x25D7 JUMPI DUP1 PUSH1 0x1F LT PUSH2 0x25AC JUMPI PUSH2 0x100 DUP1 DUP4 SLOAD DIV MUL DUP4 MSTORE SWAP2 PUSH1 0x20 ADD SWAP2 PUSH2 0x25D7 JUMP JUMPDEST DUP3 ADD SWAP2 SWAP1 PUSH1 0x0 MSTORE PUSH1 0x20 PUSH1 0x0 KECCAK256 SWAP1 JUMPDEST DUP2 SLOAD DUP2 MSTORE SWAP1 PUSH1 0x1 ADD SWAP1 PUSH1 0x20 ADD DUP1 DUP4 GT PUSH2 0x25BA JUMPI DUP3 SWAP1 SUB PUSH1 0x1F AND DUP3 ADD SWAP2 JUMPDEST POP POP POP POP PUSH1 0x2 DUP4 ADD SLOAD PUSH1 0x3 DUP5 ADD SLOAD PUSH1 0x4 DUP6 ADD SLOAD PUSH1 0x5 SWAP1 SWAP6 ADD SLOAD SWAP4 SWAP5 PUSH1 0x1 PUSH1 0x1 PUSH1 0xA0 SHL SUB SWAP1 SWAP3 AND SWAP4 SWAP1 SWAP3 POP DUP7 JUMP JUMPDEST PUSH1 0x1 PUSH1 0x1 PUSH1 0xA0 SHL SUB DUP1 DUP3 AND PUSH1 0x0 SWAP1 DUP2 MSTORE PUSH1 0xB PUSH1 0x20 SWAP1 DUP2 MSTORE PUSH1 0x40 DUP1 DUP4 KECCAK256 DUP7 DUP5 MSTORE PUSH1 0xE SWAP1 SWAP3 MSTORE SWAP1 SWAP2 KECCAK256 PUSH1 0x2 DUP2 ADD SLOAD SWAP2 SWAP3 SWAP1 SWAP2 AND CALLER EQ PUSH2 0x2654 JUMPI PUSH1 0x40 MLOAD PUSH4 0x82BC9D79 PUSH1 0xE0 SHL DUP2 MSTORE PUSH1 0x4 ADD PUSH1 0x40 MLOAD DUP1 SWAP2 SUB SWAP1 REVERT JUMPDEST PUSH1 0x7 DUP2 ADD SLOAD PUSH2 0x100 SWAP1 DIV PUSH1 0xFF AND ISZERO PUSH2 0x267F JUMPI PUSH1 0x40 MLOAD PUSH4 0xBC177A89 PUSH1 0xE0 SHL DUP2 MSTORE PUSH1 0x4 ADD PUSH1 0x40 MLOAD DUP1 SWAP2 SUB SWAP1 REVERT JUMPDEST PUSH1 0x7 DUP2 ADD SLOAD PUSH1 0xFF AND ISZERO PUSH2 0x26A5 JUMPI PUSH1 0x40 MLOAD PUSH4 0x8C53D035 PUSH1 0xE0 SHL DUP2 MSTORE PUSH1 0x4 ADD PUSH1 0x40 MLOAD DUP1 SWAP2 SUB SWAP1 REVERT JUMPDEST PUSH1 0x7 DUP2 ADD SLOAD PUSH3 0x10000 SWAP1 DIV PUSH1 0x1 PUSH1 0x1 PUSH1 0xA0 SHL SUB AND ISZERO PUSH2 0x26D7 JUMPI PUSH1 0x40 MLOAD PUSH4 0xDE81FF5 PUSH1 0xE0 SHL DUP2 MSTORE PUSH1 0x4 ADD PUSH1 0x40 MLOAD DUP1 SWAP2 SUB SWAP1 REVERT JUMPDEST DUP1 PUSH1 0x5 ADD SLOAD CALLVALUE LT ISZERO PUSH2 0x26FC JUMPI PUSH1 0x40 MLOAD PUSH4 0xADEA3241 PUSH1 0xE0 SHL DUP2 MSTORE PUSH1 0x4 ADD PUSH1 0x40 MLOAD DUP1 SWAP2 SUB SWAP1 REVERT JUMPDEST PUSH1 0x7 DUP2 ADD DUP1 SLOAD PUSH1 0x1 PUSH1 0x1 PUSH1 0xA0 SHL SUB DUP6 AND PUSH3 0x10000 MUL PUSH2 0x100 PUSH1 0x1 PUSH1 0xB0 SHL SUB NOT SWAP1 SWAP2 AND OR PUSH2 0x100 OR SWAP1 SSTORE PUSH1 0x4 DUP3 ADD DUP1 SLOAD SWAP1 PUSH1 0x0 PUSH2 0x2737 DUP4 PUSH2 0x3A43 JUMP JUMPDEST SWAP1 SWAP2 SSTORE POP POP PUSH1 0x0 DUP1 SLOAD PUSH1 0x5 DUP4 ADD SLOAD PUSH1 0x1 DUP5 ADD SLOAD PUSH1 0x2 DUP6 ADD SLOAD PUSH1 0x40 MLOAD PUSH4 0x19560BC1 PUSH1 0xE2 SHL DUP2 MSTORE PUSH1 0x1 PUSH1 0x1 PUSH1 0xA0 SHL SUB SWAP3 DUP4 AND PUSH1 0x4 DUP3 ADD MSTORE SWAP1 DUP3 AND PUSH1 0x24 DUP3 ADD MSTORE PUSH1 0x44 DUP2 ADD DUP6 SWAP1 MSTORE SWAP3 AND SWAP2 PUSH4 0x65582F04 SWAP2 SWAP1 PUSH1 0x64 ADD PUSH1 0x20 PUSH1 0x40 MLOAD DUP1 DUP4 SUB DUP2 DUP6 DUP9 GAS CALL ISZERO DUP1 ISZERO PUSH2 0x27A6 JUMPI RETURNDATASIZE PUSH1 0x0 DUP1 RETURNDATACOPY RETURNDATASIZE PUSH1 0x0 REVERT JUMPDEST POP POP POP POP POP PUSH1 0x40 MLOAD RETURNDATASIZE PUSH1 0x1F NOT PUSH1 0x1F DUP3 ADD AND DUP3 ADD DUP1 PUSH1 0x40 MSTORE POP DUP2 ADD SWAP1 PUSH2 0x27CB SWAP2 SWAP1 PUSH2 0x3A97 JUMP JUMPDEST PUSH1 0x8 DUP4 ADD DUP2 SWAP1 SSTORE PUSH1 0x1 PUSH1 0x1 PUSH1 0xA0 SHL SUB DUP6 AND PUSH1 0x0 DUP2 DUP2 MSTORE PUSH1 0x10 PUSH1 0x20 SWAP1 DUP2 MSTORE PUSH1 0x40 DUP1 DUP4 KECCAK256 DUP1 SLOAD PUSH1 0x1 DUP2 ADD DUP3 SSTORE SWAP1 DUP5 MSTORE SWAP3 DUP3 SWAP1 KECCAK256 SWAP1 SWAP3 ADD DUP10 SWAP1 SSTORE DUP2 MLOAD DUP10 DUP2 MSTORE SWAP1 DUP2 ADD SWAP3 SWAP1 SWAP3 MSTORE SWAP2 SWAP3 POP PUSH32 0xA74A28866064B16E695EBBF53F8B0F9AA0BB93885DBBCC373004F1A052CC4248 SWAP2 ADD PUSH1 0x40 MLOAD DUP1 SWAP2 SUB SWAP1 LOG1 POP POP POP POP POP JUMP JUMPDEST PUSH1 0x0 DUP2 DUP2 MSTORE PUSH1 0xE PUSH1 0x20 MSTORE PUSH1 0x40 SWAP1 KECCAK256 PUSH1 0x7 DUP2 ADD SLOAD PUSH1 0xFF AND ISZERO PUSH2 0x2877 JUMPI PUSH1 0x40 MLOAD PUSH4 0x8C53D035 PUSH1 0xE0 SHL DUP2 MSTORE PUSH1 0x4 ADD PUSH1 0x40 MLOAD DUP1 SWAP2 SUB SWAP1 REVERT JUMPDEST PUSH1 0x2 DUP2 ADD SLOAD PUSH1 0x1 PUSH1 0x1 PUSH1 0xA0 SHL SUB AND CALLER EQ DUP1 ISZERO SWAP1 PUSH2 0x28A7 JUMPI POP PUSH1 0x7 DUP2 ADD SLOAD PUSH3 0x10000 SWAP1 DIV PUSH1 0x1 PUSH1 0x1 PUSH1 0xA0 SHL SUB AND CALLER EQ ISZERO JUMPDEST ISZERO PUSH2 0x28C5 JUMPI PUSH1 0x40 MLOAD PUSH4 0x3D83866F PUSH1 0xE0 SHL DUP2 MSTORE PUSH1 0x4 ADD PUSH1 0x40 MLOAD DUP1 SWAP2 SUB SWAP1 REVERT JUMPDEST PUSH1 0x0 SLOAD PUSH1 0x8 DUP3 ADD SLOAD PUSH1 0x40 MLOAD PUSH4 0x356F9DFD PUSH1 0xE0 SHL DUP2 MSTORE PUSH1 0x1 PUSH1 0x1 PUSH1 0xA0 SHL SUB SWAP1 SWAP3 AND SWAP2 PUSH4 0x356F9DFD SWAP2 PUSH2 0x28FC SWAP2 PUSH1 0x4 ADD SWAP1 DUP2 MSTORE PUSH1 0x20 ADD SWAP1 JUMP JUMPDEST PUSH1 0x0 PUSH1 0x40 MLOAD DUP1 DUP4 SUB DUP2 PUSH1 0x0 DUP8 DUP1 EXTCODESIZE ISZERO DUP1 ISZERO PUSH2 0x2916 JUMPI PUSH1 0x0 DUP1 REVERT JUMPDEST POP GAS CALL ISZERO DUP1 ISZERO PUSH2 0x292A JUMPI RETURNDATASIZE PUSH1 0x0 DUP1 RETURNDATACOPY RETURNDATASIZE PUSH1 0x0 REVERT JUMPDEST POP POP POP PUSH1 0x7 DUP3 ADD DUP1 SLOAD PUSH1 0xFF NOT AND PUSH1 0x1 OR SWAP1 SSTORE POP PUSH1 0x40 MLOAD PUSH32 0xEF59A0001E061D6024146FF061C594FE7DD6CD8036E34925EE279D24840CA50D SWAP1 PUSH2 0xF7E SWAP1 DUP5 DUP2 MSTORE PUSH1 0x20 ADD SWAP1 JUMP JUMPDEST PUSH1 0xF PUSH1 0x20 MSTORE DUP2 PUSH1 0x0 MSTORE PUSH1 0x40 PUSH1 0x0 KECCAK256 DUP2 DUP2 SLOAD DUP2 LT PUSH2 0x298B JUMPI PUSH1 0x0 DUP1 REVERT JUMPDEST PUSH1 0x0 SWAP2 DUP3 MSTORE PUSH1 0x20 SWAP1 SWAP2 KECCAK256 PUSH1 0xA SWAP1 SWAP2 MUL ADD DUP1 SLOAD PUSH1 0x1 DUP3 ADD SLOAD PUSH1 0x2 DUP4 ADD SLOAD PUSH1 0x3 DUP5 ADD SLOAD PUSH1 0x4 DUP6 ADD SLOAD PUSH1 0x5 DUP7 ADD SLOAD PUSH1 0x6 DUP8 ADD SLOAD PUSH1 0x7 DUP9 ADD SLOAD PUSH1 0x8 DUP10 ADD SLOAD PUSH1 0x9 SWAP1 SWAP10 ADD SLOAD SWAP8 SWAP11 POP PUSH1 0x1 PUSH1 0x1 PUSH1 0xA0 SHL SUB SWAP7 DUP8 AND SWAP10 POP SWAP5 DUP7 AND SWAP8 SWAP4 SWAP7 SWAP3 SWAP6 SWAP2 SWAP5 SWAP1 SWAP4 PUSH1 0xFF DUP1 DUP4 AND SWAP5 PUSH2 0x100 DUP5 DIV DUP3 AND SWAP5 PUSH3 0x10000 SWAP1 SWAP5 DIV SWAP1 SWAP4 AND SWAP3 AND DUP13 JUMP JUMPDEST PUSH1 0x1 PUSH1 0x1 PUSH1 0xA0 SHL SUB DUP5 AND PUSH1 0x0 SWAP1 DUP2 MSTORE PUSH1 0x6 PUSH1 0x20 MSTORE PUSH1 0x40 SWAP1 KECCAK256 PUSH1 0x4 ADD SLOAD PUSH1 0xFF AND ISZERO ISZERO PUSH1 0x1 SUB PUSH2 0x2A45 JUMPI PUSH1 0x40 MLOAD PUSH4 0xC55C3D09 PUSH1 0xE0 SHL DUP2 MSTORE PUSH1 0x4 ADD PUSH1 0x40 MLOAD DUP1 SWAP2 SUB SWAP1 REVERT JUMPDEST DUP2 PUSH1 0x3 SIGNEXTEND PUSH1 0x0 SUB PUSH2 0x2A69 JUMPI PUSH1 0x40 MLOAD PUSH4 0xF03C5E7 PUSH1 0xE4 SHL DUP2 MSTORE PUSH1 0x4 ADD PUSH1 0x40 MLOAD DUP1 SWAP2 SUB SWAP1 REVERT JUMPDEST DUP1 PUSH1 0x3 SIGNEXTEND PUSH1 0x0 SUB PUSH2 0x2A8D JUMPI PUSH1 0x40 MLOAD PUSH4 0x2DF428A3 PUSH1 0xE0 SHL DUP2 MSTORE PUSH1 0x4 ADD PUSH1 0x40 MLOAD DUP1 SWAP2 SUB SWAP1 REVERT JUMPDEST PUSH1 0x0 PUSH1 0x4 SLOAD PUSH1 0x1 PUSH2 0x2A9E SWAP2 SWAP1 PUSH2 0x380A JUMP JUMPDEST PUSH1 0x1 PUSH1 0x1 PUSH1 0xA0 SHL SUB DUP7 AND PUSH1 0x0 DUP2 DUP2 MSTORE PUSH1 0x6 PUSH1 0x20 MSTORE PUSH1 0x40 SWAP1 KECCAK256 DUP3 DUP2 SSTORE PUSH1 0x1 DUP2 ADD DUP1 SLOAD PUSH1 0x1 PUSH1 0x1 PUSH1 0xA0 SHL SUB NOT AND SWAP1 SWAP3 OR SWAP1 SWAP2 SSTORE SWAP1 SWAP2 POP PUSH1 0x2 DUP2 ADD PUSH2 0x2AE0 DUP7 DUP3 PUSH2 0x38A8 JUMP JUMPDEST POP PUSH1 0x4 DUP2 ADD DUP1 SLOAD PUSH1 0xFF NOT AND PUSH1 0x1 SWAP1 DUP2 OR SWAP1 SWAP2 SSTORE PUSH1 0x8 DUP1 SLOAD DUP1 DUP4 ADD DUP3 SSTORE PUSH1 0x0 SWAP2 SWAP1 SWAP2 MSTORE DUP3 SLOAD PUSH1 0x5 SWAP1 SWAP2 MUL PUSH32 0xF3F7A9FE364FAAB93B216DA50A3214154F22A0A2B415B23A84C8169E8B636EE3 DUP2 ADD SWAP2 DUP3 SSTORE SWAP2 DUP4 ADD SLOAD PUSH32 0xF3F7A9FE364FAAB93B216DA50A3214154F22A0A2B415B23A84C8169E8B636EE4 DUP4 ADD DUP1 SLOAD PUSH1 0x1 PUSH1 0x1 PUSH1 0xA0 SHL SUB NOT AND PUSH1 0x1 PUSH1 0x1 PUSH1 0xA0 SHL SUB SWAP1 SWAP3 AND SWAP2 SWAP1 SWAP2 OR SWAP1 SSTORE DUP3 SWAP2 PUSH32 0xF3F7A9FE364FAAB93B216DA50A3214154F22A0A2B415B23A84C8169E8B636EE5 ADD PUSH2 0x2BA4 PUSH1 0x2 DUP5 ADD DUP3 PUSH2 0x3968 JUMP JUMPDEST POP PUSH1 0x3 DUP3 DUP2 ADD SLOAD SWAP1 DUP3 ADD SSTORE PUSH1 0x4 SWAP2 DUP3 ADD SLOAD SWAP1 DUP3 ADD DUP1 SLOAD PUSH1 0xFF SWAP1 SWAP3 AND ISZERO ISZERO PUSH1 0xFF NOT SWAP1 SWAP3 AND SWAP2 SWAP1 SWAP2 OR SWAP1 SSTORE PUSH1 0x1 PUSH1 0x1 PUSH1 0xA0 SHL SUB DUP8 AND PUSH1 0x0 SWAP1 DUP2 MSTORE PUSH1 0x9 PUSH1 0x20 MSTORE PUSH1 0x40 DUP2 KECCAK256 DUP1 SLOAD PUSH4 0xFFFFFFFF DUP8 DUP2 AND PUSH1 0x1 PUSH1 0x20 SHL MUL PUSH8 0xFFFFFFFFFFFFFFFF NOT SWAP1 SWAP3 AND SWAP1 DUP10 AND OR OR DUP2 SSTORE DUP3 SLOAD SWAP1 SWAP3 SWAP1 SWAP2 PUSH2 0x2C18 DUP4 PUSH2 0x3A43 JUMP JUMPDEST SWAP1 SWAP2 SSTORE POP POP PUSH1 0x0 DUP4 DUP2 MSTORE PUSH1 0x7 PUSH1 0x20 MSTORE PUSH1 0x40 SWAP1 KECCAK256 DUP3 SLOAD DUP2 SSTORE PUSH1 0x1 DUP1 DUP5 ADD SLOAD SWAP1 DUP3 ADD DUP1 SLOAD PUSH1 0x1 PUSH1 0x1 PUSH1 0xA0 SHL SUB NOT AND PUSH1 0x1 PUSH1 0x1 PUSH1 0xA0 SHL SUB SWAP1 SWAP3 AND SWAP2 SWAP1 SWAP2 OR SWAP1 SSTORE DUP3 SWAP1 PUSH1 0x2 DUP1 DUP3 ADD SWAP1 PUSH2 0x2C69 SWAP1 DUP5 ADD DUP3 PUSH2 0x3968 JUMP JUMPDEST POP PUSH1 0x3 DUP3 DUP2 ADD SLOAD SWAP1 DUP3 ADD SSTORE PUSH1 0x4 SWAP2 DUP3 ADD SLOAD SWAP2 ADD DUP1 SLOAD PUSH1 0xFF NOT AND PUSH1 0xFF SWAP1 SWAP3 AND ISZERO ISZERO SWAP2 SWAP1 SWAP2 OR SWAP1 SSTORE PUSH1 0x40 MLOAD PUSH1 0x1 PUSH1 0x1 PUSH1 0xA0 SHL SUB DUP9 AND SWAP1 PUSH32 0x168C9BCC539365110D1CB9F13DB60E10583C31A292115A6EEE4760220E0CCE01 SWAP1 PUSH2 0x2CCE SWAP1 DUP10 SWAP1 DUP10 SWAP1 DUP10 SWAP1 PUSH2 0x3AB0 JUMP JUMPDEST PUSH1 0x40 MLOAD DUP1 SWAP2 SUB SWAP1 LOG2 POP POP POP POP POP POP POP JUMP JUMPDEST PUSH1 0x7 PUSH1 0x20 MSTORE PUSH1 0x0 SWAP1 DUP2 MSTORE PUSH1 0x40 SWAP1 KECCAK256 DUP1 SLOAD PUSH1 0x1 DUP3 ADD SLOAD PUSH1 0x2 DUP4 ADD DUP1 SLOAD SWAP3 SWAP4 PUSH1 0x1 PUSH1 0x1 PUSH1 0xA0 SHL SUB SWAP1 SWAP3 AND SWAP3 PUSH2 0x198D SWAP1 PUSH2 0x381D JUMP JUMPDEST PUSH1 0x1 PUSH1 0x1 PUSH1 0xA0 SHL SUB DUP2 AND PUSH1 0x0 SWAP1 DUP2 MSTORE PUSH1 0x3 PUSH1 0x20 DUP2 SWAP1 MSTORE PUSH1 0x40 SWAP1 SWAP2 KECCAK256 SWAP1 DUP2 ADD SLOAD PUSH1 0xFF AND ISZERO PUSH2 0x2D51 JUMPI PUSH1 0x40 MLOAD PUSH4 0x5855BBB PUSH1 0xE1 SHL DUP2 MSTORE PUSH1 0x4 ADD PUSH1 0x40 MLOAD DUP1 SWAP2 SUB SWAP1 REVERT JUMPDEST PUSH1 0x2 PUSH1 0x0 DUP2 SLOAD PUSH2 0x2D60 SWAP1 PUSH2 0x3A43 JUMP JUMPDEST SWAP2 DUP3 SWAP1 SSTORE POP DUP2 SSTORE PUSH1 0x1 DUP1 DUP3 ADD DUP1 SLOAD PUSH1 0x1 PUSH1 0x1 PUSH1 0xA0 SHL SUB NOT AND PUSH1 0x1 PUSH1 0x1 PUSH1 0xA0 SHL SUB SWAP5 SWAP1 SWAP5 AND SWAP4 SWAP1 SWAP4 OR SWAP1 SWAP3 SSTORE PUSH1 0x3 ADD DUP1 SLOAD PUSH1 0xFF NOT AND SWAP1 SWAP2 OR SWAP1 SSTORE JUMP JUMPDEST PUSH1 0x1 PUSH1 0x1 PUSH1 0xA0 SHL SUB DUP4 AND PUSH1 0x0 SWAP1 DUP2 MSTORE PUSH1 0x3 PUSH1 0x20 DUP2 SWAP1 MSTORE PUSH1 0x40 SWAP1 SWAP2 KECCAK256 ADD SLOAD PUSH1 0xFF AND PUSH2 0x2DD8 JUMPI PUSH1 0x40 MLOAD PUSH4 0x60F49853 PUSH1 0xE0 SHL DUP2 MSTORE PUSH1 0x4 ADD PUSH1 0x40 MLOAD DUP1 SWAP2 SUB SWAP1 REVERT JUMPDEST PUSH1 0x40 DUP1 MLOAD DUP1 DUP3 ADD DUP3 MSTORE PUSH1 0x3 SWAP4 DUP5 SIGNEXTEND DUP2 MSTORE SWAP2 DUP4 SIGNEXTEND PUSH1 0x20 DUP1 DUP5 ADD SWAP2 DUP3 MSTORE PUSH1 0x1 PUSH1 0x1 PUSH1 0xA0 SHL SUB SWAP1 SWAP6 AND PUSH1 0x0 SWAP1 DUP2 MSTORE SWAP4 SWAP1 SWAP5 MSTORE SWAP1 SWAP2 KECCAK256 SWAP1 MLOAD PUSH1 0x2 SWAP1 SWAP2 ADD DUP1 SLOAD SWAP3 MLOAD PUSH4 0xFFFFFFFF SWAP1 DUP2 AND PUSH1 0x1 PUSH1 0x20 SHL MUL PUSH8 0xFFFFFFFFFFFFFFFF NOT SWAP1 SWAP5 AND SWAP3 AND SWAP2 SWAP1 SWAP2 OR SWAP2 SWAP1 SWAP2 OR SWAP1 SSTORE JUMP JUMPDEST PUSH1 0x40 MLOAD DUP1 PUSH1 0xC0 ADD PUSH1 0x40 MSTORE DUP1 PUSH1 0x0 DUP2 MSTORE PUSH1 0x20 ADD PUSH1 0x60 DUP2 MSTORE PUSH1 0x20 ADD PUSH1 0x0 PUSH1 0x1 PUSH1 0x1 PUSH1 0xA0 SHL SUB AND DUP2 MSTORE PUSH1 0x20 ADD PUSH1 0x0 DUP2 MSTORE PUSH1 0x20 ADD PUSH1 0x0 DUP2 MSTORE PUSH1 0x20 ADD PUSH1 0x0 DUP2 MSTORE POP SWAP1 JUMP JUMPDEST PUSH1 0x1 PUSH1 0x1 PUSH1 0xA0 SHL SUB DUP6 AND DUP2 MSTORE PUSH1 0x20 DUP2 ADD DUP5 SWAP1 MSTORE PUSH1 0x60 PUSH1 0x40 DUP3 ADD DUP2 SWAP1 MSTORE DUP2 ADD DUP3 SWAP1 MSTORE DUP2 DUP4 PUSH1 0x80 DUP4 ADD CALLDATACOPY PUSH1 0x0 DUP2 DUP4 ADD PUSH1 0x80 SWAP1 DUP2 ADD SWAP2 SWAP1 SWAP2 MSTORE PUSH1 0x1F SWAP1 SWAP3 ADD PUSH1 0x1F NOT AND ADD ADD SWAP4 SWAP3 POP POP POP JUMP JUMPDEST DUP1 CALLDATALOAD PUSH1 0x1 PUSH1 0x1 PUSH1 0xA0 SHL SUB DUP2 AND DUP2 EQ PUSH2 0x2EDC JUMPI PUSH1 0x0 DUP1 REVERT JUMPDEST SWAP2 SWAP1 POP JUMP JUMPDEST PUSH4 0x4E487B71 PUSH1 0xE0 SHL PUSH1 0x0 MSTORE PUSH1 0x41 PUSH1 0x4 MSTORE PUSH1 0x24 PUSH1 0x0 REVERT JUMPDEST PUSH1 0x0 DUP3 PUSH1 0x1F DUP4 ADD SLT PUSH2 0x2F08 JUMPI PUSH1 0x0 DUP1 REVERT JUMPDEST DUP2 CALLDATALOAD PUSH8 0xFFFFFFFFFFFFFFFF DUP1 DUP3 GT ISZERO PUSH2 0x2F23 JUMPI PUSH2 0x2F23 PUSH2 0x2EE1 JUMP JUMPDEST PUSH1 0x40 MLOAD PUSH1 0x1F DUP4 ADD PUSH1 0x1F NOT SWAP1 DUP2 AND PUSH1 0x3F ADD AND DUP2 ADD SWAP1 DUP3 DUP3 GT DUP2 DUP4 LT OR ISZERO PUSH2 0x2F4B JUMPI PUSH2 0x2F4B PUSH2 0x2EE1 JUMP JUMPDEST DUP2 PUSH1 0x40 MSTORE DUP4 DUP2 MSTORE DUP7 PUSH1 0x20 DUP6 DUP9 ADD ADD GT ISZERO PUSH2 0x2F64 JUMPI PUSH1 0x0 DUP1 REVERT JUMPDEST DUP4 PUSH1 0x20 DUP8 ADD PUSH1 0x20 DUP4 ADD CALLDATACOPY PUSH1 0x0 PUSH1 0x20 DUP6 DUP4 ADD ADD MSTORE DUP1 SWAP5 POP POP POP POP POP SWAP3 SWAP2 POP POP JUMP JUMPDEST PUSH1 0x0 DUP1 PUSH1 0x0 PUSH1 0x60 DUP5 DUP7 SUB SLT ISZERO PUSH2 0x2F99 JUMPI PUSH1 0x0 DUP1 REVERT JUMPDEST PUSH2 0x2FA2 DUP5 PUSH2 0x2EC5 JUMP JUMPDEST SWAP3 POP PUSH1 0x20 DUP5 ADD CALLDATALOAD PUSH8 0xFFFFFFFFFFFFFFFF DUP1 DUP3 GT ISZERO PUSH2 0x2FBF JUMPI PUSH1 0x0 DUP1 REVERT JUMPDEST PUSH2 0x2FCB DUP8 DUP4 DUP9 ADD PUSH2 0x2EF7 JUMP JUMPDEST SWAP4 POP PUSH1 0x40 DUP7 ADD CALLDATALOAD SWAP2 POP DUP1 DUP3 GT ISZERO PUSH2 0x2FE1 JUMPI PUSH1 0x0 DUP1 REVERT JUMPDEST POP PUSH2 0x2FEE DUP7 DUP3 DUP8 ADD PUSH2 0x2EF7 JUMP JUMPDEST SWAP2 POP POP SWAP3 POP SWAP3 POP SWAP3 JUMP JUMPDEST PUSH1 0x0 PUSH1 0x20 DUP3 DUP5 SUB SLT ISZERO PUSH2 0x300A JUMPI PUSH1 0x0 DUP1 REVERT JUMPDEST PUSH2 0x3013 DUP3 PUSH2 0x2EC5 JUMP JUMPDEST SWAP4 SWAP3 POP POP POP JUMP JUMPDEST PUSH1 0x0 PUSH1 0x20 DUP3 DUP5 SUB SLT ISZERO PUSH2 0x302C JUMPI PUSH1 0x0 DUP1 REVERT JUMPDEST POP CALLDATALOAD SWAP2 SWAP1 POP JUMP JUMPDEST PUSH1 0x0 DUP2 MLOAD DUP1 DUP5 MSTORE PUSH1 0x0 JUMPDEST DUP2 DUP2 LT ISZERO PUSH2 0x3059 JUMPI PUSH1 0x20 DUP2 DUP6 ADD DUP2 ADD MLOAD DUP7 DUP4 ADD DUP3 ADD MSTORE ADD PUSH2 0x303D JUMP JUMPDEST POP PUSH1 0x0 PUSH1 0x20 DUP3 DUP7 ADD ADD MSTORE PUSH1 0x20 PUSH1 0x1F NOT PUSH1 0x1F DUP4 ADD AND DUP6 ADD ADD SWAP2 POP POP SWAP3 SWAP2 POP POP JUMP JUMPDEST DUP1 MLOAD DUP3 MSTORE PUSH1 0x1 DUP1 PUSH1 0xA0 SHL SUB PUSH1 0x20 DUP3 ADD MLOAD AND PUSH1 0x20 DUP4 ADD MSTORE PUSH1 0x0 PUSH1 0x40 DUP3 ADD MLOAD PUSH1 0xA0 PUSH1 0x40 DUP6 ADD MSTORE PUSH2 0x30AA PUSH1 0xA0 DUP6 ADD DUP3 PUSH2 0x3033 JUMP JUMPDEST SWAP1 POP PUSH1 0x60 DUP4 ADD MLOAD PUSH1 0x60 DUP6 ADD MSTORE PUSH1 0x80 DUP4 ADD MLOAD ISZERO ISZERO PUSH1 0x80 DUP6 ADD MSTORE DUP1 SWAP2 POP POP SWAP3 SWAP2 POP POP JUMP JUMPDEST PUSH1 0x20 DUP2 MSTORE PUSH1 0x0 PUSH2 0x3013 PUSH1 0x20 DUP4 ADD DUP5 PUSH2 0x3079 JUMP JUMPDEST PUSH1 0xE0 DUP2 MSTORE PUSH1 0x0 PUSH2 0x30F2 PUSH1 0xE0 DUP4 ADD DUP11 PUSH2 0x3033 JUMP JUMPDEST PUSH1 0x20 DUP4 ADD DUP10 SWAP1 MSTORE PUSH1 0x1 PUSH1 0x1 PUSH1 0xA0 SHL SUB DUP9 AND PUSH1 0x40 DUP5 ADD MSTORE PUSH1 0x3 DUP8 DUP2 SIGNEXTEND PUSH1 0x60 DUP6 ADD MSTORE DUP7 SWAP1 SIGNEXTEND PUSH1 0x80 DUP5 ADD MSTORE DUP3 DUP2 SUB PUSH1 0xA0 DUP5 ADD MSTORE PUSH2 0x312C DUP2 DUP7 PUSH2 0x3033 JUMP JUMPDEST SWAP2 POP POP DUP3 ISZERO ISZERO PUSH1 0xC0 DUP4 ADD MSTORE SWAP9 SWAP8 POP POP POP POP POP POP POP POP JUMP JUMPDEST PUSH4 0x4E487B71 PUSH1 0xE0 SHL PUSH1 0x0 MSTORE PUSH1 0x21 PUSH1 0x4 MSTORE PUSH1 0x24 PUSH1 0x0 REVERT JUMPDEST PUSH1 0x4 DUP2 LT PUSH2 0x3177 JUMPI PUSH4 0x4E487B71 PUSH1 0xE0 SHL PUSH1 0x0 MSTORE PUSH1 0x21 PUSH1 0x4 MSTORE PUSH1 0x24 PUSH1 0x0 REVERT JUMPDEST SWAP1 MSTORE JUMP JUMPDEST DUP13 DUP2 MSTORE PUSH1 0x1 PUSH1 0x1 PUSH1 0xA0 SHL SUB DUP13 DUP2 AND PUSH1 0x20 DUP4 ADD MSTORE DUP12 DUP2 AND PUSH1 0x40 DUP4 ADD MSTORE PUSH1 0x60 DUP3 ADD DUP12 SWAP1 MSTORE PUSH1 0x80 DUP3 ADD DUP11 SWAP1 MSTORE PUSH1 0xA0 DUP3 ADD DUP10 SWAP1 MSTORE PUSH1 0xC0 DUP3 ADD DUP9 SWAP1 MSTORE DUP7 ISZERO ISZERO PUSH1 0xE0 DUP4 ADD MSTORE DUP6 ISZERO ISZERO PUSH2 0x100 DUP4 ADD MSTORE DUP5 AND PUSH2 0x120 DUP3 ADD MSTORE PUSH2 0x140 DUP2 ADD DUP4 SWAP1 MSTORE PUSH2 0x180 DUP2 ADD PUSH2 0x31E6 PUSH2 0x160 DUP4 ADD DUP5 PUSH2 0x3159 JUMP JUMPDEST SWAP14 SWAP13 POP POP POP POP POP POP POP POP POP POP POP POP POP JUMP JUMPDEST PUSH1 0x0 DUP1 PUSH1 0x0 DUP1 PUSH1 0x0 PUSH1 0xA0 DUP7 DUP9 SUB SLT ISZERO PUSH2 0x320F JUMPI PUSH1 0x0 DUP1 REVERT JUMPDEST DUP6 CALLDATALOAD SWAP5 POP PUSH1 0x20 DUP7 ADD CALLDATALOAD PUSH8 0xFFFFFFFFFFFFFFFF DUP2 GT ISZERO PUSH2 0x322D JUMPI PUSH1 0x0 DUP1 REVERT JUMPDEST PUSH2 0x3239 DUP9 DUP3 DUP10 ADD PUSH2 0x2EF7 JUMP JUMPDEST SWAP5 POP POP PUSH2 0x3248 PUSH1 0x40 DUP8 ADD PUSH2 0x2EC5 JUMP JUMPDEST SWAP5 SWAP8 SWAP4 SWAP7 POP SWAP4 SWAP5 PUSH1 0x60 DUP2 ADD CALLDATALOAD SWAP5 POP PUSH1 0x80 ADD CALLDATALOAD SWAP3 SWAP2 POP POP JUMP JUMPDEST DUP1 MLOAD DUP3 MSTORE PUSH1 0x0 PUSH1 0x20 DUP3 ADD MLOAD PUSH1 0xC0 PUSH1 0x20 DUP6 ADD MSTORE PUSH2 0x327F PUSH1 0xC0 DUP6 ADD DUP3 PUSH2 0x3033 JUMP JUMPDEST PUSH1 0x40 DUP5 DUP2 ADD MLOAD PUSH1 0x1 PUSH1 0x1 PUSH1 0xA0 SHL SUB AND SWAP1 DUP7 ADD MSTORE PUSH1 0x60 DUP1 DUP6 ADD MLOAD SWAP1 DUP7 ADD MSTORE PUSH1 0x80 DUP1 DUP6 ADD MLOAD SWAP1 DUP7 ADD MSTORE PUSH1 0xA0 SWAP4 DUP5 ADD MLOAD SWAP5 SWAP1 SWAP4 ADD SWAP4 SWAP1 SWAP4 MSTORE POP SWAP2 SWAP1 POP JUMP JUMPDEST PUSH1 0x20 DUP2 MSTORE PUSH1 0x0 PUSH2 0x3013 PUSH1 0x20 DUP4 ADD DUP5 PUSH2 0x3260 JUMP JUMPDEST DUP1 MLOAD DUP3 MSTORE PUSH1 0x20 DUP2 ADD MLOAD PUSH2 0x32EB PUSH1 0x20 DUP5 ADD DUP3 PUSH1 0x1 PUSH1 0x1 PUSH1 0xA0 SHL SUB AND SWAP1 MSTORE JUMP JUMPDEST POP PUSH1 0x40 DUP2 ADD MLOAD PUSH2 0x3306 PUSH1 0x40 DUP5 ADD DUP3 PUSH1 0x1 PUSH1 0x1 PUSH1 0xA0 SHL SUB AND SWAP1 MSTORE JUMP JUMPDEST POP PUSH1 0x60 DUP2 ADD MLOAD PUSH1 0x60 DUP4 ADD MSTORE PUSH1 0x80 DUP2 ADD MLOAD PUSH1 0x80 DUP4 ADD MSTORE PUSH1 0xA0 DUP2 ADD MLOAD PUSH1 0xA0 DUP4 ADD MSTORE PUSH1 0xC0 DUP2 ADD MLOAD PUSH1 0xC0 DUP4 ADD MSTORE PUSH1 0xE0 DUP2 ADD MLOAD PUSH2 0x3342 PUSH1 0xE0 DUP5 ADD DUP3 ISZERO ISZERO SWAP1 MSTORE JUMP JUMPDEST POP PUSH2 0x100 DUP2 DUP2 ADD MLOAD ISZERO ISZERO SWAP1 DUP4 ADD MSTORE PUSH2 0x120 DUP1 DUP3 ADD MLOAD PUSH1 0x1 PUSH1 0x1 PUSH1 0xA0 SHL SUB AND SWAP1 DUP4 ADD MSTORE PUSH2 0x140 DUP1 DUP3 ADD MLOAD SWAP1 DUP4 ADD MSTORE PUSH2 0x160 DUP1 DUP3 ADD MLOAD PUSH2 0x3382 DUP3 DUP6 ADD DUP3 PUSH2 0x3159 JUMP JUMPDEST POP POP POP POP JUMP JUMPDEST PUSH2 0x180 DUP2 ADD PUSH2 0x15BD DUP3 DUP5 PUSH2 0x32CD JUMP JUMPDEST PUSH1 0x20 DUP1 DUP3 MSTORE DUP3 MLOAD DUP3 DUP3 ADD DUP2 SWAP1 MSTORE PUSH1 0x0 SWAP2 SWAP1 DUP5 DUP3 ADD SWAP1 PUSH1 0x40 DUP6 ADD SWAP1 DUP5 JUMPDEST DUP2 DUP2 LT ISZERO PUSH2 0x33DA JUMPI PUSH2 0x33C6 DUP4 DUP6 MLOAD PUSH2 0x32CD JUMP JUMPDEST SWAP3 DUP5 ADD SWAP3 PUSH2 0x180 SWAP3 SWAP1 SWAP3 ADD SWAP2 PUSH1 0x1 ADD PUSH2 0x33B3 JUMP JUMPDEST POP SWAP1 SWAP7 SWAP6 POP POP POP POP POP POP JUMP JUMPDEST PUSH1 0x0 DUP1 PUSH1 0x40 DUP4 DUP6 SUB SLT ISZERO PUSH2 0x33F9 JUMPI PUSH1 0x0 DUP1 REVERT JUMPDEST PUSH2 0x3402 DUP4 PUSH2 0x2EC5 JUMP JUMPDEST SWAP5 PUSH1 0x20 SWAP4 SWAP1 SWAP4 ADD CALLDATALOAD SWAP4 POP POP POP JUMP JUMPDEST PUSH1 0x0 PUSH1 0x20 DUP1 DUP4 ADD DUP2 DUP5 MSTORE DUP1 DUP6 MLOAD DUP1 DUP4 MSTORE PUSH1 0x40 SWAP3 POP PUSH1 0x40 DUP7 ADD SWAP2 POP PUSH1 0x40 DUP2 PUSH1 0x5 SHL DUP8 ADD ADD DUP5 DUP9 ADD PUSH1 0x0 JUMPDEST DUP4 DUP2 LT ISZERO PUSH2 0x34C1 JUMPI PUSH1 0x3F NOT DUP10 DUP5 SUB ADD DUP6 MSTORE DUP2 MLOAD PUSH1 0xC0 DUP2 MLOAD DUP6 MSTORE DUP9 DUP3 ADD MLOAD DUP2 DUP11 DUP8 ADD MSTORE PUSH2 0x3467 DUP3 DUP8 ADD DUP3 PUSH2 0x3033 JUMP JUMPDEST DUP4 DUP11 ADD MLOAD PUSH1 0x1 PUSH1 0x1 PUSH1 0xA0 SHL SUB AND DUP8 DUP12 ADD MSTORE PUSH1 0x60 DUP1 DUP6 ADD MLOAD DUP9 DUP4 SUB DUP3 DUP11 ADD MSTORE SWAP2 SWAP4 POP SWAP2 POP PUSH2 0x3494 DUP4 DUP3 PUSH2 0x3033 JUMP JUMPDEST PUSH1 0x80 DUP6 DUP2 ADD MLOAD SWAP1 DUP10 ADD MSTORE PUSH1 0xA0 SWAP5 DUP6 ADD MLOAD ISZERO ISZERO SWAP5 SWAP1 SWAP8 ADD SWAP4 SWAP1 SWAP4 MSTORE POP POP POP SWAP4 DUP7 ADD SWAP4 SWAP1 DUP7 ADD SWAP1 PUSH1 0x1 ADD PUSH2 0x3439 JUMP JUMPDEST POP SWAP1 SWAP9 SWAP8 POP POP POP POP POP POP POP POP JUMP JUMPDEST PUSH1 0x0 PUSH1 0x20 DUP1 DUP4 ADD PUSH1 0x20 DUP5 MSTORE DUP1 DUP6 MLOAD DUP1 DUP4 MSTORE PUSH1 0x40 DUP7 ADD SWAP2 POP PUSH1 0x40 DUP2 PUSH1 0x5 SHL DUP8 ADD ADD SWAP3 POP PUSH1 0x20 DUP8 ADD PUSH1 0x0 JUMPDEST DUP3 DUP2 LT ISZERO PUSH2 0x3526 JUMPI PUSH1 0x3F NOT DUP9 DUP7 SUB ADD DUP5 MSTORE PUSH2 0x3514 DUP6 DUP4 MLOAD PUSH2 0x3260 JUMP JUMPDEST SWAP5 POP SWAP3 DUP6 ADD SWAP3 SWAP1 DUP6 ADD SWAP1 PUSH1 0x1 ADD PUSH2 0x34F8 JUMP JUMPDEST POP SWAP3 SWAP8 SWAP7 POP POP POP POP POP POP POP JUMP JUMPDEST DUP6 DUP2 MSTORE PUSH1 0x1 PUSH1 0x1 PUSH1 0xA0 SHL SUB DUP6 AND PUSH1 0x20 DUP3 ADD MSTORE PUSH1 0xA0 PUSH1 0x40 DUP3 ADD DUP2 SWAP1 MSTORE PUSH1 0x0 SWAP1 PUSH2 0x355D SWAP1 DUP4 ADD DUP7 PUSH2 0x3033 JUMP JUMPDEST PUSH1 0x60 DUP4 ADD SWAP5 SWAP1 SWAP5 MSTORE POP SWAP1 ISZERO ISZERO PUSH1 0x80 SWAP1 SWAP2 ADD MSTORE SWAP4 SWAP3 POP POP POP JUMP JUMPDEST PUSH1 0x0 PUSH1 0x20 DUP1 DUP4 ADD PUSH1 0x20 DUP5 MSTORE DUP1 DUP6 MLOAD DUP1 DUP4 MSTORE PUSH1 0x40 DUP7 ADD SWAP2 POP PUSH1 0x40 DUP2 PUSH1 0x5 SHL DUP8 ADD ADD SWAP3 POP PUSH1 0x20 DUP8 ADD PUSH1 0x0 JUMPDEST DUP3 DUP2 LT ISZERO PUSH2 0x3526 JUMPI PUSH1 0x3F NOT DUP9 DUP7 SUB ADD DUP5 MSTORE PUSH2 0x35BB DUP6 DUP4 MLOAD PUSH2 0x3079 JUMP JUMPDEST SWAP5 POP SWAP3 DUP6 ADD SWAP3 SWAP1 DUP6 ADD SWAP1 PUSH1 0x1 ADD PUSH2 0x359F JUMP JUMPDEST DUP1 CALLDATALOAD PUSH1 0x3 DUP2 SWAP1 SIGNEXTEND DUP2 EQ PUSH2 0x2EDC JUMPI PUSH1 0x0 DUP1 REVERT JUMPDEST PUSH1 0x0 DUP1 PUSH1 0x0 DUP1 PUSH1 0x0 DUP1 PUSH1 0xC0 DUP8 DUP10 SUB SLT ISZERO PUSH2 0x35F8 JUMPI PUSH1 0x0 DUP1 REVERT JUMPDEST DUP7 CALLDATALOAD SWAP6 POP PUSH1 0x20 DUP8 ADD CALLDATALOAD SWAP5 POP PUSH1 0x40 DUP8 ADD CALLDATALOAD SWAP4 POP PUSH1 0x60 DUP8 ADD CALLDATALOAD SWAP3 POP PUSH2 0x361D PUSH1 0x80 DUP9 ADD PUSH2 0x35CD JUMP JUMPDEST SWAP2 POP PUSH2 0x362B PUSH1 0xA0 DUP9 ADD PUSH2 0x35CD JUMP JUMPDEST SWAP1 POP SWAP3 SWAP6 POP SWAP3 SWAP6 POP SWAP3 SWAP6 JUMP JUMPDEST DUP7 DUP2 MSTORE PUSH1 0xC0 PUSH1 0x20 DUP3 ADD MSTORE PUSH1 0x0 PUSH2 0x3650 PUSH1 0xC0 DUP4 ADD DUP9 PUSH2 0x3033 JUMP JUMPDEST PUSH1 0x1 PUSH1 0x1 PUSH1 0xA0 SHL SUB DUP8 AND PUSH1 0x40 DUP5 ADD MSTORE DUP3 DUP2 SUB PUSH1 0x60 DUP5 ADD MSTORE PUSH2 0x3671 DUP2 DUP8 PUSH2 0x3033 JUMP JUMPDEST PUSH1 0x80 DUP5 ADD SWAP6 SWAP1 SWAP6 MSTORE POP POP SWAP1 ISZERO ISZERO PUSH1 0xA0 SWAP1 SWAP2 ADD MSTORE SWAP5 SWAP4 POP POP POP POP JUMP JUMPDEST PUSH1 0x20 DUP1 DUP3 MSTORE DUP3 MLOAD DUP3 DUP3 ADD DUP2 SWAP1 MSTORE PUSH1 0x0 SWAP2 SWAP1 DUP5 DUP3 ADD SWAP1 PUSH1 0x40 DUP6 ADD SWAP1 DUP5 JUMPDEST DUP2 DUP2 LT ISZERO PUSH2 0x33DA JUMPI DUP4 MLOAD DUP4 MSTORE SWAP3 DUP5 ADD SWAP3 SWAP2 DUP5 ADD SWAP2 PUSH1 0x1 ADD PUSH2 0x36A8 JUMP JUMPDEST PUSH1 0x0 DUP1 PUSH1 0x0 PUSH1 0x60 DUP5 DUP7 SUB SLT ISZERO PUSH2 0x36D9 JUMPI PUSH1 0x0 DUP1 REVERT JUMPDEST DUP4 CALLDATALOAD PUSH8 0xFFFFFFFFFFFFFFFF DUP2 GT ISZERO PUSH2 0x36F0 JUMPI PUSH1 0x0 DUP1 REVERT JUMPDEST PUSH2 0x36FC DUP7 DUP3 DUP8 ADD PUSH2 0x2EF7 JUMP JUMPDEST SWAP7 PUSH1 0x20 DUP7 ADD CALLDATALOAD SWAP7 POP PUSH1 0x40 SWAP1 SWAP6 ADD CALLDATALOAD SWAP5 SWAP4 POP POP POP POP JUMP JUMPDEST DUP7 DUP2 MSTORE PUSH1 0xC0 PUSH1 0x20 DUP3 ADD MSTORE PUSH1 0x0 PUSH2 0x372B PUSH1 0xC0 DUP4 ADD DUP9 PUSH2 0x3033 JUMP JUMPDEST PUSH1 0x1 PUSH1 0x1 PUSH1 0xA0 SHL SUB SWAP7 SWAP1 SWAP7 AND PUSH1 0x40 DUP4 ADD MSTORE POP PUSH1 0x60 DUP2 ADD SWAP4 SWAP1 SWAP4 MSTORE PUSH1 0x80 DUP4 ADD SWAP2 SWAP1 SWAP2 MSTORE PUSH1 0xA0 SWAP1 SWAP2 ADD MSTORE SWAP3 SWAP2 POP POP JUMP JUMPDEST PUSH1 0x0 DUP1 PUSH1 0x40 DUP4 DUP6 SUB SLT ISZERO PUSH2 0x376C JUMPI PUSH1 0x0 DUP1 REVERT JUMPDEST DUP3 CALLDATALOAD SWAP2 POP PUSH2 0x377C PUSH1 0x20 DUP5 ADD PUSH2 0x2EC5 JUMP JUMPDEST SWAP1 POP SWAP3 POP SWAP3 SWAP1 POP JUMP JUMPDEST PUSH1 0x0 DUP1 PUSH1 0x0 DUP1 PUSH1 0x80 DUP6 DUP8 SUB SLT ISZERO PUSH2 0x379B JUMPI PUSH1 0x0 DUP1 REVERT JUMPDEST PUSH2 0x37A4 DUP6 PUSH2 0x2EC5 JUMP JUMPDEST SWAP4 POP PUSH1 0x20 DUP6 ADD CALLDATALOAD PUSH8 0xFFFFFFFFFFFFFFFF DUP2 GT ISZERO PUSH2 0x37C0 JUMPI PUSH1 0x0 DUP1 REVERT JUMPDEST PUSH2 0x37CC DUP8 DUP3 DUP9 ADD PUSH2 0x2EF7 JUMP JUMPDEST SWAP4 POP POP PUSH2 0x37DB PUSH1 0x40 DUP7 ADD PUSH2 0x35CD JUMP JUMPDEST SWAP2 POP PUSH2 0x37E9 PUSH1 0x60 DUP7 ADD PUSH2 0x35CD JUMP JUMPDEST SWAP1 POP SWAP3 SWAP6 SWAP2 SWAP5 POP SWAP3 POP JUMP JUMPDEST PUSH4 0x4E487B71 PUSH1 0xE0 SHL PUSH1 0x0 MSTORE PUSH1 0x11 PUSH1 0x4 MSTORE PUSH1 0x24 PUSH1 0x0 REVERT JUMPDEST DUP1 DUP3 ADD DUP1 DUP3 GT ISZERO PUSH2 0x15BD JUMPI PUSH2 0x15BD PUSH2 0x37F4 JUMP JUMPDEST PUSH1 0x1 DUP2 DUP2 SHR SWAP1 DUP3 AND DUP1 PUSH2 0x3831 JUMPI PUSH1 0x7F DUP3 AND SWAP2 POP JUMPDEST PUSH1 0x20 DUP3 LT DUP2 SUB PUSH2 0x3851 JUMPI PUSH4 0x4E487B71 PUSH1 0xE0 SHL PUSH1 0x0 MSTORE PUSH1 0x22 PUSH1 0x4 MSTORE PUSH1 0x24 PUSH1 0x0 REVERT JUMPDEST POP SWAP2 SWAP1 POP JUMP JUMPDEST PUSH1 0x1F DUP3 GT ISZERO PUSH2 0x38A3 JUMPI PUSH1 0x0 DUP2 PUSH1 0x0 MSTORE PUSH1 0x20 PUSH1 0x0 KECCAK256 PUSH1 0x1F DUP6 ADD PUSH1 0x5 SHR DUP2 ADD PUSH1 0x20 DUP7 LT ISZERO PUSH2 0x3880 JUMPI POP DUP1 JUMPDEST PUSH1 0x1F DUP6 ADD PUSH1 0x5 SHR DUP3 ADD SWAP2 POP JUMPDEST DUP2 DUP2 LT ISZERO PUSH2 0x389F JUMPI DUP3 DUP2 SSTORE PUSH1 0x1 ADD PUSH2 0x388C JUMP JUMPDEST POP POP POP JUMPDEST POP POP POP JUMP JUMPDEST DUP2 MLOAD PUSH8 0xFFFFFFFFFFFFFFFF DUP2 GT ISZERO PUSH2 0x38C2 JUMPI PUSH2 0x38C2 PUSH2 0x2EE1 JUMP JUMPDEST PUSH2 0x38D6 DUP2 PUSH2 0x38D0 DUP5 SLOAD PUSH2 0x381D JUMP JUMPDEST DUP5 PUSH2 0x3857 JUMP JUMPDEST PUSH1 0x20 DUP1 PUSH1 0x1F DUP4 GT PUSH1 0x1 DUP2 EQ PUSH2 0x390B JUMPI PUSH1 0x0 DUP5 ISZERO PUSH2 0x38F3 JUMPI POP DUP6 DUP4 ADD MLOAD JUMPDEST PUSH1 0x0 NOT PUSH1 0x3 DUP7 SWAP1 SHL SHR NOT AND PUSH1 0x1 DUP6 SWAP1 SHL OR DUP6 SSTORE PUSH2 0x389F JUMP JUMPDEST PUSH1 0x0 DUP6 DUP2 MSTORE PUSH1 0x20 DUP2 KECCAK256 PUSH1 0x1F NOT DUP7 AND SWAP2 JUMPDEST DUP3 DUP2 LT ISZERO PUSH2 0x393A JUMPI DUP9 DUP7 ADD MLOAD DUP3 SSTORE SWAP5 DUP5 ADD SWAP5 PUSH1 0x1 SWAP1 SWAP2 ADD SWAP1 DUP5 ADD PUSH2 0x391B JUMP JUMPDEST POP DUP6 DUP3 LT ISZERO PUSH2 0x3958 JUMPI DUP8 DUP6 ADD MLOAD PUSH1 0x0 NOT PUSH1 0x3 DUP9 SWAP1 SHL PUSH1 0xF8 AND SHR NOT AND DUP2 SSTORE JUMPDEST POP POP POP POP POP PUSH1 0x1 SWAP1 DUP2 SHL ADD SWAP1 SSTORE POP JUMP JUMPDEST DUP2 DUP2 SUB PUSH2 0x3973 JUMPI POP POP JUMP JUMPDEST PUSH2 0x397D DUP3 SLOAD PUSH2 0x381D JUMP JUMPDEST PUSH8 0xFFFFFFFFFFFFFFFF DUP2 GT ISZERO PUSH2 0x3995 JUMPI PUSH2 0x3995 PUSH2 0x2EE1 JUMP JUMPDEST PUSH2 0x39A3 DUP2 PUSH2 0x38D0 DUP5 SLOAD PUSH2 0x381D JUMP JUMPDEST PUSH1 0x0 PUSH1 0x1F DUP3 GT PUSH1 0x1 DUP2 EQ PUSH2 0x39D7 JUMPI PUSH1 0x0 DUP4 ISZERO PUSH2 0x39BF JUMPI POP DUP5 DUP3 ADD SLOAD JUMPDEST PUSH1 0x0 NOT PUSH1 0x3 DUP6 SWAP1 SHL SHR NOT AND PUSH1 0x1 DUP5 SWAP1 SHL OR DUP5 SSTORE PUSH2 0x3A3C JUMP JUMPDEST PUSH1 0x0 DUP6 DUP2 MSTORE PUSH1 0x20 SWAP1 KECCAK256 PUSH1 0x1F NOT DUP5 AND SWAP1 PUSH1 0x0 DUP7 DUP2 MSTORE PUSH1 0x20 SWAP1 KECCAK256 DUP5 JUMPDEST DUP4 DUP2 LT ISZERO PUSH2 0x3A11 JUMPI DUP3 DUP7 ADD SLOAD DUP3 SSTORE PUSH1 0x1 SWAP6 DUP7 ADD SWAP6 SWAP1 SWAP2 ADD SWAP1 PUSH1 0x20 ADD PUSH2 0x39F1 JUMP JUMPDEST POP DUP6 DUP4 LT ISZERO PUSH2 0x3A2F JUMPI DUP2 DUP6 ADD SLOAD PUSH1 0x0 NOT PUSH1 0x3 DUP9 SWAP1 SHL PUSH1 0xF8 AND SHR NOT AND DUP2 SSTORE JUMPDEST POP POP POP PUSH1 0x1 DUP4 PUSH1 0x1 SHL ADD DUP5 SSTORE JUMPDEST POP POP POP POP POP JUMP JUMPDEST PUSH1 0x0 PUSH1 0x1 DUP3 ADD PUSH2 0x3A55 JUMPI PUSH2 0x3A55 PUSH2 0x37F4 JUMP JUMPDEST POP PUSH1 0x1 ADD SWAP1 JUMP JUMPDEST PUSH4 0x4E487B71 PUSH1 0xE0 SHL PUSH1 0x0 MSTORE PUSH1 0x32 PUSH1 0x4 MSTORE PUSH1 0x24 PUSH1 0x0 REVERT JUMPDEST PUSH1 0x60 DUP2 MSTORE PUSH1 0x0 PUSH2 0x3A85 PUSH1 0x60 DUP4 ADD DUP7 PUSH2 0x3033 JUMP JUMPDEST PUSH1 0x20 DUP4 ADD SWAP5 SWAP1 SWAP5 MSTORE POP PUSH1 0x40 ADD MSTORE SWAP2 SWAP1 POP JUMP JUMPDEST PUSH1 0x0 PUSH1 0x20 DUP3 DUP5 SUB SLT ISZERO PUSH2 0x3AA9 JUMPI PUSH1 0x0 DUP1 REVERT JUMPDEST POP MLOAD SWAP2 SWAP1 POP JUMP JUMPDEST PUSH1 0x60 DUP2 MSTORE PUSH1 0x0 PUSH2 0x3AC3 PUSH1 0x60 DUP4 ADD DUP7 PUSH2 0x3033 JUMP JUMPDEST PUSH1 0x3 SWAP5 DUP6 SIGNEXTEND PUSH1 0x20 DUP5 ADD MSTORE SWAP3 SWAP1 SWAP4 SIGNEXTEND PUSH1 0x40 SWAP1 SWAP2 ADD MSTORE SWAP3 SWAP2 POP POP JUMP INVALID LOG2 PUSH5 0x6970667358 0x22 SLT KECCAK256 0x2B CODESIZE 0xB0 MUL 0xE0 0xDC 0xCD PUSH7 0x243AF1CD5754A6 0x23 0xAD 0xD2 0x2F EXTCODECOPY 0xAF DELEGATECALL PUSH30 0x63F0166B81247F6C3164736F6C6343000818003300000000000000000000 "
        },
        "methodIdentifiers": {
          "acceptRequest(uint256,address)": "daba858a",
          "allUserRequest(address,uint256)": "ecec10d4",
          "cancelRequestAndRefund(uint256)": "eb73836a",
          "collectors(address)": "9593b523",
          "collectorsRequests(address,uint256)": "b570a8f5",
          "confirmRequest(uint256)": "a6b2c437",
          "createCollector(address,string,string)": "01f1d458",
          "createOffer(string,uint256,uint256)": "a7fd1dbd",
          "createRecycler(address,string,int32,int32)": "f6556c2a",
          "escrowContract()": "e42a96e7",
          "getAllCollectorRequests()": "9be32e85",
          "getAllUserRequest()": "6eebc5f3",
          "getRecyclerById(uint256)": "1e8d6bcf",
          "getRecyclerCollectors(address)": "768b3f67",
          "getRecyclerOffers(uint256)": "77acab57",
          "getUserRole(address)": "27820851",
          "makeRequest(uint256,uint256,uint256,uint256,int32,int32)": "8425f48f",
          "numOfCollector()": "98b195d1",
          "numOfRequest()": "3d0a3145",
          "numberOfRecyclers()": "48175e42",
          "recyclerCordinates(address)": "0de6c71f",
          "recyclerOffers(address,uint256)": "c3450083",
          "recyclers(address)": "7a3a9cbd",
          "recyclersById(uint256)": "fdc57004",
          "seeAllRecyclers()": "7a7bd4c2",
          "showRequest(uint256)": "5ccdd426",
          "updateOffer(uint256,string,address,uint256,uint256)": "5959ae7b",
          "userCancelRequest(uint256)": "55490901",
          "userWasteRequests(uint256)": "51dc0121",
          "users(address)": "a87430ba",
          "viewOffer(address,uint256)": "753cc977",
          "withdrawFunds()": "24600fc3"
        }
      }
    }
  }
}