{
  "contracts/Escrow.sol": {
    "EscrowContract": {
      "abi": [
        {
          "inputs": [],
          "stateMutability": "nonpayable",
          "type": "constructor"
        },
        {
          "inputs": [],
          "name": "AlreadyFunded",
          "type": "error"
        },
        {
          "inputs": [],
          "name": "AlreadyRefunded",
          "type": "error"
        },
        {
          "inputs": [],
          "name": "AlreadyReleased",
          "type": "error"
        },
        {
          "inputs": [],
          "name": "InvalidAmount",
          "type": "error"
        },
        {
          "inputs": [],
          "name": "NotFunded",
          "type": "error"
        },
        {
          "inputs": [],
          "name": "Unauthorized",
          "type": "error"
        },
        {
          "anonymous": false,
          "inputs": [
            {
              "indexed": true,
              "internalType": "uint256",
              "name": "escrowId",
              "type": "uint256"
            },
            {
              "indexed": true,
              "internalType": "address",
              "name": "payer",
              "type": "address"
            },
            {
              "indexed": true,
              "internalType": "address",
              "name": "payee",
              "type": "address"
            },
            {
              "indexed": false,
              "internalType": "uint256",
              "name": "amount",
              "type": "uint256"
            },
            {
              "indexed": false,
              "internalType": "enum EscrowLibrary.PaymentPlatform",
              "name": "_platform",
              "type": "uint8"
            }
          ],
          "name": "EscrowCreated",
          "type": "event"
        },
        {
          "anonymous": false,
          "inputs": [
            {
              "indexed": true,
              "internalType": "uint256",
              "name": "escrowId",
              "type": "uint256"
            }
          ],
          "name": "EscrowRefunded",
          "type": "event"
        },
        {
          "anonymous": false,
          "inputs": [
            {
              "indexed": true,
              "internalType": "uint256",
              "name": "escrowId",
              "type": "uint256"
            }
          ],
          "name": "EscrowReleased",
          "type": "event"
        },
        {
          "inputs": [
            {
              "internalType": "address",
              "name": "_contract",
              "type": "address"
            }
          ],
          "name": "addTrustedContract",
          "outputs": [],
          "stateMutability": "nonpayable",
          "type": "function"
        },
        {
          "inputs": [
            {
              "internalType": "address",
              "name": "_payee",
              "type": "address"
            },
            {
              "internalType": "address",
              "name": "_recyclerAddress",
              "type": "address"
            },
            {
              "internalType": "enum EscrowLibrary.PaymentPlatform",
              "name": "platform",
              "type": "uint8"
            }
          ],
          "name": "createEscrow",
          "outputs": [
            {
              "internalType": "uint256",
              "name": "escrowId",
              "type": "uint256"
            },
            {
              "internalType": "enum EscrowLibrary.PaymentPlatform",
              "name": "_platform",
              "type": "uint8"
            }
          ],
          "stateMutability": "payable",
          "type": "function"
        },
        {
          "inputs": [],
          "name": "escrowCounter",
          "outputs": [
            {
              "internalType": "uint256",
              "name": "",
              "type": "uint256"
            }
          ],
          "stateMutability": "view",
          "type": "function"
        },
        {
          "inputs": [
            {
              "internalType": "uint256",
              "name": "",
              "type": "uint256"
            }
          ],
          "name": "escrows",
          "outputs": [
            {
              "internalType": "address",
              "name": "payer",
              "type": "address"
            },
            {
              "internalType": "bool",
              "name": "isFunded",
              "type": "bool"
            },
            {
              "internalType": "address",
              "name": "payee",
              "type": "address"
            },
            {
              "internalType": "bool",
              "name": "isReleased",
              "type": "bool"
            },
            {
              "internalType": "address",
              "name": "refundAddress",
              "type": "address"
            },
            {
              "internalType": "bool",
              "name": "isRefunded",
              "type": "bool"
            },
            {
              "internalType": "enum EscrowLibrary.PaymentPlatform",
              "name": "platform",
              "type": "uint8"
            },
            {
              "internalType": "uint256",
              "name": "amount",
              "type": "uint256"
            }
          ],
          "stateMutability": "view",
          "type": "function"
        },
        {
          "inputs": [
            {
              "internalType": "uint256",
              "name": "escrowId",
              "type": "uint256"
            }
          ],
          "name": "refundEscrow",
          "outputs": [],
          "stateMutability": "nonpayable",
          "type": "function"
        },
        {
          "inputs": [
            {
              "internalType": "uint256",
              "name": "escrowId",
              "type": "uint256"
            }
          ],
          "name": "releaseEscrow",
          "outputs": [],
          "stateMutability": "nonpayable",
          "type": "function"
        },
        {
          "inputs": [
            {
              "internalType": "address",
              "name": "",
              "type": "address"
            }
          ],
          "name": "trustedContracts",
          "outputs": [
            {
              "internalType": "bool",
              "name": "",
              "type": "bool"
            }
          ],
          "stateMutability": "view",
          "type": "function"
        }
      ],
      "evm": {
        "bytecode": {
          "linkReferences": {},
          "object": "608060405234801561001057600080fd5b50600380546001600160a01b031916331790556108d9806100326000396000f3fe6080604052600436106100705760003560e01c8063c7ceafea1161004e578063c7ceafea1461014c578063e5919a4f14610170578063ed653164146101b0578063f0314df0146101d057600080fd5b8063012f52ee14610075578063356f9dfd1461010957806365582f041461012b575b600080fd5b34801561008157600080fd5b506100ec6100903660046106db565b60006020819052908152604090208054600182015460028301546003909301546001600160a01b038084169460ff600160a01b958690048116958584169581900482169493831693908304821692600160a81b90049091169088565b60405161010098979695949392919061072c565b60405180910390f35b34801561011557600080fd5b506101296101243660046106db565b6101f0565b005b61013e6101393660046107a1565b61032c565b6040516101009291906107ec565b34801561015857600080fd5b5061016260025481565b604051908152602001610100565b34801561017c57600080fd5b506101a061018b366004610807565b60016020526000908152604090205460ff1681565b6040519015158152602001610100565b3480156101bc57600080fd5b506101296101cb3660046106db565b610408565b3480156101dc57600080fd5b506101296101eb366004610807565b6105e8565b600081815260208190526040902080546001600160a01b03163314610227576040516282b42960e81b815260040160405180910390fd5b8054600160a01b900460ff1661025057604051636af784dd60e11b815260040160405180910390fd5b6001810154600160a01b900460ff161561027d576040516331da482760e11b815260040160405180910390fd5b6002810154600160a01b900460ff16156102aa5760405163542f378d60e11b815260040160405180910390fd5b60028101805460ff60a01b198116600160a01b1790915560038201546040516001600160a01b039092169181156108fc0291906000818181858888f193505050501580156102fc573d6000803e3d6000fd5b5060405182907f2babb5cd458b6d41108d6d793a75e29ca524e7caa20e2da6c994462010920a7290600090a25050565b33600090815260016020526040812054819060ff1661035d576040516282b42960e81b815260040160405180910390fd5b3460000361037e5760405163162908e360e11b815260040160405180910390fd5b60026000815461038d90610838565b918290555060008181526020819052604090209092506103b1813388348989610639565b856001600160a01b0316336001600160a01b0316847f6bfda7c2fe251c2081c84368c83dc8b079a795bbcf960665b2e20f59713de29e34866040516103f79291906107ec565b60405180910390a450935093915050565b600081815260208190526040902080546001600160a01b0316331461043f576040516282b42960e81b815260040160405180910390fd5b8054600160a01b900460ff1661046857604051636af784dd60e11b815260040160405180910390fd5b6001810154600160a01b900460ff1615610495576040516331da482760e11b815260040160405180910390fd5b60018101805460ff60a01b1916600160a01b17905560006002820154600160a81b900460ff1660018111156104cc576104cc6106f4565b036105775760006064600a83600301546104e69190610851565b6104f0919061086e565b905060008183600301546105049190610890565b60018401546040519192506001600160a01b03169082156108fc029083906000818181858888f19350505050158015610541573d6000803e3d6000fd5b50604051339083156108fc029084906000818181858888f1935050505015801561056f573d6000803e3d6000fd5b5050506105b9565b600181015460038201546040516001600160a01b039092169181156108fc0291906000818181858888f193505050501580156105b7573d6000803e3d6000fd5b505b60405182907f69833829d5691ae09424af7d16f73adf033451149ea9c2fc6fcb4c44108eef6790600090a25050565b6003546001600160a01b03163314610612576040516282b42960e81b815260040160405180910390fd5b6001600160a01b03166000908152600160208190526040909120805460ff19169091179055565b8554600180880180546001600160a01b038881166001600160a01b03199290921691909117909155600389018690556001600160a81b031990921691871691909117600160a01b178755600287018054839260ff60a81b1990911690600160a81b9084908111156106ac576106ac6106f4565b02179055505060029490940180546001600160a01b0319166001600160a01b0390951694909417909355505050565b6000602082840312156106ed57600080fd5b5035919050565b634e487b7160e01b600052602160045260246000fd5b6002811061072857634e487b7160e01b600052602160045260246000fd5b9052565b6001600160a01b0389811682528815156020830152878116604083015286151560608301528516608082015283151560a0820152610100810161077260c083018561070a565b8260e08301529998505050505050505050565b80356001600160a01b038116811461079c57600080fd5b919050565b6000806000606084860312156107b657600080fd5b6107bf84610785565b92506107cd60208501610785565b91506040840135600281106107e157600080fd5b809150509250925092565b82815260408101610800602083018461070a565b9392505050565b60006020828403121561081957600080fd5b61080082610785565b634e487b7160e01b600052601160045260246000fd5b60006001820161084a5761084a610822565b5060010190565b808202811582820484141761086857610868610822565b92915050565b60008261088b57634e487b7160e01b600052601260045260246000fd5b500490565b818103818111156108685761086861082256fea2646970667358221220993e7d636322844f4d34ca77cc64ee2d0b1fe68cf26088c10b918a415c54db2864736f6c63430008180033",
          "opcodes": "PUSH1 0x80 PUSH1 0x40 MSTORE CALLVALUE DUP1 ISZERO PUSH2 0x10 JUMPI PUSH1 0x0 DUP1 REVERT JUMPDEST POP PUSH1 0x3 DUP1 SLOAD PUSH1 0x1 PUSH1 0x1 PUSH1 0xA0 SHL SUB NOT AND CALLER OR SWAP1 SSTORE PUSH2 0x8D9 DUP1 PUSH2 0x32 PUSH1 0x0 CODECOPY PUSH1 0x0 RETURN INVALID PUSH1 0x80 PUSH1 0x40 MSTORE PUSH1 0x4 CALLDATASIZE LT PUSH2 0x70 JUMPI PUSH1 0x0 CALLDATALOAD PUSH1 0xE0 SHR DUP1 PUSH4 0xC7CEAFEA GT PUSH2 0x4E JUMPI DUP1 PUSH4 0xC7CEAFEA EQ PUSH2 0x14C JUMPI DUP1 PUSH4 0xE5919A4F EQ PUSH2 0x170 JUMPI DUP1 PUSH4 0xED653164 EQ PUSH2 0x1B0 JUMPI DUP1 PUSH4 0xF0314DF0 EQ PUSH2 0x1D0 JUMPI PUSH1 0x0 DUP1 REVERT JUMPDEST DUP1 PUSH4 0x12F52EE EQ PUSH2 0x75 JUMPI DUP1 PUSH4 0x356F9DFD EQ PUSH2 0x109 JUMPI DUP1 PUSH4 0x65582F04 EQ PUSH2 0x12B JUMPI JUMPDEST PUSH1 0x0 DUP1 REVERT JUMPDEST CALLVALUE DUP1 ISZERO PUSH2 0x81 JUMPI PUSH1 0x0 DUP1 REVERT JUMPDEST POP PUSH2 0xEC PUSH2 0x90 CALLDATASIZE PUSH1 0x4 PUSH2 0x6DB JUMP JUMPDEST PUSH1 0x0 PUSH1 0x20 DUP2 SWAP1 MSTORE SWAP1 DUP2 MSTORE PUSH1 0x40 SWAP1 KECCAK256 DUP1 SLOAD PUSH1 0x1 DUP3 ADD SLOAD PUSH1 0x2 DUP4 ADD SLOAD PUSH1 0x3 SWAP1 SWAP4 ADD SLOAD PUSH1 0x1 PUSH1 0x1 PUSH1 0xA0 SHL SUB DUP1 DUP5 AND SWAP5 PUSH1 0xFF PUSH1 0x1 PUSH1 0xA0 SHL SWAP6 DUP7 SWAP1 DIV DUP2 AND SWAP6 DUP6 DUP5 AND SWAP6 DUP2 SWAP1 DIV DUP3 AND SWAP5 SWAP4 DUP4 AND SWAP4 SWAP1 DUP4 DIV DUP3 AND SWAP3 PUSH1 0x1 PUSH1 0xA8 SHL SWAP1 DIV SWAP1 SWAP2 AND SWAP1 DUP9 JUMP JUMPDEST PUSH1 0x40 MLOAD PUSH2 0x100 SWAP9 SWAP8 SWAP7 SWAP6 SWAP5 SWAP4 SWAP3 SWAP2 SWAP1 PUSH2 0x72C JUMP JUMPDEST PUSH1 0x40 MLOAD DUP1 SWAP2 SUB SWAP1 RETURN JUMPDEST CALLVALUE DUP1 ISZERO PUSH2 0x115 JUMPI PUSH1 0x0 DUP1 REVERT JUMPDEST POP PUSH2 0x129 PUSH2 0x124 CALLDATASIZE PUSH1 0x4 PUSH2 0x6DB JUMP JUMPDEST PUSH2 0x1F0 JUMP JUMPDEST STOP JUMPDEST PUSH2 0x13E PUSH2 0x139 CALLDATASIZE PUSH1 0x4 PUSH2 0x7A1 JUMP JUMPDEST PUSH2 0x32C JUMP JUMPDEST PUSH1 0x40 MLOAD PUSH2 0x100 SWAP3 SWAP2 SWAP1 PUSH2 0x7EC JUMP JUMPDEST CALLVALUE DUP1 ISZERO PUSH2 0x158 JUMPI PUSH1 0x0 DUP1 REVERT JUMPDEST POP PUSH2 0x162 PUSH1 0x2 SLOAD DUP2 JUMP JUMPDEST PUSH1 0x40 MLOAD SWAP1 DUP2 MSTORE PUSH1 0x20 ADD PUSH2 0x100 JUMP JUMPDEST CALLVALUE DUP1 ISZERO PUSH2 0x17C JUMPI PUSH1 0x0 DUP1 REVERT JUMPDEST POP PUSH2 0x1A0 PUSH2 0x18B CALLDATASIZE PUSH1 0x4 PUSH2 0x807 JUMP JUMPDEST PUSH1 0x1 PUSH1 0x20 MSTORE PUSH1 0x0 SWAP1 DUP2 MSTORE PUSH1 0x40 SWAP1 KECCAK256 SLOAD PUSH1 0xFF AND DUP2 JUMP JUMPDEST PUSH1 0x40 MLOAD SWAP1 ISZERO ISZERO DUP2 MSTORE PUSH1 0x20 ADD PUSH2 0x100 JUMP JUMPDEST CALLVALUE DUP1 ISZERO PUSH2 0x1BC JUMPI PUSH1 0x0 DUP1 REVERT JUMPDEST POP PUSH2 0x129 PUSH2 0x1CB CALLDATASIZE PUSH1 0x4 PUSH2 0x6DB JUMP JUMPDEST PUSH2 0x408 JUMP JUMPDEST CALLVALUE DUP1 ISZERO PUSH2 0x1DC JUMPI PUSH1 0x0 DUP1 REVERT JUMPDEST POP PUSH2 0x129 PUSH2 0x1EB CALLDATASIZE PUSH1 0x4 PUSH2 0x807 JUMP JUMPDEST PUSH2 0x5E8 JUMP JUMPDEST PUSH1 0x0 DUP2 DUP2 MSTORE PUSH1 0x20 DUP2 SWAP1 MSTORE PUSH1 0x40 SWAP1 KECCAK256 DUP1 SLOAD PUSH1 0x1 PUSH1 0x1 PUSH1 0xA0 SHL SUB AND CALLER EQ PUSH2 0x227 JUMPI PUSH1 0x40 MLOAD PUSH3 0x82B429 PUSH1 0xE8 SHL DUP2 MSTORE PUSH1 0x4 ADD PUSH1 0x40 MLOAD DUP1 SWAP2 SUB SWAP1 REVERT JUMPDEST DUP1 SLOAD PUSH1 0x1 PUSH1 0xA0 SHL SWAP1 DIV PUSH1 0xFF AND PUSH2 0x250 JUMPI PUSH1 0x40 MLOAD PUSH4 0x6AF784DD PUSH1 0xE1 SHL DUP2 MSTORE PUSH1 0x4 ADD PUSH1 0x40 MLOAD DUP1 SWAP2 SUB SWAP1 REVERT JUMPDEST PUSH1 0x1 DUP2 ADD SLOAD PUSH1 0x1 PUSH1 0xA0 SHL SWAP1 DIV PUSH1 0xFF AND ISZERO PUSH2 0x27D JUMPI PUSH1 0x40 MLOAD PUSH4 0x31DA4827 PUSH1 0xE1 SHL DUP2 MSTORE PUSH1 0x4 ADD PUSH1 0x40 MLOAD DUP1 SWAP2 SUB SWAP1 REVERT JUMPDEST PUSH1 0x2 DUP2 ADD SLOAD PUSH1 0x1 PUSH1 0xA0 SHL SWAP1 DIV PUSH1 0xFF AND ISZERO PUSH2 0x2AA JUMPI PUSH1 0x40 MLOAD PUSH4 0x542F378D PUSH1 0xE1 SHL DUP2 MSTORE PUSH1 0x4 ADD PUSH1 0x40 MLOAD DUP1 SWAP2 SUB SWAP1 REVERT JUMPDEST PUSH1 0x2 DUP2 ADD DUP1 SLOAD PUSH1 0xFF PUSH1 0xA0 SHL NOT DUP2 AND PUSH1 0x1 PUSH1 0xA0 SHL OR SWAP1 SWAP2 SSTORE PUSH1 0x3 DUP3 ADD SLOAD PUSH1 0x40 MLOAD PUSH1 0x1 PUSH1 0x1 PUSH1 0xA0 SHL SUB SWAP1 SWAP3 AND SWAP2 DUP2 ISZERO PUSH2 0x8FC MUL SWAP2 SWAP1 PUSH1 0x0 DUP2 DUP2 DUP2 DUP6 DUP9 DUP9 CALL SWAP4 POP POP POP POP ISZERO DUP1 ISZERO PUSH2 0x2FC JUMPI RETURNDATASIZE PUSH1 0x0 DUP1 RETURNDATACOPY RETURNDATASIZE PUSH1 0x0 REVERT JUMPDEST POP PUSH1 0x40 MLOAD DUP3 SWAP1 PUSH32 0x2BABB5CD458B6D41108D6D793A75E29CA524E7CAA20E2DA6C994462010920A72 SWAP1 PUSH1 0x0 SWAP1 LOG2 POP POP JUMP JUMPDEST CALLER PUSH1 0x0 SWAP1 DUP2 MSTORE PUSH1 0x1 PUSH1 0x20 MSTORE PUSH1 0x40 DUP2 KECCAK256 SLOAD DUP2 SWAP1 PUSH1 0xFF AND PUSH2 0x35D JUMPI PUSH1 0x40 MLOAD PUSH3 0x82B429 PUSH1 0xE8 SHL DUP2 MSTORE PUSH1 0x4 ADD PUSH1 0x40 MLOAD DUP1 SWAP2 SUB SWAP1 REVERT JUMPDEST CALLVALUE PUSH1 0x0 SUB PUSH2 0x37E JUMPI PUSH1 0x40 MLOAD PUSH4 0x162908E3 PUSH1 0xE1 SHL DUP2 MSTORE PUSH1 0x4 ADD PUSH1 0x40 MLOAD DUP1 SWAP2 SUB SWAP1 REVERT JUMPDEST PUSH1 0x2 PUSH1 0x0 DUP2 SLOAD PUSH2 0x38D SWAP1 PUSH2 0x838 JUMP JUMPDEST SWAP2 DUP3 SWAP1 SSTORE POP PUSH1 0x0 DUP2 DUP2 MSTORE PUSH1 0x20 DUP2 SWAP1 MSTORE PUSH1 0x40 SWAP1 KECCAK256 SWAP1 SWAP3 POP PUSH2 0x3B1 DUP2 CALLER DUP9 CALLVALUE DUP10 DUP10 PUSH2 0x639 JUMP JUMPDEST DUP6 PUSH1 0x1 PUSH1 0x1 PUSH1 0xA0 SHL SUB AND CALLER PUSH1 0x1 PUSH1 0x1 PUSH1 0xA0 SHL SUB AND DUP5 PUSH32 0x6BFDA7C2FE251C2081C84368C83DC8B079A795BBCF960665B2E20F59713DE29E CALLVALUE DUP7 PUSH1 0x40 MLOAD PUSH2 0x3F7 SWAP3 SWAP2 SWAP1 PUSH2 0x7EC JUMP JUMPDEST PUSH1 0x40 MLOAD DUP1 SWAP2 SUB SWAP1 LOG4 POP SWAP4 POP SWAP4 SWAP2 POP POP JUMP JUMPDEST PUSH1 0x0 DUP2 DUP2 MSTORE PUSH1 0x20 DUP2 SWAP1 MSTORE PUSH1 0x40 SWAP1 KECCAK256 DUP1 SLOAD PUSH1 0x1 PUSH1 0x1 PUSH1 0xA0 SHL SUB AND CALLER EQ PUSH2 0x43F JUMPI PUSH1 0x40 MLOAD PUSH3 0x82B429 PUSH1 0xE8 SHL DUP2 MSTORE PUSH1 0x4 ADD PUSH1 0x40 MLOAD DUP1 SWAP2 SUB SWAP1 REVERT JUMPDEST DUP1 SLOAD PUSH1 0x1 PUSH1 0xA0 SHL SWAP1 DIV PUSH1 0xFF AND PUSH2 0x468 JUMPI PUSH1 0x40 MLOAD PUSH4 0x6AF784DD PUSH1 0xE1 SHL DUP2 MSTORE PUSH1 0x4 ADD PUSH1 0x40 MLOAD DUP1 SWAP2 SUB SWAP1 REVERT JUMPDEST PUSH1 0x1 DUP2 ADD SLOAD PUSH1 0x1 PUSH1 0xA0 SHL SWAP1 DIV PUSH1 0xFF AND ISZERO PUSH2 0x495 JUMPI PUSH1 0x40 MLOAD PUSH4 0x31DA4827 PUSH1 0xE1 SHL DUP2 MSTORE PUSH1 0x4 ADD PUSH1 0x40 MLOAD DUP1 SWAP2 SUB SWAP1 REVERT JUMPDEST PUSH1 0x1 DUP2 ADD DUP1 SLOAD PUSH1 0xFF PUSH1 0xA0 SHL NOT AND PUSH1 0x1 PUSH1 0xA0 SHL OR SWAP1 SSTORE PUSH1 0x0 PUSH1 0x2 DUP3 ADD SLOAD PUSH1 0x1 PUSH1 0xA8 SHL SWAP1 DIV PUSH1 0xFF AND PUSH1 0x1 DUP2 GT ISZERO PUSH2 0x4CC JUMPI PUSH2 0x4CC PUSH2 0x6F4 JUMP JUMPDEST SUB PUSH2 0x577 JUMPI PUSH1 0x0 PUSH1 0x64 PUSH1 0xA DUP4 PUSH1 0x3 ADD SLOAD PUSH2 0x4E6 SWAP2 SWAP1 PUSH2 0x851 JUMP JUMPDEST PUSH2 0x4F0 SWAP2 SWAP1 PUSH2 0x86E JUMP JUMPDEST SWAP1 POP PUSH1 0x0 DUP2 DUP4 PUSH1 0x3 ADD SLOAD PUSH2 0x504 SWAP2 SWAP1 PUSH2 0x890 JUMP JUMPDEST PUSH1 0x1 DUP5 ADD SLOAD PUSH1 0x40 MLOAD SWAP2 SWAP3 POP PUSH1 0x1 PUSH1 0x1 PUSH1 0xA0 SHL SUB AND SWAP1 DUP3 ISZERO PUSH2 0x8FC MUL SWAP1 DUP4 SWAP1 PUSH1 0x0 DUP2 DUP2 DUP2 DUP6 DUP9 DUP9 CALL SWAP4 POP POP POP POP ISZERO DUP1 ISZERO PUSH2 0x541 JUMPI RETURNDATASIZE PUSH1 0x0 DUP1 RETURNDATACOPY RETURNDATASIZE PUSH1 0x0 REVERT JUMPDEST POP PUSH1 0x40 MLOAD CALLER SWAP1 DUP4 ISZERO PUSH2 0x8FC MUL SWAP1 DUP5 SWAP1 PUSH1 0x0 DUP2 DUP2 DUP2 DUP6 DUP9 DUP9 CALL SWAP4 POP POP POP POP ISZERO DUP1 ISZERO PUSH2 0x56F JUMPI RETURNDATASIZE PUSH1 0x0 DUP1 RETURNDATACOPY RETURNDATASIZE PUSH1 0x0 REVERT JUMPDEST POP POP POP PUSH2 0x5B9 JUMP JUMPDEST PUSH1 0x1 DUP2 ADD SLOAD PUSH1 0x3 DUP3 ADD SLOAD PUSH1 0x40 MLOAD PUSH1 0x1 PUSH1 0x1 PUSH1 0xA0 SHL SUB SWAP1 SWAP3 AND SWAP2 DUP2 ISZERO PUSH2 0x8FC MUL SWAP2 SWAP1 PUSH1 0x0 DUP2 DUP2 DUP2 DUP6 DUP9 DUP9 CALL SWAP4 POP POP POP POP ISZERO DUP1 ISZERO PUSH2 0x5B7 JUMPI RETURNDATASIZE PUSH1 0x0 DUP1 RETURNDATACOPY RETURNDATASIZE PUSH1 0x0 REVERT JUMPDEST POP JUMPDEST PUSH1 0x40 MLOAD DUP3 SWAP1 PUSH32 0x69833829D5691AE09424AF7D16F73ADF033451149EA9C2FC6FCB4C44108EEF67 SWAP1 PUSH1 0x0 SWAP1 LOG2 POP POP JUMP JUMPDEST PUSH1 0x3 SLOAD PUSH1 0x1 PUSH1 0x1 PUSH1 0xA0 SHL SUB AND CALLER EQ PUSH2 0x612 JUMPI PUSH1 0x40 MLOAD PUSH3 0x82B429 PUSH1 0xE8 SHL DUP2 MSTORE PUSH1 0x4 ADD PUSH1 0x40 MLOAD DUP1 SWAP2 SUB SWAP1 REVERT JUMPDEST PUSH1 0x1 PUSH1 0x1 PUSH1 0xA0 SHL SUB AND PUSH1 0x0 SWAP1 DUP2 MSTORE PUSH1 0x1 PUSH1 0x20 DUP2 SWAP1 MSTORE PUSH1 0x40 SWAP1 SWAP2 KECCAK256 DUP1 SLOAD PUSH1 0xFF NOT AND SWAP1 SWAP2 OR SWAP1 SSTORE JUMP JUMPDEST DUP6 SLOAD PUSH1 0x1 DUP1 DUP9 ADD DUP1 SLOAD PUSH1 0x1 PUSH1 0x1 PUSH1 0xA0 SHL SUB DUP9 DUP2 AND PUSH1 0x1 PUSH1 0x1 PUSH1 0xA0 SHL SUB NOT SWAP3 SWAP1 SWAP3 AND SWAP2 SWAP1 SWAP2 OR SWAP1 SWAP2 SSTORE PUSH1 0x3 DUP10 ADD DUP7 SWAP1 SSTORE PUSH1 0x1 PUSH1 0x1 PUSH1 0xA8 SHL SUB NOT SWAP1 SWAP3 AND SWAP2 DUP8 AND SWAP2 SWAP1 SWAP2 OR PUSH1 0x1 PUSH1 0xA0 SHL OR DUP8 SSTORE PUSH1 0x2 DUP8 ADD DUP1 SLOAD DUP4 SWAP3 PUSH1 0xFF PUSH1 0xA8 SHL NOT SWAP1 SWAP2 AND SWAP1 PUSH1 0x1 PUSH1 0xA8 SHL SWAP1 DUP5 SWAP1 DUP2 GT ISZERO PUSH2 0x6AC JUMPI PUSH2 0x6AC PUSH2 0x6F4 JUMP JUMPDEST MUL OR SWAP1 SSTORE POP POP PUSH1 0x2 SWAP5 SWAP1 SWAP5 ADD DUP1 SLOAD PUSH1 0x1 PUSH1 0x1 PUSH1 0xA0 SHL SUB NOT AND PUSH1 0x1 PUSH1 0x1 PUSH1 0xA0 SHL SUB SWAP1 SWAP6 AND SWAP5 SWAP1 SWAP5 OR SWAP1 SWAP4 SSTORE POP POP POP JUMP JUMPDEST PUSH1 0x0 PUSH1 0x20 DUP3 DUP5 SUB SLT ISZERO PUSH2 0x6ED JUMPI PUSH1 0x0 DUP1 REVERT JUMPDEST POP CALLDATALOAD SWAP2 SWAP1 POP JUMP JUMPDEST PUSH4 0x4E487B71 PUSH1 0xE0 SHL PUSH1 0x0 MSTORE PUSH1 0x21 PUSH1 0x4 MSTORE PUSH1 0x24 PUSH1 0x0 REVERT JUMPDEST PUSH1 0x2 DUP2 LT PUSH2 0x728 JUMPI PUSH4 0x4E487B71 PUSH1 0xE0 SHL PUSH1 0x0 MSTORE PUSH1 0x21 PUSH1 0x4 MSTORE PUSH1 0x24 PUSH1 0x0 REVERT JUMPDEST SWAP1 MSTORE JUMP JUMPDEST PUSH1 0x1 PUSH1 0x1 PUSH1 0xA0 SHL SUB DUP10 DUP2 AND DUP3 MSTORE DUP9 ISZERO ISZERO PUSH1 0x20 DUP4 ADD MSTORE DUP8 DUP2 AND PUSH1 0x40 DUP4 ADD MSTORE DUP7 ISZERO ISZERO PUSH1 0x60 DUP4 ADD MSTORE DUP6 AND PUSH1 0x80 DUP3 ADD MSTORE DUP4 ISZERO ISZERO PUSH1 0xA0 DUP3 ADD MSTORE PUSH2 0x100 DUP2 ADD PUSH2 0x772 PUSH1 0xC0 DUP4 ADD DUP6 PUSH2 0x70A JUMP JUMPDEST DUP3 PUSH1 0xE0 DUP4 ADD MSTORE SWAP10 SWAP9 POP POP POP POP POP POP POP POP POP JUMP JUMPDEST DUP1 CALLDATALOAD PUSH1 0x1 PUSH1 0x1 PUSH1 0xA0 SHL SUB DUP2 AND DUP2 EQ PUSH2 0x79C JUMPI PUSH1 0x0 DUP1 REVERT JUMPDEST SWAP2 SWAP1 POP JUMP JUMPDEST PUSH1 0x0 DUP1 PUSH1 0x0 PUSH1 0x60 DUP5 DUP7 SUB SLT ISZERO PUSH2 0x7B6 JUMPI PUSH1 0x0 DUP1 REVERT JUMPDEST PUSH2 0x7BF DUP5 PUSH2 0x785 JUMP JUMPDEST SWAP3 POP PUSH2 0x7CD PUSH1 0x20 DUP6 ADD PUSH2 0x785 JUMP JUMPDEST SWAP2 POP PUSH1 0x40 DUP5 ADD CALLDATALOAD PUSH1 0x2 DUP2 LT PUSH2 0x7E1 JUMPI PUSH1 0x0 DUP1 REVERT JUMPDEST DUP1 SWAP2 POP POP SWAP3 POP SWAP3 POP SWAP3 JUMP JUMPDEST DUP3 DUP2 MSTORE PUSH1 0x40 DUP2 ADD PUSH2 0x800 PUSH1 0x20 DUP4 ADD DUP5 PUSH2 0x70A JUMP JUMPDEST SWAP4 SWAP3 POP POP POP JUMP JUMPDEST PUSH1 0x0 PUSH1 0x20 DUP3 DUP5 SUB SLT ISZERO PUSH2 0x819 JUMPI PUSH1 0x0 DUP1 REVERT JUMPDEST PUSH2 0x800 DUP3 PUSH2 0x785 JUMP JUMPDEST PUSH4 0x4E487B71 PUSH1 0xE0 SHL PUSH1 0x0 MSTORE PUSH1 0x11 PUSH1 0x4 MSTORE PUSH1 0x24 PUSH1 0x0 REVERT JUMPDEST PUSH1 0x0 PUSH1 0x1 DUP3 ADD PUSH2 0x84A JUMPI PUSH2 0x84A PUSH2 0x822 JUMP JUMPDEST POP PUSH1 0x1 ADD SWAP1 JUMP JUMPDEST DUP1 DUP3 MUL DUP2 ISZERO DUP3 DUP3 DIV DUP5 EQ OR PUSH2 0x868 JUMPI PUSH2 0x868 PUSH2 0x822 JUMP JUMPDEST SWAP3 SWAP2 POP POP JUMP JUMPDEST PUSH1 0x0 DUP3 PUSH2 0x88B JUMPI PUSH4 0x4E487B71 PUSH1 0xE0 SHL PUSH1 0x0 MSTORE PUSH1 0x12 PUSH1 0x4 MSTORE PUSH1 0x24 PUSH1 0x0 REVERT JUMPDEST POP DIV SWAP1 JUMP JUMPDEST DUP2 DUP2 SUB DUP2 DUP2 GT ISZERO PUSH2 0x868 JUMPI PUSH2 0x868 PUSH2 0x822 JUMP INVALID LOG2 PUSH5 0x6970667358 0x22 SLT KECCAK256 SWAP10 RETURNDATACOPY PUSH30 0x636322844F4D34CA77CC64EE2D0B1FE68CF26088C10B918A415C54DB2864 PUSH20 0x6F6C634300081800330000000000000000000000 "
        },
        "methodIdentifiers": {
          "addTrustedContract(address)": "f0314df0",
          "createEscrow(address,address,uint8)": "65582f04",
          "escrowCounter()": "c7ceafea",
          "escrows(uint256)": "012f52ee",
          "refundEscrow(uint256)": "356f9dfd",
          "releaseEscrow(uint256)": "ed653164",
          "trustedContracts(address)": "e5919a4f"
        }
      }
    }
  }
}