{
  "_format": "hh-sol-artifact-1",
  "contractName": "EscrowContract",
  "sourceName": "contracts/Escrow.sol",
  "abi": [
    {
      "inputs": [],
      "name": "AlreadyFunded",
      "type": "error"
    },
    {
      "inputs": [],
      "name": "AlreadyRefunded",
      "type": "error"
    },
    {
      "inputs": [],
      "name": "AlreadyReleased",
      "type": "error"
    },
    {
      "inputs": [],
      "name": "InvalidAmount",
      "type": "error"
    },
    {
      "inputs": [],
      "name": "NotFunded",
      "type": "error"
    },
    {
      "inputs": [],
      "name": "Unauthorized",
      "type": "error"
    },
    {
      "anonymous": false,
      "inputs": [
        {
          "indexed": true,
          "internalType": "uint256",
          "name": "escrowId",
          "type": "uint256"
        },
        {
          "indexed": true,
          "internalType": "address",
          "name": "payer",
          "type": "address"
        },
        {
          "indexed": true,
          "internalType": "address",
          "name": "payee",
          "type": "address"
        },
        {
          "indexed": false,
          "internalType": "uint256",
          "name": "amount",
          "type": "uint256"
        }
      ],
      "name": "EscrowCreated",
      "type": "event"
    },
    {
      "anonymous": false,
      "inputs": [
        {
          "indexed": true,
          "internalType": "uint256",
          "name": "escrowId",
          "type": "uint256"
        }
      ],
      "name": "EscrowRefunded",
      "type": "event"
    },
    {
      "anonymous": false,
      "inputs": [
        {
          "indexed": true,
          "internalType": "uint256",
          "name": "escrowId",
          "type": "uint256"
        }
      ],
      "name": "EscrowReleased",
      "type": "event"
    },
    {
      "inputs": [
        {
          "internalType": "address",
          "name": "_payee",
          "type": "address"
        }
      ],
      "name": "createEscrow",
      "outputs": [
        {
          "internalType": "uint256",
          "name": "escrowId",
          "type": "uint256"
        }
      ],
      "stateMutability": "payable",
      "type": "function"
    },
    {
      "inputs": [],
      "name": "escrowCounter",
      "outputs": [
        {
          "internalType": "uint256",
          "name": "",
          "type": "uint256"
        }
      ],
      "stateMutability": "view",
      "type": "function"
    },
    {
      "inputs": [
        {
          "internalType": "uint256",
          "name": "",
          "type": "uint256"
        }
      ],
      "name": "escrows",
      "outputs": [
        {
          "internalType": "address",
          "name": "payer",
          "type": "address"
        },
        {
          "internalType": "address",
          "name": "payee",
          "type": "address"
        },
        {
          "internalType": "uint256",
          "name": "amount",
          "type": "uint256"
        },
        {
          "internalType": "bool",
          "name": "isFunded",
          "type": "bool"
        },
        {
          "internalType": "bool",
          "name": "isReleased",
          "type": "bool"
        },
        {
          "internalType": "bool",
          "name": "isRefunded",
          "type": "bool"
        }
      ],
      "stateMutability": "view",
      "type": "function"
    },
    {
      "inputs": [
        {
          "internalType": "uint256",
          "name": "escrowId",
          "type": "uint256"
        }
      ],
      "name": "refundEscrow",
      "outputs": [],
      "stateMutability": "nonpayable",
      "type": "function"
    },
    {
      "inputs": [
        {
          "internalType": "uint256",
          "name": "escrowId",
          "type": "uint256"
        }
      ],
      "name": "releaseEscrow",
      "outputs": [],
      "stateMutability": "nonpayable",
      "type": "function"
    }
  ],
  "bytecode": "0x608060405234801561001057600080fd5b506109fc806100206000396000f3fe60806040526004361061004a5760003560e01c8063012f52ee1461004f578063356f9dfd14610091578063c7ceafea146100ba578063ed653164146100e5578063f6a8419e1461010e575b600080fd5b34801561005b57600080fd5b50610076600480360381019061007191906107e2565b61013e565b6040516100889695949392919061087a565b60405180910390f35b34801561009d57600080fd5b506100b860048036038101906100b391906107e2565b6101e1565b005b3480156100c657600080fd5b506100cf610417565b6040516100dc91906108db565b60405180910390f35b3480156100f157600080fd5b5061010c600480360381019061010791906107e2565b61041d565b005b61012860048036038101906101239190610922565b61060a565b60405161013591906108db565b60405180910390f35b60006020528060005260406000206000915090508060000160009054906101000a900473ffffffffffffffffffffffffffffffffffffffff16908060010160009054906101000a900473ffffffffffffffffffffffffffffffffffffffff16908060020154908060030160009054906101000a900460ff16908060030160019054906101000a900460ff16908060030160029054906101000a900460ff16905086565b600080600083815260200190815260200160002090508060000160009054906101000a900473ffffffffffffffffffffffffffffffffffffffff1673ffffffffffffffffffffffffffffffffffffffff163373ffffffffffffffffffffffffffffffffffffffff1614610280576040517f82b4290000000000000000000000000000000000000000000000000000000000815260040160405180910390fd5b8060030160009054906101000a900460ff166102c8576040517fd5ef09ba00000000000000000000000000000000000000000000000000000000815260040160405180910390fd5b8060030160019054906101000a900460ff1615610311576040517f63b4904e00000000000000000000000000000000000000000000000000000000815260040160405180910390fd5b8060030160029054906101000a900460ff161561035a576040517fa85e6f1a00000000000000000000000000000000000000000000000000000000815260040160405180910390fd5b60018160030160026101000a81548160ff0219169083151502179055508060000160009054906101000a900473ffffffffffffffffffffffffffffffffffffffff1673ffffffffffffffffffffffffffffffffffffffff166108fc82600201549081150290604051600060405180830381858888f193505050501580156103e5573d6000803e3d6000fd5b50817f2babb5cd458b6d41108d6d793a75e29ca524e7caa20e2da6c994462010920a7260405160405180910390a25050565b60015481565b600080600083815260200190815260200160002090508060000160009054906101000a900473ffffffffffffffffffffffffffffffffffffffff1673ffffffffffffffffffffffffffffffffffffffff163373ffffffffffffffffffffffffffffffffffffffff16146104bc576040517f82b4290000000000000000000000000000000000000000000000000000000000815260040160405180910390fd5b8060030160009054906101000a900460ff16610504576040517fd5ef09ba00000000000000000000000000000000000000000000000000000000815260040160405180910390fd5b8060030160019054906101000a900460ff161561054d576040517f63b4904e00000000000000000000000000000000000000000000000000000000815260040160405180910390fd5b60018160030160016101000a81548160ff0219169083151502179055508060010160009054906101000a900473ffffffffffffffffffffffffffffffffffffffff1673ffffffffffffffffffffffffffffffffffffffff166108fc82600201549081150290604051600060405180830381858888f193505050501580156105d8573d6000803e3d6000fd5b50817f69833829d5691ae09424af7d16f73adf033451149ea9c2fc6fcb4c44108eef6760405160405180910390a25050565b6000803403610645576040517f2c5211c600000000000000000000000000000000000000000000000000000000815260040160405180910390fd5b6001600081546106549061097e565b919050819055905060008060008381526020019081526020016000209050610689338434846106f5909392919063ffffffff16565b8273ffffffffffffffffffffffffffffffffffffffff163373ffffffffffffffffffffffffffffffffffffffff16837f9405ad0a6208539879349284d71265479b1623846f70303da1f9890d6e8c10a7346040516106e791906108db565b60405180910390a450919050565b828460000160006101000a81548173ffffffffffffffffffffffffffffffffffffffff021916908373ffffffffffffffffffffffffffffffffffffffff160217905550818460010160006101000a81548173ffffffffffffffffffffffffffffffffffffffff021916908373ffffffffffffffffffffffffffffffffffffffff16021790555080846002018190555060018460030160006101000a81548160ff02191690831515021790555050505050565b600080fd5b6000819050919050565b6107bf816107ac565b81146107ca57600080fd5b50565b6000813590506107dc816107b6565b92915050565b6000602082840312156107f8576107f76107a7565b5b6000610806848285016107cd565b91505092915050565b600073ffffffffffffffffffffffffffffffffffffffff82169050919050565b600061083a8261080f565b9050919050565b61084a8161082f565b82525050565b610859816107ac565b82525050565b60008115159050919050565b6108748161085f565b82525050565b600060c08201905061088f6000830189610841565b61089c6020830188610841565b6108a96040830187610850565b6108b6606083018661086b565b6108c3608083018561086b565b6108d060a083018461086b565b979650505050505050565b60006020820190506108f06000830184610850565b92915050565b6108ff8161082f565b811461090a57600080fd5b50565b60008135905061091c816108f6565b92915050565b600060208284031215610938576109376107a7565b5b60006109468482850161090d565b91505092915050565b7f4e487b7100000000000000000000000000000000000000000000000000000000600052601160045260246000fd5b6000610989826107ac565b91507fffffffffffffffffffffffffffffffffffffffffffffffffffffffffffffffff82036109bb576109ba61094f565b5b60018201905091905056fea2646970667358221220aeb56fcc4a33a97d2f37338f0f35d6e00f1669b58d14e62a27a532c7605595ac64736f6c63430008180033",
  "linkReferences": {},
  "deployedLinkReferences": {}
}