{
  "_format": "hh-sol-artifact-1",
  "contractName": "RecyclerLib",
  "sourceName": "contracts/libraries/RecyclerLib.sol",
  "abi": [
    {
      "inputs": [],
      "name": "INVALIDLATITUTUDE",
      "type": "error"
    },
    {
      "inputs": [],
      "name": "INVALIDLONGITUDE",
      "type": "error"
    },
    {
      "inputs": [],
      "name": "INVALIDOFFERNAME",
      "type": "error"
    },
    {
      "inputs": [],
      "name": "INVALIDPRICE",
      "type": "error"
    },
    {
      "inputs": [],
      "name": "INVALIDQUANTITY",
      "type": "error"
    },
    {
      "inputs": [],
      "name": "INVALIDRECYCLER",
      "type": "error"
    },
    {
      "inputs": [],
      "name": "NOT_FOUND",
      "type": "error"
    },
    {
      "inputs": [],
      "name": "OFFERNOTFOUND",
      "type": "error"
    },
    {
      "inputs": [],
      "name": "RECYCLER_ALREADY_REGISTERED",
      "type": "error"
    },
    {
      "anonymous": false,
      "inputs": [
        {
          "indexed": true,
          "internalType": "address",
          "name": "recycler",
          "type": "address"
        },
        {
          "indexed": false,
          "internalType": "string",
          "name": "_wasteType",
          "type": "string"
        },
        {
          "indexed": false,
          "internalType": "uint256",
          "name": "_pricePerKg",
          "type": "uint256"
        },
        {
          "indexed": false,
          "internalType": "uint256",
          "name": "_miniQuantity",
          "type": "uint256"
        }
      ],
      "name": "OfferCreated",
      "type": "event"
    },
    {
      "anonymous": false,
      "inputs": [
        {
          "indexed": true,
          "internalType": "address",
          "name": "_recyclerAddress",
          "type": "address"
        },
        {
          "indexed": true,
          "internalType": "uint256",
          "name": "_recyclerId",
          "type": "uint256"
        },
        {
          "indexed": false,
          "internalType": "string",
          "name": "_location",
          "type": "string"
        },
        {
          "indexed": false,
          "internalType": "int32",
          "name": "lat",
          "type": "int32"
        },
        {
          "indexed": false,
          "internalType": "int32",
          "name": "lon",
          "type": "int32"
        }
      ],
      "name": "RecyclerCreated",
      "type": "event"
    },
    {
      "inputs": [
        {
          "internalType": "uint256",
          "name": "id",
          "type": "uint256"
        }
      ],
      "name": "getRecyclerById",
      "outputs": [
        {
          "components": [
            {
              "internalType": "uint256",
              "name": "id",
              "type": "uint256"
            },
            {
              "internalType": "address",
              "name": "recyclerAddress",
              "type": "address"
            },
            {
              "internalType": "string",
              "name": "location",
              "type": "string"
            },
            {
              "internalType": "uint256",
              "name": "rating",
              "type": "uint256"
            },
            {
              "internalType": "bool",
              "name": "isRegistered",
              "type": "bool"
            }
          ],
          "internalType": "struct GreenCycle.Recycler",
          "name": "",
          "type": "tuple"
        }
      ],
      "stateMutability": "view",
      "type": "function"
    },
    {
      "inputs": [
        {
          "internalType": "uint256",
          "name": "_id",
          "type": "uint256"
        }
      ],
      "name": "getRecyclerOffers",
      "outputs": [
        {
          "components": [
            {
              "internalType": "uint256",
              "name": "offerId",
              "type": "uint256"
            },
            {
              "internalType": "string",
              "name": "name",
              "type": "string"
            },
            {
              "internalType": "address",
              "name": "recyclerAddress",
              "type": "address"
            },
            {
              "internalType": "uint256",
              "name": "recyclerId",
              "type": "uint256"
            },
            {
              "internalType": "uint256",
              "name": "pricePerKg",
              "type": "uint256"
            },
            {
              "internalType": "uint256",
              "name": "minQuantity",
              "type": "uint256"
            }
          ],
          "internalType": "struct GreenCycle.Offer[]",
          "name": "",
          "type": "tuple[]"
        }
      ],
      "stateMutability": "view",
      "type": "function"
    },
    {
      "inputs": [],
      "name": "seeAllRecyclers",
      "outputs": [
        {
          "components": [
            {
              "internalType": "uint256",
              "name": "id",
              "type": "uint256"
            },
            {
              "internalType": "address",
              "name": "recyclerAddress",
              "type": "address"
            },
            {
              "internalType": "string",
              "name": "location",
              "type": "string"
            },
            {
              "internalType": "uint256",
              "name": "rating",
              "type": "uint256"
            },
            {
              "internalType": "bool",
              "name": "isRegistered",
              "type": "bool"
            }
          ],
          "internalType": "struct GreenCycle.Recycler[]",
          "name": "",
          "type": "tuple[]"
        }
      ],
      "stateMutability": "view",
      "type": "function"
    },
    {
      "inputs": [
        {
          "internalType": "address",
          "name": "_recyclerAddress",
          "type": "address"
        },
        {
          "internalType": "uint256",
          "name": "_offerId",
          "type": "uint256"
        }
      ],
      "name": "viewOffer",
      "outputs": [
        {
          "components": [
            {
              "internalType": "uint256",
              "name": "offerId",
              "type": "uint256"
            },
            {
              "internalType": "string",
              "name": "name",
              "type": "string"
            },
            {
              "internalType": "address",
              "name": "recyclerAddress",
              "type": "address"
            },
            {
              "internalType": "uint256",
              "name": "recyclerId",
              "type": "uint256"
            },
            {
              "internalType": "uint256",
              "name": "pricePerKg",
              "type": "uint256"
            },
            {
              "internalType": "uint256",
              "name": "minQuantity",
              "type": "uint256"
            }
          ],
          "internalType": "struct GreenCycle.Offer",
          "name": "",
          "type": "tuple"
        }
      ],
      "stateMutability": "view",
      "type": "function"
    }
  ],
  "bytecode": "0x612580610053600b82828239805160001a607314610046577f4e487b7100000000000000000000000000000000000000000000000000000000600052600060045260246000fd5b30600052607381538281f3fe73000000000000000000000000000000000000000030146080604052600436106100875760003560e01c806377acab571161006557806377acab57146101295780637a7bd4c214610159578063a7fd1dbd14610177578063f6556c2a146101a057610087565b80631e8d6bcf1461008c5780635959ae7b146100bc578063753cc977146100f9575b600080fd5b6100a660048036038101906100a19190611658565b6101e0565b6040516100b391906117f6565b60405180910390f35b8180156100c857600080fd5b506100e360048036038101906100de9190611979565b610333565b6040516100f09190611a99565b60405180910390f35b610113600480360381019061010e9190611abb565b610662565b6040516101209190611a99565b60405180910390f35b610143600480360381019061013e9190611658565b610921565b6040516101509190611c46565b60405180910390f35b610161610ba6565b60405161016e9190611da0565b60405180910390f35b81801561018357600080fd5b5061019e60048036038101906101999190611dc2565b610d2b565b005b8180156101ac57600080fd5b506101c760048036038101906101c29190611e6a565b611095565b6040516101d79493929190611f64565b60405180910390f35b6101e861157b565b60006101f261154e565b90508060060160008481526020019081526020016000206040518060a0016040529081600082015481526020016001820160009054906101000a900473ffffffffffffffffffffffffffffffffffffffff1673ffffffffffffffffffffffffffffffffffffffff1673ffffffffffffffffffffffffffffffffffffffff16815260200160028201805461028490611fdf565b80601f01602080910402602001604051908101604052809291908181526020018280546102b090611fdf565b80156102fd5780601f106102d2576101008083540402835291602001916102fd565b820191906000526020600020905b8154815290600101906020018083116102e057829003601f168201915b50505050508152602001600382015481526020016004820160009054906101000a900460ff161515151581525050915050919050565b61033b6115c2565b600061034561154e565b90508060050160003373ffffffffffffffffffffffffffffffffffffffff1673ffffffffffffffffffffffffffffffffffffffff16815260200190815260200160002060040160009054906101000a900460ff166103cf576040517fb7e3f9d000000000000000000000000000000000000000000000000000000000815260040160405180910390fd5b60008160040160003373ffffffffffffffffffffffffffffffffffffffff1673ffffffffffffffffffffffffffffffffffffffff168152602001908152602001600020888154811061042457610423612010565b5b9060005260206000209060060201600001540361046d576040517f7c4afa1100000000000000000000000000000000000000000000000000000000815260040160405180910390fd5b60008160040160003373ffffffffffffffffffffffffffffffffffffffff1673ffffffffffffffffffffffffffffffffffffffff16815260200190815260200160002088815481106104c2576104c1612010565b5b90600052602060002090600602019050868160010190816104e391906121eb565b50858160020160006101000a81548173ffffffffffffffffffffffffffffffffffffffff021916908373ffffffffffffffffffffffffffffffffffffffff160217905550848160040181905550838160050181905550806040518060c00160405290816000820154815260200160018201805461055f90611fdf565b80601f016020809104026020016040519081016040528092919081815260200182805461058b90611fdf565b80156105d85780601f106105ad576101008083540402835291602001916105d8565b820191906000526020600020905b8154815290600101906020018083116105bb57829003601f168201915b505050505081526020016002820160009054906101000a900473ffffffffffffffffffffffffffffffffffffffff1673ffffffffffffffffffffffffffffffffffffffff1673ffffffffffffffffffffffffffffffffffffffff16815260200160038201548152602001600482015481526020016005820154815250509250505095945050505050565b61066a6115c2565b600061067461154e565b90508060050160008573ffffffffffffffffffffffffffffffffffffffff1673ffffffffffffffffffffffffffffffffffffffff16815260200190815260200160002060040160009054906101000a900460ff166106fe576040517fb7e3f9d000000000000000000000000000000000000000000000000000000000815260040160405180910390fd5b60008160040160008673ffffffffffffffffffffffffffffffffffffffff1673ffffffffffffffffffffffffffffffffffffffff168152602001908152602001600020848154811061075357610752612010565b5b9060005260206000209060060201600001540361079c576040517f7c4afa1100000000000000000000000000000000000000000000000000000000815260040160405180910390fd5b8060040160008573ffffffffffffffffffffffffffffffffffffffff1673ffffffffffffffffffffffffffffffffffffffff16815260200190815260200160002083815481106107ef576107ee612010565b5b90600052602060002090600602016040518060c00160405290816000820154815260200160018201805461082290611fdf565b80601f016020809104026020016040519081016040528092919081815260200182805461084e90611fdf565b801561089b5780601f106108705761010080835404028352916020019161089b565b820191906000526020600020905b81548152906001019060200180831161087e57829003601f168201915b505050505081526020016002820160009054906101000a900473ffffffffffffffffffffffffffffffffffffffff1673ffffffffffffffffffffffffffffffffffffffff1673ffffffffffffffffffffffffffffffffffffffff168152602001600382015481526020016004820154815260200160058201548152505091505092915050565b6060600061092d61154e565b905060008160060160008581526020019081526020016000209050600073ffffffffffffffffffffffffffffffffffffffff168160010160009054906101000a900473ffffffffffffffffffffffffffffffffffffffff1673ffffffffffffffffffffffffffffffffffffffff16036109d2576040517f5ffce20a00000000000000000000000000000000000000000000000000000000815260040160405180910390fd5b8160040160008260010160009054906101000a900473ffffffffffffffffffffffffffffffffffffffff1673ffffffffffffffffffffffffffffffffffffffff1673ffffffffffffffffffffffffffffffffffffffff168152602001908152602001600020805480602002602001604051908101604052809291908181526020016000905b82821015610b9957838290600052602060002090600602016040518060c001604052908160008201548152602001600182018054610a9490611fdf565b80601f0160208091040260200160405190810160405280929190818152602001828054610ac090611fdf565b8015610b0d5780601f10610ae257610100808354040283529160200191610b0d565b820191906000526020600020905b815481529060010190602001808311610af057829003601f168201915b505050505081526020016002820160009054906101000a900473ffffffffffffffffffffffffffffffffffffffff1673ffffffffffffffffffffffffffffffffffffffff1673ffffffffffffffffffffffffffffffffffffffff168152602001600382015481526020016004820154815260200160058201548152505081526020019060010190610a57565b5050505092505050919050565b60606000610bb261154e565b905080600701805480602002602001604051908101604052809291908181526020016000905b82821015610d2157838290600052602060002090600502016040518060a0016040529081600082015481526020016001820160009054906101000a900473ffffffffffffffffffffffffffffffffffffffff1673ffffffffffffffffffffffffffffffffffffffff1673ffffffffffffffffffffffffffffffffffffffff168152602001600282018054610c6b90611fdf565b80601f0160208091040260200160405190810160405280929190818152602001828054610c9790611fdf565b8015610ce45780601f10610cb957610100808354040283529160200191610ce4565b820191906000526020600020905b815481529060010190602001808311610cc757829003601f168201915b50505050508152602001600382015481526020016004820160009054906101000a900460ff16151515158152505081526020019060010190610bd8565b5050505091505090565b6000610d3561154e565b90508060050160003373ffffffffffffffffffffffffffffffffffffffff1673ffffffffffffffffffffffffffffffffffffffff16815260200190815260200160002060040160009054906101000a900460ff16610dbf576040517fb7e3f9d000000000000000000000000000000000000000000000000000000000815260040160405180910390fd5b600384511015610dfb576040517fa8936bf500000000000000000000000000000000000000000000000000000000815260040160405180910390fd5b60008311610e35576040517f608a7e4d00000000000000000000000000000000000000000000000000000000815260040160405180910390fd5b60008203610e6f576040517f6850750e00000000000000000000000000000000000000000000000000000000815260040160405180910390fd5b60008160040160003373ffffffffffffffffffffffffffffffffffffffff1673ffffffffffffffffffffffffffffffffffffffff1681526020019081526020016000208054905090508160040160003373ffffffffffffffffffffffffffffffffffffffff1673ffffffffffffffffffffffffffffffffffffffff1681526020019081526020016000206040518060c00160405280600184610f1191906122ec565b81526020018781526020013373ffffffffffffffffffffffffffffffffffffffff1681526020018460050160003373ffffffffffffffffffffffffffffffffffffffff1673ffffffffffffffffffffffffffffffffffffffff168152602001908152602001600020600001548152602001868152602001858152509080600181540180825580915050600190039060005260206000209060060201600090919091909150600082015181600001556020820151816001019081610fd491906121eb565b5060408201518160020160006101000a81548173ffffffffffffffffffffffffffffffffffffffff021916908373ffffffffffffffffffffffffffffffffffffffff160217905550606082015181600301556080820151816004015560a0820151816005015550503373ffffffffffffffffffffffffffffffffffffffff167fed1ffb8900074c0ed38aa50f58a811976aebd6b5a02c3a17e53b4fc78704c1e986868660405161108693929190612379565b60405180910390a25050505050565b60008060606000806110a561154e565b9050600115158160050160008b73ffffffffffffffffffffffffffffffffffffffff1673ffffffffffffffffffffffffffffffffffffffff16815260200190815260200160002060040160009054906101000a900460ff16151503611136576040517fc55c3d0900000000000000000000000000000000000000000000000000000000815260040160405180910390fd5b60008760030b03611173576040517ff03c5e7000000000000000000000000000000000000000000000000000000000815260040160405180910390fd5b60008660030b036111b0576040517f2df428a300000000000000000000000000000000000000000000000000000000815260040160405180910390fd5b600081600301600081546111c3906123b7565b919050819055905060008260050160008c73ffffffffffffffffffffffffffffffffffffffff1673ffffffffffffffffffffffffffffffffffffffff16815260200190815260200160002090508181600001819055508a8160010160006101000a81548173ffffffffffffffffffffffffffffffffffffffff021916908373ffffffffffffffffffffffffffffffffffffffff1602179055508981600201908161126d91906121eb565b5060018160040160006101000a81548160ff02191690831515021790555082600701819080600181540180825580915050600190039060005260206000209060050201600090919091909150600082015481600001556001820160009054906101000a900473ffffffffffffffffffffffffffffffffffffffff168160010160006101000a81548173ffffffffffffffffffffffffffffffffffffffff021916908373ffffffffffffffffffffffffffffffffffffffff1602179055506002820181600201908161133e9190612415565b50600382015481600301556004820160009054906101000a900460ff168160040160006101000a81548160ff021916908315150217905550505060008360080160008d73ffffffffffffffffffffffffffffffffffffffff1673ffffffffffffffffffffffffffffffffffffffff1681526020019081526020016000209050898160000160006101000a81548163ffffffff021916908360030b63ffffffff160217905550888160000160046101000a81548163ffffffff021916908360030b63ffffffff16021790555081846006016000858152602001908152602001600020600082015481600001556001820160009054906101000a900473ffffffffffffffffffffffffffffffffffffffff168160010160006101000a81548173ffffffffffffffffffffffffffffffffffffffff021916908373ffffffffffffffffffffffffffffffffffffffff160217905550600282018160020190816114a49190612415565b50600382015481600301556004820160009054906101000a900460ff168160040160006101000a81548160ff021916908315150217905550905050828c73ffffffffffffffffffffffffffffffffffffffff167f104a05b494eb702c7d0956890f963258cdbd4293eccd92cb776ed0426f9208558d8d8d60405161152a9392919061250c565b60405180910390a3828c8c6001975097509750975050505050945094509450949050565b6000807f3fc430cf53a7ea36e25a560ef7d768c9bb7c830bb49f736b17223d7ae06aaa1c90508091505090565b6040518060a0016040528060008152602001600073ffffffffffffffffffffffffffffffffffffffff16815260200160608152602001600081526020016000151581525090565b6040518060c001604052806000815260200160608152602001600073ffffffffffffffffffffffffffffffffffffffff1681526020016000815260200160008152602001600081525090565b6000604051905090565b600080fd5b600080fd5b6000819050919050565b61163581611622565b811461164057600080fd5b50565b6000813590506116528161162c565b92915050565b60006020828403121561166e5761166d611618565b5b600061167c84828501611643565b91505092915050565b61168e81611622565b82525050565b600073ffffffffffffffffffffffffffffffffffffffff82169050919050565b60006116bf82611694565b9050919050565b6116cf816116b4565b82525050565b600081519050919050565b600082825260208201905092915050565b60005b8381101561170f5780820151818401526020810190506116f4565b60008484015250505050565b6000601f19601f8301169050919050565b6000611737826116d5565b61174181856116e0565b93506117518185602086016116f1565b61175a8161171b565b840191505092915050565b60008115159050919050565b61177a81611765565b82525050565b600060a0830160008301516117986000860182611685565b5060208301516117ab60208601826116c6565b50604083015184820360408601526117c3828261172c565b91505060608301516117d86060860182611685565b5060808301516117eb6080860182611771565b508091505092915050565b600060208201905081810360008301526118108184611780565b905092915050565b600080fd5b600080fd5b7f4e487b7100000000000000000000000000000000000000000000000000000000600052604160045260246000fd5b61185a8261171b565b810181811067ffffffffffffffff8211171561187957611878611822565b5b80604052505050565b600061188c61160e565b90506118988282611851565b919050565b600067ffffffffffffffff8211156118b8576118b7611822565b5b6118c18261171b565b9050602081019050919050565b82818337600083830152505050565b60006118f06118eb8461189d565b611882565b90508281526020810184848401111561190c5761190b61181d565b5b6119178482856118ce565b509392505050565b600082601f83011261193457611933611818565b5b81356119448482602086016118dd565b91505092915050565b611956816116b4565b811461196157600080fd5b50565b6000813590506119738161194d565b92915050565b600080600080600060a0868803121561199557611994611618565b5b60006119a388828901611643565b955050602086013567ffffffffffffffff8111156119c4576119c361161d565b5b6119d08882890161191f565b94505060406119e188828901611964565b93505060606119f288828901611643565b9250506080611a0388828901611643565b9150509295509295909350565b600060c083016000830151611a286000860182611685565b5060208301518482036020860152611a40828261172c565b9150506040830151611a5560408601826116c6565b506060830151611a686060860182611685565b506080830151611a7b6080860182611685565b5060a0830151611a8e60a0860182611685565b508091505092915050565b60006020820190508181036000830152611ab38184611a10565b905092915050565b60008060408385031215611ad257611ad1611618565b5b6000611ae085828601611964565b9250506020611af185828601611643565b9150509250929050565b600081519050919050565b600082825260208201905092915050565b6000819050602082019050919050565b600060c083016000830151611b3f6000860182611685565b5060208301518482036020860152611b57828261172c565b9150506040830151611b6c60408601826116c6565b506060830151611b7f6060860182611685565b506080830151611b926080860182611685565b5060a0830151611ba560a0860182611685565b508091505092915050565b6000611bbc8383611b27565b905092915050565b6000602082019050919050565b6000611bdc82611afb565b611be68185611b06565b935083602082028501611bf885611b17565b8060005b85811015611c345784840389528151611c158582611bb0565b9450611c2083611bc4565b925060208a01995050600181019050611bfc565b50829750879550505050505092915050565b60006020820190508181036000830152611c608184611bd1565b905092915050565b600081519050919050565b600082825260208201905092915050565b6000819050602082019050919050565b600060a083016000830151611cac6000860182611685565b506020830151611cbf60208601826116c6565b5060408301518482036040860152611cd7828261172c565b9150506060830151611cec6060860182611685565b506080830151611cff6080860182611771565b508091505092915050565b6000611d168383611c94565b905092915050565b6000602082019050919050565b6000611d3682611c68565b611d408185611c73565b935083602082028501611d5285611c84565b8060005b85811015611d8e5784840389528151611d6f8582611d0a565b9450611d7a83611d1e565b925060208a01995050600181019050611d56565b50829750879550505050505092915050565b60006020820190508181036000830152611dba8184611d2b565b905092915050565b600080600060608486031215611ddb57611dda611618565b5b600084013567ffffffffffffffff811115611df957611df861161d565b5b611e058682870161191f565b9350506020611e1686828701611643565b9250506040611e2786828701611643565b9150509250925092565b60008160030b9050919050565b611e4781611e31565b8114611e5257600080fd5b50565b600081359050611e6481611e3e565b92915050565b60008060008060808587031215611e8457611e83611618565b5b6000611e9287828801611964565b945050602085013567ffffffffffffffff811115611eb357611eb261161d565b5b611ebf8782880161191f565b9350506040611ed087828801611e55565b9250506060611ee187828801611e55565b91505092959194509250565b611ef681611622565b82525050565b611f05816116b4565b82525050565b600082825260208201905092915050565b6000611f27826116d5565b611f318185611f0b565b9350611f418185602086016116f1565b611f4a8161171b565b840191505092915050565b611f5e81611765565b82525050565b6000608082019050611f796000830187611eed565b611f866020830186611efc565b8181036040830152611f988185611f1c565b9050611fa76060830184611f55565b95945050505050565b7f4e487b7100000000000000000000000000000000000000000000000000000000600052602260045260246000fd5b60006002820490506001821680611ff757607f821691505b60208210810361200a57612009611fb0565b5b50919050565b7f4e487b7100000000000000000000000000000000000000000000000000000000600052603260045260246000fd5b60008190508160005260206000209050919050565b60006020601f8301049050919050565b600082821b905092915050565b6000600883026120a17fffffffffffffffffffffffffffffffffffffffffffffffffffffffffffffffff82612064565b6120ab8683612064565b95508019841693508086168417925050509392505050565b6000819050919050565b60006120e86120e36120de84611622565b6120c3565b611622565b9050919050565b6000819050919050565b612102836120cd565b61211661210e826120ef565b848454612071565b825550505050565b600090565b61212b61211e565b6121368184846120f9565b505050565b5b8181101561215a5761214f600082612123565b60018101905061213c565b5050565b601f82111561219f576121708161203f565b61217984612054565b81016020851015612188578190505b61219c61219485612054565b83018261213b565b50505b505050565b600082821c905092915050565b60006121c2600019846008026121a4565b1980831691505092915050565b60006121db83836121b1565b9150826002028217905092915050565b6121f4826116d5565b67ffffffffffffffff81111561220d5761220c611822565b5b6122178254611fdf565b61222282828561215e565b600060209050601f8311600181146122555760008415612243578287015190505b61224d85826121cf565b8655506122b5565b601f1984166122638661203f565b60005b8281101561228b57848901518255600182019150602085019450602081019050612266565b868310156122a857848901516122a4601f8916826121b1565b8355505b6001600288020188555050505b505050505050565b7f4e487b7100000000000000000000000000000000000000000000000000000000600052601160045260246000fd5b60006122f782611622565b915061230283611622565b925082820190508082111561231a576123196122bd565b5b92915050565b600082825260208201905092915050565b600061233c826116d5565b6123468185612320565b93506123568185602086016116f1565b61235f8161171b565b840191505092915050565b61237381611622565b82525050565b600060608201905081810360008301526123938186612331565b90506123a2602083018561236a565b6123af604083018461236a565b949350505050565b60006123c282611622565b91507fffffffffffffffffffffffffffffffffffffffffffffffffffffffffffffffff82036123f4576123f36122bd565b5b600182019050919050565b60008154905061240e81611fdf565b9050919050565b8181036124235750506124fb565b61242c826123ff565b67ffffffffffffffff81111561244557612444611822565b5b61244f8254611fdf565b61245a82828561215e565b6000601f8311600181146124895760008415612477578287015490505b61248185826121cf565b8655506124f4565b601f1984166124978761203f565b96506124a28661203f565b60005b828110156124ca578489015482556001820191506001850194506020810190506124a5565b868310156124e757848901546124e3601f8916826121b1565b8355505b6001600288020188555050505b5050505050505b565b61250681611e31565b82525050565b600060608201905081810360008301526125268186612331565b905061253560208301856124fd565b61254260408301846124fd565b94935050505056fea264697066735822122082b18f73aeed1a9179b7018b72ed2390887a779580627833990bc433f32c8e8c64736f6c63430008180033",
  "linkReferences": {},
  "deployedLinkReferences": {}
}