{
  "_format": "hh-sol-artifact-1",
  "contractName": "RecyclerLib",
  "sourceName": "contracts/libraries/RecyclerLib.sol",
  "abi": [
    {
      "inputs": [],
      "name": "INVALIDLATITUTUDE",
      "type": "error"
    },
    {
      "inputs": [],
      "name": "INVALIDLONGITUDE",
      "type": "error"
    },
    {
      "inputs": [],
      "name": "INVALIDOFFERNAME",
      "type": "error"
    },
    {
      "inputs": [],
      "name": "INVALIDPRICE",
      "type": "error"
    },
    {
      "inputs": [],
      "name": "INVALIDQUANTITY",
      "type": "error"
    },
    {
      "inputs": [],
      "name": "INVALIDRECYCLER",
      "type": "error"
    },
    {
      "inputs": [],
      "name": "NOT_FOUND",
      "type": "error"
    },
    {
      "inputs": [],
      "name": "RECYCLER_ALREADY_REGISTERED",
      "type": "error"
    },
    {
      "anonymous": false,
      "inputs": [
        {
          "indexed": true,
          "internalType": "address",
          "name": "_recyclerAddress",
          "type": "address"
        },
        {
          "indexed": true,
          "internalType": "uint256",
          "name": "_recyclerId",
          "type": "uint256"
        },
        {
          "indexed": false,
          "internalType": "string",
          "name": "_location",
          "type": "string"
        },
        {
          "indexed": false,
          "internalType": "int32",
          "name": "lat",
          "type": "int32"
        },
        {
          "indexed": false,
          "internalType": "int32",
          "name": "lon",
          "type": "int32"
        }
      ],
      "name": "RecyclerCreated",
      "type": "event"
    },
    {
      "inputs": [
        {
          "internalType": "uint256",
          "name": "id",
          "type": "uint256"
        }
      ],
      "name": "getRecyclerById",
      "outputs": [
        {
          "components": [
            {
              "internalType": "uint256",
              "name": "id",
              "type": "uint256"
            },
            {
              "internalType": "address",
              "name": "recyclerAddress",
              "type": "address"
            },
            {
              "internalType": "string",
              "name": "location",
              "type": "string"
            },
            {
              "internalType": "uint256",
              "name": "rating",
              "type": "uint256"
            },
            {
              "internalType": "bool",
              "name": "isRegistered",
              "type": "bool"
            },
            {
              "internalType": "uint256",
              "name": "totalWasteRequest",
              "type": "uint256"
            },
            {
              "internalType": "uint256",
              "name": "totalAmountSpent",
              "type": "uint256"
            },
            {
              "internalType": "uint256",
              "name": "totalWasteCollectedInKgs",
              "type": "uint256"
            }
          ],
          "internalType": "struct GreenCycle.Recycler",
          "name": "",
          "type": "tuple"
        }
      ],
      "stateMutability": "view",
      "type": "function"
    },
    {
      "inputs": [
        {
          "internalType": "uint256",
          "name": "_id",
          "type": "uint256"
        }
      ],
      "name": "getRecyclerOffers",
      "outputs": [
        {
          "components": [
            {
              "internalType": "uint256",
              "name": "offerId",
              "type": "uint256"
            },
            {
              "internalType": "string",
              "name": "name",
              "type": "string"
            },
            {
              "internalType": "address",
              "name": "recyclerAddress",
              "type": "address"
            },
            {
              "internalType": "uint256",
              "name": "recyclerId",
              "type": "uint256"
            },
            {
              "internalType": "uint256",
              "name": "pricePerKg",
              "type": "uint256"
            },
            {
              "internalType": "uint256",
              "name": "minQuantity",
              "type": "uint256"
            }
          ],
          "internalType": "struct GreenCycle.Offer[]",
          "name": "",
          "type": "tuple[]"
        }
      ],
      "stateMutability": "view",
      "type": "function"
    },
    {
      "inputs": [],
      "name": "seeAllRecyclers",
      "outputs": [
        {
          "components": [
            {
              "internalType": "uint256",
              "name": "id",
              "type": "uint256"
            },
            {
              "internalType": "address",
              "name": "recyclerAddress",
              "type": "address"
            },
            {
              "internalType": "string",
              "name": "location",
              "type": "string"
            },
            {
              "internalType": "uint256",
              "name": "rating",
              "type": "uint256"
            },
            {
              "internalType": "bool",
              "name": "isRegistered",
              "type": "bool"
            },
            {
              "internalType": "uint256",
              "name": "totalWasteRequest",
              "type": "uint256"
            },
            {
              "internalType": "uint256",
              "name": "totalAmountSpent",
              "type": "uint256"
            },
            {
              "internalType": "uint256",
              "name": "totalWasteCollectedInKgs",
              "type": "uint256"
            }
          ],
          "internalType": "struct GreenCycle.Recycler[]",
          "name": "",
          "type": "tuple[]"
        }
      ],
      "stateMutability": "view",
      "type": "function"
    },
    {
      "inputs": [
        {
          "internalType": "address",
          "name": "_recyclerAddress",
          "type": "address"
        },
        {
          "internalType": "uint256",
          "name": "_offerId",
          "type": "uint256"
        }
      ],
      "name": "viewOffer",
      "outputs": [
        {
          "components": [
            {
              "internalType": "uint256",
              "name": "offerId",
              "type": "uint256"
            },
            {
              "internalType": "string",
              "name": "name",
              "type": "string"
            },
            {
              "internalType": "address",
              "name": "recyclerAddress",
              "type": "address"
            },
            {
              "internalType": "uint256",
              "name": "recyclerId",
              "type": "uint256"
            },
            {
              "internalType": "uint256",
              "name": "pricePerKg",
              "type": "uint256"
            },
            {
              "internalType": "uint256",
              "name": "minQuantity",
              "type": "uint256"
            }
          ],
          "internalType": "struct GreenCycle.Offer",
          "name": "",
          "type": "tuple"
        }
      ],
      "stateMutability": "view",
      "type": "function"
    }
  ],
  "bytecode": "0x612469610053600b82828239805160001a607314610046577f4e487b7100000000000000000000000000000000000000000000000000000000600052600060045260246000fd5b30600052607381538281f3fe73000000000000000000000000000000000000000030146080604052600436106100875760003560e01c806377acab571161006557806377acab57146101295780637a7bd4c214610159578063a7fd1dbd14610177578063f6556c2a146101a057610087565b80631e8d6bcf1461008c5780635959ae7b146100bc578063753cc977146100f9575b600080fd5b6100a660048036038101906100a1919061154e565b6101e0565b6040516100b39190611726565b60405180910390f35b8180156100c857600080fd5b506100e360048036038101906100de91906118a9565b610352565b6040516100f091906119c9565b60405180910390f35b610113600480360381019061010e91906119eb565b6105e3565b60405161012091906119c9565b60405180910390f35b610143600480360381019061013e919061154e565b610804565b6040516101509190611b76565b60405180910390f35b610161610a89565b60405161016e9190611d0a565b60405180910390f35b81801561018357600080fd5b5061019e60048036038101906101999190611d2c565b610c2d565b005b8180156101ac57600080fd5b506101c760048036038101906101c29190611dd4565b610f39565b6040516101d79493929190611ece565b60405180910390f35b6101e861145b565b60006101f261142e565b905080600601600084815260200190815260200160002060405180610100016040529081600082015481526020016001820160009054906101000a900473ffffffffffffffffffffffffffffffffffffffff1673ffffffffffffffffffffffffffffffffffffffff1673ffffffffffffffffffffffffffffffffffffffff16815260200160028201805461028590611f49565b80601f01602080910402602001604051908101604052809291908181526020018280546102b190611f49565b80156102fe5780601f106102d3576101008083540402835291602001916102fe565b820191906000526020600020905b8154815290600101906020018083116102e157829003601f168201915b50505050508152602001600382015481526020016004820160009054906101000a900460ff161515151581526020016005820154815260200160068201548152602001600782015481525050915050919050565b61035a6114b8565b600061036461142e565b90508060050160003373ffffffffffffffffffffffffffffffffffffffff1673ffffffffffffffffffffffffffffffffffffffff16815260200190815260200160002060040160009054906101000a900460ff166103ee576040517fb7e3f9d000000000000000000000000000000000000000000000000000000000815260040160405180910390fd5b60008160040160003373ffffffffffffffffffffffffffffffffffffffff1673ffffffffffffffffffffffffffffffffffffffff168152602001908152602001600020888154811061044357610442611f7a565b5b90600052602060002090600602019050868160010190816104649190612155565b50858160020160006101000a81548173ffffffffffffffffffffffffffffffffffffffff021916908373ffffffffffffffffffffffffffffffffffffffff160217905550848160040181905550838160050181905550806040518060c0016040529081600082015481526020016001820180546104e090611f49565b80601f016020809104026020016040519081016040528092919081815260200182805461050c90611f49565b80156105595780601f1061052e57610100808354040283529160200191610559565b820191906000526020600020905b81548152906001019060200180831161053c57829003601f168201915b505050505081526020016002820160009054906101000a900473ffffffffffffffffffffffffffffffffffffffff1673ffffffffffffffffffffffffffffffffffffffff1673ffffffffffffffffffffffffffffffffffffffff16815260200160038201548152602001600482015481526020016005820154815250509250505095945050505050565b6105eb6114b8565b60006105f561142e565b90508060050160008573ffffffffffffffffffffffffffffffffffffffff1673ffffffffffffffffffffffffffffffffffffffff16815260200190815260200160002060040160009054906101000a900460ff1661067f576040517fb7e3f9d000000000000000000000000000000000000000000000000000000000815260040160405180910390fd5b8060040160008573ffffffffffffffffffffffffffffffffffffffff1673ffffffffffffffffffffffffffffffffffffffff16815260200190815260200160002083815481106106d2576106d1611f7a565b5b90600052602060002090600602016040518060c00160405290816000820154815260200160018201805461070590611f49565b80601f016020809104026020016040519081016040528092919081815260200182805461073190611f49565b801561077e5780601f106107535761010080835404028352916020019161077e565b820191906000526020600020905b81548152906001019060200180831161076157829003601f168201915b505050505081526020016002820160009054906101000a900473ffffffffffffffffffffffffffffffffffffffff1673ffffffffffffffffffffffffffffffffffffffff1673ffffffffffffffffffffffffffffffffffffffff168152602001600382015481526020016004820154815260200160058201548152505091505092915050565b6060600061081061142e565b905060008160060160008581526020019081526020016000209050600073ffffffffffffffffffffffffffffffffffffffff168160010160009054906101000a900473ffffffffffffffffffffffffffffffffffffffff1673ffffffffffffffffffffffffffffffffffffffff16036108b5576040517f5ffce20a00000000000000000000000000000000000000000000000000000000815260040160405180910390fd5b8160040160008260010160009054906101000a900473ffffffffffffffffffffffffffffffffffffffff1673ffffffffffffffffffffffffffffffffffffffff1673ffffffffffffffffffffffffffffffffffffffff168152602001908152602001600020805480602002602001604051908101604052809291908181526020016000905b82821015610a7c57838290600052602060002090600602016040518060c00160405290816000820154815260200160018201805461097790611f49565b80601f01602080910402602001604051908101604052809291908181526020018280546109a390611f49565b80156109f05780601f106109c5576101008083540402835291602001916109f0565b820191906000526020600020905b8154815290600101906020018083116109d357829003601f168201915b505050505081526020016002820160009054906101000a900473ffffffffffffffffffffffffffffffffffffffff1673ffffffffffffffffffffffffffffffffffffffff1673ffffffffffffffffffffffffffffffffffffffff16815260200160038201548152602001600482015481526020016005820154815250508152602001906001019061093a565b5050505092505050919050565b60606000610a9561142e565b905080600701805480602002602001604051908101604052809291908181526020016000905b82821015610c23578382906000526020600020906008020160405180610100016040529081600082015481526020016001820160009054906101000a900473ffffffffffffffffffffffffffffffffffffffff1673ffffffffffffffffffffffffffffffffffffffff1673ffffffffffffffffffffffffffffffffffffffff168152602001600282018054610b4f90611f49565b80601f0160208091040260200160405190810160405280929190818152602001828054610b7b90611f49565b8015610bc85780601f10610b9d57610100808354040283529160200191610bc8565b820191906000526020600020905b815481529060010190602001808311610bab57829003601f168201915b50505050508152602001600382015481526020016004820160009054906101000a900460ff16151515158152602001600582015481526020016006820154815260200160078201548152505081526020019060010190610abb565b5050505091505090565b6000610c3761142e565b90508060050160003373ffffffffffffffffffffffffffffffffffffffff1673ffffffffffffffffffffffffffffffffffffffff16815260200190815260200160002060040160009054906101000a900460ff16610cc1576040517fb7e3f9d000000000000000000000000000000000000000000000000000000000815260040160405180910390fd5b600384511015610cfd576040517fa8936bf500000000000000000000000000000000000000000000000000000000815260040160405180910390fd5b60008311610d37576040517f608a7e4d00000000000000000000000000000000000000000000000000000000815260040160405180910390fd5b60008203610d71576040517f6850750e00000000000000000000000000000000000000000000000000000000815260040160405180910390fd5b60008160040160003373ffffffffffffffffffffffffffffffffffffffff1673ffffffffffffffffffffffffffffffffffffffff1681526020019081526020016000208054905090508160040160003373ffffffffffffffffffffffffffffffffffffffff1673ffffffffffffffffffffffffffffffffffffffff1681526020019081526020016000206040518060c001604052808381526020018781526020013373ffffffffffffffffffffffffffffffffffffffff1681526020018460050160003373ffffffffffffffffffffffffffffffffffffffff1673ffffffffffffffffffffffffffffffffffffffff168152602001908152602001600020600001548152602001868152602001858152509080600181540180825580915050600190039060005260206000209060060201600090919091909150600082015181600001556020820151816001019081610eca9190612155565b5060408201518160020160006101000a81548173ffffffffffffffffffffffffffffffffffffffff021916908373ffffffffffffffffffffffffffffffffffffffff160217905550606082015181600301556080820151816004015560a0820151816005015550505050505050565b6000806060600080610f4961142e565b9050600115158160050160008b73ffffffffffffffffffffffffffffffffffffffff1673ffffffffffffffffffffffffffffffffffffffff16815260200190815260200160002060040160009054906101000a900460ff16151503610fda576040517fc55c3d0900000000000000000000000000000000000000000000000000000000815260040160405180910390fd5b60008760030b03611017576040517ff03c5e7000000000000000000000000000000000000000000000000000000000815260040160405180910390fd5b60008660030b03611054576040517f2df428a300000000000000000000000000000000000000000000000000000000815260040160405180910390fd5b6000816003016000815461106790612256565b919050819055905060008260050160008c73ffffffffffffffffffffffffffffffffffffffff1673ffffffffffffffffffffffffffffffffffffffff16815260200190815260200160002090508181600001819055508a8160010160006101000a81548173ffffffffffffffffffffffffffffffffffffffff021916908373ffffffffffffffffffffffffffffffffffffffff160217905550898160020190816111119190612155565b5060018160040160006101000a81548160ff02191690831515021790555082600701819080600181540180825580915050600190039060005260206000209060080201600090919091909150600082015481600001556001820160009054906101000a900473ffffffffffffffffffffffffffffffffffffffff168160010160006101000a81548173ffffffffffffffffffffffffffffffffffffffff021916908373ffffffffffffffffffffffffffffffffffffffff160217905550600282018160020190816111e291906122b4565b50600382015481600301556004820160009054906101000a900460ff168160040160006101000a81548160ff021916908315150217905550600582015481600501556006820154816006015560078201548160070155505060008360080160008d73ffffffffffffffffffffffffffffffffffffffff1673ffffffffffffffffffffffffffffffffffffffff1681526020019081526020016000209050898160000160006101000a81548163ffffffff021916908360030b63ffffffff160217905550888160000160046101000a81548163ffffffff021916908360030b63ffffffff16021790555081846006016000858152602001908152602001600020600082015481600001556001820160009054906101000a900473ffffffffffffffffffffffffffffffffffffffff168160010160006101000a81548173ffffffffffffffffffffffffffffffffffffffff021916908373ffffffffffffffffffffffffffffffffffffffff1602179055506002820181600201908161136691906122b4565b50600382015481600301556004820160009054906101000a900460ff168160040160006101000a81548160ff021916908315150217905550600582015481600501556006820154816006015560078201548160070155905050828c73ffffffffffffffffffffffffffffffffffffffff167f104a05b494eb702c7d0956890f963258cdbd4293eccd92cb776ed0426f9208558d8d8d60405161140a939291906123f5565b60405180910390a3828c8c6001975097509750975050505050945094509450949050565b6000807f3fc430cf53a7ea36e25a560ef7d768c9bb7c830bb49f736b17223d7ae06aaa1c90508091505090565b60405180610100016040528060008152602001600073ffffffffffffffffffffffffffffffffffffffff16815260200160608152602001600081526020016000151581526020016000815260200160008152602001600081525090565b6040518060c001604052806000815260200160608152602001600073ffffffffffffffffffffffffffffffffffffffff1681526020016000815260200160008152602001600081525090565b6000604051905090565b600080fd5b600080fd5b6000819050919050565b61152b81611518565b811461153657600080fd5b50565b60008135905061154881611522565b92915050565b6000602082840312156115645761156361150e565b5b600061157284828501611539565b91505092915050565b61158481611518565b82525050565b600073ffffffffffffffffffffffffffffffffffffffff82169050919050565b60006115b58261158a565b9050919050565b6115c5816115aa565b82525050565b600081519050919050565b600082825260208201905092915050565b60005b838110156116055780820151818401526020810190506115ea565b60008484015250505050565b6000601f19601f8301169050919050565b600061162d826115cb565b61163781856115d6565b93506116478185602086016115e7565b61165081611611565b840191505092915050565b60008115159050919050565b6116708161165b565b82525050565b60006101008301600083015161168f600086018261157b565b5060208301516116a260208601826115bc565b50604083015184820360408601526116ba8282611622565b91505060608301516116cf606086018261157b565b5060808301516116e26080860182611667565b5060a08301516116f560a086018261157b565b5060c083015161170860c086018261157b565b5060e083015161171b60e086018261157b565b508091505092915050565b600060208201905081810360008301526117408184611676565b905092915050565b600080fd5b600080fd5b7f4e487b7100000000000000000000000000000000000000000000000000000000600052604160045260246000fd5b61178a82611611565b810181811067ffffffffffffffff821117156117a9576117a8611752565b5b80604052505050565b60006117bc611504565b90506117c88282611781565b919050565b600067ffffffffffffffff8211156117e8576117e7611752565b5b6117f182611611565b9050602081019050919050565b82818337600083830152505050565b600061182061181b846117cd565b6117b2565b90508281526020810184848401111561183c5761183b61174d565b5b6118478482856117fe565b509392505050565b600082601f83011261186457611863611748565b5b813561187484826020860161180d565b91505092915050565b611886816115aa565b811461189157600080fd5b50565b6000813590506118a38161187d565b92915050565b600080600080600060a086880312156118c5576118c461150e565b5b60006118d388828901611539565b955050602086013567ffffffffffffffff8111156118f4576118f3611513565b5b6119008882890161184f565b945050604061191188828901611894565b935050606061192288828901611539565b925050608061193388828901611539565b9150509295509295909350565b600060c083016000830151611958600086018261157b565b50602083015184820360208601526119708282611622565b915050604083015161198560408601826115bc565b506060830151611998606086018261157b565b5060808301516119ab608086018261157b565b5060a08301516119be60a086018261157b565b508091505092915050565b600060208201905081810360008301526119e38184611940565b905092915050565b60008060408385031215611a0257611a0161150e565b5b6000611a1085828601611894565b9250506020611a2185828601611539565b9150509250929050565b600081519050919050565b600082825260208201905092915050565b6000819050602082019050919050565b600060c083016000830151611a6f600086018261157b565b5060208301518482036020860152611a878282611622565b9150506040830151611a9c60408601826115bc565b506060830151611aaf606086018261157b565b506080830151611ac2608086018261157b565b5060a0830151611ad560a086018261157b565b508091505092915050565b6000611aec8383611a57565b905092915050565b6000602082019050919050565b6000611b0c82611a2b565b611b168185611a36565b935083602082028501611b2885611a47565b8060005b85811015611b645784840389528151611b458582611ae0565b9450611b5083611af4565b925060208a01995050600181019050611b2c565b50829750879550505050505092915050565b60006020820190508181036000830152611b908184611b01565b905092915050565b600081519050919050565b600082825260208201905092915050565b6000819050602082019050919050565b600061010083016000830151611bdd600086018261157b565b506020830151611bf060208601826115bc565b5060408301518482036040860152611c088282611622565b9150506060830151611c1d606086018261157b565b506080830151611c306080860182611667565b5060a0830151611c4360a086018261157b565b5060c0830151611c5660c086018261157b565b5060e0830151611c6960e086018261157b565b508091505092915050565b6000611c808383611bc4565b905092915050565b6000602082019050919050565b6000611ca082611b98565b611caa8185611ba3565b935083602082028501611cbc85611bb4565b8060005b85811015611cf85784840389528151611cd98582611c74565b9450611ce483611c88565b925060208a01995050600181019050611cc0565b50829750879550505050505092915050565b60006020820190508181036000830152611d248184611c95565b905092915050565b600080600060608486031215611d4557611d4461150e565b5b600084013567ffffffffffffffff811115611d6357611d62611513565b5b611d6f8682870161184f565b9350506020611d8086828701611539565b9250506040611d9186828701611539565b9150509250925092565b60008160030b9050919050565b611db181611d9b565b8114611dbc57600080fd5b50565b600081359050611dce81611da8565b92915050565b60008060008060808587031215611dee57611ded61150e565b5b6000611dfc87828801611894565b945050602085013567ffffffffffffffff811115611e1d57611e1c611513565b5b611e298782880161184f565b9350506040611e3a87828801611dbf565b9250506060611e4b87828801611dbf565b91505092959194509250565b611e6081611518565b82525050565b611e6f816115aa565b82525050565b600082825260208201905092915050565b6000611e91826115cb565b611e9b8185611e75565b9350611eab8185602086016115e7565b611eb481611611565b840191505092915050565b611ec88161165b565b82525050565b6000608082019050611ee36000830187611e57565b611ef06020830186611e66565b8181036040830152611f028185611e86565b9050611f116060830184611ebf565b95945050505050565b7f4e487b7100000000000000000000000000000000000000000000000000000000600052602260045260246000fd5b60006002820490506001821680611f6157607f821691505b602082108103611f7457611f73611f1a565b5b50919050565b7f4e487b7100000000000000000000000000000000000000000000000000000000600052603260045260246000fd5b60008190508160005260206000209050919050565b60006020601f8301049050919050565b600082821b905092915050565b60006008830261200b7fffffffffffffffffffffffffffffffffffffffffffffffffffffffffffffffff82611fce565b6120158683611fce565b95508019841693508086168417925050509392505050565b6000819050919050565b600061205261204d61204884611518565b61202d565b611518565b9050919050565b6000819050919050565b61206c83612037565b61208061207882612059565b848454611fdb565b825550505050565b600090565b612095612088565b6120a0818484612063565b505050565b5b818110156120c4576120b960008261208d565b6001810190506120a6565b5050565b601f821115612109576120da81611fa9565b6120e384611fbe565b810160208510156120f2578190505b6121066120fe85611fbe565b8301826120a5565b50505b505050565b600082821c905092915050565b600061212c6000198460080261210e565b1980831691505092915050565b6000612145838361211b565b9150826002028217905092915050565b61215e826115cb565b67ffffffffffffffff81111561217757612176611752565b5b6121818254611f49565b61218c8282856120c8565b600060209050601f8311600181146121bf57600084156121ad578287015190505b6121b78582612139565b86555061221f565b601f1984166121cd86611fa9565b60005b828110156121f5578489015182556001820191506020850194506020810190506121d0565b86831015612212578489015161220e601f89168261211b565b8355505b6001600288020188555050505b505050505050565b7f4e487b7100000000000000000000000000000000000000000000000000000000600052601160045260246000fd5b600061226182611518565b91507fffffffffffffffffffffffffffffffffffffffffffffffffffffffffffffffff820361229357612292612227565b5b600182019050919050565b6000815490506122ad81611f49565b9050919050565b8181036122c257505061239a565b6122cb8261229e565b67ffffffffffffffff8111156122e4576122e3611752565b5b6122ee8254611f49565b6122f98282856120c8565b6000601f8311600181146123285760008415612316578287015490505b6123208582612139565b865550612393565b601f19841661233687611fa9565b965061234186611fa9565b60005b8281101561236957848901548255600182019150600185019450602081019050612344565b868310156123865784890154612382601f89168261211b565b8355505b6001600288020188555050505b5050505050505b565b600082825260208201905092915050565b60006123b8826115cb565b6123c2818561239c565b93506123d28185602086016115e7565b6123db81611611565b840191505092915050565b6123ef81611d9b565b82525050565b6000606082019050818103600083015261240f81866123ad565b905061241e60208301856123e6565b61242b60408301846123e6565b94935050505056fea264697066735822122035f2afd8a9f933013c4a14c5ae99319ce521e7059e6b09cf051cab020e7a808164736f6c63430008180033",
  "linkReferences": {},
  "deployedLinkReferences": {}
}