{
  "_format": "hh-sol-artifact-1",
  "contractName": "RequestLib",
  "sourceName": "contracts/libraries/RequestLib.sol",
  "abi": [
    {
      "inputs": [],
      "name": "ALLREADY_ACCEPTED",
      "type": "error"
    },
    {
      "inputs": [],
      "name": "ALREADY_ACCEPTED",
      "type": "error"
    },
    {
      "inputs": [],
      "name": "ALREADY_COMPLETED",
      "type": "error"
    },
    {
      "inputs": [],
      "name": "AMOUNT_LESS_THAN_AMOUNT_VALUED",
      "type": "error"
    },
    {
      "inputs": [],
      "name": "INVALIDAMOUNT",
      "type": "error"
    },
    {
      "inputs": [],
      "name": "LOWER_THAN_MINQUANTITY",
      "type": "error"
    },
    {
      "inputs": [],
      "name": "NOT_ACCEPTED_YET",
      "type": "error"
    },
    {
      "inputs": [],
      "name": "NOT_ASSIGNED",
      "type": "error"
    },
    {
      "inputs": [],
      "name": "NOT_AUTHORIZED",
      "type": "error"
    },
    {
      "inputs": [],
      "name": "NOT_FOUND",
      "type": "error"
    },
    {
      "inputs": [],
      "name": "NOT_REGISTERED",
      "type": "error"
    },
    {
      "inputs": [],
      "name": "ONLY_A_RECYCLER",
      "type": "error"
    },
    {
      "inputs": [],
      "name": "RECYCLERNOTFOUND",
      "type": "error"
    },
    {
      "inputs": [],
      "name": "REGISTERED",
      "type": "error"
    },
    {
      "inputs": [],
      "name": "REQUESTALREADYASSIGNED",
      "type": "error"
    },
    {
      "inputs": [],
      "name": "REQUESTNOTFOUND",
      "type": "error"
    },
    {
      "anonymous": false,
      "inputs": [
        {
          "indexed": false,
          "internalType": "uint256",
          "name": "requestID",
          "type": "uint256"
        }
      ],
      "name": "CollectionRequestCanceled",
      "type": "event"
    },
    {
      "anonymous": false,
      "inputs": [
        {
          "indexed": false,
          "internalType": "address",
          "name": "userAddress",
          "type": "address"
        },
        {
          "indexed": false,
          "internalType": "int32",
          "name": "latitude",
          "type": "int32"
        },
        {
          "indexed": false,
          "internalType": "int32",
          "name": "longitude",
          "type": "int32"
        }
      ],
      "name": "NewUserJoined",
      "type": "event"
    },
    {
      "inputs": [],
      "name": "getAllCollectorRequests",
      "outputs": [
        {
          "internalType": "uint256[]",
          "name": "",
          "type": "uint256[]"
        }
      ],
      "stateMutability": "view",
      "type": "function"
    }
  ],
  "bytecode": "0x61294c610053600b82828239805160001a607314610046577f4e487b7100000000000000000000000000000000000000000000000000000000600052600060045260246000fd5b30600052607381538281f3fe730000000000000000000000000000000000000000301460806040526004361061006c5760003560e01c80632b5bb6a414610071578063554909011461009a5780635a4d7943146100c357806369d095f5146100ec5780639075b0a2146101155780639be32e851461013e575b600080fd5b81801561007d57600080fd5b5061009860048036038101906100939190611f11565b61015c565b005b8180156100a657600080fd5b506100c160048036038101906100bc9190611f9e565b610ddf565b005b8180156100cf57600080fd5b506100ea60048036038101906100e5919061203b565b610f8f565b005b8180156100f857600080fd5b50610113600480360381019061010e91906120a7565b611307565b005b81801561012157600080fd5b5061013c6004803603810190610137919061203b565b6117c8565b005b610146611a13565b60405161015391906121cc565b60405180910390f35b6000610166611b81565b9050600081600601600089815260200190815260200160002060405180610100016040529081600082015481526020016001820160009054906101000a900473ffffffffffffffffffffffffffffffffffffffff1673ffffffffffffffffffffffffffffffffffffffff1673ffffffffffffffffffffffffffffffffffffffff1681526020016002820180546101fb9061221d565b80601f01602080910402602001604051908101604052809291908181526020018280546102279061221d565b80156102745780601f1061024957610100808354040283529160200191610274565b820191906000526020600020905b81548152906001019060200180831161025757829003601f168201915b50505050508152602001600382015481526020016004820160009054906101000a900460ff161515151581526020016005820154815260200160068201548152602001600782015481525050905060008260090160003373ffffffffffffffffffffffffffffffffffffffff1673ffffffffffffffffffffffffffffffffffffffff16815260200190815260200160002090508060030160009054906101000a900460ff1661036f5761032633611bae565b5050610333338686611cd8565b7f1c7a52659230b09cf86607b0422c07afead12b34ecc5a7a4eaebfcbf761b1b073386866040516103669392919061226c565b60405180910390a15b81608001516103aa576040517faf70a7a800000000000000000000000000000000000000000000000000000000815260040160405180910390fd5b60008610156103e5576040517fcabd304a00000000000000000000000000000000000000000000000000000000815260040160405180910390fd5b6000836004016000846020015173ffffffffffffffffffffffffffffffffffffffff1673ffffffffffffffffffffffffffffffffffffffff1681526020019081526020016000208960ff1681548110610441576104406122a3565b5b90600052602060002090600602016040518060c0016040529081600082015481526020016001820180546104749061221d565b80601f01602080910402602001604051908101604052809291908181526020018280546104a09061221d565b80156104ed5780601f106104c2576101008083540402835291602001916104ed565b820191906000526020600020905b8154815290600101906020018083116104d057829003601f168201915b505050505081526020016002820160009054906101000a900473ffffffffffffffffffffffffffffffffffffffff1673ffffffffffffffffffffffffffffffffffffffff1673ffffffffffffffffffffffffffffffffffffffff168152602001600382015481526020016004820154815260200160058201548152505090508060a001518863ffffffff1610156105b0576040517f4cababad00000000000000000000000000000000000000000000000000000000815260040160405180910390fd5b600084600b01600081546105c390612301565b9190508190559050600085600c016000838152602001908152602001600020905060018460040160008282546105f99190612349565b92505081905550818160010181905550338160060160096101000a81548173ffffffffffffffffffffffffffffffffffffffff021916908373ffffffffffffffffffffffffffffffffffffffff16021790555084602001518160070160006101000a81548173ffffffffffffffffffffffffffffffffffffffff021916908373ffffffffffffffffffffffffffffffffffffffff1602179055508a8160060160006101000a81548160ff021916908360ff160217905550898160040160006101000a81548163ffffffff021916908363ffffffff160217905550888160050181905550600081600601601e6101000a81548160ff021916908360038111156107045761070361237d565b5b0217905550826020015181600001908161071e9190612592565b50868160060160016101000a81548163ffffffff021916908360030b63ffffffff160217905550878160060160056101000a81548163ffffffff021916908360030b63ffffffff16021790555085600d0160003373ffffffffffffffffffffffffffffffffffffffff1673ffffffffffffffffffffffffffffffffffffffff168152602001908152602001600020819080600181540180825580915050600190039060005260206000209060090201600090919091909150600082018160000190816107ea919061267a565b506001820154816001015560028201548160020155600382015481600301556004820160009054906101000a900463ffffffff168160040160006101000a81548163ffffffff021916908363ffffffff160217905550600582015481600501556006820160009054906101000a900460ff168160060160006101000a81548160ff021916908360ff1602179055506006820160019054906101000a900460030b8160060160016101000a81548163ffffffff021916908360030b63ffffffff1602179055506006820160059054906101000a900460030b8160060160056101000a81548163ffffffff021916908360030b63ffffffff1602179055506006820160099054906101000a900473ffffffffffffffffffffffffffffffffffffffff168160060160096101000a81548173ffffffffffffffffffffffffffffffffffffffff021916908373ffffffffffffffffffffffffffffffffffffffff16021790555060068201601d9054906101000a900460ff1681600601601d6101000a81548160ff02191690831515021790555060068201601e9054906101000a900460ff1681600601601e6101000a81548160ff021916908360038111156109b2576109b161237d565b5b02179055506007820160009054906101000a900473ffffffffffffffffffffffffffffffffffffffff168160070160006101000a81548173ffffffffffffffffffffffffffffffffffffffff021916908373ffffffffffffffffffffffffffffffffffffffff1602179055506008820160009054906101000a900473ffffffffffffffffffffffffffffffffffffffff168160080160006101000a81548173ffffffffffffffffffffffffffffffffffffffff021916908373ffffffffffffffffffffffffffffffffffffffff1602179055506008820160149054906101000a900460ff168160080160146101000a81548160ff021916908315150217905550505085600f0160008d815260200190815260200160002081908060018154018082558091505060019003906000526020600020906009020160009091909190915060008201816000019081610b07919061267a565b506001820154816001015560028201548160020155600382015481600301556004820160009054906101000a900463ffffffff168160040160006101000a81548163ffffffff021916908363ffffffff160217905550600582015481600501556006820160009054906101000a900460ff168160060160006101000a81548160ff021916908360ff1602179055506006820160019054906101000a900460030b8160060160016101000a81548163ffffffff021916908360030b63ffffffff1602179055506006820160059054906101000a900460030b8160060160056101000a81548163ffffffff021916908360030b63ffffffff1602179055506006820160099054906101000a900473ffffffffffffffffffffffffffffffffffffffff168160060160096101000a81548173ffffffffffffffffffffffffffffffffffffffff021916908373ffffffffffffffffffffffffffffffffffffffff16021790555060068201601d9054906101000a900460ff1681600601601d6101000a81548160ff02191690831515021790555060068201601e9054906101000a900460ff1681600601601e6101000a81548160ff02191690836003811115610ccf57610cce61237d565b5b02179055506007820160009054906101000a900473ffffffffffffffffffffffffffffffffffffffff168160070160006101000a81548173ffffffffffffffffffffffffffffffffffffffff021916908373ffffffffffffffffffffffffffffffffffffffff1602179055506008820160009054906101000a900473ffffffffffffffffffffffffffffffffffffffff168160080160006101000a81548173ffffffffffffffffffffffffffffffffffffffff021916908373ffffffffffffffffffffffffffffffffffffffff1602179055506008820160149054906101000a900460ff168160080160146101000a81548160ff0219169083151502179055505050505050505050505050505050565b6000610de9611b81565b9050600081600c01600084815260200190815260200160002090506000816001015403610e42576040517f9e9468f300000000000000000000000000000000000000000000000000000000815260040160405180910390fd5b3373ffffffffffffffffffffffffffffffffffffffff168160060160099054906101000a900473ffffffffffffffffffffffffffffffffffffffff1673ffffffffffffffffffffffffffffffffffffffff1614610ecb576040517f3d83866f00000000000000000000000000000000000000000000000000000000815260040160405180910390fd5b80600601601d9054906101000a900460ff1615610f14576040517f8c53d03500000000000000000000000000000000000000000000000000000000815260040160405180910390fd5b8060080160149054906101000a900460ff1615610f5d576040517ff58f825400000000000000000000000000000000000000000000000000000000815260040160405180910390fd5b600381600601601e6101000a81548160ff02191690836003811115610f8557610f8461237d565b5b0217905550505050565b6000610f99611b81565b9050600081600c01600085815260200190815260200160002090503373ffffffffffffffffffffffffffffffffffffffff168160080160009054906101000a900473ffffffffffffffffffffffffffffffffffffffff1673ffffffffffffffffffffffffffffffffffffffff161461103d576040517fd6a0f13100000000000000000000000000000000000000000000000000000000815260040160405180910390fd5b8060080160149054906101000a900460ff16611085576040517f0150104800000000000000000000000000000000000000000000000000000000815260040160405180910390fd5b80600601601d9054906101000a900460ff16156110ce576040517f8c53d03500000000000000000000000000000000000000000000000000000000815260040160405180910390fd5b600181600601601d6101000a81548160ff021916908315150217905550600281600601601e6101000a81548160ff021916908360038111156111135761111261237d565b5b021790555060006064600a836005015461112d9190612762565b61113791906127d3565b9050600081836005015461114b9190612804565b905060008460090160008560060160099054906101000a900473ffffffffffffffffffffffffffffffffffffffff1673ffffffffffffffffffffffffffffffffffffffff1673ffffffffffffffffffffffffffffffffffffffff1681526020019081526020016000209050818160050160008282546111ca9190612349565b9250508190555060008560050160008660070160009054906101000a900473ffffffffffffffffffffffffffffffffffffffff1673ffffffffffffffffffffffffffffffffffffffff1673ffffffffffffffffffffffffffffffffffffffff16815260200190815260200160002090508460040160009054906101000a900463ffffffff1663ffffffff168160070160008282546112689190612349565b9250508190555084600501548160060160008282546112879190612349565b925050819055508673ffffffffffffffffffffffffffffffffffffffff1663ed65316486600201546040518263ffffffff1660e01b81526004016112cb9190612847565b600060405180830381600087803b1580156112e557600080fd5b505af11580156112f9573d6000803e3d6000fd5b505050505050505050505050565b6000611311611b81565b905060008160000160008673ffffffffffffffffffffffffffffffffffffffff1673ffffffffffffffffffffffffffffffffffffffff1681526020019081526020016000209050600082600c01600088815260200190815260200160002090503373ffffffffffffffffffffffffffffffffffffffff168160070160009054906101000a900473ffffffffffffffffffffffffffffffffffffffff1673ffffffffffffffffffffffffffffffffffffffff16146113fa576040517f82bc9d7900000000000000000000000000000000000000000000000000000000815260040160405180910390fd5b8060080160149054906101000a900460ff1615611443576040517fbc177a8900000000000000000000000000000000000000000000000000000000815260040160405180910390fd5b80600601601d9054906101000a900460ff161561148c576040517f8c53d03500000000000000000000000000000000000000000000000000000000815260040160405180910390fd5b600073ffffffffffffffffffffffffffffffffffffffff168160080160009054906101000a900473ffffffffffffffffffffffffffffffffffffffff1673ffffffffffffffffffffffffffffffffffffffff1614611516576040517f0de81ff500000000000000000000000000000000000000000000000000000000815260040160405180910390fd5b8060050154851015611554576040517fadea324100000000000000000000000000000000000000000000000000000000815260040160405180910390fd5b60018160080160146101000a81548160ff021916908315150217905550858160080160006101000a81548173ffffffffffffffffffffffffffffffffffffffff021916908373ffffffffffffffffffffffffffffffffffffffff160217905550600181600601601e6101000a81548160ff021916908360038111156115dc576115db61237d565b5b021790555081600401600081546115f290612301565b9190508190555060008360050160008360070160009054906101000a900473ffffffffffffffffffffffffffffffffffffffff1673ffffffffffffffffffffffffffffffffffffffff1673ffffffffffffffffffffffffffffffffffffffff1681526020019081526020016000209050806005016000815461167390612301565b9190508190555060008573ffffffffffffffffffffffffffffffffffffffff166365582f0484600501548560060160099054906101000a900473ffffffffffffffffffffffffffffffffffffffff168660070160009054906101000a900473ffffffffffffffffffffffffffffffffffffffff1660006040518563ffffffff1660e01b81526004016117079392919061289d565b60206040518083038185885af1158015611725573d6000803e3d6000fd5b50505050506040513d601f19601f8201168201806040525081019061174a91906128e9565b905080836002018190555084600e0160008973ffffffffffffffffffffffffffffffffffffffff1673ffffffffffffffffffffffffffffffffffffffff168152602001908152602001600020899080600181540180825580915050600190039060005260206000200160009091909190915055505050505050505050565b60006117d2611b81565b9050600081600c016000858152602001908152602001600020905080600601601d9054906101000a900460ff1615611836576040517f8c53d03500000000000000000000000000000000000000000000000000000000815260040160405180910390fd5b8060070160009054906101000a900473ffffffffffffffffffffffffffffffffffffffff1673ffffffffffffffffffffffffffffffffffffffff163373ffffffffffffffffffffffffffffffffffffffff16141580156118e657508060080160009054906101000a900473ffffffffffffffffffffffffffffffffffffffff1673ffffffffffffffffffffffffffffffffffffffff163373ffffffffffffffffffffffffffffffffffffffff1614155b1561191d576040517f3d83866f00000000000000000000000000000000000000000000000000000000815260040160405180910390fd5b600181600601601d6101000a81548160ff021916908315150217905550600381600601601e6101000a81548160ff021916908360038111156119625761196161237d565b5b02179055508273ffffffffffffffffffffffffffffffffffffffff1663356f9dfd82600201546040518263ffffffff1660e01b81526004016119a49190612847565b600060405180830381600087803b1580156119be57600080fd5b505af11580156119d2573d6000803e3d6000fd5b505050507fef59a0001e061d6024146ff061c594fe7dd6cd8036e34925ee279d24840ca50d84604051611a059190612847565b60405180910390a150505050565b60606000611a1f611b81565b9050600073ffffffffffffffffffffffffffffffffffffffff168160000160003373ffffffffffffffffffffffffffffffffffffffff1673ffffffffffffffffffffffffffffffffffffffff16815260200190815260200160002060020160009054906101000a900473ffffffffffffffffffffffffffffffffffffffff1673ffffffffffffffffffffffffffffffffffffffff1603611aeb576040517f5ffce20a00000000000000000000000000000000000000000000000000000000815260040160405180910390fd5b80600e0160003373ffffffffffffffffffffffffffffffffffffffff1673ffffffffffffffffffffffffffffffffffffffff168152602001908152602001600020805480602002602001604051908101604052809291908181526020018280548015611b7657602002820191906000526020600020905b815481526020019060010190808311611b62575b505050505091505090565b6000807f3fc430cf53a7ea36e25a560ef7d768c9bb7c830bb49f736b17223d7ae06aaa1c90508091505090565b6000806000611bbb611b81565b905060008160090160008673ffffffffffffffffffffffffffffffffffffffff1673ffffffffffffffffffffffffffffffffffffffff16815260200190815260200160002090508060030160009054906101000a900460ff1615611c4b576040517f0b0ab77600000000000000000000000000000000000000000000000000000000815260040160405180910390fd5b81600a0160008154611c5c90612301565b9190508190558160000181905550848160010160006101000a81548173ffffffffffffffffffffffffffffffffffffffff021916908373ffffffffffffffffffffffffffffffffffffffff16021790555060018160030160006101000a81548160ff021916908315150217905550846001935093505050915091565b6000611ce2611b81565b90508060090160008573ffffffffffffffffffffffffffffffffffffffff1673ffffffffffffffffffffffffffffffffffffffff16815260200190815260200160002060030160009054906101000a900460ff16611d6c576040517f60f4985300000000000000000000000000000000000000000000000000000000815260040160405180910390fd5b60405180604001604052808460030b81526020018360030b8152508160090160008673ffffffffffffffffffffffffffffffffffffffff1673ffffffffffffffffffffffffffffffffffffffff16815260200190815260200160002060020160008201518160000160006101000a81548163ffffffff021916908360030b63ffffffff16021790555060208201518160000160046101000a81548163ffffffff021916908360030b63ffffffff16021790555090505050505050565b600080fd5b6000819050919050565b611e4081611e2d565b8114611e4b57600080fd5b50565b600081359050611e5d81611e37565b92915050565b600060ff82169050919050565b611e7981611e63565b8114611e8457600080fd5b50565b600081359050611e9681611e70565b92915050565b600063ffffffff82169050919050565b611eb581611e9c565b8114611ec057600080fd5b50565b600081359050611ed281611eac565b92915050565b60008160030b9050919050565b611eee81611ed8565b8114611ef957600080fd5b50565b600081359050611f0b81611ee5565b92915050565b60008060008060008060c08789031215611f2e57611f2d611e28565b5b6000611f3c89828a01611e4e565b9650506020611f4d89828a01611e87565b9550506040611f5e89828a01611ec3565b9450506060611f6f89828a01611e4e565b9350506080611f8089828a01611efc565b92505060a0611f9189828a01611efc565b9150509295509295509295565b600060208284031215611fb457611fb3611e28565b5b6000611fc284828501611e4e565b91505092915050565b600073ffffffffffffffffffffffffffffffffffffffff82169050919050565b6000611ff682611fcb565b9050919050565b600061200882611feb565b9050919050565b61201881611ffd565b811461202357600080fd5b50565b6000813590506120358161200f565b92915050565b6000806040838503121561205257612051611e28565b5b600061206085828601611e4e565b925050602061207185828601612026565b9150509250929050565b61208481611feb565b811461208f57600080fd5b50565b6000813590506120a18161207b565b92915050565b600080600080608085870312156120c1576120c0611e28565b5b60006120cf87828801611e4e565b94505060206120e087828801612092565b93505060406120f187828801611e4e565b925050606061210287828801612026565b91505092959194509250565b600081519050919050565b600082825260208201905092915050565b6000819050602082019050919050565b61214381611e2d565b82525050565b6000612155838361213a565b60208301905092915050565b6000602082019050919050565b60006121798261210e565b6121838185612119565b935061218e8361212a565b8060005b838110156121bf5781516121a68882612149565b97506121b183612161565b925050600181019050612192565b5085935050505092915050565b600060208201905081810360008301526121e6818461216e565b905092915050565b7f4e487b7100000000000000000000000000000000000000000000000000000000600052602260045260246000fd5b6000600282049050600182168061223557607f821691505b602082108103612248576122476121ee565b5b50919050565b61225781611feb565b82525050565b61226681611ed8565b82525050565b6000606082019050612281600083018661224e565b61228e602083018561225d565b61229b604083018461225d565b949350505050565b7f4e487b7100000000000000000000000000000000000000000000000000000000600052603260045260246000fd5b7f4e487b7100000000000000000000000000000000000000000000000000000000600052601160045260246000fd5b600061230c82611e2d565b91507fffffffffffffffffffffffffffffffffffffffffffffffffffffffffffffffff820361233e5761233d6122d2565b5b600182019050919050565b600061235482611e2d565b915061235f83611e2d565b9250828201905080821115612377576123766122d2565b5b92915050565b7f4e487b7100000000000000000000000000000000000000000000000000000000600052602160045260246000fd5b600081519050919050565b7f4e487b7100000000000000000000000000000000000000000000000000000000600052604160045260246000fd5b60008190508160005260206000209050919050565b60006020601f8301049050919050565b600082821b905092915050565b6000600883026124487fffffffffffffffffffffffffffffffffffffffffffffffffffffffffffffffff8261240b565b612452868361240b565b95508019841693508086168417925050509392505050565b6000819050919050565b600061248f61248a61248584611e2d565b61246a565b611e2d565b9050919050565b6000819050919050565b6124a983612474565b6124bd6124b582612496565b848454612418565b825550505050565b600090565b6124d26124c5565b6124dd8184846124a0565b505050565b5b81811015612501576124f66000826124ca565b6001810190506124e3565b5050565b601f82111561254657612517816123e6565b612520846123fb565b8101602085101561252f578190505b61254361253b856123fb565b8301826124e2565b50505b505050565b600082821c905092915050565b60006125696000198460080261254b565b1980831691505092915050565b60006125828383612558565b9150826002028217905092915050565b61259b826123ac565b67ffffffffffffffff8111156125b4576125b36123b7565b5b6125be825461221d565b6125c9828285612505565b600060209050601f8311600181146125fc57600084156125ea578287015190505b6125f48582612576565b86555061265c565b601f19841661260a866123e6565b60005b828110156126325784890151825560018201915060208501945060208101905061260d565b8683101561264f578489015161264b601f891682612558565b8355505b6001600288020188555050505b505050505050565b6000815490506126738161221d565b9050919050565b818103612688575050612760565b61269182612664565b67ffffffffffffffff8111156126aa576126a96123b7565b5b6126b4825461221d565b6126bf828285612505565b6000601f8311600181146126ee57600084156126dc578287015490505b6126e68582612576565b865550612759565b601f1984166126fc876123e6565b9650612707866123e6565b60005b8281101561272f5784890154825560018201915060018501945060208101905061270a565b8683101561274c5784890154612748601f891682612558565b8355505b6001600288020188555050505b5050505050505b565b600061276d82611e2d565b915061277883611e2d565b925082820261278681611e2d565b9150828204841483151761279d5761279c6122d2565b5b5092915050565b7f4e487b7100000000000000000000000000000000000000000000000000000000600052601260045260246000fd5b60006127de82611e2d565b91506127e983611e2d565b9250826127f9576127f86127a4565b5b828204905092915050565b600061280f82611e2d565b915061281a83611e2d565b9250828203905081811115612832576128316122d2565b5b92915050565b61284181611e2d565b82525050565b600060208201905061285c6000830184612838565b92915050565b6000819050919050565b600061288761288261287d84612862565b61246a565b611e63565b9050919050565b6128978161286c565b82525050565b60006060820190506128b2600083018661224e565b6128bf602083018561224e565b6128cc604083018461288e565b949350505050565b6000815190506128e381611e37565b92915050565b6000602082840312156128ff576128fe611e28565b5b600061290d848285016128d4565b9150509291505056fea2646970667358221220b595c10bc2c29153608dbb124abd90105f21d85d13f1f6002332f6686ebc4aeb64736f6c63430008180033",
  "linkReferences": {},
  "deployedLinkReferences": {}
}