{
  "_format": "hh-sol-artifact-1",
  "contractName": "WasteManagement",
  "sourceName": "contracts/Wastemanagement.sol",
  "abi": [
    {
      "inputs": [
        {
          "internalType": "address",
          "name": "_escrowContract",
          "type": "address"
        }
      ],
      "stateMutability": "nonpayable",
      "type": "constructor"
    },
    {
      "inputs": [],
      "name": "ALLREADY_ACCEPTED",
      "type": "error"
    },
    {
      "inputs": [],
      "name": "ALREADY_ACCEPTED",
      "type": "error"
    },
    {
      "inputs": [],
      "name": "ALREADY_COMPLETED",
      "type": "error"
    },
    {
      "inputs": [],
      "name": "AMOUNT_LESS_THAN_AMOUNT_VALUED",
      "type": "error"
    },
    {
      "inputs": [],
      "name": "INVALIDAMOUNT",
      "type": "error"
    },
    {
      "inputs": [],
      "name": "INVALIDLATITUTUDE",
      "type": "error"
    },
    {
      "inputs": [],
      "name": "INVALIDLONGITUDE",
      "type": "error"
    },
    {
      "inputs": [],
      "name": "INVALIDOFFERNAME",
      "type": "error"
    },
    {
      "inputs": [],
      "name": "INVALIDPRICE",
      "type": "error"
    },
    {
      "inputs": [],
      "name": "INVALIDQUANTITY",
      "type": "error"
    },
    {
      "inputs": [],
      "name": "INVALIDRECYCLER",
      "type": "error"
    },
    {
      "inputs": [],
      "name": "LOWER_THAN_MINQUANTITY",
      "type": "error"
    },
    {
      "inputs": [],
      "name": "NOT_ACCEPTED_YET",
      "type": "error"
    },
    {
      "inputs": [],
      "name": "NOT_ASSIGNED",
      "type": "error"
    },
    {
      "inputs": [],
      "name": "NOT_AUTHORIZED",
      "type": "error"
    },
    {
      "inputs": [],
      "name": "NOT_FOUND",
      "type": "error"
    },
    {
      "inputs": [],
      "name": "NOT_REGISTERED",
      "type": "error"
    },
    {
      "inputs": [],
      "name": "OFFERNOTFOUND",
      "type": "error"
    },
    {
      "inputs": [],
      "name": "ONLY_A_RECYCLER",
      "type": "error"
    },
    {
      "inputs": [],
      "name": "RECYCLERNOTFOUND",
      "type": "error"
    },
    {
      "inputs": [],
      "name": "RECYCLER_ALREADY_REGISTERED",
      "type": "error"
    },
    {
      "inputs": [],
      "name": "REGISTERED",
      "type": "error"
    },
    {
      "inputs": [],
      "name": "REQUESTALREADYASSIGNED",
      "type": "error"
    },
    {
      "inputs": [],
      "name": "REQUESTNOTFOUND",
      "type": "error"
    },
    {
      "anonymous": false,
      "inputs": [
        {
          "indexed": false,
          "internalType": "uint256",
          "name": "requestID",
          "type": "uint256"
        }
      ],
      "name": "CollectionRequestCanceled",
      "type": "event"
    },
    {
      "anonymous": false,
      "inputs": [
        {
          "indexed": false,
          "internalType": "address",
          "name": "userAddress",
          "type": "address"
        },
        {
          "indexed": false,
          "internalType": "int32",
          "name": "latitude",
          "type": "int32"
        },
        {
          "indexed": false,
          "internalType": "int32",
          "name": "longitude",
          "type": "int32"
        }
      ],
      "name": "NewUserJoined",
      "type": "event"
    },
    {
      "anonymous": false,
      "inputs": [
        {
          "indexed": true,
          "internalType": "address",
          "name": "recycler",
          "type": "address"
        },
        {
          "indexed": false,
          "internalType": "string",
          "name": "_wasteType",
          "type": "string"
        },
        {
          "indexed": false,
          "internalType": "uint256",
          "name": "_pricePerKg",
          "type": "uint256"
        },
        {
          "indexed": false,
          "internalType": "uint256",
          "name": "_miniQuantity",
          "type": "uint256"
        }
      ],
      "name": "OfferCreated",
      "type": "event"
    },
    {
      "anonymous": false,
      "inputs": [
        {
          "indexed": true,
          "internalType": "address",
          "name": "_recyclerAddress",
          "type": "address"
        },
        {
          "indexed": false,
          "internalType": "string",
          "name": "_location",
          "type": "string"
        },
        {
          "indexed": false,
          "internalType": "int32",
          "name": "lat",
          "type": "int32"
        },
        {
          "indexed": false,
          "internalType": "int32",
          "name": "lon",
          "type": "int32"
        }
      ],
      "name": "RecyclerCreated",
      "type": "event"
    },
    {
      "anonymous": false,
      "inputs": [
        {
          "indexed": false,
          "internalType": "uint256",
          "name": "requestID",
          "type": "uint256"
        },
        {
          "indexed": false,
          "internalType": "address",
          "name": "collectorAddress",
          "type": "address"
        }
      ],
      "name": "RequestAccepted",
      "type": "event"
    },
    {
      "anonymous": false,
      "inputs": [
        {
          "indexed": false,
          "internalType": "uint256",
          "name": "_requestId",
          "type": "uint256"
        }
      ],
      "name": "RequestCancelled",
      "type": "event"
    },
    {
      "anonymous": false,
      "inputs": [
        {
          "indexed": false,
          "internalType": "uint256",
          "name": "requestID",
          "type": "uint256"
        },
        {
          "indexed": false,
          "internalType": "address",
          "name": "collectorAddress",
          "type": "address"
        }
      ],
      "name": "RequestConfirmed",
      "type": "event"
    },
    {
      "anonymous": false,
      "inputs": [
        {
          "indexed": false,
          "internalType": "uint256",
          "name": "requestID",
          "type": "uint256"
        },
        {
          "indexed": false,
          "internalType": "address",
          "name": "userAddress",
          "type": "address"
        },
        {
          "indexed": false,
          "internalType": "address",
          "name": "recyclerAddress",
          "type": "address"
        },
        {
          "indexed": false,
          "internalType": "uint256",
          "name": "offerId",
          "type": "uint256"
        },
        {
          "indexed": false,
          "internalType": "uint256",
          "name": "weight",
          "type": "uint256"
        },
        {
          "indexed": false,
          "internalType": "uint256",
          "name": "priceAgreed",
          "type": "uint256"
        }
      ],
      "name": "RequestCreated",
      "type": "event"
    },
    {
      "inputs": [
        {
          "internalType": "uint256",
          "name": "_requestID",
          "type": "uint256"
        },
        {
          "internalType": "address",
          "name": "_collectorAddress",
          "type": "address"
        }
      ],
      "name": "acceptRequest",
      "outputs": [],
      "stateMutability": "payable",
      "type": "function"
    },
    {
      "inputs": [
        {
          "internalType": "uint256",
          "name": "_requestID",
          "type": "uint256"
        }
      ],
      "name": "cancelRequestAndRefund",
      "outputs": [],
      "stateMutability": "nonpayable",
      "type": "function"
    },
    {
      "inputs": [
        {
          "internalType": "uint256",
          "name": "_requestID",
          "type": "uint256"
        }
      ],
      "name": "confirmRequest",
      "outputs": [],
      "stateMutability": "nonpayable",
      "type": "function"
    },
    {
      "inputs": [
        {
          "internalType": "address",
          "name": "_collectorAddress",
          "type": "address"
        },
        {
          "internalType": "string",
          "name": "_name",
          "type": "string"
        },
        {
          "internalType": "string",
          "name": "_contact",
          "type": "string"
        }
      ],
      "name": "createCollector",
      "outputs": [],
      "stateMutability": "nonpayable",
      "type": "function"
    },
    {
      "inputs": [
        {
          "internalType": "string",
          "name": "_wasteType",
          "type": "string"
        },
        {
          "internalType": "uint256",
          "name": "_pricePerKg",
          "type": "uint256"
        },
        {
          "internalType": "uint256",
          "name": "_miniQuantity",
          "type": "uint256"
        }
      ],
      "name": "createOffer",
      "outputs": [],
      "stateMutability": "nonpayable",
      "type": "function"
    },
    {
      "inputs": [
        {
          "internalType": "address",
          "name": "_recyclerAddress",
          "type": "address"
        },
        {
          "internalType": "string",
          "name": "_location",
          "type": "string"
        },
        {
          "internalType": "int32",
          "name": "lat",
          "type": "int32"
        },
        {
          "internalType": "int32",
          "name": "lon",
          "type": "int32"
        }
      ],
      "name": "createRecycler",
      "outputs": [],
      "stateMutability": "nonpayable",
      "type": "function"
    },
    {
      "inputs": [],
      "name": "escrowContract",
      "outputs": [
        {
          "internalType": "contract IEscrow",
          "name": "",
          "type": "address"
        }
      ],
      "stateMutability": "view",
      "type": "function"
    },
    {
      "inputs": [],
      "name": "getAllCollectorAddresses",
      "outputs": [
        {
          "internalType": "address[]",
          "name": "",
          "type": "address[]"
        }
      ],
      "stateMutability": "view",
      "type": "function"
    },
    {
      "inputs": [
        {
          "internalType": "address",
          "name": "_userAddress",
          "type": "address"
        }
      ],
      "name": "getUserRole",
      "outputs": [
        {
          "internalType": "string",
          "name": "role",
          "type": "string"
        },
        {
          "internalType": "uint256",
          "name": "id",
          "type": "uint256"
        },
        {
          "internalType": "address",
          "name": "addr",
          "type": "address"
        },
        {
          "internalType": "int32",
          "name": "latitude",
          "type": "int32"
        },
        {
          "internalType": "int32",
          "name": "longitude",
          "type": "int32"
        },
        {
          "internalType": "string",
          "name": "location",
          "type": "string"
        },
        {
          "internalType": "bool",
          "name": "isRegistered",
          "type": "bool"
        }
      ],
      "stateMutability": "view",
      "type": "function"
    },
    {
      "inputs": [
        {
          "internalType": "address",
          "name": "_recyclerAddress",
          "type": "address"
        },
        {
          "internalType": "uint256",
          "name": "_offerId",
          "type": "uint256"
        },
        {
          "internalType": "uint256",
          "name": "_weight",
          "type": "uint256"
        },
        {
          "internalType": "uint256",
          "name": "_price",
          "type": "uint256"
        },
        {
          "internalType": "int32",
          "name": "_latitude",
          "type": "int32"
        },
        {
          "internalType": "int32",
          "name": "_longitude",
          "type": "int32"
        }
      ],
      "name": "makeRequest",
      "outputs": [],
      "stateMutability": "nonpayable",
      "type": "function"
    },
    {
      "inputs": [],
      "name": "numOfCollector",
      "outputs": [
        {
          "internalType": "uint256",
          "name": "",
          "type": "uint256"
        }
      ],
      "stateMutability": "view",
      "type": "function"
    },
    {
      "inputs": [],
      "name": "numOfRequest",
      "outputs": [
        {
          "internalType": "uint256",
          "name": "",
          "type": "uint256"
        }
      ],
      "stateMutability": "view",
      "type": "function"
    },
    {
      "inputs": [],
      "name": "numberOfRecyclers",
      "outputs": [
        {
          "internalType": "uint256",
          "name": "",
          "type": "uint256"
        }
      ],
      "stateMutability": "view",
      "type": "function"
    },
    {
      "inputs": [
        {
          "internalType": "address",
          "name": "",
          "type": "address"
        }
      ],
      "name": "recyclerCordinate",
      "outputs": [
        {
          "internalType": "int32",
          "name": "latitude",
          "type": "int32"
        },
        {
          "internalType": "int32",
          "name": "longitude",
          "type": "int32"
        }
      ],
      "stateMutability": "view",
      "type": "function"
    },
    {
      "inputs": [
        {
          "internalType": "address",
          "name": "",
          "type": "address"
        },
        {
          "internalType": "uint256",
          "name": "",
          "type": "uint256"
        }
      ],
      "name": "recyclerOffer",
      "outputs": [
        {
          "internalType": "uint256",
          "name": "offerId",
          "type": "uint256"
        },
        {
          "internalType": "string",
          "name": "name",
          "type": "string"
        },
        {
          "internalType": "address",
          "name": "recyclerAddress",
          "type": "address"
        },
        {
          "internalType": "uint256",
          "name": "pricePerKg",
          "type": "uint256"
        },
        {
          "internalType": "uint256",
          "name": "minQuantity",
          "type": "uint256"
        }
      ],
      "stateMutability": "view",
      "type": "function"
    },
    {
      "inputs": [
        {
          "internalType": "address",
          "name": "",
          "type": "address"
        }
      ],
      "name": "recyclers",
      "outputs": [
        {
          "internalType": "uint256",
          "name": "id",
          "type": "uint256"
        },
        {
          "internalType": "address",
          "name": "recyclerAddress",
          "type": "address"
        },
        {
          "internalType": "string",
          "name": "location",
          "type": "string"
        },
        {
          "internalType": "uint256",
          "name": "rating",
          "type": "uint256"
        },
        {
          "internalType": "bool",
          "name": "isRegistered",
          "type": "bool"
        }
      ],
      "stateMutability": "view",
      "type": "function"
    },
    {
      "inputs": [],
      "name": "seeAllRecyclers",
      "outputs": [
        {
          "internalType": "address[]",
          "name": "",
          "type": "address[]"
        }
      ],
      "stateMutability": "view",
      "type": "function"
    },
    {
      "inputs": [
        {
          "internalType": "uint256",
          "name": "_requestID",
          "type": "uint256"
        }
      ],
      "name": "showRequest",
      "outputs": [
        {
          "components": [
            {
              "internalType": "uint256",
              "name": "id",
              "type": "uint256"
            },
            {
              "internalType": "address",
              "name": "userAddress",
              "type": "address"
            },
            {
              "internalType": "address",
              "name": "recyclerAddress",
              "type": "address"
            },
            {
              "internalType": "uint256",
              "name": "offerId",
              "type": "uint256"
            },
            {
              "internalType": "uint256",
              "name": "weight",
              "type": "uint256"
            },
            {
              "internalType": "uint256",
              "name": "valuedAt",
              "type": "uint256"
            },
            {
              "internalType": "uint256",
              "name": "amountPaid",
              "type": "uint256"
            },
            {
              "internalType": "bool",
              "name": "isCompleted",
              "type": "bool"
            },
            {
              "internalType": "bool",
              "name": "isAccepted",
              "type": "bool"
            },
            {
              "internalType": "address",
              "name": "assignedCollector",
              "type": "address"
            },
            {
              "internalType": "uint256",
              "name": "escrowRequestID",
              "type": "uint256"
            },
            {
              "internalType": "enum WasteManagement.RequestStatus",
              "name": "status",
              "type": "uint8"
            }
          ],
          "internalType": "struct WasteManagement.WasteCollectionRequest",
          "name": "",
          "type": "tuple"
        }
      ],
      "stateMutability": "view",
      "type": "function"
    },
    {
      "inputs": [
        {
          "internalType": "uint256",
          "name": "_offerId",
          "type": "uint256"
        },
        {
          "internalType": "string",
          "name": "_name",
          "type": "string"
        },
        {
          "internalType": "address",
          "name": "_recyclerAddress",
          "type": "address"
        },
        {
          "internalType": "uint256",
          "name": "_pricePerKg",
          "type": "uint256"
        },
        {
          "internalType": "uint256",
          "name": "_minQuantity",
          "type": "uint256"
        }
      ],
      "name": "updateOffer",
      "outputs": [
        {
          "components": [
            {
              "internalType": "uint256",
              "name": "offerId",
              "type": "uint256"
            },
            {
              "internalType": "string",
              "name": "name",
              "type": "string"
            },
            {
              "internalType": "address",
              "name": "recyclerAddress",
              "type": "address"
            },
            {
              "internalType": "uint256",
              "name": "pricePerKg",
              "type": "uint256"
            },
            {
              "internalType": "uint256",
              "name": "minQuantity",
              "type": "uint256"
            }
          ],
          "internalType": "struct WasteManagement.Offer",
          "name": "",
          "type": "tuple"
        }
      ],
      "stateMutability": "nonpayable",
      "type": "function"
    },
    {
      "inputs": [
        {
          "internalType": "uint256",
          "name": "_requestID",
          "type": "uint256"
        }
      ],
      "name": "userCancelRequest",
      "outputs": [],
      "stateMutability": "nonpayable",
      "type": "function"
    },
    {
      "inputs": [
        {
          "internalType": "uint256",
          "name": "",
          "type": "uint256"
        }
      ],
      "name": "userWasteRequests",
      "outputs": [
        {
          "internalType": "uint256",
          "name": "id",
          "type": "uint256"
        },
        {
          "internalType": "address",
          "name": "userAddress",
          "type": "address"
        },
        {
          "internalType": "address",
          "name": "recyclerAddress",
          "type": "address"
        },
        {
          "internalType": "uint256",
          "name": "offerId",
          "type": "uint256"
        },
        {
          "internalType": "uint256",
          "name": "weight",
          "type": "uint256"
        },
        {
          "internalType": "uint256",
          "name": "valuedAt",
          "type": "uint256"
        },
        {
          "internalType": "uint256",
          "name": "amountPaid",
          "type": "uint256"
        },
        {
          "internalType": "bool",
          "name": "isCompleted",
          "type": "bool"
        },
        {
          "internalType": "bool",
          "name": "isAccepted",
          "type": "bool"
        },
        {
          "internalType": "address",
          "name": "assignedCollector",
          "type": "address"
        },
        {
          "internalType": "uint256",
          "name": "escrowRequestID",
          "type": "uint256"
        },
        {
          "internalType": "enum WasteManagement.RequestStatus",
          "name": "status",
          "type": "uint8"
        }
      ],
      "stateMutability": "view",
      "type": "function"
    },
    {
      "inputs": [
        {
          "internalType": "address",
          "name": "",
          "type": "address"
        }
      ],
      "name": "users",
      "outputs": [
        {
          "internalType": "uint256",
          "name": "id",
          "type": "uint256"
        },
        {
          "internalType": "address",
          "name": "userAddress",
          "type": "address"
        },
        {
          "components": [
            {
              "internalType": "int32",
              "name": "latitude",
              "type": "int32"
            },
            {
              "internalType": "int32",
              "name": "longitude",
              "type": "int32"
            }
          ],
          "internalType": "struct WasteManagement.Coordinates",
          "name": "location",
          "type": "tuple"
        },
        {
          "internalType": "bool",
          "name": "isRegistered",
          "type": "bool"
        }
      ],
      "stateMutability": "view",
      "type": "function"
    },
    {
      "inputs": [
        {
          "internalType": "address",
          "name": "_recyclerAddress",
          "type": "address"
        },
        {
          "internalType": "uint256",
          "name": "_offerId",
          "type": "uint256"
        }
      ],
      "name": "viewOffer",
      "outputs": [
        {
          "components": [
            {
              "internalType": "uint256",
              "name": "offerId",
              "type": "uint256"
            },
            {
              "internalType": "string",
              "name": "name",
              "type": "string"
            },
            {
              "internalType": "address",
              "name": "recyclerAddress",
              "type": "address"
            },
            {
              "internalType": "uint256",
              "name": "pricePerKg",
              "type": "uint256"
            },
            {
              "internalType": "uint256",
              "name": "minQuantity",
              "type": "uint256"
            }
          ],
          "internalType": "struct WasteManagement.Offer",
          "name": "",
          "type": "tuple"
        }
      ],
      "stateMutability": "view",
      "type": "function"
    }
  ],
  "bytecode": "0x60806040523480156200001157600080fd5b50604051620048f9380380620048f98339818101604052810190620000379190620000e8565b806000806101000a81548173ffffffffffffffffffffffffffffffffffffffff021916908373ffffffffffffffffffffffffffffffffffffffff160217905550506200011a565b600080fd5b600073ffffffffffffffffffffffffffffffffffffffff82169050919050565b6000620000b08262000083565b9050919050565b620000c281620000a3565b8114620000ce57600080fd5b50565b600081519050620000e281620000b7565b92915050565b6000602082840312156200010157620001006200007e565b5b60006200011184828501620000d1565b91505092915050565b6147cf806200012a6000396000f3fe6080604052600436106101405760003560e01c80637a7bd4c2116100b6578063b0b386a61161006f578063b0b386a6146104d7578063daba858a14610502578063e42a96e71461051e578063eb73836a14610549578063f6556c2a14610572578063f9c520271461059b57610140565b80637a7bd4c2146103b15780637c3a13d4146103dc57806398b195d11461041a578063a6b2c43714610445578063a7fd1dbd1461046e578063a87430ba1461049757610140565b806351dc01211161010857806351dc01211461024857806355490901146102905780635959ae7b146102b95780635ccdd426146102f6578063753cc977146103335780637a3a9cbd1461037057610140565b806301f1d45814610145578063278208511461016e5780633d0a3145146101b157806348175e42146101dc57806348fd893014610207575b600080fd5b34801561015157600080fd5b5061016c600480360381019061016791906136fc565b6105c4565b005b34801561017a57600080fd5b5061019560048036038101906101909190613787565b6108dd565b6040516101a89796959493929190613892565b60405180910390f35b3480156101bd57600080fd5b506101c6610ef6565b6040516101d3919061390f565b60405180910390f35b3480156101e857600080fd5b506101f1610efc565b6040516101fe919061390f565b60405180910390f35b34801561021357600080fd5b5061022e60048036038101906102299190613956565b610f02565b60405161023f959493929190613996565b60405180910390f35b34801561025457600080fd5b5061026f600480360381019061026a91906139f0565b610ffd565b6040516102879c9b9a99989796959493929190613a94565b60405180910390f35b34801561029c57600080fd5b506102b760048036038101906102b291906139f0565b6110e4565b005b3480156102c557600080fd5b506102e060048036038101906102db9190613b4e565b6112bc565b6040516102ed9190613cc3565b60405180910390f35b34801561030257600080fd5b5061031d600480360381019061031891906139f0565b6115ce565b60405161032a9190613df9565b60405180910390f35b34801561033f57600080fd5b5061035a60048036038101906103559190613956565b6117fb565b6040516103679190613cc3565b60405180910390f35b34801561037c57600080fd5b5061039760048036038101906103929190613787565b611a9d565b6040516103a8959493929190613e15565b60405180910390f35b3480156103bd57600080fd5b506103c6611b88565b6040516103d39190613f1e565b60405180910390f35b3480156103e857600080fd5b5061040360048036038101906103fe9190613787565b611c16565b604051610411929190613f40565b60405180910390f35b34801561042657600080fd5b5061042f611c54565b60405161043c919061390f565b60405180910390f35b34801561045157600080fd5b5061046c600480360381019061046791906139f0565b611c5a565b005b34801561047a57600080fd5b5061049560048036038101906104909190613f69565b611e74565b005b3480156104a357600080fd5b506104be60048036038101906104b99190613787565b612177565b6040516104ce9493929190614016565b60405180910390f35b3480156104e357600080fd5b506104ec612218565b6040516104f99190613f1e565b60405180910390f35b61051c6004803603810190610517919061405b565b6122a6565b005b34801561052a57600080fd5b506105336126ad565b60405161054091906140fa565b60405180910390f35b34801561055557600080fd5b50610570600480360381019061056b91906139f0565b6126d1565b005b34801561057e57600080fd5b5061059960048036038101906105949190614141565b6128ff565b005b3480156105a757600080fd5b506105c260048036038101906105bd91906141c4565b612c3c565b005b6000600560003373ffffffffffffffffffffffffffffffffffffffff1673ffffffffffffffffffffffffffffffffffffffff16815260200190815260200160002090503373ffffffffffffffffffffffffffffffffffffffff168160010160009054906101000a900473ffffffffffffffffffffffffffffffffffffffff1673ffffffffffffffffffffffffffffffffffffffff1614610690576040517f3d83866f00000000000000000000000000000000000000000000000000000000815260040160405180910390fd5b600060016008546106a19190614280565b90506000600a60003373ffffffffffffffffffffffffffffffffffffffff1673ffffffffffffffffffffffffffffffffffffffff16815260200190815260200160002060008773ffffffffffffffffffffffffffffffffffffffff1673ffffffffffffffffffffffffffffffffffffffff16815260200190815260200160002090508181600001819055508481600101908161073d91906144b6565b50858160020160006101000a81548173ffffffffffffffffffffffffffffffffffffffff021916908373ffffffffffffffffffffffffffffffffffffffff1602179055508381600301908161079291906144b6565b506000816004018190555060018160050160006101000a81548160ff0219169083151502179055506000805b600980549050811015610852578773ffffffffffffffffffffffffffffffffffffffff16600982815481106107f6576107f5614588565b5b9060005260206000200160009054906101000a900473ffffffffffffffffffffffffffffffffffffffff1673ffffffffffffffffffffffffffffffffffffffff16036108455760019150610852565b80806001019150506107be565b50806108bc576009879080600181540180825580915050600190039060005260206000200160009091909190916101000a81548173ffffffffffffffffffffffffffffffffffffffff021916908373ffffffffffffffffffffffffffffffffffffffff1602179055505b600860008154809291906108cf906145b7565b919050555050505050505050565b606060008060008060606000600260008973ffffffffffffffffffffffffffffffffffffffff1673ffffffffffffffffffffffffffffffffffffffff16815260200190815260200160002060030160009054906101000a900460ff1615610a47576000600260008a73ffffffffffffffffffffffffffffffffffffffff1673ffffffffffffffffffffffffffffffffffffffff168152602001908152602001600020905080600001548160010160009054906101000a900473ffffffffffffffffffffffffffffffffffffffff168260020160000160009054906101000a900460030b8360020160000160049054906101000a900460030b8460030160009054906101000a900460ff166040518060400160405280600481526020017f557365720000000000000000000000000000000000000000000000000000000081525094939291906040518060200160405280600081525090975097509750975097509750975050610eeb565b600560008973ffffffffffffffffffffffffffffffffffffffff1673ffffffffffffffffffffffffffffffffffffffff16815260200190815260200160002060040160009054906101000a900460ff1615610c63576000600560008a73ffffffffffffffffffffffffffffffffffffffff1673ffffffffffffffffffffffffffffffffffffffff16815260200190815260200160002090506000600760008b73ffffffffffffffffffffffffffffffffffffffff1673ffffffffffffffffffffffffffffffffffffffff168152602001908152602001600020905081600001548260010160009054906101000a900473ffffffffffffffffffffffffffffffffffffffff168260000160009054906101000a900460030b8360000160049054906101000a900460030b856002018660040160009054906101000a900460ff166040518060400160405280600881526020017f52656379636c6572000000000000000000000000000000000000000000000000815250959493929190818054610bce906142e3565b80601f0160208091040260200160405190810160405280929190818152602001828054610bfa906142e3565b8015610c475780601f10610c1c57610100808354040283529160200191610c47565b820191906000526020600020905b815481529060010190602001808311610c2a57829003601f168201915b5050505050915098509850985098509850985098505050610eeb565b60005b600680549050811015610eb857600060068281548110610c8957610c88614588565b5b9060005260206000200160009054906101000a900473ffffffffffffffffffffffffffffffffffffffff169050600073ffffffffffffffffffffffffffffffffffffffff16600a60008373ffffffffffffffffffffffffffffffffffffffff1673ffffffffffffffffffffffffffffffffffffffff16815260200190815260200160002060008c73ffffffffffffffffffffffffffffffffffffffff1673ffffffffffffffffffffffffffffffffffffffff16815260200190815260200160002060020160009054906101000a900473ffffffffffffffffffffffffffffffffffffffff1673ffffffffffffffffffffffffffffffffffffffff1614610eaa576000600a60008373ffffffffffffffffffffffffffffffffffffffff1673ffffffffffffffffffffffffffffffffffffffff16815260200190815260200160002060008c73ffffffffffffffffffffffffffffffffffffffff1673ffffffffffffffffffffffffffffffffffffffff168152602001908152602001600020905080600001548160020160009054906101000a900473ffffffffffffffffffffffffffffffffffffffff166000808460050160009054906101000a900460ff166040518060400160405280600981526020017f436f6c6c6563746f720000000000000000000000000000000000000000000000815250949392919060405180602001604052806000815250909950995099509950995099509950505050610eeb565b508080600101915050610c66565b506040517f5ffce20a00000000000000000000000000000000000000000000000000000000815260040160405180910390fd5b919395979092949650565b600b5481565b60035481565b60046020528160005260406000208181548110610f1e57600080fd5b906000526020600020906005020160009150915050806000015490806001018054610f48906142e3565b80601f0160208091040260200160405190810160405280929190818152602001828054610f74906142e3565b8015610fc15780601f10610f9657610100808354040283529160200191610fc1565b820191906000526020600020905b815481529060010190602001808311610fa457829003601f168201915b5050505050908060020160009054906101000a900473ffffffffffffffffffffffffffffffffffffffff16908060030154908060040154905085565b600c6020528060005260406000206000915090508060000154908060010160009054906101000a900473ffffffffffffffffffffffffffffffffffffffff16908060020160009054906101000a900473ffffffffffffffffffffffffffffffffffffffff16908060030154908060040154908060050154908060060154908060070160009054906101000a900460ff16908060070160019054906101000a900460ff16908060070160029054906101000a900473ffffffffffffffffffffffffffffffffffffffff16908060080154908060090160009054906101000a900460ff1690508c565b6000600c600083815260200190815260200160002090506000816000015403611139576040517f9e9468f300000000000000000000000000000000000000000000000000000000815260040160405180910390fd5b3373ffffffffffffffffffffffffffffffffffffffff168160010160009054906101000a900473ffffffffffffffffffffffffffffffffffffffff1673ffffffffffffffffffffffffffffffffffffffff16146111c2576040517f3d83866f00000000000000000000000000000000000000000000000000000000815260040160405180910390fd5b8060070160009054906101000a900460ff161561120b576040517f8c53d03500000000000000000000000000000000000000000000000000000000815260040160405180910390fd5b8060070160019054906101000a900460ff1615611254576040517ff58f825400000000000000000000000000000000000000000000000000000000815260040160405180910390fd5b60038160090160006101000a81548160ff0219169083600381111561127c5761127b613a1d565b5b02179055507fee243f878b7fc2f54e934ca33783d4395d42bc07612e2bd4b8e0e178639f7a28826040516112b0919061390f565b60405180910390a15050565b6112c4613446565b600560003373ffffffffffffffffffffffffffffffffffffffff1673ffffffffffffffffffffffffffffffffffffffff16815260200190815260200160002060040160009054906101000a900460ff1661134a576040517fb7e3f9d000000000000000000000000000000000000000000000000000000000815260040160405180910390fd5b6000600460003373ffffffffffffffffffffffffffffffffffffffff1673ffffffffffffffffffffffffffffffffffffffff168152602001908152602001600020878154811061139d5761139c614588565b5b906000526020600020906005020160000154036113e6576040517f7c4afa1100000000000000000000000000000000000000000000000000000000815260040160405180910390fd5b6000600460003373ffffffffffffffffffffffffffffffffffffffff1673ffffffffffffffffffffffffffffffffffffffff168152602001908152602001600020878154811061143957611438614588565b5b906000526020600020906005020190508581600101908161145a91906144b6565b50848160020160006101000a81548173ffffffffffffffffffffffffffffffffffffffff021916908373ffffffffffffffffffffffffffffffffffffffff160217905550838160030181905550828160040181905550806040518060a0016040529081600082015481526020016001820180546114d6906142e3565b80601f0160208091040260200160405190810160405280929190818152602001828054611502906142e3565b801561154f5780601f106115245761010080835404028352916020019161154f565b820191906000526020600020905b81548152906001019060200180831161153257829003601f168201915b505050505081526020016002820160009054906101000a900473ffffffffffffffffffffffffffffffffffffffff1673ffffffffffffffffffffffffffffffffffffffff1673ffffffffffffffffffffffffffffffffffffffff1681526020016003820154815260200160048201548152505091505095945050505050565b6115d661348b565b6000600c60008481526020019081526020016000206000015403611626576040517f9e9468f300000000000000000000000000000000000000000000000000000000815260040160405180910390fd5b600c600083815260200190815260200160002060405180610180016040529081600082015481526020016001820160009054906101000a900473ffffffffffffffffffffffffffffffffffffffff1673ffffffffffffffffffffffffffffffffffffffff1673ffffffffffffffffffffffffffffffffffffffff1681526020016002820160009054906101000a900473ffffffffffffffffffffffffffffffffffffffff1673ffffffffffffffffffffffffffffffffffffffff1673ffffffffffffffffffffffffffffffffffffffff168152602001600382015481526020016004820154815260200160058201548152602001600682015481526020016007820160009054906101000a900460ff161515151581526020016007820160019054906101000a900460ff161515151581526020016007820160029054906101000a900473ffffffffffffffffffffffffffffffffffffffff1673ffffffffffffffffffffffffffffffffffffffff1673ffffffffffffffffffffffffffffffffffffffff168152602001600882015481526020016009820160009054906101000a900460ff1660038111156117de576117dd613a1d565b5b60038111156117f0576117ef613a1d565b5b815250509050919050565b611803613446565b600560008473ffffffffffffffffffffffffffffffffffffffff1673ffffffffffffffffffffffffffffffffffffffff16815260200190815260200160002060040160009054906101000a900460ff16611889576040517fb7e3f9d000000000000000000000000000000000000000000000000000000000815260040160405180910390fd5b6000600460008573ffffffffffffffffffffffffffffffffffffffff1673ffffffffffffffffffffffffffffffffffffffff16815260200190815260200160002083815481106118dc576118db614588565b5b90600052602060002090600502016000015403611925576040517f7c4afa1100000000000000000000000000000000000000000000000000000000815260040160405180910390fd5b600460008473ffffffffffffffffffffffffffffffffffffffff1673ffffffffffffffffffffffffffffffffffffffff168152602001908152602001600020828154811061197657611975614588565b5b90600052602060002090600502016040518060a0016040529081600082015481526020016001820180546119a9906142e3565b80601f01602080910402602001604051908101604052809291908181526020018280546119d5906142e3565b8015611a225780601f106119f757610100808354040283529160200191611a22565b820191906000526020600020905b815481529060010190602001808311611a0557829003601f168201915b505050505081526020016002820160009054906101000a900473ffffffffffffffffffffffffffffffffffffffff1673ffffffffffffffffffffffffffffffffffffffff1673ffffffffffffffffffffffffffffffffffffffff16815260200160038201548152602001600482015481525050905092915050565b60056020528060005260406000206000915090508060000154908060010160009054906101000a900473ffffffffffffffffffffffffffffffffffffffff1690806002018054611aec906142e3565b80601f0160208091040260200160405190810160405280929190818152602001828054611b18906142e3565b8015611b655780601f10611b3a57610100808354040283529160200191611b65565b820191906000526020600020905b815481529060010190602001808311611b4857829003601f168201915b5050505050908060030154908060040160009054906101000a900460ff16905085565b60606006805480602002602001604051908101604052809291908181526020018280548015611c0c57602002820191906000526020600020905b8160009054906101000a900473ffffffffffffffffffffffffffffffffffffffff1673ffffffffffffffffffffffffffffffffffffffff1681526020019060010190808311611bc2575b5050505050905090565b60076020528060005260406000206000915090508060000160009054906101000a900460030b908060000160049054906101000a900460030b905082565b60085481565b6000600c600083815260200190815260200160002090503373ffffffffffffffffffffffffffffffffffffffff168160070160029054906101000a900473ffffffffffffffffffffffffffffffffffffffff1673ffffffffffffffffffffffffffffffffffffffff1614611cfa576040517fd6a0f13100000000000000000000000000000000000000000000000000000000815260040160405180910390fd5b8060070160019054906101000a900460ff16611d42576040517f0150104800000000000000000000000000000000000000000000000000000000815260040160405180910390fd5b8060070160009054906101000a900460ff1615611d8b576040517f8c53d03500000000000000000000000000000000000000000000000000000000815260040160405180910390fd5b60018160070160006101000a81548160ff02191690831515021790555060008054906101000a900473ffffffffffffffffffffffffffffffffffffffff1673ffffffffffffffffffffffffffffffffffffffff1663ed65316482600801546040518263ffffffff1660e01b8152600401611e05919061390f565b600060405180830381600087803b158015611e1f57600080fd5b505af1158015611e33573d6000803e3d6000fd5b505050507fb67202e01de5d26f86def24fccaf7364a01b9f5d52d7b122157f5c10907f294f8233604051611e689291906145ff565b60405180910390a15050565b600560003373ffffffffffffffffffffffffffffffffffffffff1673ffffffffffffffffffffffffffffffffffffffff16815260200190815260200160002060040160009054906101000a900460ff16611efa576040517fb7e3f9d000000000000000000000000000000000000000000000000000000000815260040160405180910390fd5b600383511015611f36576040517fa8936bf500000000000000000000000000000000000000000000000000000000815260040160405180910390fd5b60008211611f70576040517f608a7e4d00000000000000000000000000000000000000000000000000000000815260040160405180910390fd5b60008103611faa576040517f6850750e00000000000000000000000000000000000000000000000000000000815260040160405180910390fd5b6000600460003373ffffffffffffffffffffffffffffffffffffffff1673ffffffffffffffffffffffffffffffffffffffff168152602001908152602001600020805490509050600460003373ffffffffffffffffffffffffffffffffffffffff1673ffffffffffffffffffffffffffffffffffffffff1681526020019081526020016000206040518060a001604052806001846120489190614280565b81526020018681526020013373ffffffffffffffffffffffffffffffffffffffff1681526020018581526020018481525090806001815401808255809150506001900390600052602060002090600502016000909190919091506000820151816000015560208201518160010190816120c191906144b6565b5060408201518160020160006101000a81548173ffffffffffffffffffffffffffffffffffffffff021916908373ffffffffffffffffffffffffffffffffffffffff160217905550606082015181600301556080820151816004015550503373ffffffffffffffffffffffffffffffffffffffff167fed1ffb8900074c0ed38aa50f58a811976aebd6b5a02c3a17e53b4fc78704c1e985858560405161216993929190614628565b60405180910390a250505050565b60026020528060005260406000206000915090508060000154908060010160009054906101000a900473ffffffffffffffffffffffffffffffffffffffff1690806002016040518060400160405290816000820160009054906101000a900460030b60030b60030b81526020016000820160049054906101000a900460030b60030b60030b81525050908060030160009054906101000a900460ff16905084565b6060600980548060200260200160405190810160405280929190818152602001828054801561229c57602002820191906000526020600020905b8160009054906101000a900473ffffffffffffffffffffffffffffffffffffffff1673ffffffffffffffffffffffffffffffffffffffff1681526020019060010190808311612252575b5050505050905090565b6000600a60003373ffffffffffffffffffffffffffffffffffffffff1673ffffffffffffffffffffffffffffffffffffffff16815260200190815260200160002060008373ffffffffffffffffffffffffffffffffffffffff1673ffffffffffffffffffffffffffffffffffffffff16815260200190815260200160002090506000600c600085815260200190815260200160002090503373ffffffffffffffffffffffffffffffffffffffff168160020160009054906101000a900473ffffffffffffffffffffffffffffffffffffffff1673ffffffffffffffffffffffffffffffffffffffff16146123c6576040517f82bc9d7900000000000000000000000000000000000000000000000000000000815260040160405180910390fd5b8060070160019054906101000a900460ff161561240f576040517fbc177a8900000000000000000000000000000000000000000000000000000000815260040160405180910390fd5b8060070160009054906101000a900460ff1615612458576040517f8c53d03500000000000000000000000000000000000000000000000000000000815260040160405180910390fd5b600073ffffffffffffffffffffffffffffffffffffffff168160070160029054906101000a900473ffffffffffffffffffffffffffffffffffffffff1673ffffffffffffffffffffffffffffffffffffffff16146124e2576040517f0de81ff500000000000000000000000000000000000000000000000000000000815260040160405180910390fd5b8060050154341015612520576040517fadea324100000000000000000000000000000000000000000000000000000000815260040160405180910390fd5b60018160070160016101000a81548160ff021916908315150217905550828160070160026101000a81548173ffffffffffffffffffffffffffffffffffffffff021916908373ffffffffffffffffffffffffffffffffffffffff160217905550816004016000815480929190612595906145b7565b919050555060008060009054906101000a900473ffffffffffffffffffffffffffffffffffffffff1673ffffffffffffffffffffffffffffffffffffffff1663f6a8419e83600501548460020160009054906101000a900473ffffffffffffffffffffffffffffffffffffffff166040518363ffffffff1660e01b815260040161261f9190614666565b60206040518083038185885af115801561263d573d6000803e3d6000fd5b50505050506040513d601f19601f820116820180604052508101906126629190614696565b90508082600801819055507fa74a28866064b16e695ebbf53f8b0f9aa0bb93885dbbcc373004f1a052cc4248858560405161269e9291906145ff565b60405180910390a15050505050565b60008054906101000a900473ffffffffffffffffffffffffffffffffffffffff1681565b6000600c600083815260200190815260200160002090508060070160009054906101000a900460ff1615612731576040517f8c53d03500000000000000000000000000000000000000000000000000000000815260040160405180910390fd5b8060020160009054906101000a900473ffffffffffffffffffffffffffffffffffffffff1673ffffffffffffffffffffffffffffffffffffffff163373ffffffffffffffffffffffffffffffffffffffff16141580156127e157508060070160029054906101000a900473ffffffffffffffffffffffffffffffffffffffff1673ffffffffffffffffffffffffffffffffffffffff163373ffffffffffffffffffffffffffffffffffffffff1614155b15612818576040517f3d83866f00000000000000000000000000000000000000000000000000000000815260040160405180910390fd5b60008054906101000a900473ffffffffffffffffffffffffffffffffffffffff1673ffffffffffffffffffffffffffffffffffffffff1663356f9dfd82600801546040518263ffffffff1660e01b8152600401612875919061390f565b600060405180830381600087803b15801561288f57600080fd5b505af11580156128a3573d6000803e3d6000fd5b5050505060018160070160006101000a81548160ff0219169083151502179055507fef59a0001e061d6024146ff061c594fe7dd6cd8036e34925ee279d24840ca50d826040516128f3919061390f565b60405180910390a15050565b60011515600560008673ffffffffffffffffffffffffffffffffffffffff1673ffffffffffffffffffffffffffffffffffffffff16815260200190815260200160002060040160009054906101000a900460ff1615150361298c576040517fc55c3d0900000000000000000000000000000000000000000000000000000000815260040160405180910390fd5b60008260030b036129c9576040517ff03c5e7000000000000000000000000000000000000000000000000000000000815260040160405180910390fd5b60008160030b03612a06576040517f2df428a300000000000000000000000000000000000000000000000000000000815260040160405180910390fd5b60006001600354612a179190614280565b90506000600560008773ffffffffffffffffffffffffffffffffffffffff1673ffffffffffffffffffffffffffffffffffffffff1681526020019081526020016000209050818160000181905550858160010160006101000a81548173ffffffffffffffffffffffffffffffffffffffff021916908373ffffffffffffffffffffffffffffffffffffffff16021790555084816002019081612ab991906144b6565b5060018160040160006101000a81548160ff0219169083151502179055506006869080600181540180825580915050600190039060005260206000200160009091909190916101000a81548173ffffffffffffffffffffffffffffffffffffffff021916908373ffffffffffffffffffffffffffffffffffffffff1602179055506000600760008873ffffffffffffffffffffffffffffffffffffffff1673ffffffffffffffffffffffffffffffffffffffff1681526020019081526020016000209050848160000160006101000a81548163ffffffff021916908360030b63ffffffff160217905550838160000160046101000a81548163ffffffff021916908360030b63ffffffff16021790555060036000815480929190612bdc906145b7565b91905055508673ffffffffffffffffffffffffffffffffffffffff167f168c9bcc539365110d1cb9f13db60e10583c31a292115a6eee4760220e0cce01878787604051612c2b939291906146c3565b60405180910390a250505050505050565b6000600260003373ffffffffffffffffffffffffffffffffffffffff1673ffffffffffffffffffffffffffffffffffffffff168152602001908152602001600020604051806080016040529081600082015481526020016001820160009054906101000a900473ffffffffffffffffffffffffffffffffffffffff1673ffffffffffffffffffffffffffffffffffffffff1673ffffffffffffffffffffffffffffffffffffffff168152602001600282016040518060400160405290816000820160009054906101000a900460030b60030b60030b81526020016000820160049054906101000a900460030b60030b60030b8152505081526020016003820160009054906101000a900460ff16151515158152505090506000600560008973ffffffffffffffffffffffffffffffffffffffff1673ffffffffffffffffffffffffffffffffffffffff16815260200190815260200160002090508160600151612def57612da8336131fa565b612db3338585613307565b7f1c7a52659230b09cf86607b0422c07afead12b34ecc5a7a4eaebfcbf761b1b07338585604051612de693929190614701565b60405180910390a15b8060040160009054906101000a900460ff16612e37576040517faf70a7a800000000000000000000000000000000000000000000000000000000815260040160405180910390fd5b6000851015612e72576040517fcabd304a00000000000000000000000000000000000000000000000000000000815260040160405180910390fd5b6000600460008a73ffffffffffffffffffffffffffffffffffffffff1673ffffffffffffffffffffffffffffffffffffffff1681526020019081526020016000208881548110612ec557612ec4614588565b5b90600052602060002090600502016000015403612f0e576040517f7c4afa1100000000000000000000000000000000000000000000000000000000815260040160405180910390fd5b6000600460008a73ffffffffffffffffffffffffffffffffffffffff1673ffffffffffffffffffffffffffffffffffffffff1681526020019081526020016000208881548110612f6157612f60614588565b5b90600052602060002090600502016040518060a001604052908160008201548152602001600182018054612f94906142e3565b80601f0160208091040260200160405190810160405280929190818152602001828054612fc0906142e3565b801561300d5780601f10612fe25761010080835404028352916020019161300d565b820191906000526020600020905b815481529060010190602001808311612ff057829003601f168201915b505050505081526020016002820160009054906101000a900473ffffffffffffffffffffffffffffffffffffffff1673ffffffffffffffffffffffffffffffffffffffff1673ffffffffffffffffffffffffffffffffffffffff16815260200160038201548152602001600482015481525050905080608001518710156130c0576040517f4cababad00000000000000000000000000000000000000000000000000000000815260040160405180910390fd5b60006001600b546130d19190614280565b90506000600c60008381526020019081526020016000209050818160000181905550338160010160006101000a81548173ffffffffffffffffffffffffffffffffffffffff021916908373ffffffffffffffffffffffffffffffffffffffff1602179055508a8160020160006101000a81548173ffffffffffffffffffffffffffffffffffffffff021916908373ffffffffffffffffffffffffffffffffffffffff160217905550898160030181905550888160040181905550878160050181905550600b60008154809291906131a7906145b7565b91905055507f5b55842672aaa440d337fd65bb0154c3a00b886297daf13f4f92aea626a9300b82338d8d8d8d6040516131e596959493929190614738565b60405180910390a15050505050505050505050565b6000600260008373ffffffffffffffffffffffffffffffffffffffff1673ffffffffffffffffffffffffffffffffffffffff16815260200190815260200160002090508060030160009054906101000a900460ff1615613286576040517f0b0ab77600000000000000000000000000000000000000000000000000000000815260040160405180910390fd5b600160008154613295906145b7565b9190508190558160000181905550818160010160006101000a81548173ffffffffffffffffffffffffffffffffffffffff021916908373ffffffffffffffffffffffffffffffffffffffff16021790555060018160030160006101000a81548160ff0219169083151502179055505050565b600260008473ffffffffffffffffffffffffffffffffffffffff1673ffffffffffffffffffffffffffffffffffffffff16815260200190815260200160002060030160009054906101000a900460ff1661338d576040517f60f4985300000000000000000000000000000000000000000000000000000000815260040160405180910390fd5b60405180604001604052808360030b81526020018260030b815250600260008573ffffffffffffffffffffffffffffffffffffffff1673ffffffffffffffffffffffffffffffffffffffff16815260200190815260200160002060020160008201518160000160006101000a81548163ffffffff021916908360030b63ffffffff16021790555060208201518160000160046101000a81548163ffffffff021916908360030b63ffffffff160217905550905050505050565b6040518060a001604052806000815260200160608152602001600073ffffffffffffffffffffffffffffffffffffffff16815260200160008152602001600081525090565b60405180610180016040528060008152602001600073ffffffffffffffffffffffffffffffffffffffff168152602001600073ffffffffffffffffffffffffffffffffffffffff16815260200160008152602001600081526020016000815260200160008152602001600015158152602001600015158152602001600073ffffffffffffffffffffffffffffffffffffffff168152602001600081526020016000600381111561353e5761353d613a1d565b5b81525090565b6000604051905090565b600080fd5b600080fd5b600073ffffffffffffffffffffffffffffffffffffffff82169050919050565b600061358382613558565b9050919050565b61359381613578565b811461359e57600080fd5b50565b6000813590506135b08161358a565b92915050565b600080fd5b600080fd5b6000601f19601f8301169050919050565b7f4e487b7100000000000000000000000000000000000000000000000000000000600052604160045260246000fd5b613609826135c0565b810181811067ffffffffffffffff82111715613628576136276135d1565b5b80604052505050565b600061363b613544565b90506136478282613600565b919050565b600067ffffffffffffffff821115613667576136666135d1565b5b613670826135c0565b9050602081019050919050565b82818337600083830152505050565b600061369f61369a8461364c565b613631565b9050828152602081018484840111156136bb576136ba6135bb565b5b6136c684828561367d565b509392505050565b600082601f8301126136e3576136e26135b6565b5b81356136f384826020860161368c565b91505092915050565b6000806000606084860312156137155761371461354e565b5b6000613723868287016135a1565b935050602084013567ffffffffffffffff81111561374457613743613553565b5b613750868287016136ce565b925050604084013567ffffffffffffffff81111561377157613770613553565b5b61377d868287016136ce565b9150509250925092565b60006020828403121561379d5761379c61354e565b5b60006137ab848285016135a1565b91505092915050565b600081519050919050565b600082825260208201905092915050565b60005b838110156137ee5780820151818401526020810190506137d3565b60008484015250505050565b6000613805826137b4565b61380f81856137bf565b935061381f8185602086016137d0565b613828816135c0565b840191505092915050565b6000819050919050565b61384681613833565b82525050565b61385581613578565b82525050565b60008160030b9050919050565b6138718161385b565b82525050565b60008115159050919050565b61388c81613877565b82525050565b600060e08201905081810360008301526138ac818a6137fa565b90506138bb602083018961383d565b6138c8604083018861384c565b6138d56060830187613868565b6138e26080830186613868565b81810360a08301526138f481856137fa565b905061390360c0830184613883565b98975050505050505050565b6000602082019050613924600083018461383d565b92915050565b61393381613833565b811461393e57600080fd5b50565b6000813590506139508161392a565b92915050565b6000806040838503121561396d5761396c61354e565b5b600061397b858286016135a1565b925050602061398c85828601613941565b9150509250929050565b600060a0820190506139ab600083018861383d565b81810360208301526139bd81876137fa565b90506139cc604083018661384c565b6139d9606083018561383d565b6139e6608083018461383d565b9695505050505050565b600060208284031215613a0657613a0561354e565b5b6000613a1484828501613941565b91505092915050565b7f4e487b7100000000000000000000000000000000000000000000000000000000600052602160045260246000fd5b60048110613a5d57613a5c613a1d565b5b50565b6000819050613a6e82613a4c565b919050565b6000613a7e82613a60565b9050919050565b613a8e81613a73565b82525050565b600061018082019050613aaa600083018f61383d565b613ab7602083018e61384c565b613ac4604083018d61384c565b613ad1606083018c61383d565b613ade608083018b61383d565b613aeb60a083018a61383d565b613af860c083018961383d565b613b0560e0830188613883565b613b13610100830187613883565b613b2161012083018661384c565b613b2f61014083018561383d565b613b3d610160830184613a85565b9d9c50505050505050505050505050565b600080600080600060a08688031215613b6a57613b6961354e565b5b6000613b7888828901613941565b955050602086013567ffffffffffffffff811115613b9957613b98613553565b5b613ba5888289016136ce565b9450506040613bb6888289016135a1565b9350506060613bc788828901613941565b9250506080613bd888828901613941565b9150509295509295909350565b613bee81613833565b82525050565b600082825260208201905092915050565b6000613c10826137b4565b613c1a8185613bf4565b9350613c2a8185602086016137d0565b613c33816135c0565b840191505092915050565b613c4781613578565b82525050565b600060a083016000830151613c656000860182613be5565b5060208301518482036020860152613c7d8282613c05565b9150506040830151613c926040860182613c3e565b506060830151613ca56060860182613be5565b506080830151613cb86080860182613be5565b508091505092915050565b60006020820190508181036000830152613cdd8184613c4d565b905092915050565b613cee81613877565b82525050565b613cfd81613a73565b82525050565b61018082016000820151613d1a6000850182613be5565b506020820151613d2d6020850182613c3e565b506040820151613d406040850182613c3e565b506060820151613d536060850182613be5565b506080820151613d666080850182613be5565b5060a0820151613d7960a0850182613be5565b5060c0820151613d8c60c0850182613be5565b5060e0820151613d9f60e0850182613ce5565b50610100820151613db4610100850182613ce5565b50610120820151613dc9610120850182613c3e565b50610140820151613dde610140850182613be5565b50610160820151613df3610160850182613cf4565b50505050565b600061018082019050613e0f6000830184613d03565b92915050565b600060a082019050613e2a600083018861383d565b613e37602083018761384c565b8181036040830152613e4981866137fa565b9050613e58606083018561383d565b613e656080830184613883565b9695505050505050565b600081519050919050565b600082825260208201905092915050565b6000819050602082019050919050565b6000613ea78383613c3e565b60208301905092915050565b6000602082019050919050565b6000613ecb82613e6f565b613ed58185613e7a565b9350613ee083613e8b565b8060005b83811015613f11578151613ef88882613e9b565b9750613f0383613eb3565b925050600181019050613ee4565b5085935050505092915050565b60006020820190508181036000830152613f388184613ec0565b905092915050565b6000604082019050613f556000830185613868565b613f626020830184613868565b9392505050565b600080600060608486031215613f8257613f8161354e565b5b600084013567ffffffffffffffff811115613fa057613f9f613553565b5b613fac868287016136ce565b9350506020613fbd86828701613941565b9250506040613fce86828701613941565b9150509250925092565b613fe18161385b565b82525050565b604082016000820151613ffd6000850182613fd8565b5060208201516140106020850182613fd8565b50505050565b600060a08201905061402b600083018761383d565b614038602083018661384c565b6140456040830185613fe7565b6140526080830184613883565b95945050505050565b600080604083850312156140725761407161354e565b5b600061408085828601613941565b9250506020614091858286016135a1565b9150509250929050565b6000819050919050565b60006140c06140bb6140b684613558565b61409b565b613558565b9050919050565b60006140d2826140a5565b9050919050565b60006140e4826140c7565b9050919050565b6140f4816140d9565b82525050565b600060208201905061410f60008301846140eb565b92915050565b61411e8161385b565b811461412957600080fd5b50565b60008135905061413b81614115565b92915050565b6000806000806080858703121561415b5761415a61354e565b5b6000614169878288016135a1565b945050602085013567ffffffffffffffff81111561418a57614189613553565b5b614196878288016136ce565b93505060406141a78782880161412c565b92505060606141b88782880161412c565b91505092959194509250565b60008060008060008060c087890312156141e1576141e061354e565b5b60006141ef89828a016135a1565b965050602061420089828a01613941565b955050604061421189828a01613941565b945050606061422289828a01613941565b935050608061423389828a0161412c565b92505060a061424489828a0161412c565b9150509295509295509295565b7f4e487b7100000000000000000000000000000000000000000000000000000000600052601160045260246000fd5b600061428b82613833565b915061429683613833565b92508282019050808211156142ae576142ad614251565b5b92915050565b7f4e487b7100000000000000000000000000000000000000000000000000000000600052602260045260246000fd5b600060028204905060018216806142fb57607f821691505b60208210810361430e5761430d6142b4565b5b50919050565b60008190508160005260206000209050919050565b60006020601f8301049050919050565b600082821b905092915050565b6000600883026143767fffffffffffffffffffffffffffffffffffffffffffffffffffffffffffffffff82614339565b6143808683614339565b95508019841693508086168417925050509392505050565b60006143b36143ae6143a984613833565b61409b565b613833565b9050919050565b6000819050919050565b6143cd83614398565b6143e16143d9826143ba565b848454614346565b825550505050565b600090565b6143f66143e9565b6144018184846143c4565b505050565b5b818110156144255761441a6000826143ee565b600181019050614407565b5050565b601f82111561446a5761443b81614314565b61444484614329565b81016020851015614453578190505b61446761445f85614329565b830182614406565b50505b505050565b600082821c905092915050565b600061448d6000198460080261446f565b1980831691505092915050565b60006144a6838361447c565b9150826002028217905092915050565b6144bf826137b4565b67ffffffffffffffff8111156144d8576144d76135d1565b5b6144e282546142e3565b6144ed828285614429565b600060209050601f831160018114614520576000841561450e578287015190505b614518858261449a565b865550614580565b601f19841661452e86614314565b60005b8281101561455657848901518255600182019150602085019450602081019050614531565b86831015614573578489015161456f601f89168261447c565b8355505b6001600288020188555050505b505050505050565b7f4e487b7100000000000000000000000000000000000000000000000000000000600052603260045260246000fd5b60006145c282613833565b91507fffffffffffffffffffffffffffffffffffffffffffffffffffffffffffffffff82036145f4576145f3614251565b5b600182019050919050565b6000604082019050614614600083018561383d565b614621602083018461384c565b9392505050565b6000606082019050818103600083015261464281866137fa565b9050614651602083018561383d565b61465e604083018461383d565b949350505050565b600060208201905061467b600083018461384c565b92915050565b6000815190506146908161392a565b92915050565b6000602082840312156146ac576146ab61354e565b5b60006146ba84828501614681565b91505092915050565b600060608201905081810360008301526146dd81866137fa565b90506146ec6020830185613868565b6146f96040830184613868565b949350505050565b6000606082019050614716600083018661384c565b6147236020830185613868565b6147306040830184613868565b949350505050565b600060c08201905061474d600083018961383d565b61475a602083018861384c565b614767604083018761384c565b614774606083018661383d565b614781608083018561383d565b61478e60a083018461383d565b97965050505050505056fea26469706673582212209d94fd8017fb9acbe7bdaf76cdb1c9b8790c5c0746d665be4a435b5f878b6c4464736f6c63430008180033",
  "linkReferences": {},
  "deployedLinkReferences": {}
}