{
  "_format": "hh-sol-artifact-1",
  "contractName": "WasteManagement",
  "sourceName": "contracts/Wastemanagement.sol",
  "abi": [
    {
      "inputs": [
        {
          "internalType": "address",
          "name": "_escrowContract",
          "type": "address"
        }
      ],
      "stateMutability": "nonpayable",
      "type": "constructor"
    },
    {
      "inputs": [],
      "name": "REQUESTNOTFOUND",
      "type": "error"
    },
    {
      "anonymous": false,
      "inputs": [
        {
          "indexed": true,
          "internalType": "address",
          "name": "owner",
          "type": "address"
        },
        {
          "indexed": false,
          "internalType": "uint256",
          "name": "amount",
          "type": "uint256"
        }
      ],
      "name": "FundsWithdrawn",
      "type": "event"
    },
    {
      "anonymous": false,
      "inputs": [
        {
          "indexed": false,
          "internalType": "address",
          "name": "sender",
          "type": "address"
        },
        {
          "indexed": false,
          "internalType": "uint256",
          "name": "value",
          "type": "uint256"
        },
        {
          "indexed": false,
          "internalType": "bytes",
          "name": "data",
          "type": "bytes"
        }
      ],
      "name": "LogFallback",
      "type": "event"
    },
    {
      "anonymous": false,
      "inputs": [
        {
          "indexed": false,
          "internalType": "address",
          "name": "sender",
          "type": "address"
        },
        {
          "indexed": false,
          "internalType": "uint256",
          "name": "value",
          "type": "uint256"
        }
      ],
      "name": "LogReceive",
      "type": "event"
    },
    {
      "stateMutability": "payable",
      "type": "fallback"
    },
    {
      "inputs": [
        {
          "internalType": "uint256",
          "name": "_requestID",
          "type": "uint256"
        },
        {
          "internalType": "address",
          "name": "_collectorAddress",
          "type": "address"
        }
      ],
      "name": "acceptRequest",
      "outputs": [],
      "stateMutability": "payable",
      "type": "function"
    },
    {
      "inputs": [
        {
          "internalType": "uint256",
          "name": "_requestID",
          "type": "uint256"
        }
      ],
      "name": "cancelRequestAndRefund",
      "outputs": [],
      "stateMutability": "nonpayable",
      "type": "function"
    },
    {
      "inputs": [
        {
          "internalType": "uint256",
          "name": "_requestID",
          "type": "uint256"
        }
      ],
      "name": "confirmRequest",
      "outputs": [],
      "stateMutability": "payable",
      "type": "function"
    },
    {
      "inputs": [
        {
          "internalType": "address",
          "name": "_collectorAddress",
          "type": "address"
        },
        {
          "internalType": "string",
          "name": "_name",
          "type": "string"
        },
        {
          "internalType": "string",
          "name": "_contact",
          "type": "string"
        }
      ],
      "name": "createCollector",
      "outputs": [],
      "stateMutability": "nonpayable",
      "type": "function"
    },
    {
      "inputs": [
        {
          "internalType": "string",
          "name": "_wasteType",
          "type": "string"
        },
        {
          "internalType": "uint256",
          "name": "_pricePerKg",
          "type": "uint256"
        },
        {
          "internalType": "uint256",
          "name": "_miniQuantity",
          "type": "uint256"
        }
      ],
      "name": "createOffer",
      "outputs": [],
      "stateMutability": "nonpayable",
      "type": "function"
    },
    {
      "inputs": [
        {
          "internalType": "address",
          "name": "_recyclerAddress",
          "type": "address"
        },
        {
          "internalType": "string",
          "name": "_location",
          "type": "string"
        },
        {
          "internalType": "int32",
          "name": "lat",
          "type": "int32"
        },
        {
          "internalType": "int32",
          "name": "lon",
          "type": "int32"
        }
      ],
      "name": "createRecycler",
      "outputs": [
        {
          "internalType": "uint256",
          "name": "",
          "type": "uint256"
        },
        {
          "internalType": "address",
          "name": "",
          "type": "address"
        },
        {
          "internalType": "string",
          "name": "",
          "type": "string"
        },
        {
          "internalType": "bool",
          "name": "",
          "type": "bool"
        }
      ],
      "stateMutability": "nonpayable",
      "type": "function"
    },
    {
      "inputs": [],
      "name": "escrowContract",
      "outputs": [
        {
          "internalType": "contract IEscrow",
          "name": "",
          "type": "address"
        }
      ],
      "stateMutability": "view",
      "type": "function"
    },
    {
      "inputs": [],
      "name": "getAllCollectorRequests",
      "outputs": [
        {
          "internalType": "uint256[]",
          "name": "",
          "type": "uint256[]"
        }
      ],
      "stateMutability": "view",
      "type": "function"
    },
    {
      "inputs": [],
      "name": "getAllUserRequest",
      "outputs": [
        {
          "components": [
            {
              "internalType": "string",
              "name": "wasteType",
              "type": "string"
            },
            {
              "internalType": "uint256",
              "name": "id",
              "type": "uint256"
            },
            {
              "internalType": "uint256",
              "name": "escrowRequestID",
              "type": "uint256"
            },
            {
              "internalType": "uint256",
              "name": "amountPaid",
              "type": "uint256"
            },
            {
              "internalType": "uint32",
              "name": "weight",
              "type": "uint32"
            },
            {
              "internalType": "uint256",
              "name": "valuedAt",
              "type": "uint256"
            },
            {
              "internalType": "uint8",
              "name": "offerId",
              "type": "uint8"
            },
            {
              "internalType": "int32",
              "name": "longitude",
              "type": "int32"
            },
            {
              "internalType": "int32",
              "name": "latitude",
              "type": "int32"
            },
            {
              "internalType": "address",
              "name": "userAddress",
              "type": "address"
            },
            {
              "internalType": "bool",
              "name": "isCompleted",
              "type": "bool"
            },
            {
              "internalType": "enum GreenCycle.RequestStatus",
              "name": "status",
              "type": "uint8"
            },
            {
              "internalType": "address",
              "name": "recyclerAddress",
              "type": "address"
            },
            {
              "internalType": "address",
              "name": "assignedCollector",
              "type": "address"
            },
            {
              "internalType": "bool",
              "name": "isAccepted",
              "type": "bool"
            },
            {
              "internalType": "uint256",
              "name": "totalWasteRequest",
              "type": "uint256"
            },
            {
              "internalType": "uint256",
              "name": "totalAmountSpent",
              "type": "uint256"
            },
            {
              "internalType": "uint256",
              "name": "totalWasteCollectedInKgs",
              "type": "uint256"
            }
          ],
          "internalType": "struct GreenCycle.WasteCollectionRequest[]",
          "name": "",
          "type": "tuple[]"
        }
      ],
      "stateMutability": "view",
      "type": "function"
    },
    {
      "inputs": [
        {
          "internalType": "address",
          "name": "_addr",
          "type": "address"
        }
      ],
      "name": "getAllUserRequests",
      "outputs": [
        {
          "components": [
            {
              "internalType": "string",
              "name": "wasteType",
              "type": "string"
            },
            {
              "internalType": "uint256",
              "name": "id",
              "type": "uint256"
            },
            {
              "internalType": "uint256",
              "name": "escrowRequestID",
              "type": "uint256"
            },
            {
              "internalType": "uint256",
              "name": "amountPaid",
              "type": "uint256"
            },
            {
              "internalType": "uint32",
              "name": "weight",
              "type": "uint32"
            },
            {
              "internalType": "uint256",
              "name": "valuedAt",
              "type": "uint256"
            },
            {
              "internalType": "uint8",
              "name": "offerId",
              "type": "uint8"
            },
            {
              "internalType": "int32",
              "name": "longitude",
              "type": "int32"
            },
            {
              "internalType": "int32",
              "name": "latitude",
              "type": "int32"
            },
            {
              "internalType": "address",
              "name": "userAddress",
              "type": "address"
            },
            {
              "internalType": "bool",
              "name": "isCompleted",
              "type": "bool"
            },
            {
              "internalType": "enum GreenCycle.RequestStatus",
              "name": "status",
              "type": "uint8"
            },
            {
              "internalType": "address",
              "name": "recyclerAddress",
              "type": "address"
            },
            {
              "internalType": "address",
              "name": "assignedCollector",
              "type": "address"
            },
            {
              "internalType": "bool",
              "name": "isAccepted",
              "type": "bool"
            },
            {
              "internalType": "uint256",
              "name": "totalWasteRequest",
              "type": "uint256"
            },
            {
              "internalType": "uint256",
              "name": "totalAmountSpent",
              "type": "uint256"
            },
            {
              "internalType": "uint256",
              "name": "totalWasteCollectedInKgs",
              "type": "uint256"
            }
          ],
          "internalType": "struct GreenCycle.WasteCollectionRequest[]",
          "name": "",
          "type": "tuple[]"
        }
      ],
      "stateMutability": "view",
      "type": "function"
    },
    {
      "inputs": [
        {
          "internalType": "address",
          "name": "_address",
          "type": "address"
        }
      ],
      "name": "getCollector",
      "outputs": [
        {
          "components": [
            {
              "internalType": "uint256",
              "name": "id",
              "type": "uint256"
            },
            {
              "internalType": "string",
              "name": "name",
              "type": "string"
            },
            {
              "internalType": "address",
              "name": "collectorAddress",
              "type": "address"
            },
            {
              "internalType": "string",
              "name": "contact",
              "type": "string"
            },
            {
              "internalType": "uint256",
              "name": "numberOfWasteCollected",
              "type": "uint256"
            },
            {
              "internalType": "bool",
              "name": "isAvailable",
              "type": "bool"
            }
          ],
          "internalType": "struct GreenCycle.Collector",
          "name": "",
          "type": "tuple"
        }
      ],
      "stateMutability": "view",
      "type": "function"
    },
    {
      "inputs": [
        {
          "internalType": "uint256",
          "name": "id",
          "type": "uint256"
        }
      ],
      "name": "getRecyclerById",
      "outputs": [
        {
          "components": [
            {
              "internalType": "uint256",
              "name": "id",
              "type": "uint256"
            },
            {
              "internalType": "address",
              "name": "recyclerAddress",
              "type": "address"
            },
            {
              "internalType": "string",
              "name": "location",
              "type": "string"
            },
            {
              "internalType": "uint256",
              "name": "rating",
              "type": "uint256"
            },
            {
              "internalType": "bool",
              "name": "isRegistered",
              "type": "bool"
            }
          ],
          "internalType": "struct GreenCycle.Recycler",
          "name": "",
          "type": "tuple"
        }
      ],
      "stateMutability": "view",
      "type": "function"
    },
    {
      "inputs": [
        {
          "internalType": "address",
          "name": "_recyclerAddress",
          "type": "address"
        }
      ],
      "name": "getRecyclerCollectors",
      "outputs": [
        {
          "components": [
            {
              "internalType": "uint256",
              "name": "id",
              "type": "uint256"
            },
            {
              "internalType": "string",
              "name": "name",
              "type": "string"
            },
            {
              "internalType": "address",
              "name": "collectorAddress",
              "type": "address"
            },
            {
              "internalType": "string",
              "name": "contact",
              "type": "string"
            },
            {
              "internalType": "uint256",
              "name": "numberOfWasteCollected",
              "type": "uint256"
            },
            {
              "internalType": "bool",
              "name": "isAvailable",
              "type": "bool"
            }
          ],
          "internalType": "struct GreenCycle.Collector[]",
          "name": "",
          "type": "tuple[]"
        }
      ],
      "stateMutability": "view",
      "type": "function"
    },
    {
      "inputs": [
        {
          "internalType": "uint256",
          "name": "_id",
          "type": "uint256"
        }
      ],
      "name": "getRecyclerOffers",
      "outputs": [
        {
          "components": [
            {
              "internalType": "uint256",
              "name": "offerId",
              "type": "uint256"
            },
            {
              "internalType": "string",
              "name": "name",
              "type": "string"
            },
            {
              "internalType": "address",
              "name": "recyclerAddress",
              "type": "address"
            },
            {
              "internalType": "uint256",
              "name": "recyclerId",
              "type": "uint256"
            },
            {
              "internalType": "uint256",
              "name": "pricePerKg",
              "type": "uint256"
            },
            {
              "internalType": "uint256",
              "name": "minQuantity",
              "type": "uint256"
            }
          ],
          "internalType": "struct GreenCycle.Offer[]",
          "name": "",
          "type": "tuple[]"
        }
      ],
      "stateMutability": "view",
      "type": "function"
    },
    {
      "inputs": [
        {
          "internalType": "uint256",
          "name": "_recyclerId",
          "type": "uint256"
        }
      ],
      "name": "getRecyclerRequests",
      "outputs": [
        {
          "components": [
            {
              "internalType": "string",
              "name": "wasteType",
              "type": "string"
            },
            {
              "internalType": "uint256",
              "name": "id",
              "type": "uint256"
            },
            {
              "internalType": "uint256",
              "name": "escrowRequestID",
              "type": "uint256"
            },
            {
              "internalType": "uint256",
              "name": "amountPaid",
              "type": "uint256"
            },
            {
              "internalType": "uint32",
              "name": "weight",
              "type": "uint32"
            },
            {
              "internalType": "uint256",
              "name": "valuedAt",
              "type": "uint256"
            },
            {
              "internalType": "uint8",
              "name": "offerId",
              "type": "uint8"
            },
            {
              "internalType": "int32",
              "name": "longitude",
              "type": "int32"
            },
            {
              "internalType": "int32",
              "name": "latitude",
              "type": "int32"
            },
            {
              "internalType": "address",
              "name": "userAddress",
              "type": "address"
            },
            {
              "internalType": "bool",
              "name": "isCompleted",
              "type": "bool"
            },
            {
              "internalType": "enum GreenCycle.RequestStatus",
              "name": "status",
              "type": "uint8"
            },
            {
              "internalType": "address",
              "name": "recyclerAddress",
              "type": "address"
            },
            {
              "internalType": "address",
              "name": "assignedCollector",
              "type": "address"
            },
            {
              "internalType": "bool",
              "name": "isAccepted",
              "type": "bool"
            },
            {
              "internalType": "uint256",
              "name": "totalWasteRequest",
              "type": "uint256"
            },
            {
              "internalType": "uint256",
              "name": "totalAmountSpent",
              "type": "uint256"
            },
            {
              "internalType": "uint256",
              "name": "totalWasteCollectedInKgs",
              "type": "uint256"
            }
          ],
          "internalType": "struct GreenCycle.WasteCollectionRequest[]",
          "name": "",
          "type": "tuple[]"
        }
      ],
      "stateMutability": "view",
      "type": "function"
    },
    {
      "inputs": [
        {
          "internalType": "address",
          "name": "_userAddress",
          "type": "address"
        }
      ],
      "name": "getUser",
      "outputs": [
        {
          "components": [
            {
              "internalType": "uint256",
              "name": "id",
              "type": "uint256"
            },
            {
              "internalType": "address",
              "name": "userAddress",
              "type": "address"
            },
            {
              "components": [
                {
                  "internalType": "int32",
                  "name": "latitude",
                  "type": "int32"
                },
                {
                  "internalType": "int32",
                  "name": "longitude",
                  "type": "int32"
                }
              ],
              "internalType": "struct GreenCycle.Coordinates",
              "name": "location",
              "type": "tuple"
            },
            {
              "internalType": "bool",
              "name": "isRegistered",
              "type": "bool"
            },
            {
              "internalType": "uint256",
              "name": "totalWasteSubmited",
              "type": "uint256"
            },
            {
              "internalType": "uint256",
              "name": "totalReward",
              "type": "uint256"
            }
          ],
          "internalType": "struct GreenCycle.User",
          "name": "",
          "type": "tuple"
        }
      ],
      "stateMutability": "view",
      "type": "function"
    },
    {
      "inputs": [
        {
          "internalType": "address",
          "name": "_userAddress",
          "type": "address"
        }
      ],
      "name": "getUserRole",
      "outputs": [
        {
          "internalType": "string",
          "name": "role",
          "type": "string"
        },
        {
          "internalType": "uint256",
          "name": "id",
          "type": "uint256"
        },
        {
          "internalType": "address",
          "name": "addr",
          "type": "address"
        },
        {
          "internalType": "int32",
          "name": "latitude",
          "type": "int32"
        },
        {
          "internalType": "int32",
          "name": "longitude",
          "type": "int32"
        },
        {
          "internalType": "string",
          "name": "location",
          "type": "string"
        },
        {
          "internalType": "bool",
          "name": "isRegistered",
          "type": "bool"
        }
      ],
      "stateMutability": "view",
      "type": "function"
    },
    {
      "inputs": [
        {
          "internalType": "uint256",
          "name": "_recyclerId",
          "type": "uint256"
        },
        {
          "internalType": "uint8",
          "name": "_offerId",
          "type": "uint8"
        },
        {
          "internalType": "uint32",
          "name": "_weight",
          "type": "uint32"
        },
        {
          "internalType": "uint256",
          "name": "_price",
          "type": "uint256"
        },
        {
          "internalType": "int32",
          "name": "_latitude",
          "type": "int32"
        },
        {
          "internalType": "int32",
          "name": "_longitude",
          "type": "int32"
        }
      ],
      "name": "makeRequest",
      "outputs": [],
      "stateMutability": "nonpayable",
      "type": "function"
    },
    {
      "inputs": [
        {
          "internalType": "address",
          "name": "_addr",
          "type": "address"
        }
      ],
      "name": "recyclerOffers",
      "outputs": [
        {
          "components": [
            {
              "internalType": "uint256",
              "name": "offerId",
              "type": "uint256"
            },
            {
              "internalType": "string",
              "name": "name",
              "type": "string"
            },
            {
              "internalType": "address",
              "name": "recyclerAddress",
              "type": "address"
            },
            {
              "internalType": "uint256",
              "name": "recyclerId",
              "type": "uint256"
            },
            {
              "internalType": "uint256",
              "name": "pricePerKg",
              "type": "uint256"
            },
            {
              "internalType": "uint256",
              "name": "minQuantity",
              "type": "uint256"
            }
          ],
          "internalType": "struct GreenCycle.Offer[]",
          "name": "",
          "type": "tuple[]"
        }
      ],
      "stateMutability": "view",
      "type": "function"
    },
    {
      "inputs": [
        {
          "internalType": "address",
          "name": "_address",
          "type": "address"
        }
      ],
      "name": "recyclers",
      "outputs": [
        {
          "components": [
            {
              "internalType": "uint256",
              "name": "id",
              "type": "uint256"
            },
            {
              "internalType": "address",
              "name": "recyclerAddress",
              "type": "address"
            },
            {
              "internalType": "string",
              "name": "location",
              "type": "string"
            },
            {
              "internalType": "uint256",
              "name": "rating",
              "type": "uint256"
            },
            {
              "internalType": "bool",
              "name": "isRegistered",
              "type": "bool"
            }
          ],
          "internalType": "struct GreenCycle.Recycler",
          "name": "",
          "type": "tuple"
        }
      ],
      "stateMutability": "view",
      "type": "function"
    },
    {
      "inputs": [],
      "name": "seeAllRecyclers",
      "outputs": [
        {
          "components": [
            {
              "internalType": "uint256",
              "name": "id",
              "type": "uint256"
            },
            {
              "internalType": "address",
              "name": "recyclerAddress",
              "type": "address"
            },
            {
              "internalType": "string",
              "name": "location",
              "type": "string"
            },
            {
              "internalType": "uint256",
              "name": "rating",
              "type": "uint256"
            },
            {
              "internalType": "bool",
              "name": "isRegistered",
              "type": "bool"
            }
          ],
          "internalType": "struct GreenCycle.Recycler[]",
          "name": "",
          "type": "tuple[]"
        }
      ],
      "stateMutability": "view",
      "type": "function"
    },
    {
      "inputs": [
        {
          "internalType": "uint256",
          "name": "_requestID",
          "type": "uint256"
        }
      ],
      "name": "showRequest",
      "outputs": [
        {
          "components": [
            {
              "internalType": "string",
              "name": "wasteType",
              "type": "string"
            },
            {
              "internalType": "uint256",
              "name": "id",
              "type": "uint256"
            },
            {
              "internalType": "uint256",
              "name": "escrowRequestID",
              "type": "uint256"
            },
            {
              "internalType": "uint256",
              "name": "amountPaid",
              "type": "uint256"
            },
            {
              "internalType": "uint32",
              "name": "weight",
              "type": "uint32"
            },
            {
              "internalType": "uint256",
              "name": "valuedAt",
              "type": "uint256"
            },
            {
              "internalType": "uint8",
              "name": "offerId",
              "type": "uint8"
            },
            {
              "internalType": "int32",
              "name": "longitude",
              "type": "int32"
            },
            {
              "internalType": "int32",
              "name": "latitude",
              "type": "int32"
            },
            {
              "internalType": "address",
              "name": "userAddress",
              "type": "address"
            },
            {
              "internalType": "bool",
              "name": "isCompleted",
              "type": "bool"
            },
            {
              "internalType": "enum GreenCycle.RequestStatus",
              "name": "status",
              "type": "uint8"
            },
            {
              "internalType": "address",
              "name": "recyclerAddress",
              "type": "address"
            },
            {
              "internalType": "address",
              "name": "assignedCollector",
              "type": "address"
            },
            {
              "internalType": "bool",
              "name": "isAccepted",
              "type": "bool"
            },
            {
              "internalType": "uint256",
              "name": "totalWasteRequest",
              "type": "uint256"
            },
            {
              "internalType": "uint256",
              "name": "totalAmountSpent",
              "type": "uint256"
            },
            {
              "internalType": "uint256",
              "name": "totalWasteCollectedInKgs",
              "type": "uint256"
            }
          ],
          "internalType": "struct GreenCycle.WasteCollectionRequest",
          "name": "",
          "type": "tuple"
        }
      ],
      "stateMutability": "view",
      "type": "function"
    },
    {
      "inputs": [
        {
          "internalType": "uint256",
          "name": "_offerId",
          "type": "uint256"
        },
        {
          "internalType": "string",
          "name": "_name",
          "type": "string"
        },
        {
          "internalType": "address",
          "name": "_recyclerAddress",
          "type": "address"
        },
        {
          "internalType": "uint256",
          "name": "_pricePerKg",
          "type": "uint256"
        },
        {
          "internalType": "uint256",
          "name": "_minQuantity",
          "type": "uint256"
        }
      ],
      "name": "updateOffer",
      "outputs": [
        {
          "components": [
            {
              "internalType": "uint256",
              "name": "offerId",
              "type": "uint256"
            },
            {
              "internalType": "string",
              "name": "name",
              "type": "string"
            },
            {
              "internalType": "address",
              "name": "recyclerAddress",
              "type": "address"
            },
            {
              "internalType": "uint256",
              "name": "recyclerId",
              "type": "uint256"
            },
            {
              "internalType": "uint256",
              "name": "pricePerKg",
              "type": "uint256"
            },
            {
              "internalType": "uint256",
              "name": "minQuantity",
              "type": "uint256"
            }
          ],
          "internalType": "struct GreenCycle.Offer",
          "name": "",
          "type": "tuple"
        }
      ],
      "stateMutability": "nonpayable",
      "type": "function"
    },
    {
      "inputs": [
        {
          "internalType": "uint256",
          "name": "_requestID",
          "type": "uint256"
        }
      ],
      "name": "userCancelRequest",
      "outputs": [],
      "stateMutability": "nonpayable",
      "type": "function"
    },
    {
      "inputs": [
        {
          "internalType": "address",
          "name": "_recyclerAddress",
          "type": "address"
        },
        {
          "internalType": "uint256",
          "name": "_offerId",
          "type": "uint256"
        }
      ],
      "name": "viewOffer",
      "outputs": [
        {
          "components": [
            {
              "internalType": "uint256",
              "name": "offerId",
              "type": "uint256"
            },
            {
              "internalType": "string",
              "name": "name",
              "type": "string"
            },
            {
              "internalType": "address",
              "name": "recyclerAddress",
              "type": "address"
            },
            {
              "internalType": "uint256",
              "name": "recyclerId",
              "type": "uint256"
            },
            {
              "internalType": "uint256",
              "name": "pricePerKg",
              "type": "uint256"
            },
            {
              "internalType": "uint256",
              "name": "minQuantity",
              "type": "uint256"
            }
          ],
          "internalType": "struct GreenCycle.Offer",
          "name": "",
          "type": "tuple"
        }
      ],
      "stateMutability": "view",
      "type": "function"
    },
    {
      "inputs": [],
      "name": "withdrawFunds",
      "outputs": [],
      "stateMutability": "nonpayable",
      "type": "function"
    },
    {
      "stateMutability": "payable",
      "type": "receive"
    }
  ],
  "bytecode": "0x60806040523480156200001157600080fd5b5060405162004c3738038062004c37833981810160405281019062000037919062000129565b806000806101000a81548173ffffffffffffffffffffffffffffffffffffffff021916908373ffffffffffffffffffffffffffffffffffffffff16021790555033600160006101000a81548173ffffffffffffffffffffffffffffffffffffffff021916908373ffffffffffffffffffffffffffffffffffffffff160217905550506200015b565b600080fd5b600073ffffffffffffffffffffffffffffffffffffffff82169050919050565b6000620000f182620000c4565b9050919050565b6200010381620000e4565b81146200010f57600080fd5b50565b6000815190506200012381620000f8565b92915050565b600060208284031215620001425762000141620000bf565b5b6000620001528482850162000112565b91505092915050565b614acc806200016b6000396000f3fe6080604052600436106101855760003560e01c80637a3a9cbd116100d1578063af9dca071161008a578063ea150c8711610064578063ea150c8714610649578063eb73836a14610686578063ebc68418146106af578063f6556c2a146106ec576101c5565b8063af9dca07146105c5578063daba858a14610602578063e42a96e71461061e576101c5565b80637a3a9cbd146104b05780637a7bd4c2146104ed5780639be32e85146105185780639e05725214610543578063a6b2c43714610580578063a7fd1dbd1461059c576101c5565b80635959ae7b1161013e5780636f77926b116101185780636f77926b146103bc578063753cc977146103f9578063768b3f671461043657806377acab5714610473576101c5565b80635959ae7b146103175780635ccdd426146103545780636eebc5f314610391576101c5565b806301f1d458146102055780631e8d6bcf1461022e57806324600fc31461026b57806327820851146102825780632b5bb6a4146102c557806355490901146102ee576101c5565b366101c5577f98c44cd71a4f8250380570aaf8bf1f0fd2a19bc3428a18a782e9e4d6c1928b1333346040516101bb9291906125c4565b60405180910390a1005b7f20b9b3489992921b2007700aa9859d96f2e511d719c19c44fbf72becb1e356d933346000366040516101fb949392919061264b565b60405180910390a1005b34801561021157600080fd5b5061022c600480360381019061022791906127f1565b61072c565b005b34801561023a57600080fd5b50610255600480360381019061025091906128a8565b61079c565b6040516102629190612a03565b60405180910390f35b34801561027757600080fd5b50610280610828565b005b34801561028e57600080fd5b506102a960048036038101906102a49190612a25565b610998565b6040516102bc9796959493929190612ac7565b60405180910390f35b3480156102d157600080fd5b506102ec60048036038101906102e79190612be5565b610a3a565b005b3480156102fa57600080fd5b50610315600480360381019061031091906128a8565b610ab3565b005b34801561032357600080fd5b5061033e60048036038101906103399190612c72565b610b1d565b60405161034b9190612d92565b60405180910390f35b34801561036057600080fd5b5061037b600480360381019061037691906128a8565b610bb5565b6040516103889190612fda565b60405180910390f35b34801561039d57600080fd5b506103a6610f0c565b6040516103b39190613240565b60405180910390f35b3480156103c857600080fd5b506103e360048036038101906103de9190612a25565b611280565b6040516103f0919061330c565b60405180910390f35b34801561040557600080fd5b50610420600480360381019061041b9190613327565b611307565b60405161042d9190612d92565b60405180910390f35b34801561044257600080fd5b5061045d60048036038101906104589190612a25565b611396565b60405161046a91906134b9565b60405180910390f35b34801561047f57600080fd5b5061049a600480360381019061049591906128a8565b61141c565b6040516104a79190613626565b60405180910390f35b3480156104bc57600080fd5b506104d760048036038101906104d29190612a25565b6114a2565b6040516104e49190612a03565b60405180910390f35b3480156104f957600080fd5b50610502611621565b60405161050f9190613780565b60405180910390f35b34801561052457600080fd5b5061052d61169a565b60405161053a9190613851565b60405180910390f35b34801561054f57600080fd5b5061056a60048036038101906105659190612a25565b611713565b6040516105779190613903565b60405180910390f35b61059a600480360381019061059591906128a8565b61179f565b005b3480156105a857600080fd5b506105c360048036038101906105be9190613925565b61182b565b005b3480156105d157600080fd5b506105ec60048036038101906105e791906128a8565b61189b565b6040516105f99190613240565b60405180910390f35b61061c60048036038101906106179190613994565b611be5565b005b34801561062a57600080fd5b50610633611c76565b6040516106409190613a33565b60405180910390f35b34801561065557600080fd5b50610670600480360381019061066b9190612a25565b611c9a565b60405161067d9190613240565b60405180910390f35b34801561069257600080fd5b506106ad60048036038101906106a891906128a8565b612010565b005b3480156106bb57600080fd5b506106d660048036038101906106d19190612a25565b61209c565b6040516106e39190613626565b60405180910390f35b3480156106f857600080fd5b50610713600480360381019061070e9190613a4e565b612259565b6040516107239493929190613ad1565b60405180910390f35b73__$cfc12a62ee422e8fec11e61282c8e0deab$__6301f1d4588484846040518463ffffffff1660e01b815260040161076793929190613b76565b60006040518083038186803b15801561077f57600080fd5b505af4158015610793573d6000803e3d6000fd5b50505050505050565b6107a4612323565b73__$af85ca67d5a286deac57543c12f2a1ab50$__631e8d6bcf836040518263ffffffff1660e01b81526004016107db9190613bca565b600060405180830381865af41580156107f8573d6000803e3d6000fd5b505050506040513d6000823e3d601f19601f820116820180604052508101906108219190613d5d565b9050919050565b600160009054906101000a900473ffffffffffffffffffffffffffffffffffffffff1673ffffffffffffffffffffffffffffffffffffffff163373ffffffffffffffffffffffffffffffffffffffff16146108b8576040517f08c379a00000000000000000000000000000000000000000000000000000000081526004016108af90613df2565b60405180910390fd5b600047905060008103610900576040517f08c379a00000000000000000000000000000000000000000000000000000000081526004016108f790613e84565b60405180910390fd5b3373ffffffffffffffffffffffffffffffffffffffff166108fc829081150290604051600060405180830381858888f19350505050158015610946573d6000803e3d6000fd5b503373ffffffffffffffffffffffffffffffffffffffff167feaff4b37086828766ad3268786972c0cd24259d4c87a80f9d3963a3c3d999b0d8260405161098d9190613ea4565b60405180910390a250565b60606000806000806060600073__$0e66d9a957af3e9052f384398e43d1f7b4$__6327820851896040518263ffffffff1660e01b81526004016109db9190613ebf565b600060405180830381865af41580156109f8573d6000803e3d6000fd5b505050506040513d6000823e3d601f19601f82011682018060405250810190610a219190613eef565b9650965096509650965096509650919395979092949650565b73__$f3280732c64036b4961117660a4480a333$__632b5bb6a48787878787876040518763ffffffff1660e01b8152600401610a7b96959493929190613ff6565b60006040518083038186803b158015610a9357600080fd5b505af4158015610aa7573d6000803e3d6000fd5b50505050505050505050565b73__$f3280732c64036b4961117660a4480a333$__6355490901826040518263ffffffff1660e01b8152600401610aea9190613bca565b60006040518083038186803b158015610b0257600080fd5b505af4158015610b16573d6000803e3d6000fd5b5050505050565b610b2561236a565b73__$af85ca67d5a286deac57543c12f2a1ab50$__635959ae7b87878787876040518663ffffffff1660e01b8152600401610b64959493929190614057565b600060405180830381865af4158015610b81573d6000803e3d6000fd5b505050506040513d6000823e3d601f19601f82011682018060405250810190610baa919061416d565b905095945050505050565b610bbd6123b6565b6000610bc76122f6565b9050600081600c0160008581526020019081526020016000206001015403610c1b576040517f9e9468f300000000000000000000000000000000000000000000000000000000815260040160405180910390fd5b80600c01600084815260200190815260200160002060405180610240016040529081600082018054610c4c906141e5565b80601f0160208091040260200160405190810160405280929190818152602001828054610c78906141e5565b8015610cc55780601f10610c9a57610100808354040283529160200191610cc5565b820191906000526020600020905b815481529060010190602001808311610ca857829003601f168201915b505050505081526020016001820154815260200160028201548152602001600382015481526020016004820160009054906101000a900463ffffffff1663ffffffff1663ffffffff168152602001600582015481526020016006820160009054906101000a900460ff1660ff1660ff1681526020016006820160019054906101000a900460030b60030b60030b81526020016006820160059054906101000a900460030b60030b60030b81526020016006820160099054906101000a900473ffffffffffffffffffffffffffffffffffffffff1673ffffffffffffffffffffffffffffffffffffffff1673ffffffffffffffffffffffffffffffffffffffff16815260200160068201601d9054906101000a900460ff1615151515815260200160068201601e9054906101000a900460ff166003811115610e0957610e08612de1565b5b6003811115610e1b57610e1a612de1565b5b81526020016007820160009054906101000a900473ffffffffffffffffffffffffffffffffffffffff1673ffffffffffffffffffffffffffffffffffffffff1673ffffffffffffffffffffffffffffffffffffffff1681526020016008820160009054906101000a900473ffffffffffffffffffffffffffffffffffffffff1673ffffffffffffffffffffffffffffffffffffffff1673ffffffffffffffffffffffffffffffffffffffff1681526020016008820160149054906101000a900460ff1615151515815260200160098201548152602001600a8201548152602001600b82015481525050915050919050565b60606000610f186122f6565b905080600d0160003373ffffffffffffffffffffffffffffffffffffffff1673ffffffffffffffffffffffffffffffffffffffff168152602001908152602001600020805480602002602001604051908101604052809291908181526020016000905b8282101561127657838290600052602060002090600c020160405180610240016040529081600082018054610faf906141e5565b80601f0160208091040260200160405190810160405280929190818152602001828054610fdb906141e5565b80156110285780601f10610ffd57610100808354040283529160200191611028565b820191906000526020600020905b81548152906001019060200180831161100b57829003601f168201915b505050505081526020016001820154815260200160028201548152602001600382015481526020016004820160009054906101000a900463ffffffff1663ffffffff1663ffffffff168152602001600582015481526020016006820160009054906101000a900460ff1660ff1660ff1681526020016006820160019054906101000a900460030b60030b60030b81526020016006820160059054906101000a900460030b60030b60030b81526020016006820160099054906101000a900473ffffffffffffffffffffffffffffffffffffffff1673ffffffffffffffffffffffffffffffffffffffff1673ffffffffffffffffffffffffffffffffffffffff16815260200160068201601d9054906101000a900460ff1615151515815260200160068201601e9054906101000a900460ff16600381111561116c5761116b612de1565b5b600381111561117e5761117d612de1565b5b81526020016007820160009054906101000a900473ffffffffffffffffffffffffffffffffffffffff1673ffffffffffffffffffffffffffffffffffffffff1673ffffffffffffffffffffffffffffffffffffffff1681526020016008820160009054906101000a900473ffffffffffffffffffffffffffffffffffffffff1673ffffffffffffffffffffffffffffffffffffffff1673ffffffffffffffffffffffffffffffffffffffff1681526020016008820160149054906101000a900460ff1615151515815260200160098201548152602001600a8201548152602001600b8201548152505081526020019060010190610f7b565b5050505091505090565b6112886124a8565b73__$0e66d9a957af3e9052f384398e43d1f7b4$__636f77926b836040518263ffffffff1660e01b81526004016112bf9190613ebf565b60e060405180830381865af41580156112dc573d6000803e3d6000fd5b505050506040513d601f19601f820116820180604052508101906113009190614306565b9050919050565b61130f61236a565b73__$af85ca67d5a286deac57543c12f2a1ab50$__63753cc97784846040518363ffffffff1660e01b8152600401611348929190614333565b600060405180830381865af4158015611365573d6000803e3d6000fd5b505050506040513d6000823e3d601f19601f8201168201806040525081019061138e919061416d565b905092915050565b606073__$cfc12a62ee422e8fec11e61282c8e0deab$__63768b3f67836040518263ffffffff1660e01b81526004016113cf9190613ebf565b600060405180830381865af41580156113ec573d6000803e3d6000fd5b505050506040513d6000823e3d601f19601f82011682018060405250810190611415919061451a565b9050919050565b606073__$af85ca67d5a286deac57543c12f2a1ab50$__6377acab57836040518263ffffffff1660e01b81526004016114559190613bca565b600060405180830381865af4158015611472573d6000803e3d6000fd5b505050506040513d6000823e3d601f19601f8201168201806040525081019061149b9190614644565b9050919050565b6114aa612323565b60006114b46122f6565b90508060050160008473ffffffffffffffffffffffffffffffffffffffff1673ffffffffffffffffffffffffffffffffffffffff1681526020019081526020016000206040518060a0016040529081600082015481526020016001820160009054906101000a900473ffffffffffffffffffffffffffffffffffffffff1673ffffffffffffffffffffffffffffffffffffffff1673ffffffffffffffffffffffffffffffffffffffff168152602001600282018054611572906141e5565b80601f016020809104026020016040519081016040528092919081815260200182805461159e906141e5565b80156115eb5780601f106115c0576101008083540402835291602001916115eb565b820191906000526020600020905b8154815290600101906020018083116115ce57829003601f168201915b50505050508152602001600382015481526020016004820160009054906101000a900460ff161515151581525050915050919050565b606073__$af85ca67d5a286deac57543c12f2a1ab50$__637a7bd4c26040518163ffffffff1660e01b8152600401600060405180830381865af415801561166c573d6000803e3d6000fd5b505050506040513d6000823e3d601f19601f82011682018060405250810190611695919061476e565b905090565b606073__$f3280732c64036b4961117660a4480a333$__639be32e856040518163ffffffff1660e01b8152600401600060405180830381865af41580156116e5573d6000803e3d6000fd5b505050506040513d6000823e3d601f19601f8201168201806040525081019061170e919061487a565b905090565b61171b6124fc565b73__$cfc12a62ee422e8fec11e61282c8e0deab$__639e057252836040518263ffffffff1660e01b81526004016117529190613ebf565b600060405180830381865af415801561176f573d6000803e3d6000fd5b505050506040513d6000823e3d601f19601f8201168201806040525081019061179891906148c3565b9050919050565b73__$f3280732c64036b4961117660a4480a333$__635a4d79438260008054906101000a900473ffffffffffffffffffffffffffffffffffffffff166040518363ffffffff1660e01b81526004016117f892919061491b565b60006040518083038186803b15801561181057600080fd5b505af4158015611824573d6000803e3d6000fd5b5050505050565b73__$af85ca67d5a286deac57543c12f2a1ab50$__63a7fd1dbd8484846040518463ffffffff1660e01b815260040161186693929190614944565b60006040518083038186803b15801561187e57600080fd5b505af4158015611892573d6000803e3d6000fd5b50505050505050565b606060006118a76122f6565b905080600f016000848152602001908152602001600020805480602002602001604051908101604052809291908181526020016000905b82821015611bd957838290600052602060002090600c020160405180610240016040529081600082018054611912906141e5565b80601f016020809104026020016040519081016040528092919081815260200182805461193e906141e5565b801561198b5780601f106119605761010080835404028352916020019161198b565b820191906000526020600020905b81548152906001019060200180831161196e57829003601f168201915b505050505081526020016001820154815260200160028201548152602001600382015481526020016004820160009054906101000a900463ffffffff1663ffffffff1663ffffffff168152602001600582015481526020016006820160009054906101000a900460ff1660ff1660ff1681526020016006820160019054906101000a900460030b60030b60030b81526020016006820160059054906101000a900460030b60030b60030b81526020016006820160099054906101000a900473ffffffffffffffffffffffffffffffffffffffff1673ffffffffffffffffffffffffffffffffffffffff1673ffffffffffffffffffffffffffffffffffffffff16815260200160068201601d9054906101000a900460ff1615151515815260200160068201601e9054906101000a900460ff166003811115611acf57611ace612de1565b5b6003811115611ae157611ae0612de1565b5b81526020016007820160009054906101000a900473ffffffffffffffffffffffffffffffffffffffff1673ffffffffffffffffffffffffffffffffffffffff1673ffffffffffffffffffffffffffffffffffffffff1681526020016008820160009054906101000a900473ffffffffffffffffffffffffffffffffffffffff1673ffffffffffffffffffffffffffffffffffffffff1673ffffffffffffffffffffffffffffffffffffffff1681526020016008820160149054906101000a900460ff1615151515815260200160098201548152602001600a8201548152602001600b82015481525050815260200190600101906118de565b50505050915050919050565b73__$f3280732c64036b4961117660a4480a333$__6369d095f583833460008054906101000a900473ffffffffffffffffffffffffffffffffffffffff166040518563ffffffff1660e01b8152600401611c429493929190614982565b60006040518083038186803b158015611c5a57600080fd5b505af4158015611c6e573d6000803e3d6000fd5b505050505050565b60008054906101000a900473ffffffffffffffffffffffffffffffffffffffff1681565b60606000611ca66122f6565b905080600d0160008473ffffffffffffffffffffffffffffffffffffffff1673ffffffffffffffffffffffffffffffffffffffff168152602001908152602001600020805480602002602001604051908101604052809291908181526020016000905b8282101561200457838290600052602060002090600c020160405180610240016040529081600082018054611d3d906141e5565b80601f0160208091040260200160405190810160405280929190818152602001828054611d69906141e5565b8015611db65780601f10611d8b57610100808354040283529160200191611db6565b820191906000526020600020905b815481529060010190602001808311611d9957829003601f168201915b505050505081526020016001820154815260200160028201548152602001600382015481526020016004820160009054906101000a900463ffffffff1663ffffffff1663ffffffff168152602001600582015481526020016006820160009054906101000a900460ff1660ff1660ff1681526020016006820160019054906101000a900460030b60030b60030b81526020016006820160059054906101000a900460030b60030b60030b81526020016006820160099054906101000a900473ffffffffffffffffffffffffffffffffffffffff1673ffffffffffffffffffffffffffffffffffffffff1673ffffffffffffffffffffffffffffffffffffffff16815260200160068201601d9054906101000a900460ff1615151515815260200160068201601e9054906101000a900460ff166003811115611efa57611ef9612de1565b5b6003811115611f0c57611f0b612de1565b5b81526020016007820160009054906101000a900473ffffffffffffffffffffffffffffffffffffffff1673ffffffffffffffffffffffffffffffffffffffff1673ffffffffffffffffffffffffffffffffffffffff1681526020016008820160009054906101000a900473ffffffffffffffffffffffffffffffffffffffff1673ffffffffffffffffffffffffffffffffffffffff1673ffffffffffffffffffffffffffffffffffffffff1681526020016008820160149054906101000a900460ff1615151515815260200160098201548152602001600a8201548152602001600b8201548152505081526020019060010190611d09565b50505050915050919050565b73__$f3280732c64036b4961117660a4480a333$__639075b0a28260008054906101000a900473ffffffffffffffffffffffffffffffffffffffff166040518363ffffffff1660e01b815260040161206992919061491b565b60006040518083038186803b15801561208157600080fd5b505af4158015612095573d6000803e3d6000fd5b5050505050565b606060006120a86122f6565b90508060040160008473ffffffffffffffffffffffffffffffffffffffff1673ffffffffffffffffffffffffffffffffffffffff168152602001908152602001600020805480602002602001604051908101604052809291908181526020016000905b8282101561224d57838290600052602060002090600602016040518060c001604052908160008201548152602001600182018054612148906141e5565b80601f0160208091040260200160405190810160405280929190818152602001828054612174906141e5565b80156121c15780601f10612196576101008083540402835291602001916121c1565b820191906000526020600020905b8154815290600101906020018083116121a457829003601f168201915b505050505081526020016002820160009054906101000a900473ffffffffffffffffffffffffffffffffffffffff1673ffffffffffffffffffffffffffffffffffffffff1673ffffffffffffffffffffffffffffffffffffffff16815260200160038201548152602001600482015481526020016005820154815250508152602001906001019061210b565b50505050915050919050565b6000806060600073__$af85ca67d5a286deac57543c12f2a1ab50$__63f6556c2a898989896040518563ffffffff1660e01b815260040161229d94939291906149c7565b600060405180830381865af41580156122ba573d6000803e3d6000fd5b505050506040513d6000823e3d601f19601f820116820180604052508101906122e39190614a13565b9350935093509350945094509450949050565b6000807f3fc430cf53a7ea36e25a560ef7d768c9bb7c830bb49f736b17223d7ae06aaa1c90508091505090565b6040518060a0016040528060008152602001600073ffffffffffffffffffffffffffffffffffffffff16815260200160608152602001600081526020016000151581525090565b6040518060c001604052806000815260200160608152602001600073ffffffffffffffffffffffffffffffffffffffff1681526020016000815260200160008152602001600081525090565b60405180610240016040528060608152602001600081526020016000815260200160008152602001600063ffffffff16815260200160008152602001600060ff168152602001600060030b8152602001600060030b8152602001600073ffffffffffffffffffffffffffffffffffffffff1681526020016000151581526020016000600381111561244a57612449612de1565b5b8152602001600073ffffffffffffffffffffffffffffffffffffffff168152602001600073ffffffffffffffffffffffffffffffffffffffff1681526020016000151581526020016000815260200160008152602001600081525090565b6040518060c0016040528060008152602001600073ffffffffffffffffffffffffffffffffffffffff1681526020016124df61254a565b815260200160001515815260200160008152602001600081525090565b6040518060c001604052806000815260200160608152602001600073ffffffffffffffffffffffffffffffffffffffff16815260200160608152602001600081526020016000151581525090565b6040518060400160405280600060030b8152602001600060030b81525090565b600073ffffffffffffffffffffffffffffffffffffffff82169050919050565b60006125958261256a565b9050919050565b6125a58161258a565b82525050565b6000819050919050565b6125be816125ab565b82525050565b60006040820190506125d9600083018561259c565b6125e660208301846125b5565b9392505050565b600082825260208201905092915050565b82818337600083830152505050565b6000601f19601f8301169050919050565b600061262a83856125ed565b93506126378385846125fe565b6126408361260d565b840190509392505050565b6000606082019050612660600083018761259c565b61266d60208301866125b5565b818103604083015261268081848661261e565b905095945050505050565b6000604051905090565b600080fd5b600080fd5b6126a88161258a565b81146126b357600080fd5b50565b6000813590506126c58161269f565b92915050565b600080fd5b600080fd5b7f4e487b7100000000000000000000000000000000000000000000000000000000600052604160045260246000fd5b61270d8261260d565b810181811067ffffffffffffffff8211171561272c5761272b6126d5565b5b80604052505050565b600061273f61268b565b905061274b8282612704565b919050565b600067ffffffffffffffff82111561276b5761276a6126d5565b5b6127748261260d565b9050602081019050919050565b600061279461278f84612750565b612735565b9050828152602081018484840111156127b0576127af6126d0565b5b6127bb8482856125fe565b509392505050565b600082601f8301126127d8576127d76126cb565b5b81356127e8848260208601612781565b91505092915050565b60008060006060848603121561280a57612809612695565b5b6000612818868287016126b6565b935050602084013567ffffffffffffffff8111156128395761283861269a565b5b612845868287016127c3565b925050604084013567ffffffffffffffff8111156128665761286561269a565b5b612872868287016127c3565b9150509250925092565b612885816125ab565b811461289057600080fd5b50565b6000813590506128a28161287c565b92915050565b6000602082840312156128be576128bd612695565b5b60006128cc84828501612893565b91505092915050565b6128de816125ab565b82525050565b6128ed8161258a565b82525050565b600081519050919050565b600082825260208201905092915050565b60005b8381101561292d578082015181840152602081019050612912565b60008484015250505050565b6000612944826128f3565b61294e81856128fe565b935061295e81856020860161290f565b6129678161260d565b840191505092915050565b60008115159050919050565b61298781612972565b82525050565b600060a0830160008301516129a560008601826128d5565b5060208301516129b860208601826128e4565b50604083015184820360408601526129d08282612939565b91505060608301516129e560608601826128d5565b5060808301516129f8608086018261297e565b508091505092915050565b60006020820190508181036000830152612a1d818461298d565b905092915050565b600060208284031215612a3b57612a3a612695565b5b6000612a49848285016126b6565b91505092915050565b600082825260208201905092915050565b6000612a6e826128f3565b612a788185612a52565b9350612a8881856020860161290f565b612a918161260d565b840191505092915050565b60008160030b9050919050565b612ab281612a9c565b82525050565b612ac181612972565b82525050565b600060e0820190508181036000830152612ae1818a612a63565b9050612af060208301896125b5565b612afd604083018861259c565b612b0a6060830187612aa9565b612b176080830186612aa9565b81810360a0830152612b298185612a63565b9050612b3860c0830184612ab8565b98975050505050505050565b600060ff82169050919050565b612b5a81612b44565b8114612b6557600080fd5b50565b600081359050612b7781612b51565b92915050565b600063ffffffff82169050919050565b612b9681612b7d565b8114612ba157600080fd5b50565b600081359050612bb381612b8d565b92915050565b612bc281612a9c565b8114612bcd57600080fd5b50565b600081359050612bdf81612bb9565b92915050565b60008060008060008060c08789031215612c0257612c01612695565b5b6000612c1089828a01612893565b9650506020612c2189828a01612b68565b9550506040612c3289828a01612ba4565b9450506060612c4389828a01612893565b9350506080612c5489828a01612bd0565b92505060a0612c6589828a01612bd0565b9150509295509295509295565b600080600080600060a08688031215612c8e57612c8d612695565b5b6000612c9c88828901612893565b955050602086013567ffffffffffffffff811115612cbd57612cbc61269a565b5b612cc9888289016127c3565b9450506040612cda888289016126b6565b9350506060612ceb88828901612893565b9250506080612cfc88828901612893565b9150509295509295909350565b600060c083016000830151612d2160008601826128d5565b5060208301518482036020860152612d398282612939565b9150506040830151612d4e60408601826128e4565b506060830151612d6160608601826128d5565b506080830151612d7460808601826128d5565b5060a0830151612d8760a08601826128d5565b508091505092915050565b60006020820190508181036000830152612dac8184612d09565b905092915050565b612dbd81612b7d565b82525050565b612dcc81612b44565b82525050565b612ddb81612a9c565b82525050565b7f4e487b7100000000000000000000000000000000000000000000000000000000600052602160045260246000fd5b60048110612e2157612e20612de1565b5b50565b6000819050612e3282612e10565b919050565b6000612e4282612e24565b9050919050565b612e5281612e37565b82525050565b6000610240830160008301518482036000860152612e768282612939565b9150506020830151612e8b60208601826128d5565b506040830151612e9e60408601826128d5565b506060830151612eb160608601826128d5565b506080830151612ec46080860182612db4565b5060a0830151612ed760a08601826128d5565b5060c0830151612eea60c0860182612dc3565b5060e0830151612efd60e0860182612dd2565b50610100830151612f12610100860182612dd2565b50610120830151612f276101208601826128e4565b50610140830151612f3c61014086018261297e565b50610160830151612f51610160860182612e49565b50610180830151612f666101808601826128e4565b506101a0830151612f7b6101a08601826128e4565b506101c0830151612f906101c086018261297e565b506101e0830151612fa56101e08601826128d5565b50610200830151612fba6102008601826128d5565b50610220830151612fcf6102208601826128d5565b508091505092915050565b60006020820190508181036000830152612ff48184612e58565b905092915050565b600081519050919050565b600082825260208201905092915050565b6000819050602082019050919050565b60006102408301600083015184820360008601526130468282612939565b915050602083015161305b60208601826128d5565b50604083015161306e60408601826128d5565b50606083015161308160608601826128d5565b5060808301516130946080860182612db4565b5060a08301516130a760a08601826128d5565b5060c08301516130ba60c0860182612dc3565b5060e08301516130cd60e0860182612dd2565b506101008301516130e2610100860182612dd2565b506101208301516130f76101208601826128e4565b5061014083015161310c61014086018261297e565b50610160830151613121610160860182612e49565b506101808301516131366101808601826128e4565b506101a083015161314b6101a08601826128e4565b506101c08301516131606101c086018261297e565b506101e08301516131756101e08601826128d5565b5061020083015161318a6102008601826128d5565b5061022083015161319f6102208601826128d5565b508091505092915050565b60006131b68383613028565b905092915050565b6000602082019050919050565b60006131d682612ffc565b6131e08185613007565b9350836020820285016131f285613018565b8060005b8581101561322e578484038952815161320f85826131aa565b945061321a836131be565b925060208a019950506001810190506131f6565b50829750879550505050505092915050565b6000602082019050818103600083015261325a81846131cb565b905092915050565b6040820160008201516132786000850182612dd2565b50602082015161328b6020850182612dd2565b50505050565b60e0820160008201516132a760008501826128d5565b5060208201516132ba60208501826128e4565b5060408201516132cd6040850182613262565b5060608201516132e0608085018261297e565b5060808201516132f360a08501826128d5565b5060a082015161330660c08501826128d5565b50505050565b600060e0820190506133216000830184613291565b92915050565b6000806040838503121561333e5761333d612695565b5b600061334c858286016126b6565b925050602061335d85828601612893565b9150509250929050565b600081519050919050565b600082825260208201905092915050565b6000819050602082019050919050565b600060c0830160008301516133ab60008601826128d5565b50602083015184820360208601526133c38282612939565b91505060408301516133d860408601826128e4565b50606083015184820360608601526133f08282612939565b915050608083015161340560808601826128d5565b5060a083015161341860a086018261297e565b508091505092915050565b600061342f8383613393565b905092915050565b6000602082019050919050565b600061344f82613367565b6134598185613372565b93508360208202850161346b85613383565b8060005b858110156134a757848403895281516134888582613423565b945061349383613437565b925060208a0199505060018101905061346f565b50829750879550505050505092915050565b600060208201905081810360008301526134d38184613444565b905092915050565b600081519050919050565b600082825260208201905092915050565b6000819050602082019050919050565b600060c08301600083015161351f60008601826128d5565b50602083015184820360208601526135378282612939565b915050604083015161354c60408601826128e4565b50606083015161355f60608601826128d5565b50608083015161357260808601826128d5565b5060a083015161358560a08601826128d5565b508091505092915050565b600061359c8383613507565b905092915050565b6000602082019050919050565b60006135bc826134db565b6135c681856134e6565b9350836020820285016135d8856134f7565b8060005b8581101561361457848403895281516135f58582613590565b9450613600836135a4565b925060208a019950506001810190506135dc565b50829750879550505050505092915050565b6000602082019050818103600083015261364081846135b1565b905092915050565b600081519050919050565b600082825260208201905092915050565b6000819050602082019050919050565b600060a08301600083015161368c60008601826128d5565b50602083015161369f60208601826128e4565b50604083015184820360408601526136b78282612939565b91505060608301516136cc60608601826128d5565b5060808301516136df608086018261297e565b508091505092915050565b60006136f68383613674565b905092915050565b6000602082019050919050565b600061371682613648565b6137208185613653565b93508360208202850161373285613664565b8060005b8581101561376e578484038952815161374f85826136ea565b945061375a836136fe565b925060208a01995050600181019050613736565b50829750879550505050505092915050565b6000602082019050818103600083015261379a818461370b565b905092915050565b600081519050919050565b600082825260208201905092915050565b6000819050602082019050919050565b60006137da83836128d5565b60208301905092915050565b6000602082019050919050565b60006137fe826137a2565b61380881856137ad565b9350613813836137be565b8060005b8381101561384457815161382b88826137ce565b9750613836836137e6565b925050600181019050613817565b5085935050505092915050565b6000602082019050818103600083015261386b81846137f3565b905092915050565b600060c08301600083015161388b60008601826128d5565b50602083015184820360208601526138a38282612939565b91505060408301516138b860408601826128e4565b50606083015184820360608601526138d08282612939565b91505060808301516138e560808601826128d5565b5060a08301516138f860a086018261297e565b508091505092915050565b6000602082019050818103600083015261391d8184613873565b905092915050565b60008060006060848603121561393e5761393d612695565b5b600084013567ffffffffffffffff81111561395c5761395b61269a565b5b613968868287016127c3565b935050602061397986828701612893565b925050604061398a86828701612893565b9150509250925092565b600080604083850312156139ab576139aa612695565b5b60006139b985828601612893565b92505060206139ca858286016126b6565b9150509250929050565b6000819050919050565b60006139f96139f46139ef8461256a565b6139d4565b61256a565b9050919050565b6000613a0b826139de565b9050919050565b6000613a1d82613a00565b9050919050565b613a2d81613a12565b82525050565b6000602082019050613a486000830184613a24565b92915050565b60008060008060808587031215613a6857613a67612695565b5b6000613a76878288016126b6565b945050602085013567ffffffffffffffff811115613a9757613a9661269a565b5b613aa3878288016127c3565b9350506040613ab487828801612bd0565b9250506060613ac587828801612bd0565b91505092959194509250565b6000608082019050613ae660008301876125b5565b613af3602083018661259c565b8181036040830152613b058185612a63565b9050613b146060830184612ab8565b95945050505050565b613b268161258a565b82525050565b600082825260208201905092915050565b6000613b48826128f3565b613b528185613b2c565b9350613b6281856020860161290f565b613b6b8161260d565b840191505092915050565b6000606082019050613b8b6000830186613b1d565b8181036020830152613b9d8185613b3d565b90508181036040830152613bb18184613b3d565b9050949350505050565b613bc4816125ab565b82525050565b6000602082019050613bdf6000830184613bbb565b92915050565b600080fd5b600080fd5b600081519050613bfe8161287c565b92915050565b600081519050613c138161269f565b92915050565b6000613c2c613c2784612750565b612735565b905082815260208101848484011115613c4857613c476126d0565b5b613c5384828561290f565b509392505050565b600082601f830112613c7057613c6f6126cb565b5b8151613c80848260208601613c19565b91505092915050565b613c9281612972565b8114613c9d57600080fd5b50565b600081519050613caf81613c89565b92915050565b600060a08284031215613ccb57613cca613be5565b5b613cd560a0612735565b90506000613ce584828501613bef565b6000830152506020613cf984828501613c04565b602083015250604082015167ffffffffffffffff811115613d1d57613d1c613bea565b5b613d2984828501613c5b565b6040830152506060613d3d84828501613bef565b6060830152506080613d5184828501613ca0565b60808301525092915050565b600060208284031215613d7357613d72612695565b5b600082015167ffffffffffffffff811115613d9157613d9061269a565b5b613d9d84828501613cb5565b91505092915050565b7f556e617574686f72697a65640000000000000000000000000000000000000000600082015250565b6000613ddc600c83612a52565b9150613de782613da6565b602082019050919050565b60006020820190508181036000830152613e0b81613dcf565b9050919050565b7f4e6f2066756e647320617661696c61626c6520666f722077697468647261776160008201527f6c00000000000000000000000000000000000000000000000000000000000000602082015250565b6000613e6e602183612a52565b9150613e7982613e12565b604082019050919050565b60006020820190508181036000830152613e9d81613e61565b9050919050565b6000602082019050613eb960008301846125b5565b92915050565b6000602082019050613ed46000830184613b1d565b92915050565b600081519050613ee981612bb9565b92915050565b600080600080600080600060e0888a031215613f0e57613f0d612695565b5b600088015167ffffffffffffffff811115613f2c57613f2b61269a565b5b613f388a828b01613c5b565b9750506020613f498a828b01613bef565b9650506040613f5a8a828b01613c04565b9550506060613f6b8a828b01613eda565b9450506080613f7c8a828b01613eda565b93505060a088015167ffffffffffffffff811115613f9d57613f9c61269a565b5b613fa98a828b01613c5b565b92505060c0613fba8a828b01613ca0565b91505092959891949750929550565b613fd281612b44565b82525050565b613fe181612b7d565b82525050565b613ff081612a9c565b82525050565b600060c08201905061400b6000830189613bbb565b6140186020830188613fc9565b6140256040830187613fd8565b6140326060830186613bbb565b61403f6080830185613fe7565b61404c60a0830184613fe7565b979650505050505050565b600060a08201905061406c6000830188613bbb565b818103602083015261407e8187613b3d565b905061408d6040830186613b1d565b61409a6060830185613bbb565b6140a76080830184613bbb565b9695505050505050565b600060c082840312156140c7576140c6613be5565b5b6140d160c0612735565b905060006140e184828501613bef565b600083015250602082015167ffffffffffffffff81111561410557614104613bea565b5b61411184828501613c5b565b602083015250604061412584828501613c04565b604083015250606061413984828501613bef565b606083015250608061414d84828501613bef565b60808301525060a061416184828501613bef565b60a08301525092915050565b60006020828403121561418357614182612695565b5b600082015167ffffffffffffffff8111156141a1576141a061269a565b5b6141ad848285016140b1565b91505092915050565b7f4e487b7100000000000000000000000000000000000000000000000000000000600052602260045260246000fd5b600060028204905060018216806141fd57607f821691505b6020821081036142105761420f6141b6565b5b50919050565b60006040828403121561422c5761422b613be5565b5b6142366040612735565b9050600061424684828501613eda565b600083015250602061425a84828501613eda565b60208301525092915050565b600060e0828403121561427c5761427b613be5565b5b61428660c0612735565b9050600061429684828501613bef565b60008301525060206142aa84828501613c04565b60208301525060406142be84828501614216565b60408301525060806142d284828501613ca0565b60608301525060a06142e684828501613bef565b60808301525060c06142fa84828501613bef565b60a08301525092915050565b600060e0828403121561431c5761431b612695565b5b600061432a84828501614266565b91505092915050565b60006040820190506143486000830185613b1d565b6143556020830184613bbb565b9392505050565b600067ffffffffffffffff821115614377576143766126d5565b5b602082029050602081019050919050565b600080fd5b600060c082840312156143a3576143a2613be5565b5b6143ad60c0612735565b905060006143bd84828501613bef565b600083015250602082015167ffffffffffffffff8111156143e1576143e0613bea565b5b6143ed84828501613c5b565b602083015250604061440184828501613c04565b604083015250606082015167ffffffffffffffff81111561442557614424613bea565b5b61443184828501613c5b565b606083015250608061444584828501613bef565b60808301525060a061445984828501613ca0565b60a08301525092915050565b60006144786144738461435c565b612735565b9050808382526020820190506020840283018581111561449b5761449a614388565b5b835b818110156144e257805167ffffffffffffffff8111156144c0576144bf6126cb565b5b8086016144cd898261438d565b8552602085019450505060208101905061449d565b5050509392505050565b600082601f830112614501576145006126cb565b5b8151614511848260208601614465565b91505092915050565b6000602082840312156145305761452f612695565b5b600082015167ffffffffffffffff81111561454e5761454d61269a565b5b61455a848285016144ec565b91505092915050565b600067ffffffffffffffff82111561457e5761457d6126d5565b5b602082029050602081019050919050565b60006145a261459d84614563565b612735565b905080838252602082019050602084028301858111156145c5576145c4614388565b5b835b8181101561460c57805167ffffffffffffffff8111156145ea576145e96126cb565b5b8086016145f789826140b1565b855260208501945050506020810190506145c7565b5050509392505050565b600082601f83011261462b5761462a6126cb565b5b815161463b84826020860161458f565b91505092915050565b60006020828403121561465a57614659612695565b5b600082015167ffffffffffffffff8111156146785761467761269a565b5b61468484828501614616565b91505092915050565b600067ffffffffffffffff8211156146a8576146a76126d5565b5b602082029050602081019050919050565b60006146cc6146c78461468d565b612735565b905080838252602082019050602084028301858111156146ef576146ee614388565b5b835b8181101561473657805167ffffffffffffffff811115614714576147136126cb565b5b8086016147218982613cb5565b855260208501945050506020810190506146f1565b5050509392505050565b600082601f830112614755576147546126cb565b5b81516147658482602086016146b9565b91505092915050565b60006020828403121561478457614783612695565b5b600082015167ffffffffffffffff8111156147a2576147a161269a565b5b6147ae84828501614740565b91505092915050565b600067ffffffffffffffff8211156147d2576147d16126d5565b5b602082029050602081019050919050565b60006147f66147f1846147b7565b612735565b9050808382526020820190506020840283018581111561481957614818614388565b5b835b81811015614842578061482e8882613bef565b84526020840193505060208101905061481b565b5050509392505050565b600082601f830112614861576148606126cb565b5b81516148718482602086016147e3565b91505092915050565b6000602082840312156148905761488f612695565b5b600082015167ffffffffffffffff8111156148ae576148ad61269a565b5b6148ba8482850161484c565b91505092915050565b6000602082840312156148d9576148d8612695565b5b600082015167ffffffffffffffff8111156148f7576148f661269a565b5b6149038482850161438d565b91505092915050565b61491581613a12565b82525050565b60006040820190506149306000830185613bbb565b61493d602083018461490c565b9392505050565b6000606082019050818103600083015261495e8186613b3d565b905061496d6020830185613bbb565b61497a6040830184613bbb565b949350505050565b60006080820190506149976000830187613bbb565b6149a46020830186613b1d565b6149b16040830185613bbb565b6149be606083018461490c565b95945050505050565b60006080820190506149dc6000830187613b1d565b81810360208301526149ee8186613b3d565b90506149fd6040830185613fe7565b614a0a6060830184613fe7565b95945050505050565b60008060008060808587031215614a2d57614a2c612695565b5b6000614a3b87828801613bef565b9450506020614a4c87828801613c04565b935050604085015167ffffffffffffffff811115614a6d57614a6c61269a565b5b614a7987828801613c5b565b9250506060614a8a87828801613ca0565b9150509295919450925056fea26469706673582212200d83d301b07efadb2b0351842bd1e8c42b759e0377bd0789ae8ecd4cebbc37a564736f6c63430008180033",
  "linkReferences": {
    "contracts/libraries/CollectorLib.sol": {
      "CollectorLib": [
        {
          "length": 20,
          "start": 2201
        },
        {
          "length": 20,
          "start": 5381
        },
        {
          "length": 20,
          "start": 6280
        }
      ]
    },
    "contracts/libraries/RecyclerLib.sol": {
      "RecyclerLib": [
        {
          "length": 20,
          "start": 2321
        },
        {
          "length": 20,
          "start": 3218
        },
        {
          "length": 20,
          "start": 5244
        },
        {
          "length": 20,
          "start": 5515
        },
        {
          "length": 20,
          "start": 6032
        },
        {
          "length": 20,
          "start": 6552
        },
        {
          "length": 20,
          "start": 9165
        }
      ]
    },
    "contracts/libraries/RequestLib.sol": {
      "RequestLib": [
        {
          "length": 20,
          "start": 2983
        },
        {
          "length": 20,
          "start": 3104
        },
        {
          "length": 20,
          "start": 6153
        },
        {
          "length": 20,
          "start": 6412
        },
        {
          "length": 20,
          "start": 7506
        },
        {
          "length": 20,
          "start": 8573
        }
      ]
    },
    "contracts/libraries/UserLib.sol": {
      "UserLib": [
        {
          "length": 20,
          "start": 2833
        },
        {
          "length": 20,
          "start": 5109
        }
      ]
    }
  },
  "deployedLinkReferences": {
    "contracts/libraries/CollectorLib.sol": {
      "CollectorLib": [
        {
          "length": 20,
          "start": 1838
        },
        {
          "length": 20,
          "start": 5018
        },
        {
          "length": 20,
          "start": 5917
        }
      ]
    },
    "contracts/libraries/RecyclerLib.sol": {
      "RecyclerLib": [
        {
          "length": 20,
          "start": 1958
        },
        {
          "length": 20,
          "start": 2855
        },
        {
          "length": 20,
          "start": 4881
        },
        {
          "length": 20,
          "start": 5152
        },
        {
          "length": 20,
          "start": 5669
        },
        {
          "length": 20,
          "start": 6189
        },
        {
          "length": 20,
          "start": 8802
        }
      ]
    },
    "contracts/libraries/RequestLib.sol": {
      "RequestLib": [
        {
          "length": 20,
          "start": 2620
        },
        {
          "length": 20,
          "start": 2741
        },
        {
          "length": 20,
          "start": 5790
        },
        {
          "length": 20,
          "start": 6049
        },
        {
          "length": 20,
          "start": 7143
        },
        {
          "length": 20,
          "start": 8210
        }
      ]
    },
    "contracts/libraries/UserLib.sol": {
      "UserLib": [
        {
          "length": 20,
          "start": 2470
        },
        {
          "length": 20,
          "start": 4746
        }
      ]
    }
  }
}