{
  "_format": "hh-sol-artifact-1",
  "contractName": "UserLib",
  "sourceName": "contracts/libraries/UserLib.sol",
  "abi": [
    {
      "inputs": [],
      "name": "NOT_FOUND",
      "type": "error"
    },
    {
      "inputs": [
        {
          "internalType": "address",
          "name": "_userAddress",
          "type": "address"
        }
      ],
      "name": "getUser",
      "outputs": [
        {
          "components": [
            {
              "internalType": "uint256",
              "name": "id",
              "type": "uint256"
            },
            {
              "internalType": "address",
              "name": "userAddress",
              "type": "address"
            },
            {
              "components": [
                {
                  "internalType": "int32",
                  "name": "latitude",
                  "type": "int32"
                },
                {
                  "internalType": "int32",
                  "name": "longitude",
                  "type": "int32"
                }
              ],
              "internalType": "struct GreenCycle.Coordinates",
              "name": "location",
              "type": "tuple"
            },
            {
              "internalType": "bool",
              "name": "isRegistered",
              "type": "bool"
            },
            {
              "internalType": "uint256",
              "name": "totalWasteSubmited",
              "type": "uint256"
            },
            {
              "internalType": "uint256",
              "name": "totalReward",
              "type": "uint256"
            }
          ],
          "internalType": "struct GreenCycle.User",
          "name": "",
          "type": "tuple"
        }
      ],
      "stateMutability": "view",
      "type": "function"
    },
    {
      "inputs": [
        {
          "internalType": "address",
          "name": "_userAddress",
          "type": "address"
        }
      ],
      "name": "getUserRole",
      "outputs": [
        {
          "internalType": "string",
          "name": "role",
          "type": "string"
        },
        {
          "internalType": "uint256",
          "name": "id",
          "type": "uint256"
        },
        {
          "internalType": "address",
          "name": "addr",
          "type": "address"
        },
        {
          "internalType": "int32",
          "name": "latitude",
          "type": "int32"
        },
        {
          "internalType": "int32",
          "name": "longitude",
          "type": "int32"
        },
        {
          "internalType": "string",
          "name": "location",
          "type": "string"
        },
        {
          "internalType": "bool",
          "name": "isRegistered",
          "type": "bool"
        }
      ],
      "stateMutability": "view",
      "type": "function"
    }
  ],
  "bytecode": "0x610c7c610053600b82828239805160001a607314610046577f4e487b7100000000000000000000000000000000000000000000000000000000600052600060045260246000fd5b30600052607381538281f3fe73000000000000000000000000000000000000000030146080604052600436106100405760003560e01c806327820851146100455780636f77926b1461007b575b600080fd5b61005f600480360381019061005a919061094c565b6100ab565b6040516100729796959493929190610a68565b60405180910390f35b6100956004803603810190610090919061094c565b6106fd565b6040516100a29190610bcb565b60405180910390f35b606060008060008060606000806100c0610848565b90508060090160008a73ffffffffffffffffffffffffffffffffffffffff1673ffffffffffffffffffffffffffffffffffffffff16815260200190815260200160002060030160009054906101000a900460ff16156102c85760008160090160008b73ffffffffffffffffffffffffffffffffffffffff1673ffffffffffffffffffffffffffffffffffffffff1681526020019081526020016000206040518060c0016040529081600082015481526020016001820160009054906101000a900473ffffffffffffffffffffffffffffffffffffffff1673ffffffffffffffffffffffffffffffffffffffff1673ffffffffffffffffffffffffffffffffffffffff168152602001600282016040518060400160405290816000820160009054906101000a900460030b60030b60030b81526020016000820160049054906101000a900460030b60030b60030b8152505081526020016003820160009054906101000a900460ff161515151581526020016004820154815260200160058201548152505090508060000151816020015182604001516000015183604001516020015184606001516040518060400160405280600481526020017f557365720000000000000000000000000000000000000000000000000000000081525094939291906040518060200160405280600081525090985098509850985098509850985050506106f2565b8060050160008a73ffffffffffffffffffffffffffffffffffffffff1673ffffffffffffffffffffffffffffffffffffffff16815260200190815260200160002060040160009054906101000a900460ff161561059f5760008160050160008b73ffffffffffffffffffffffffffffffffffffffff1673ffffffffffffffffffffffffffffffffffffffff16815260200190815260200160002060405180610100016040529081600082015481526020016001820160009054906101000a900473ffffffffffffffffffffffffffffffffffffffff1673ffffffffffffffffffffffffffffffffffffffff1673ffffffffffffffffffffffffffffffffffffffff1681526020016002820180546103de90610c15565b80601f016020809104026020016040519081016040528092919081815260200182805461040a90610c15565b80156104575780601f1061042c57610100808354040283529160200191610457565b820191906000526020600020905b81548152906001019060200180831161043a57829003601f168201915b50505050508152602001600382015481526020016004820160009054906101000a900460ff161515151581526020016005820154815260200160068201548152602001600782015481525050905060008260080160008c73ffffffffffffffffffffffffffffffffffffffff1673ffffffffffffffffffffffffffffffffffffffff1681526020019081526020016000206040518060400160405290816000820160009054906101000a900460030b60030b60030b81526020016000820160049054906101000a900460030b60030b60030b8152505090508160000151826020015182600001518360200151856040015186608001516040518060400160405280600881526020017f52656379636c657200000000000000000000000000000000000000000000000081525095949392919099509950995099509950995099505050506106f2565b60008160000160008b73ffffffffffffffffffffffffffffffffffffffff1673ffffffffffffffffffffffffffffffffffffffff16815260200190815260200160002060000154146106c05760008160000160008b73ffffffffffffffffffffffffffffffffffffffff1673ffffffffffffffffffffffffffffffffffffffff168152602001908152602001600020905080600001548160020160009054906101000a900473ffffffffffffffffffffffffffffffffffffffff1660008060016040518060400160405280600981526020017f636f6c6c6563746f72000000000000000000000000000000000000000000000081525094939291906040518060200160405280600081525090985098509850985098509850985050506106f2565b6040517f5ffce20a00000000000000000000000000000000000000000000000000000000815260040160405180910390fd5b919395979092949650565b610705610875565b600061070f610848565b905060008160090160008573ffffffffffffffffffffffffffffffffffffffff1673ffffffffffffffffffffffffffffffffffffffff1681526020019081526020016000209050806040518060c0016040529081600082015481526020016001820160009054906101000a900473ffffffffffffffffffffffffffffffffffffffff1673ffffffffffffffffffffffffffffffffffffffff1673ffffffffffffffffffffffffffffffffffffffff168152602001600282016040518060400160405290816000820160009054906101000a900460030b60030b60030b81526020016000820160049054906101000a900460030b60030b60030b8152505081526020016003820160009054906101000a900460ff161515151581526020016004820154815260200160058201548152505092505050919050565b6000807f3fc430cf53a7ea36e25a560ef7d768c9bb7c830bb49f736b17223d7ae06aaa1c90508091505090565b6040518060c0016040528060008152602001600073ffffffffffffffffffffffffffffffffffffffff1681526020016108ac6108c9565b815260200160001515815260200160008152602001600081525090565b6040518060400160405280600060030b8152602001600060030b81525090565b600080fd5b600073ffffffffffffffffffffffffffffffffffffffff82169050919050565b6000610919826108ee565b9050919050565b6109298161090e565b811461093457600080fd5b50565b60008135905061094681610920565b92915050565b600060208284031215610962576109616108e9565b5b600061097084828501610937565b91505092915050565b600081519050919050565b600082825260208201905092915050565b60005b838110156109b3578082015181840152602081019050610998565b60008484015250505050565b6000601f19601f8301169050919050565b60006109db82610979565b6109e58185610984565b93506109f5818560208601610995565b6109fe816109bf565b840191505092915050565b6000819050919050565b610a1c81610a09565b82525050565b610a2b8161090e565b82525050565b60008160030b9050919050565b610a4781610a31565b82525050565b60008115159050919050565b610a6281610a4d565b82525050565b600060e0820190508181036000830152610a82818a6109d0565b9050610a916020830189610a13565b610a9e6040830188610a22565b610aab6060830187610a3e565b610ab86080830186610a3e565b81810360a0830152610aca81856109d0565b9050610ad960c0830184610a59565b98975050505050505050565b610aee81610a09565b82525050565b610afd8161090e565b82525050565b610b0c81610a31565b82525050565b604082016000820151610b286000850182610b03565b506020820151610b3b6020850182610b03565b50505050565b610b4a81610a4d565b82525050565b60e082016000820151610b666000850182610ae5565b506020820151610b796020850182610af4565b506040820151610b8c6040850182610b12565b506060820151610b9f6080850182610b41565b506080820151610bb260a0850182610ae5565b5060a0820151610bc560c0850182610ae5565b50505050565b600060e082019050610be06000830184610b50565b92915050565b7f4e487b7100000000000000000000000000000000000000000000000000000000600052602260045260246000fd5b60006002820490506001821680610c2d57607f821691505b602082108103610c4057610c3f610be6565b5b5091905056fea264697066735822122049b4313c0bd3afd4483531d9a5ac295d7b4a07186ccc2f7125d9bdfb944074cd64736f6c63430008180033",
  "linkReferences": {},
  "deployedLinkReferences": {}
}