{
  "_format": "hh-sol-artifact-1",
  "contractName": "CollectorLib",
  "sourceName": "contracts/libraries/CollectorLib.sol",
  "abi": [
    {
      "inputs": [],
      "name": "COLLECTORALREADYADDED",
      "type": "error"
    },
    {
      "inputs": [],
      "name": "NOT_AUTHORIZED",
      "type": "error"
    },
    {
      "inputs": [],
      "name": "NOT_FOUND",
      "type": "error"
    },
    {
      "inputs": [],
      "name": "RECYCLERNOTFOUND",
      "type": "error"
    },
    {
      "inputs": [
        {
          "internalType": "address",
          "name": "_address",
          "type": "address"
        }
      ],
      "name": "getCollector",
      "outputs": [
        {
          "components": [
            {
              "internalType": "uint256",
              "name": "id",
              "type": "uint256"
            },
            {
              "internalType": "string",
              "name": "name",
              "type": "string"
            },
            {
              "internalType": "address",
              "name": "collectorAddress",
              "type": "address"
            },
            {
              "internalType": "string",
              "name": "contact",
              "type": "string"
            },
            {
              "internalType": "uint256",
              "name": "numberOfWasteCollected",
              "type": "uint256"
            },
            {
              "internalType": "bool",
              "name": "isAvailable",
              "type": "bool"
            }
          ],
          "internalType": "struct GreenCycle.Collector",
          "name": "",
          "type": "tuple"
        }
      ],
      "stateMutability": "view",
      "type": "function"
    },
    {
      "inputs": [
        {
          "internalType": "address",
          "name": "_recyclerAddress",
          "type": "address"
        }
      ],
      "name": "getRecyclerCollectors",
      "outputs": [
        {
          "components": [
            {
              "internalType": "uint256",
              "name": "id",
              "type": "uint256"
            },
            {
              "internalType": "string",
              "name": "name",
              "type": "string"
            },
            {
              "internalType": "address",
              "name": "collectorAddress",
              "type": "address"
            },
            {
              "internalType": "string",
              "name": "contact",
              "type": "string"
            },
            {
              "internalType": "uint256",
              "name": "numberOfWasteCollected",
              "type": "uint256"
            },
            {
              "internalType": "bool",
              "name": "isAvailable",
              "type": "bool"
            }
          ],
          "internalType": "struct GreenCycle.Collector[]",
          "name": "",
          "type": "tuple[]"
        }
      ],
      "stateMutability": "view",
      "type": "function"
    }
  ],
  "bytecode": "0x6114d1610053600b82828239805160001a607314610046577f4e487b7100000000000000000000000000000000000000000000000000000000600052600060045260246000fd5b30600052607381538281f3fe730000000000000000000000000000000000000000301460806040526004361061004b5760003560e01c806301f1d45814610050578063768b3f671461008d5780639e057252146100bd575b600080fd5b81801561005c57600080fd5b5061007760048036038101906100729190610c7e565b6100ed565b6040516100849190610d22565b60405180910390f35b6100a760048036038101906100a29190610d3d565b61048c565b6040516100b49190610f74565b60405180910390f35b6100d760048036038101906100d29190610d3d565b61076a565b6040516100e49190611026565b60405180910390f35b6000806100f8610a4b565b905060008160050160003373ffffffffffffffffffffffffffffffffffffffff1673ffffffffffffffffffffffffffffffffffffffff16815260200190815260200160002090503373ffffffffffffffffffffffffffffffffffffffff168160010160009054906101000a900473ffffffffffffffffffffffffffffffffffffffff1673ffffffffffffffffffffffffffffffffffffffff16146101c8576040517f3d83866f00000000000000000000000000000000000000000000000000000000815260040160405180910390fd5b60008260000160008873ffffffffffffffffffffffffffffffffffffffff1673ffffffffffffffffffffffffffffffffffffffff1681526020019081526020016000206000015414610246576040517fa9e0611b00000000000000000000000000000000000000000000000000000000815260040160405180910390fd5b600082600201600081548092919061025d90611077565b91905055905060008360000160008973ffffffffffffffffffffffffffffffffffffffff1673ffffffffffffffffffffffffffffffffffffffff1681526020019081526020016000209050818160000181905550868160010190816102c291906112cb565b50878160020160006101000a81548173ffffffffffffffffffffffffffffffffffffffff021916908373ffffffffffffffffffffffffffffffffffffffff1602179055508581600301908161031791906112cb565b506000816004018190555060018160050160006101000a81548160ff0219169083151502179055508360010160003373ffffffffffffffffffffffffffffffffffffffff1673ffffffffffffffffffffffffffffffffffffffff16815260200190815260200160002081908060018154018082558091505060019003906000526020600020906006020160009091909190915060008201548160000155600182018160010190816103c891906113b3565b506002820160009054906101000a900473ffffffffffffffffffffffffffffffffffffffff168160020160006101000a81548173ffffffffffffffffffffffffffffffffffffffff021916908373ffffffffffffffffffffffffffffffffffffffff1602179055506003820181600301908161044491906113b3565b50600482015481600401556005820160009054906101000a900460ff168160050160006101000a81548160ff0219169083151502179055505050819450505050509392505050565b60606000610498610a4b565b90508060050160008473ffffffffffffffffffffffffffffffffffffffff1673ffffffffffffffffffffffffffffffffffffffff16815260200190815260200160002060040160009054906101000a900460ff16610522576040517faf70a7a800000000000000000000000000000000000000000000000000000000815260040160405180910390fd5b8060010160008473ffffffffffffffffffffffffffffffffffffffff1673ffffffffffffffffffffffffffffffffffffffff168152602001908152602001600020805480602002602001604051908101604052809291908181526020016000905b8282101561075e57838290600052602060002090600602016040518060c0016040529081600082015481526020016001820180546105c0906110ee565b80601f01602080910402602001604051908101604052809291908181526020018280546105ec906110ee565b80156106395780601f1061060e57610100808354040283529160200191610639565b820191906000526020600020905b81548152906001019060200180831161061c57829003601f168201915b505050505081526020016002820160009054906101000a900473ffffffffffffffffffffffffffffffffffffffff1673ffffffffffffffffffffffffffffffffffffffff1673ffffffffffffffffffffffffffffffffffffffff1681526020016003820180546106a8906110ee565b80601f01602080910402602001604051908101604052809291908181526020018280546106d4906110ee565b80156107215780601f106106f657610100808354040283529160200191610721565b820191906000526020600020905b81548152906001019060200180831161070457829003601f168201915b50505050508152602001600482015481526020016005820160009054906101000a900460ff16151515158152505081526020019060010190610583565b50505050915050919050565b610772610a78565b600061077c610a4b565b905060008160000160008573ffffffffffffffffffffffffffffffffffffffff1673ffffffffffffffffffffffffffffffffffffffff1681526020019081526020016000209050600073ffffffffffffffffffffffffffffffffffffffff168160020160009054906101000a900473ffffffffffffffffffffffffffffffffffffffff1673ffffffffffffffffffffffffffffffffffffffff160361084d576040517f5ffce20a00000000000000000000000000000000000000000000000000000000815260040160405180910390fd5b8160000160008573ffffffffffffffffffffffffffffffffffffffff1673ffffffffffffffffffffffffffffffffffffffff1681526020019081526020016000206040518060c0016040529081600082015481526020016001820180546108b3906110ee565b80601f01602080910402602001604051908101604052809291908181526020018280546108df906110ee565b801561092c5780601f106109015761010080835404028352916020019161092c565b820191906000526020600020905b81548152906001019060200180831161090f57829003601f168201915b505050505081526020016002820160009054906101000a900473ffffffffffffffffffffffffffffffffffffffff1673ffffffffffffffffffffffffffffffffffffffff1673ffffffffffffffffffffffffffffffffffffffff16815260200160038201805461099b906110ee565b80601f01602080910402602001604051908101604052809291908181526020018280546109c7906110ee565b8015610a145780601f106109e957610100808354040283529160200191610a14565b820191906000526020600020905b8154815290600101906020018083116109f757829003601f168201915b50505050508152602001600482015481526020016005820160009054906101000a900460ff16151515158152505092505050919050565b6000807f3fc430cf53a7ea36e25a560ef7d768c9bb7c830bb49f736b17223d7ae06aaa1c90508091505090565b6040518060c001604052806000815260200160608152602001600073ffffffffffffffffffffffffffffffffffffffff16815260200160608152602001600081526020016000151581525090565b6000604051905090565b600080fd5b600080fd5b600073ffffffffffffffffffffffffffffffffffffffff82169050919050565b6000610b0582610ada565b9050919050565b610b1581610afa565b8114610b2057600080fd5b50565b600081359050610b3281610b0c565b92915050565b600080fd5b600080fd5b6000601f19601f8301169050919050565b7f4e487b7100000000000000000000000000000000000000000000000000000000600052604160045260246000fd5b610b8b82610b42565b810181811067ffffffffffffffff82111715610baa57610ba9610b53565b5b80604052505050565b6000610bbd610ac6565b9050610bc98282610b82565b919050565b600067ffffffffffffffff821115610be957610be8610b53565b5b610bf282610b42565b9050602081019050919050565b82818337600083830152505050565b6000610c21610c1c84610bce565b610bb3565b905082815260208101848484011115610c3d57610c3c610b3d565b5b610c48848285610bff565b509392505050565b600082601f830112610c6557610c64610b38565b5b8135610c75848260208601610c0e565b91505092915050565b600080600060608486031215610c9757610c96610ad0565b5b6000610ca586828701610b23565b935050602084013567ffffffffffffffff811115610cc657610cc5610ad5565b5b610cd286828701610c50565b925050604084013567ffffffffffffffff811115610cf357610cf2610ad5565b5b610cff86828701610c50565b9150509250925092565b6000819050919050565b610d1c81610d09565b82525050565b6000602082019050610d376000830184610d13565b92915050565b600060208284031215610d5357610d52610ad0565b5b6000610d6184828501610b23565b91505092915050565b600081519050919050565b600082825260208201905092915050565b6000819050602082019050919050565b610d9f81610d09565b82525050565b600081519050919050565b600082825260208201905092915050565b60005b83811015610ddf578082015181840152602081019050610dc4565b60008484015250505050565b6000610df682610da5565b610e008185610db0565b9350610e10818560208601610dc1565b610e1981610b42565b840191505092915050565b610e2d81610afa565b82525050565b60008115159050919050565b610e4881610e33565b82525050565b600060c083016000830151610e666000860182610d96565b5060208301518482036020860152610e7e8282610deb565b9150506040830151610e936040860182610e24565b5060608301518482036060860152610eab8282610deb565b9150506080830151610ec06080860182610d96565b5060a0830151610ed360a0860182610e3f565b508091505092915050565b6000610eea8383610e4e565b905092915050565b6000602082019050919050565b6000610f0a82610d6a565b610f148185610d75565b935083602082028501610f2685610d86565b8060005b85811015610f625784840389528151610f438582610ede565b9450610f4e83610ef2565b925060208a01995050600181019050610f2a565b50829750879550505050505092915050565b60006020820190508181036000830152610f8e8184610eff565b905092915050565b600060c083016000830151610fae6000860182610d96565b5060208301518482036020860152610fc68282610deb565b9150506040830151610fdb6040860182610e24565b5060608301518482036060860152610ff38282610deb565b91505060808301516110086080860182610d96565b5060a083015161101b60a0860182610e3f565b508091505092915050565b600060208201905081810360008301526110408184610f96565b905092915050565b7f4e487b7100000000000000000000000000000000000000000000000000000000600052601160045260246000fd5b600061108282610d09565b91507fffffffffffffffffffffffffffffffffffffffffffffffffffffffffffffffff82036110b4576110b3611048565b5b600182019050919050565b7f4e487b7100000000000000000000000000000000000000000000000000000000600052602260045260246000fd5b6000600282049050600182168061110657607f821691505b602082108103611119576111186110bf565b5b50919050565b60008190508160005260206000209050919050565b60006020601f8301049050919050565b600082821b905092915050565b6000600883026111817fffffffffffffffffffffffffffffffffffffffffffffffffffffffffffffffff82611144565b61118b8683611144565b95508019841693508086168417925050509392505050565b6000819050919050565b60006111c86111c36111be84610d09565b6111a3565b610d09565b9050919050565b6000819050919050565b6111e2836111ad565b6111f66111ee826111cf565b848454611151565b825550505050565b600090565b61120b6111fe565b6112168184846111d9565b505050565b5b8181101561123a5761122f600082611203565b60018101905061121c565b5050565b601f82111561127f576112508161111f565b61125984611134565b81016020851015611268578190505b61127c61127485611134565b83018261121b565b50505b505050565b600082821c905092915050565b60006112a260001984600802611284565b1980831691505092915050565b60006112bb8383611291565b9150826002028217905092915050565b6112d482610da5565b67ffffffffffffffff8111156112ed576112ec610b53565b5b6112f782546110ee565b61130282828561123e565b600060209050601f8311600181146113355760008415611323578287015190505b61132d85826112af565b865550611395565b601f1984166113438661111f565b60005b8281101561136b57848901518255600182019150602085019450602081019050611346565b868310156113885784890151611384601f891682611291565b8355505b6001600288020188555050505b505050505050565b6000815490506113ac816110ee565b9050919050565b8181036113c1575050611499565b6113ca8261139d565b67ffffffffffffffff8111156113e3576113e2610b53565b5b6113ed82546110ee565b6113f882828561123e565b6000601f8311600181146114275760008415611415578287015490505b61141f85826112af565b865550611492565b601f1984166114358761111f565b96506114408661111f565b60005b8281101561146857848901548255600182019150600185019450602081019050611443565b868310156114855784890154611481601f891682611291565b8355505b6001600288020188555050505b5050505050505b56fea2646970667358221220685ae94c969a36bad6f49cf4157ac5d76b3dcfa59b989dc2ba94a326783c3c1b64736f6c63430008180033",
  "linkReferences": {},
  "deployedLinkReferences": {}
}