{
  "_format": "hh-sol-artifact-1",
  "contractName": "UserLib",
  "sourceName": "contracts/libraries/UserLib.sol",
  "abi": [
    {
      "inputs": [],
      "name": "NOT_FOUND",
      "type": "error"
    },
    {
      "anonymous": false,
      "inputs": [
        {
          "indexed": false,
          "internalType": "address",
          "name": "_user",
          "type": "address"
        },
        {
          "indexed": false,
          "internalType": "int32",
          "name": "_latitude",
          "type": "int32"
        },
        {
          "indexed": false,
          "internalType": "int32",
          "name": "_longitude",
          "type": "int32"
        }
      ],
      "name": "LocationSet",
      "type": "event"
    },
    {
      "anonymous": false,
      "inputs": [
        {
          "indexed": true,
          "internalType": "address",
          "name": "userAddress",
          "type": "address"
        },
        {
          "indexed": false,
          "internalType": "bool",
          "name": "isRegistered",
          "type": "bool"
        }
      ],
      "name": "UserCreated",
      "type": "event"
    },
    {
      "inputs": [
        {
          "internalType": "address",
          "name": "_userAddress",
          "type": "address"
        }
      ],
      "name": "getUser",
      "outputs": [
        {
          "components": [
            {
              "internalType": "uint256",
              "name": "id",
              "type": "uint256"
            },
            {
              "internalType": "address",
              "name": "userAddress",
              "type": "address"
            },
            {
              "components": [
                {
                  "internalType": "int32",
                  "name": "latitude",
                  "type": "int32"
                },
                {
                  "internalType": "int32",
                  "name": "longitude",
                  "type": "int32"
                }
              ],
              "internalType": "struct GreenCycle.Coordinates",
              "name": "location",
              "type": "tuple"
            },
            {
              "internalType": "bool",
              "name": "isRegistered",
              "type": "bool"
            },
            {
              "internalType": "uint256",
              "name": "totalWasteSubmited",
              "type": "uint256"
            },
            {
              "internalType": "uint256",
              "name": "totalReward",
              "type": "uint256"
            }
          ],
          "internalType": "struct GreenCycle.User",
          "name": "",
          "type": "tuple"
        }
      ],
      "stateMutability": "view",
      "type": "function"
    },
    {
      "inputs": [
        {
          "internalType": "address",
          "name": "_userAddress",
          "type": "address"
        }
      ],
      "name": "getUserRole",
      "outputs": [
        {
          "internalType": "string",
          "name": "role",
          "type": "string"
        },
        {
          "internalType": "uint256",
          "name": "id",
          "type": "uint256"
        },
        {
          "internalType": "address",
          "name": "addr",
          "type": "address"
        },
        {
          "internalType": "int32",
          "name": "latitude",
          "type": "int32"
        },
        {
          "internalType": "int32",
          "name": "longitude",
          "type": "int32"
        },
        {
          "internalType": "string",
          "name": "location",
          "type": "string"
        },
        {
          "internalType": "bool",
          "name": "isRegistered",
          "type": "bool"
        }
      ],
      "stateMutability": "view",
      "type": "function"
    }
  ],
  "bytecode": "0x610c5d610053600b82828239805160001a607314610046577f4e487b7100000000000000000000000000000000000000000000000000000000600052600060045260246000fd5b30600052607381538281f3fe73000000000000000000000000000000000000000030146080604052600436106100405760003560e01c806327820851146100455780636f77926b1461007b575b600080fd5b61005f600480360381019061005a919061092d565b6100ab565b6040516100729796959493929190610a49565b60405180910390f35b6100956004803603810190610090919061092d565b6106de565b6040516100a29190610bac565b60405180910390f35b606060008060008060606000806100c0610829565b90508060090160008a73ffffffffffffffffffffffffffffffffffffffff1673ffffffffffffffffffffffffffffffffffffffff16815260200190815260200160002060030160009054906101000a900460ff16156102c85760008160090160008b73ffffffffffffffffffffffffffffffffffffffff1673ffffffffffffffffffffffffffffffffffffffff1681526020019081526020016000206040518060c0016040529081600082015481526020016001820160009054906101000a900473ffffffffffffffffffffffffffffffffffffffff1673ffffffffffffffffffffffffffffffffffffffff1673ffffffffffffffffffffffffffffffffffffffff168152602001600282016040518060400160405290816000820160009054906101000a900460030b60030b60030b81526020016000820160049054906101000a900460030b60030b60030b8152505081526020016003820160009054906101000a900460ff161515151581526020016004820154815260200160058201548152505090508060000151816020015182604001516000015183604001516020015184606001516040518060400160405280600481526020017f557365720000000000000000000000000000000000000000000000000000000081525094939291906040518060200160405280600081525090985098509850985098509850985050506106d3565b8060050160008a73ffffffffffffffffffffffffffffffffffffffff1673ffffffffffffffffffffffffffffffffffffffff16815260200190815260200160002060040160009054906101000a900460ff16156105805760008160050160008b73ffffffffffffffffffffffffffffffffffffffff1673ffffffffffffffffffffffffffffffffffffffff1681526020019081526020016000206040518060a0016040529081600082015481526020016001820160009054906101000a900473ffffffffffffffffffffffffffffffffffffffff1673ffffffffffffffffffffffffffffffffffffffff1673ffffffffffffffffffffffffffffffffffffffff1681526020016002820180546103dd90610bf6565b80601f016020809104026020016040519081016040528092919081815260200182805461040990610bf6565b80156104565780601f1061042b57610100808354040283529160200191610456565b820191906000526020600020905b81548152906001019060200180831161043957829003601f168201915b50505050508152602001600382015481526020016004820160009054906101000a900460ff161515151581525050905060008260080160008c73ffffffffffffffffffffffffffffffffffffffff1673ffffffffffffffffffffffffffffffffffffffff1681526020019081526020016000206040518060400160405290816000820160009054906101000a900460030b60030b60030b81526020016000820160049054906101000a900460030b60030b60030b8152505090508160000151826020015182600001518360200151856040015186608001516040518060400160405280600881526020017f52656379636c657200000000000000000000000000000000000000000000000081525095949392919099509950995099509950995099505050506106d3565b60008160000160008b73ffffffffffffffffffffffffffffffffffffffff1673ffffffffffffffffffffffffffffffffffffffff16815260200190815260200160002060000154146106a15760008160000160008b73ffffffffffffffffffffffffffffffffffffffff1673ffffffffffffffffffffffffffffffffffffffff168152602001908152602001600020905080600001548160020160009054906101000a900473ffffffffffffffffffffffffffffffffffffffff1660008060016040518060400160405280600981526020017f636f6c6c6563746f72000000000000000000000000000000000000000000000081525094939291906040518060200160405280600081525090985098509850985098509850985050506106d3565b6040517f5ffce20a00000000000000000000000000000000000000000000000000000000815260040160405180910390fd5b919395979092949650565b6106e6610856565b60006106f0610829565b905060008160090160008573ffffffffffffffffffffffffffffffffffffffff1673ffffffffffffffffffffffffffffffffffffffff1681526020019081526020016000209050806040518060c0016040529081600082015481526020016001820160009054906101000a900473ffffffffffffffffffffffffffffffffffffffff1673ffffffffffffffffffffffffffffffffffffffff1673ffffffffffffffffffffffffffffffffffffffff168152602001600282016040518060400160405290816000820160009054906101000a900460030b60030b60030b81526020016000820160049054906101000a900460030b60030b60030b8152505081526020016003820160009054906101000a900460ff161515151581526020016004820154815260200160058201548152505092505050919050565b6000807f3fc430cf53a7ea36e25a560ef7d768c9bb7c830bb49f736b17223d7ae06aaa1c90508091505090565b6040518060c0016040528060008152602001600073ffffffffffffffffffffffffffffffffffffffff16815260200161088d6108aa565b815260200160001515815260200160008152602001600081525090565b6040518060400160405280600060030b8152602001600060030b81525090565b600080fd5b600073ffffffffffffffffffffffffffffffffffffffff82169050919050565b60006108fa826108cf565b9050919050565b61090a816108ef565b811461091557600080fd5b50565b60008135905061092781610901565b92915050565b600060208284031215610943576109426108ca565b5b600061095184828501610918565b91505092915050565b600081519050919050565b600082825260208201905092915050565b60005b83811015610994578082015181840152602081019050610979565b60008484015250505050565b6000601f19601f8301169050919050565b60006109bc8261095a565b6109c68185610965565b93506109d6818560208601610976565b6109df816109a0565b840191505092915050565b6000819050919050565b6109fd816109ea565b82525050565b610a0c816108ef565b82525050565b60008160030b9050919050565b610a2881610a12565b82525050565b60008115159050919050565b610a4381610a2e565b82525050565b600060e0820190508181036000830152610a63818a6109b1565b9050610a7260208301896109f4565b610a7f6040830188610a03565b610a8c6060830187610a1f565b610a996080830186610a1f565b81810360a0830152610aab81856109b1565b9050610aba60c0830184610a3a565b98975050505050505050565b610acf816109ea565b82525050565b610ade816108ef565b82525050565b610aed81610a12565b82525050565b604082016000820151610b096000850182610ae4565b506020820151610b1c6020850182610ae4565b50505050565b610b2b81610a2e565b82525050565b60e082016000820151610b476000850182610ac6565b506020820151610b5a6020850182610ad5565b506040820151610b6d6040850182610af3565b506060820151610b806080850182610b22565b506080820151610b9360a0850182610ac6565b5060a0820151610ba660c0850182610ac6565b50505050565b600060e082019050610bc16000830184610b31565b92915050565b7f4e487b7100000000000000000000000000000000000000000000000000000000600052602260045260246000fd5b60006002820490506001821680610c0e57607f821691505b602082108103610c2157610c20610bc7565b5b5091905056fea2646970667358221220abeada2279a57888f9d14edc8685bb27d6de167a015a579bee622117cb8a5a1764736f6c63430008180033",
  "linkReferences": {},
  "deployedLinkReferences": {}
}