{
  "_format": "hh-sol-artifact-1",
  "contractName": "WasteManagement",
  "sourceName": "contracts/Wastemanagement.sol",
  "abi": [
    {
      "inputs": [
        {
          "internalType": "address",
          "name": "_escrowContract",
          "type": "address"
        }
      ],
      "stateMutability": "nonpayable",
      "type": "constructor"
    },
    {
      "inputs": [],
      "name": "REQUESTNOTFOUND",
      "type": "error"
    },
    {
      "anonymous": false,
      "inputs": [
        {
          "indexed": true,
          "internalType": "address",
          "name": "owner",
          "type": "address"
        },
        {
          "indexed": false,
          "internalType": "uint256",
          "name": "amount",
          "type": "uint256"
        }
      ],
      "name": "FundsWithdrawn",
      "type": "event"
    },
    {
      "anonymous": false,
      "inputs": [
        {
          "indexed": false,
          "internalType": "address",
          "name": "_user",
          "type": "address"
        },
        {
          "indexed": false,
          "internalType": "int32",
          "name": "_latitude",
          "type": "int32"
        },
        {
          "indexed": false,
          "internalType": "int32",
          "name": "_longitude",
          "type": "int32"
        }
      ],
      "name": "LocationSet",
      "type": "event"
    },
    {
      "anonymous": false,
      "inputs": [
        {
          "indexed": false,
          "internalType": "address",
          "name": "sender",
          "type": "address"
        },
        {
          "indexed": false,
          "internalType": "uint256",
          "name": "value",
          "type": "uint256"
        },
        {
          "indexed": false,
          "internalType": "bytes",
          "name": "data",
          "type": "bytes"
        }
      ],
      "name": "LogFallback",
      "type": "event"
    },
    {
      "anonymous": false,
      "inputs": [
        {
          "indexed": false,
          "internalType": "address",
          "name": "sender",
          "type": "address"
        },
        {
          "indexed": false,
          "internalType": "uint256",
          "name": "value",
          "type": "uint256"
        }
      ],
      "name": "LogReceive",
      "type": "event"
    },
    {
      "anonymous": false,
      "inputs": [
        {
          "indexed": true,
          "internalType": "address",
          "name": "recycler",
          "type": "address"
        },
        {
          "indexed": false,
          "internalType": "string",
          "name": "_wasteType",
          "type": "string"
        },
        {
          "indexed": false,
          "internalType": "uint256",
          "name": "_pricePerKg",
          "type": "uint256"
        },
        {
          "indexed": false,
          "internalType": "uint256",
          "name": "_miniQuantity",
          "type": "uint256"
        }
      ],
      "name": "OfferCreated",
      "type": "event"
    },
    {
      "anonymous": false,
      "inputs": [
        {
          "indexed": false,
          "internalType": "uint256",
          "name": "requestID",
          "type": "uint256"
        },
        {
          "indexed": false,
          "internalType": "address",
          "name": "collectorAddress",
          "type": "address"
        }
      ],
      "name": "RequestAccepted",
      "type": "event"
    },
    {
      "anonymous": false,
      "inputs": [
        {
          "indexed": false,
          "internalType": "uint256",
          "name": "_requestId",
          "type": "uint256"
        }
      ],
      "name": "RequestCancelled",
      "type": "event"
    },
    {
      "anonymous": false,
      "inputs": [
        {
          "indexed": false,
          "internalType": "uint256",
          "name": "requestID",
          "type": "uint256"
        },
        {
          "indexed": false,
          "internalType": "address",
          "name": "collectorAddress",
          "type": "address"
        }
      ],
      "name": "RequestConfirmed",
      "type": "event"
    },
    {
      "anonymous": false,
      "inputs": [
        {
          "indexed": false,
          "internalType": "uint256",
          "name": "requestID",
          "type": "uint256"
        },
        {
          "indexed": false,
          "internalType": "address",
          "name": "userAddress",
          "type": "address"
        },
        {
          "indexed": false,
          "internalType": "uint256",
          "name": "offerId",
          "type": "uint256"
        },
        {
          "indexed": false,
          "internalType": "uint256",
          "name": "weight",
          "type": "uint256"
        },
        {
          "indexed": false,
          "internalType": "uint256",
          "name": "priceAgreed",
          "type": "uint256"
        }
      ],
      "name": "RequestCreated",
      "type": "event"
    },
    {
      "anonymous": false,
      "inputs": [
        {
          "indexed": true,
          "internalType": "address",
          "name": "userAddress",
          "type": "address"
        },
        {
          "indexed": false,
          "internalType": "bool",
          "name": "isRegistered",
          "type": "bool"
        }
      ],
      "name": "UserCreated",
      "type": "event"
    },
    {
      "anonymous": false,
      "inputs": [
        {
          "indexed": true,
          "internalType": "uint256",
          "name": "collectorId",
          "type": "uint256"
        },
        {
          "indexed": true,
          "internalType": "address",
          "name": "_collectorAddress",
          "type": "address"
        },
        {
          "indexed": false,
          "internalType": "string",
          "name": "_name",
          "type": "string"
        },
        {
          "indexed": false,
          "internalType": "string",
          "name": "_contact",
          "type": "string"
        }
      ],
      "name": "collectorCreated",
      "type": "event"
    },
    {
      "stateMutability": "payable",
      "type": "fallback"
    },
    {
      "inputs": [
        {
          "internalType": "uint256",
          "name": "_requestID",
          "type": "uint256"
        },
        {
          "internalType": "address",
          "name": "_collectorAddress",
          "type": "address"
        }
      ],
      "name": "acceptRequest",
      "outputs": [],
      "stateMutability": "payable",
      "type": "function"
    },
    {
      "inputs": [
        {
          "internalType": "uint256",
          "name": "_requestID",
          "type": "uint256"
        }
      ],
      "name": "cancelRequestAndRefund",
      "outputs": [],
      "stateMutability": "nonpayable",
      "type": "function"
    },
    {
      "inputs": [
        {
          "internalType": "uint256",
          "name": "_requestID",
          "type": "uint256"
        }
      ],
      "name": "confirmRequest",
      "outputs": [],
      "stateMutability": "payable",
      "type": "function"
    },
    {
      "inputs": [
        {
          "internalType": "address",
          "name": "_collectorAddress",
          "type": "address"
        },
        {
          "internalType": "string",
          "name": "_name",
          "type": "string"
        },
        {
          "internalType": "string",
          "name": "_contact",
          "type": "string"
        }
      ],
      "name": "createCollector",
      "outputs": [],
      "stateMutability": "nonpayable",
      "type": "function"
    },
    {
      "inputs": [
        {
          "internalType": "string",
          "name": "_wasteType",
          "type": "string"
        },
        {
          "internalType": "uint256",
          "name": "_pricePerKg",
          "type": "uint256"
        },
        {
          "internalType": "uint256",
          "name": "_miniQuantity",
          "type": "uint256"
        }
      ],
      "name": "createOffer",
      "outputs": [],
      "stateMutability": "nonpayable",
      "type": "function"
    },
    {
      "inputs": [
        {
          "internalType": "address",
          "name": "_recyclerAddress",
          "type": "address"
        },
        {
          "internalType": "string",
          "name": "_location",
          "type": "string"
        },
        {
          "internalType": "int32",
          "name": "lat",
          "type": "int32"
        },
        {
          "internalType": "int32",
          "name": "lon",
          "type": "int32"
        }
      ],
      "name": "createRecycler",
      "outputs": [
        {
          "internalType": "uint256",
          "name": "",
          "type": "uint256"
        },
        {
          "internalType": "address",
          "name": "",
          "type": "address"
        },
        {
          "internalType": "string",
          "name": "",
          "type": "string"
        },
        {
          "internalType": "bool",
          "name": "",
          "type": "bool"
        }
      ],
      "stateMutability": "nonpayable",
      "type": "function"
    },
    {
      "inputs": [],
      "name": "escrowContract",
      "outputs": [
        {
          "internalType": "contract IEscrow",
          "name": "",
          "type": "address"
        }
      ],
      "stateMutability": "view",
      "type": "function"
    },
    {
      "inputs": [],
      "name": "getAllCollectorRequests",
      "outputs": [
        {
          "internalType": "uint256[]",
          "name": "",
          "type": "uint256[]"
        }
      ],
      "stateMutability": "view",
      "type": "function"
    },
    {
      "inputs": [],
      "name": "getAllUserRequest",
      "outputs": [
        {
          "components": [
            {
              "internalType": "string",
              "name": "wasteType",
              "type": "string"
            },
            {
              "internalType": "uint256",
              "name": "id",
              "type": "uint256"
            },
            {
              "internalType": "uint256",
              "name": "escrowRequestID",
              "type": "uint256"
            },
            {
              "internalType": "uint256",
              "name": "amountPaid",
              "type": "uint256"
            },
            {
              "internalType": "uint32",
              "name": "weight",
              "type": "uint32"
            },
            {
              "internalType": "uint256",
              "name": "valuedAt",
              "type": "uint256"
            },
            {
              "internalType": "uint8",
              "name": "offerId",
              "type": "uint8"
            },
            {
              "internalType": "int32",
              "name": "longitude",
              "type": "int32"
            },
            {
              "internalType": "int32",
              "name": "latitude",
              "type": "int32"
            },
            {
              "internalType": "address",
              "name": "userAddress",
              "type": "address"
            },
            {
              "internalType": "bool",
              "name": "isCompleted",
              "type": "bool"
            },
            {
              "internalType": "enum GreenCycle.RequestStatus",
              "name": "status",
              "type": "uint8"
            },
            {
              "internalType": "address",
              "name": "recyclerAddress",
              "type": "address"
            },
            {
              "internalType": "address",
              "name": "assignedCollector",
              "type": "address"
            },
            {
              "internalType": "bool",
              "name": "isAccepted",
              "type": "bool"
            }
          ],
          "internalType": "struct GreenCycle.WasteCollectionRequest[]",
          "name": "",
          "type": "tuple[]"
        }
      ],
      "stateMutability": "view",
      "type": "function"
    },
    {
      "inputs": [
        {
          "internalType": "address",
          "name": "_addr",
          "type": "address"
        }
      ],
      "name": "getAllUserRequests",
      "outputs": [
        {
          "components": [
            {
              "internalType": "string",
              "name": "wasteType",
              "type": "string"
            },
            {
              "internalType": "uint256",
              "name": "id",
              "type": "uint256"
            },
            {
              "internalType": "uint256",
              "name": "escrowRequestID",
              "type": "uint256"
            },
            {
              "internalType": "uint256",
              "name": "amountPaid",
              "type": "uint256"
            },
            {
              "internalType": "uint32",
              "name": "weight",
              "type": "uint32"
            },
            {
              "internalType": "uint256",
              "name": "valuedAt",
              "type": "uint256"
            },
            {
              "internalType": "uint8",
              "name": "offerId",
              "type": "uint8"
            },
            {
              "internalType": "int32",
              "name": "longitude",
              "type": "int32"
            },
            {
              "internalType": "int32",
              "name": "latitude",
              "type": "int32"
            },
            {
              "internalType": "address",
              "name": "userAddress",
              "type": "address"
            },
            {
              "internalType": "bool",
              "name": "isCompleted",
              "type": "bool"
            },
            {
              "internalType": "enum GreenCycle.RequestStatus",
              "name": "status",
              "type": "uint8"
            },
            {
              "internalType": "address",
              "name": "recyclerAddress",
              "type": "address"
            },
            {
              "internalType": "address",
              "name": "assignedCollector",
              "type": "address"
            },
            {
              "internalType": "bool",
              "name": "isAccepted",
              "type": "bool"
            }
          ],
          "internalType": "struct GreenCycle.WasteCollectionRequest[]",
          "name": "",
          "type": "tuple[]"
        }
      ],
      "stateMutability": "view",
      "type": "function"
    },
    {
      "inputs": [
        {
          "internalType": "address",
          "name": "_address",
          "type": "address"
        }
      ],
      "name": "getCollector",
      "outputs": [
        {
          "components": [
            {
              "internalType": "uint256",
              "name": "id",
              "type": "uint256"
            },
            {
              "internalType": "string",
              "name": "name",
              "type": "string"
            },
            {
              "internalType": "address",
              "name": "collectorAddress",
              "type": "address"
            },
            {
              "internalType": "string",
              "name": "contact",
              "type": "string"
            },
            {
              "internalType": "uint256",
              "name": "numberOfWasteCollected",
              "type": "uint256"
            },
            {
              "internalType": "bool",
              "name": "isAvailable",
              "type": "bool"
            }
          ],
          "internalType": "struct GreenCycle.Collector",
          "name": "",
          "type": "tuple"
        }
      ],
      "stateMutability": "view",
      "type": "function"
    },
    {
      "inputs": [
        {
          "internalType": "uint256",
          "name": "id",
          "type": "uint256"
        }
      ],
      "name": "getRecyclerById",
      "outputs": [
        {
          "components": [
            {
              "internalType": "uint256",
              "name": "id",
              "type": "uint256"
            },
            {
              "internalType": "address",
              "name": "recyclerAddress",
              "type": "address"
            },
            {
              "internalType": "string",
              "name": "location",
              "type": "string"
            },
            {
              "internalType": "uint256",
              "name": "rating",
              "type": "uint256"
            },
            {
              "internalType": "bool",
              "name": "isRegistered",
              "type": "bool"
            },
            {
              "internalType": "uint256",
              "name": "totalWasteRequest",
              "type": "uint256"
            },
            {
              "internalType": "uint256",
              "name": "totalAmountSpent",
              "type": "uint256"
            },
            {
              "internalType": "uint256",
              "name": "totalWasteCollectedInKgs",
              "type": "uint256"
            }
          ],
          "internalType": "struct GreenCycle.Recycler",
          "name": "",
          "type": "tuple"
        }
      ],
      "stateMutability": "view",
      "type": "function"
    },
    {
      "inputs": [
        {
          "internalType": "address",
          "name": "_recyclerAddress",
          "type": "address"
        }
      ],
      "name": "getRecyclerCollectors",
      "outputs": [
        {
          "components": [
            {
              "internalType": "uint256",
              "name": "id",
              "type": "uint256"
            },
            {
              "internalType": "string",
              "name": "name",
              "type": "string"
            },
            {
              "internalType": "address",
              "name": "collectorAddress",
              "type": "address"
            },
            {
              "internalType": "string",
              "name": "contact",
              "type": "string"
            },
            {
              "internalType": "uint256",
              "name": "numberOfWasteCollected",
              "type": "uint256"
            },
            {
              "internalType": "bool",
              "name": "isAvailable",
              "type": "bool"
            }
          ],
          "internalType": "struct GreenCycle.Collector[]",
          "name": "",
          "type": "tuple[]"
        }
      ],
      "stateMutability": "view",
      "type": "function"
    },
    {
      "inputs": [
        {
          "internalType": "uint256",
          "name": "_id",
          "type": "uint256"
        }
      ],
      "name": "getRecyclerOffers",
      "outputs": [
        {
          "components": [
            {
              "internalType": "uint256",
              "name": "offerId",
              "type": "uint256"
            },
            {
              "internalType": "string",
              "name": "name",
              "type": "string"
            },
            {
              "internalType": "address",
              "name": "recyclerAddress",
              "type": "address"
            },
            {
              "internalType": "uint256",
              "name": "recyclerId",
              "type": "uint256"
            },
            {
              "internalType": "uint256",
              "name": "pricePerKg",
              "type": "uint256"
            },
            {
              "internalType": "uint256",
              "name": "minQuantity",
              "type": "uint256"
            }
          ],
          "internalType": "struct GreenCycle.Offer[]",
          "name": "",
          "type": "tuple[]"
        }
      ],
      "stateMutability": "view",
      "type": "function"
    },
    {
      "inputs": [
        {
          "internalType": "uint256",
          "name": "_recyclerId",
          "type": "uint256"
        }
      ],
      "name": "getRecyclerRequests",
      "outputs": [
        {
          "components": [
            {
              "internalType": "string",
              "name": "wasteType",
              "type": "string"
            },
            {
              "internalType": "uint256",
              "name": "id",
              "type": "uint256"
            },
            {
              "internalType": "uint256",
              "name": "escrowRequestID",
              "type": "uint256"
            },
            {
              "internalType": "uint256",
              "name": "amountPaid",
              "type": "uint256"
            },
            {
              "internalType": "uint32",
              "name": "weight",
              "type": "uint32"
            },
            {
              "internalType": "uint256",
              "name": "valuedAt",
              "type": "uint256"
            },
            {
              "internalType": "uint8",
              "name": "offerId",
              "type": "uint8"
            },
            {
              "internalType": "int32",
              "name": "longitude",
              "type": "int32"
            },
            {
              "internalType": "int32",
              "name": "latitude",
              "type": "int32"
            },
            {
              "internalType": "address",
              "name": "userAddress",
              "type": "address"
            },
            {
              "internalType": "bool",
              "name": "isCompleted",
              "type": "bool"
            },
            {
              "internalType": "enum GreenCycle.RequestStatus",
              "name": "status",
              "type": "uint8"
            },
            {
              "internalType": "address",
              "name": "recyclerAddress",
              "type": "address"
            },
            {
              "internalType": "address",
              "name": "assignedCollector",
              "type": "address"
            },
            {
              "internalType": "bool",
              "name": "isAccepted",
              "type": "bool"
            }
          ],
          "internalType": "struct GreenCycle.WasteCollectionRequest[]",
          "name": "",
          "type": "tuple[]"
        }
      ],
      "stateMutability": "view",
      "type": "function"
    },
    {
      "inputs": [
        {
          "internalType": "address",
          "name": "_userAddress",
          "type": "address"
        }
      ],
      "name": "getUser",
      "outputs": [
        {
          "components": [
            {
              "internalType": "uint256",
              "name": "id",
              "type": "uint256"
            },
            {
              "internalType": "address",
              "name": "userAddress",
              "type": "address"
            },
            {
              "components": [
                {
                  "internalType": "int32",
                  "name": "latitude",
                  "type": "int32"
                },
                {
                  "internalType": "int32",
                  "name": "longitude",
                  "type": "int32"
                }
              ],
              "internalType": "struct GreenCycle.Coordinates",
              "name": "location",
              "type": "tuple"
            },
            {
              "internalType": "bool",
              "name": "isRegistered",
              "type": "bool"
            },
            {
              "internalType": "uint256",
              "name": "totalWasteSubmited",
              "type": "uint256"
            },
            {
              "internalType": "uint256",
              "name": "totalReward",
              "type": "uint256"
            }
          ],
          "internalType": "struct GreenCycle.User",
          "name": "",
          "type": "tuple"
        }
      ],
      "stateMutability": "view",
      "type": "function"
    },
    {
      "inputs": [
        {
          "internalType": "address",
          "name": "_userAddress",
          "type": "address"
        }
      ],
      "name": "getUserRole",
      "outputs": [
        {
          "internalType": "string",
          "name": "role",
          "type": "string"
        },
        {
          "internalType": "uint256",
          "name": "id",
          "type": "uint256"
        },
        {
          "internalType": "address",
          "name": "addr",
          "type": "address"
        },
        {
          "internalType": "int32",
          "name": "latitude",
          "type": "int32"
        },
        {
          "internalType": "int32",
          "name": "longitude",
          "type": "int32"
        },
        {
          "internalType": "string",
          "name": "location",
          "type": "string"
        },
        {
          "internalType": "bool",
          "name": "isRegistered",
          "type": "bool"
        }
      ],
      "stateMutability": "view",
      "type": "function"
    },
    {
      "inputs": [
        {
          "internalType": "uint256",
          "name": "_recyclerId",
          "type": "uint256"
        },
        {
          "internalType": "uint8",
          "name": "_offerId",
          "type": "uint8"
        },
        {
          "internalType": "uint32",
          "name": "_weight",
          "type": "uint32"
        },
        {
          "internalType": "uint256",
          "name": "_price",
          "type": "uint256"
        },
        {
          "internalType": "int32",
          "name": "_latitude",
          "type": "int32"
        },
        {
          "internalType": "int32",
          "name": "_longitude",
          "type": "int32"
        }
      ],
      "name": "makeRequest",
      "outputs": [],
      "stateMutability": "nonpayable",
      "type": "function"
    },
    {
      "inputs": [
        {
          "internalType": "address",
          "name": "_addr",
          "type": "address"
        }
      ],
      "name": "recyclerOffers",
      "outputs": [
        {
          "components": [
            {
              "internalType": "uint256",
              "name": "offerId",
              "type": "uint256"
            },
            {
              "internalType": "string",
              "name": "name",
              "type": "string"
            },
            {
              "internalType": "address",
              "name": "recyclerAddress",
              "type": "address"
            },
            {
              "internalType": "uint256",
              "name": "recyclerId",
              "type": "uint256"
            },
            {
              "internalType": "uint256",
              "name": "pricePerKg",
              "type": "uint256"
            },
            {
              "internalType": "uint256",
              "name": "minQuantity",
              "type": "uint256"
            }
          ],
          "internalType": "struct GreenCycle.Offer[]",
          "name": "",
          "type": "tuple[]"
        }
      ],
      "stateMutability": "view",
      "type": "function"
    },
    {
      "inputs": [
        {
          "internalType": "address",
          "name": "_address",
          "type": "address"
        }
      ],
      "name": "recyclers",
      "outputs": [
        {
          "components": [
            {
              "internalType": "uint256",
              "name": "id",
              "type": "uint256"
            },
            {
              "internalType": "address",
              "name": "recyclerAddress",
              "type": "address"
            },
            {
              "internalType": "string",
              "name": "location",
              "type": "string"
            },
            {
              "internalType": "uint256",
              "name": "rating",
              "type": "uint256"
            },
            {
              "internalType": "bool",
              "name": "isRegistered",
              "type": "bool"
            },
            {
              "internalType": "uint256",
              "name": "totalWasteRequest",
              "type": "uint256"
            },
            {
              "internalType": "uint256",
              "name": "totalAmountSpent",
              "type": "uint256"
            },
            {
              "internalType": "uint256",
              "name": "totalWasteCollectedInKgs",
              "type": "uint256"
            }
          ],
          "internalType": "struct GreenCycle.Recycler",
          "name": "",
          "type": "tuple"
        }
      ],
      "stateMutability": "view",
      "type": "function"
    },
    {
      "inputs": [],
      "name": "seeAllRecyclers",
      "outputs": [
        {
          "components": [
            {
              "internalType": "uint256",
              "name": "id",
              "type": "uint256"
            },
            {
              "internalType": "address",
              "name": "recyclerAddress",
              "type": "address"
            },
            {
              "internalType": "string",
              "name": "location",
              "type": "string"
            },
            {
              "internalType": "uint256",
              "name": "rating",
              "type": "uint256"
            },
            {
              "internalType": "bool",
              "name": "isRegistered",
              "type": "bool"
            },
            {
              "internalType": "uint256",
              "name": "totalWasteRequest",
              "type": "uint256"
            },
            {
              "internalType": "uint256",
              "name": "totalAmountSpent",
              "type": "uint256"
            },
            {
              "internalType": "uint256",
              "name": "totalWasteCollectedInKgs",
              "type": "uint256"
            }
          ],
          "internalType": "struct GreenCycle.Recycler[]",
          "name": "",
          "type": "tuple[]"
        }
      ],
      "stateMutability": "view",
      "type": "function"
    },
    {
      "inputs": [
        {
          "internalType": "uint256",
          "name": "_requestID",
          "type": "uint256"
        }
      ],
      "name": "showRequest",
      "outputs": [
        {
          "components": [
            {
              "internalType": "string",
              "name": "wasteType",
              "type": "string"
            },
            {
              "internalType": "uint256",
              "name": "id",
              "type": "uint256"
            },
            {
              "internalType": "uint256",
              "name": "escrowRequestID",
              "type": "uint256"
            },
            {
              "internalType": "uint256",
              "name": "amountPaid",
              "type": "uint256"
            },
            {
              "internalType": "uint32",
              "name": "weight",
              "type": "uint32"
            },
            {
              "internalType": "uint256",
              "name": "valuedAt",
              "type": "uint256"
            },
            {
              "internalType": "uint8",
              "name": "offerId",
              "type": "uint8"
            },
            {
              "internalType": "int32",
              "name": "longitude",
              "type": "int32"
            },
            {
              "internalType": "int32",
              "name": "latitude",
              "type": "int32"
            },
            {
              "internalType": "address",
              "name": "userAddress",
              "type": "address"
            },
            {
              "internalType": "bool",
              "name": "isCompleted",
              "type": "bool"
            },
            {
              "internalType": "enum GreenCycle.RequestStatus",
              "name": "status",
              "type": "uint8"
            },
            {
              "internalType": "address",
              "name": "recyclerAddress",
              "type": "address"
            },
            {
              "internalType": "address",
              "name": "assignedCollector",
              "type": "address"
            },
            {
              "internalType": "bool",
              "name": "isAccepted",
              "type": "bool"
            }
          ],
          "internalType": "struct GreenCycle.WasteCollectionRequest",
          "name": "",
          "type": "tuple"
        }
      ],
      "stateMutability": "view",
      "type": "function"
    },
    {
      "inputs": [
        {
          "internalType": "uint256",
          "name": "_offerId",
          "type": "uint256"
        },
        {
          "internalType": "string",
          "name": "_name",
          "type": "string"
        },
        {
          "internalType": "address",
          "name": "_recyclerAddress",
          "type": "address"
        },
        {
          "internalType": "uint256",
          "name": "_pricePerKg",
          "type": "uint256"
        },
        {
          "internalType": "uint256",
          "name": "_minQuantity",
          "type": "uint256"
        }
      ],
      "name": "updateOffer",
      "outputs": [
        {
          "components": [
            {
              "internalType": "uint256",
              "name": "offerId",
              "type": "uint256"
            },
            {
              "internalType": "string",
              "name": "name",
              "type": "string"
            },
            {
              "internalType": "address",
              "name": "recyclerAddress",
              "type": "address"
            },
            {
              "internalType": "uint256",
              "name": "recyclerId",
              "type": "uint256"
            },
            {
              "internalType": "uint256",
              "name": "pricePerKg",
              "type": "uint256"
            },
            {
              "internalType": "uint256",
              "name": "minQuantity",
              "type": "uint256"
            }
          ],
          "internalType": "struct GreenCycle.Offer",
          "name": "",
          "type": "tuple"
        }
      ],
      "stateMutability": "nonpayable",
      "type": "function"
    },
    {
      "inputs": [
        {
          "internalType": "uint256",
          "name": "_requestID",
          "type": "uint256"
        }
      ],
      "name": "userCancelRequest",
      "outputs": [],
      "stateMutability": "nonpayable",
      "type": "function"
    },
    {
      "inputs": [
        {
          "internalType": "address",
          "name": "_recyclerAddress",
          "type": "address"
        },
        {
          "internalType": "uint256",
          "name": "_offerId",
          "type": "uint256"
        }
      ],
      "name": "viewOffer",
      "outputs": [
        {
          "components": [
            {
              "internalType": "uint256",
              "name": "offerId",
              "type": "uint256"
            },
            {
              "internalType": "string",
              "name": "name",
              "type": "string"
            },
            {
              "internalType": "address",
              "name": "recyclerAddress",
              "type": "address"
            },
            {
              "internalType": "uint256",
              "name": "recyclerId",
              "type": "uint256"
            },
            {
              "internalType": "uint256",
              "name": "pricePerKg",
              "type": "uint256"
            },
            {
              "internalType": "uint256",
              "name": "minQuantity",
              "type": "uint256"
            }
          ],
          "internalType": "struct GreenCycle.Offer",
          "name": "",
          "type": "tuple"
        }
      ],
      "stateMutability": "view",
      "type": "function"
    },
    {
      "inputs": [],
      "name": "withdrawFunds",
      "outputs": [],
      "stateMutability": "nonpayable",
      "type": "function"
    },
    {
      "stateMutability": "payable",
      "type": "receive"
    }
  ],
  "bytecode": "0x60806040523480156200001157600080fd5b5060405162004f3438038062004f34833981810160405281019062000037919062000129565b806000806101000a81548173ffffffffffffffffffffffffffffffffffffffff021916908373ffffffffffffffffffffffffffffffffffffffff16021790555033600160006101000a81548173ffffffffffffffffffffffffffffffffffffffff021916908373ffffffffffffffffffffffffffffffffffffffff160217905550506200015b565b600080fd5b600073ffffffffffffffffffffffffffffffffffffffff82169050919050565b6000620000f182620000c4565b9050919050565b6200010381620000e4565b81146200010f57600080fd5b50565b6000815190506200012381620000f8565b92915050565b600060208284031215620001425762000141620000bf565b5b6000620001528482850162000112565b91505092915050565b614dc9806200016b6000396000f3fe6080604052600436106101855760003560e01c80637a3a9cbd116100d1578063af9dca071161008a578063ea150c8711610064578063ea150c8714610649578063eb73836a14610686578063ebc68418146106af578063f6556c2a146106ec576101c5565b8063af9dca07146105c5578063daba858a14610602578063e42a96e71461061e576101c5565b80637a3a9cbd146104b05780637a7bd4c2146104ed5780639be32e85146105185780639e05725214610543578063a6b2c43714610580578063a7fd1dbd1461059c576101c5565b80635959ae7b1161013e5780636f77926b116101185780636f77926b146103bc578063753cc977146103f9578063768b3f671461043657806377acab5714610473576101c5565b80635959ae7b146103175780635ccdd426146103545780636eebc5f314610391576101c5565b806301f1d458146102055780631e8d6bcf1461022e57806324600fc31461026b57806327820851146102825780632b5bb6a4146102c557806355490901146102ee576101c5565b366101c5577f98c44cd71a4f8250380570aaf8bf1f0fd2a19bc3428a18a782e9e4d6c1928b1333346040516101bb92919061270d565b60405180910390a1005b7f20b9b3489992921b2007700aa9859d96f2e511d719c19c44fbf72becb1e356d933346000366040516101fb9493929190612794565b60405180910390a1005b34801561021157600080fd5b5061022c6004803603810190610227919061293a565b61072c565b005b34801561023a57600080fd5b50610255600480360381019061025091906129f1565b610803565b6040516102629190612b86565b60405180910390f35b34801561027757600080fd5b5061028061088f565b005b34801561028e57600080fd5b506102a960048036038101906102a49190612ba8565b6109ff565b6040516102bc9796959493929190612c4a565b60405180910390f35b3480156102d157600080fd5b506102ec60048036038101906102e79190612d68565b610aa1565b005b3480156102fa57600080fd5b50610315600480360381019061031091906129f1565b610b59565b005b34801561032357600080fd5b5061033e60048036038101906103399190612df5565b610bc3565b60405161034b9190612f15565b60405180910390f35b34801561036057600080fd5b5061037b600480360381019061037691906129f1565b610c5b565b604051610388919061311e565b60405180910390f35b34801561039d57600080fd5b506103a6610f94565b6040516103b39190613345565b60405180910390f35b3480156103c857600080fd5b506103e360048036038101906103de9190612ba8565b6112ea565b6040516103f09190613411565b60405180910390f35b34801561040557600080fd5b50610420600480360381019061041b919061342c565b611371565b60405161042d9190612f15565b60405180910390f35b34801561044257600080fd5b5061045d60048036038101906104589190612ba8565b611400565b60405161046a91906135be565b60405180910390f35b34801561047f57600080fd5b5061049a600480360381019061049591906129f1565b611486565b6040516104a7919061372b565b60405180910390f35b3480156104bc57600080fd5b506104d760048036038101906104d29190612ba8565b61150c565b6040516104e49190612b86565b60405180910390f35b3480156104f957600080fd5b506105026116aa565b60405161050f91906138bf565b60405180910390f35b34801561052457600080fd5b5061052d611723565b60405161053a9190613990565b60405180910390f35b34801561054f57600080fd5b5061056a60048036038101906105659190612ba8565b61179c565b6040516105779190613a42565b60405180910390f35b61059a600480360381019061059591906129f1565b611828565b005b3480156105a857600080fd5b506105c360048036038101906105be9190613a64565b6118ed565b005b3480156105d157600080fd5b506105ec60048036038101906105e791906129f1565b6119af565b6040516105f99190613345565b60405180910390f35b61061c60048036038101906106179190613ad3565b611cdb565b005b34801561062a57600080fd5b50610633611da5565b6040516106409190613b72565b60405180910390f35b34801561065557600080fd5b50610670600480360381019061066b9190612ba8565b611dc9565b60405161067d9190613345565b60405180910390f35b34801561069257600080fd5b506106ad60048036038101906106a891906129f1565b612121565b005b3480156106bb57600080fd5b506106d660048036038101906106d19190612ba8565b6121e4565b6040516106e3919061372b565b60405180910390f35b3480156106f857600080fd5b50610713600480360381019061070e9190613b8d565b6123a1565b6040516107239493929190613c10565b60405180910390f35b600073__$cfc12a62ee422e8fec11e61282c8e0deab$__6301f1d4588585856040518463ffffffff1660e01b815260040161076993929190613cb5565b602060405180830381865af4158015610786573d6000803e3d6000fd5b505050506040513d601f19601f820116820180604052508101906107aa9190613d0f565b90508373ffffffffffffffffffffffffffffffffffffffff16817f57703cced4b8e55366ffa9909d3b79e6acfaf1f9d600abdac9dbfa3eb59f30cf85856040516107f5929190613d3c565b60405180910390a350505050565b61080b61246b565b73__$af85ca67d5a286deac57543c12f2a1ab50$__631e8d6bcf836040518263ffffffff1660e01b81526004016108429190613d82565b600060405180830381865af415801561085f573d6000803e3d6000fd5b505050506040513d6000823e3d601f19601f820116820180604052508101906108889190613f3e565b9050919050565b600160009054906101000a900473ffffffffffffffffffffffffffffffffffffffff1673ffffffffffffffffffffffffffffffffffffffff163373ffffffffffffffffffffffffffffffffffffffff161461091f576040517f08c379a000000000000000000000000000000000000000000000000000000000815260040161091690613fd3565b60405180910390fd5b600047905060008103610967576040517f08c379a000000000000000000000000000000000000000000000000000000000815260040161095e90614065565b60405180910390fd5b3373ffffffffffffffffffffffffffffffffffffffff166108fc829081150290604051600060405180830381858888f193505050501580156109ad573d6000803e3d6000fd5b503373ffffffffffffffffffffffffffffffffffffffff167feaff4b37086828766ad3268786972c0cd24259d4c87a80f9d3963a3c3d999b0d826040516109f49190614085565b60405180910390a250565b60606000806000806060600073__$0e66d9a957af3e9052f384398e43d1f7b4$__6327820851896040518263ffffffff1660e01b8152600401610a4291906140a0565b600060405180830381865af4158015610a5f573d6000803e3d6000fd5b505050506040513d6000823e3d601f19601f82011682018060405250810190610a8891906140d0565b9650965096509650965096509650919395979092949650565b73__$f3280732c64036b4961117660a4480a333$__632b5bb6a48787878787876040518763ffffffff1660e01b8152600401610ae2969594939291906141d7565b60006040518083038186803b158015610afa57600080fd5b505af4158015610b0e573d6000803e3d6000fd5b505050507f9bcc19eb398e0bcfcff0f7947b3230c96ea1830c3f12e79b8ee7e4c2e00fc60a8633878787604051610b4995949392919061429a565b60405180910390a1505050505050565b73__$f3280732c64036b4961117660a4480a333$__6355490901826040518263ffffffff1660e01b8152600401610b909190613d82565b60006040518083038186803b158015610ba857600080fd5b505af4158015610bbc573d6000803e3d6000fd5b5050505050565b610bcb6124c8565b73__$af85ca67d5a286deac57543c12f2a1ab50$__635959ae7b87878787876040518663ffffffff1660e01b8152600401610c0a9594939291906142ed565b600060405180830381865af4158015610c27573d6000803e3d6000fd5b505050506040513d6000823e3d601f19601f82011682018060405250810190610c509190614403565b905095945050505050565b610c63612514565b6000610c6d61243e565b9050600081600c0160008581526020019081526020016000206001015403610cc1576040517f9e9468f300000000000000000000000000000000000000000000000000000000815260040160405180910390fd5b80600c016000848152602001908152602001600020604051806101e0016040529081600082018054610cf29061447b565b80601f0160208091040260200160405190810160405280929190818152602001828054610d1e9061447b565b8015610d6b5780601f10610d4057610100808354040283529160200191610d6b565b820191906000526020600020905b815481529060010190602001808311610d4e57829003601f168201915b505050505081526020016001820154815260200160028201548152602001600382015481526020016004820160009054906101000a900463ffffffff1663ffffffff1663ffffffff168152602001600582015481526020016006820160009054906101000a900460ff1660ff1660ff1681526020016006820160019054906101000a900460030b60030b60030b81526020016006820160059054906101000a900460030b60030b60030b81526020016006820160099054906101000a900473ffffffffffffffffffffffffffffffffffffffff1673ffffffffffffffffffffffffffffffffffffffff1673ffffffffffffffffffffffffffffffffffffffff16815260200160068201601d9054906101000a900460ff1615151515815260200160068201601e9054906101000a900460ff166003811115610eaf57610eae612f64565b5b6003811115610ec157610ec0612f64565b5b81526020016007820160009054906101000a900473ffffffffffffffffffffffffffffffffffffffff1673ffffffffffffffffffffffffffffffffffffffff1673ffffffffffffffffffffffffffffffffffffffff1681526020016008820160009054906101000a900473ffffffffffffffffffffffffffffffffffffffff1673ffffffffffffffffffffffffffffffffffffffff1673ffffffffffffffffffffffffffffffffffffffff1681526020016008820160149054906101000a900460ff161515151581525050915050919050565b60606000610fa061243e565b905080600d0160003373ffffffffffffffffffffffffffffffffffffffff1673ffffffffffffffffffffffffffffffffffffffff168152602001908152602001600020805480602002602001604051908101604052809291908181526020016000905b828210156112e05783829060005260206000209060090201604051806101e00160405290816000820180546110379061447b565b80601f01602080910402602001604051908101604052809291908181526020018280546110639061447b565b80156110b05780601f10611085576101008083540402835291602001916110b0565b820191906000526020600020905b81548152906001019060200180831161109357829003601f168201915b505050505081526020016001820154815260200160028201548152602001600382015481526020016004820160009054906101000a900463ffffffff1663ffffffff1663ffffffff168152602001600582015481526020016006820160009054906101000a900460ff1660ff1660ff1681526020016006820160019054906101000a900460030b60030b60030b81526020016006820160059054906101000a900460030b60030b60030b81526020016006820160099054906101000a900473ffffffffffffffffffffffffffffffffffffffff1673ffffffffffffffffffffffffffffffffffffffff1673ffffffffffffffffffffffffffffffffffffffff16815260200160068201601d9054906101000a900460ff1615151515815260200160068201601e9054906101000a900460ff1660038111156111f4576111f3612f64565b5b600381111561120657611205612f64565b5b81526020016007820160009054906101000a900473ffffffffffffffffffffffffffffffffffffffff1673ffffffffffffffffffffffffffffffffffffffff1673ffffffffffffffffffffffffffffffffffffffff1681526020016008820160009054906101000a900473ffffffffffffffffffffffffffffffffffffffff1673ffffffffffffffffffffffffffffffffffffffff1673ffffffffffffffffffffffffffffffffffffffff1681526020016008820160149054906101000a900460ff16151515158152505081526020019060010190611003565b5050505091505090565b6112f26125f1565b73__$0e66d9a957af3e9052f384398e43d1f7b4$__636f77926b836040518263ffffffff1660e01b815260040161132991906140a0565b60e060405180830381865af4158015611346573d6000803e3d6000fd5b505050506040513d601f19601f8201168201806040525081019061136a919061459c565b9050919050565b6113796124c8565b73__$af85ca67d5a286deac57543c12f2a1ab50$__63753cc97784846040518363ffffffff1660e01b81526004016113b29291906145c9565b600060405180830381865af41580156113cf573d6000803e3d6000fd5b505050506040513d6000823e3d601f19601f820116820180604052508101906113f89190614403565b905092915050565b606073__$cfc12a62ee422e8fec11e61282c8e0deab$__63768b3f67836040518263ffffffff1660e01b815260040161143991906140a0565b600060405180830381865af4158015611456573d6000803e3d6000fd5b505050506040513d6000823e3d601f19601f8201168201806040525081019061147f91906147b0565b9050919050565b606073__$af85ca67d5a286deac57543c12f2a1ab50$__6377acab57836040518263ffffffff1660e01b81526004016114bf9190613d82565b600060405180830381865af41580156114dc573d6000803e3d6000fd5b505050506040513d6000823e3d601f19601f8201168201806040525081019061150591906148da565b9050919050565b61151461246b565b600061151e61243e565b90508060050160008473ffffffffffffffffffffffffffffffffffffffff1673ffffffffffffffffffffffffffffffffffffffff16815260200190815260200160002060405180610100016040529081600082015481526020016001820160009054906101000a900473ffffffffffffffffffffffffffffffffffffffff1673ffffffffffffffffffffffffffffffffffffffff1673ffffffffffffffffffffffffffffffffffffffff1681526020016002820180546115dd9061447b565b80601f01602080910402602001604051908101604052809291908181526020018280546116099061447b565b80156116565780601f1061162b57610100808354040283529160200191611656565b820191906000526020600020905b81548152906001019060200180831161163957829003601f168201915b50505050508152602001600382015481526020016004820160009054906101000a900460ff161515151581526020016005820154815260200160068201548152602001600782015481525050915050919050565b606073__$af85ca67d5a286deac57543c12f2a1ab50$__637a7bd4c26040518163ffffffff1660e01b8152600401600060405180830381865af41580156116f5573d6000803e3d6000fd5b505050506040513d6000823e3d601f19601f8201168201806040525081019061171e9190614a04565b905090565b606073__$f3280732c64036b4961117660a4480a333$__639be32e856040518163ffffffff1660e01b8152600401600060405180830381865af415801561176e573d6000803e3d6000fd5b505050506040513d6000823e3d601f19601f820116820180604052508101906117979190614b10565b905090565b6117a4612645565b73__$cfc12a62ee422e8fec11e61282c8e0deab$__639e057252836040518263ffffffff1660e01b81526004016117db91906140a0565b600060405180830381865af41580156117f8573d6000803e3d6000fd5b505050506040513d6000823e3d601f19601f820116820180604052508101906118219190614b59565b9050919050565b73__$f3280732c64036b4961117660a4480a333$__635a4d79438260008054906101000a900473ffffffffffffffffffffffffffffffffffffffff166040518363ffffffff1660e01b8152600401611881929190614bb1565b60006040518083038186803b15801561189957600080fd5b505af41580156118ad573d6000803e3d6000fd5b505050507fb67202e01de5d26f86def24fccaf7364a01b9f5d52d7b122157f5c10907f294f81336040516118e2929190614bda565b60405180910390a150565b73__$af85ca67d5a286deac57543c12f2a1ab50$__63a7fd1dbd8484846040518463ffffffff1660e01b815260040161192893929190614c03565b60006040518083038186803b15801561194057600080fd5b505af4158015611954573d6000803e3d6000fd5b505050503373ffffffffffffffffffffffffffffffffffffffff167fed1ffb8900074c0ed38aa50f58a811976aebd6b5a02c3a17e53b4fc78704c1e98484846040516119a293929190614c41565b60405180910390a2505050565b606060006119bb61243e565b905080600f016000848152602001908152602001600020805480602002602001604051908101604052809291908181526020016000905b82821015611ccf5783829060005260206000209060090201604051806101e0016040529081600082018054611a269061447b565b80601f0160208091040260200160405190810160405280929190818152602001828054611a529061447b565b8015611a9f5780601f10611a7457610100808354040283529160200191611a9f565b820191906000526020600020905b815481529060010190602001808311611a8257829003601f168201915b505050505081526020016001820154815260200160028201548152602001600382015481526020016004820160009054906101000a900463ffffffff1663ffffffff1663ffffffff168152602001600582015481526020016006820160009054906101000a900460ff1660ff1660ff1681526020016006820160019054906101000a900460030b60030b60030b81526020016006820160059054906101000a900460030b60030b60030b81526020016006820160099054906101000a900473ffffffffffffffffffffffffffffffffffffffff1673ffffffffffffffffffffffffffffffffffffffff1673ffffffffffffffffffffffffffffffffffffffff16815260200160068201601d9054906101000a900460ff1615151515815260200160068201601e9054906101000a900460ff166003811115611be357611be2612f64565b5b6003811115611bf557611bf4612f64565b5b81526020016007820160009054906101000a900473ffffffffffffffffffffffffffffffffffffffff1673ffffffffffffffffffffffffffffffffffffffff1673ffffffffffffffffffffffffffffffffffffffff1681526020016008820160009054906101000a900473ffffffffffffffffffffffffffffffffffffffff1673ffffffffffffffffffffffffffffffffffffffff1673ffffffffffffffffffffffffffffffffffffffff1681526020016008820160149054906101000a900460ff161515151581525050815260200190600101906119f2565b50505050915050919050565b73__$f3280732c64036b4961117660a4480a333$__6369d095f583833460008054906101000a900473ffffffffffffffffffffffffffffffffffffffff166040518563ffffffff1660e01b8152600401611d389493929190614c7f565b60006040518083038186803b158015611d5057600080fd5b505af4158015611d64573d6000803e3d6000fd5b505050507fa74a28866064b16e695ebbf53f8b0f9aa0bb93885dbbcc373004f1a052cc42488282604051611d99929190614bda565b60405180910390a15050565b60008054906101000a900473ffffffffffffffffffffffffffffffffffffffff1681565b60606000611dd561243e565b905080600d0160008473ffffffffffffffffffffffffffffffffffffffff1673ffffffffffffffffffffffffffffffffffffffff168152602001908152602001600020805480602002602001604051908101604052809291908181526020016000905b828210156121155783829060005260206000209060090201604051806101e0016040529081600082018054611e6c9061447b565b80601f0160208091040260200160405190810160405280929190818152602001828054611e989061447b565b8015611ee55780601f10611eba57610100808354040283529160200191611ee5565b820191906000526020600020905b815481529060010190602001808311611ec857829003601f168201915b505050505081526020016001820154815260200160028201548152602001600382015481526020016004820160009054906101000a900463ffffffff1663ffffffff1663ffffffff168152602001600582015481526020016006820160009054906101000a900460ff1660ff1660ff1681526020016006820160019054906101000a900460030b60030b60030b81526020016006820160059054906101000a900460030b60030b60030b81526020016006820160099054906101000a900473ffffffffffffffffffffffffffffffffffffffff1673ffffffffffffffffffffffffffffffffffffffff1673ffffffffffffffffffffffffffffffffffffffff16815260200160068201601d9054906101000a900460ff1615151515815260200160068201601e9054906101000a900460ff16600381111561202957612028612f64565b5b600381111561203b5761203a612f64565b5b81526020016007820160009054906101000a900473ffffffffffffffffffffffffffffffffffffffff1673ffffffffffffffffffffffffffffffffffffffff1673ffffffffffffffffffffffffffffffffffffffff1681526020016008820160009054906101000a900473ffffffffffffffffffffffffffffffffffffffff1673ffffffffffffffffffffffffffffffffffffffff1673ffffffffffffffffffffffffffffffffffffffff1681526020016008820160149054906101000a900460ff16151515158152505081526020019060010190611e38565b50505050915050919050565b73__$f3280732c64036b4961117660a4480a333$__639075b0a28260008054906101000a900473ffffffffffffffffffffffffffffffffffffffff166040518363ffffffff1660e01b815260040161217a929190614bb1565b60006040518083038186803b15801561219257600080fd5b505af41580156121a6573d6000803e3d6000fd5b505050507fee243f878b7fc2f54e934ca33783d4395d42bc07612e2bd4b8e0e178639f7a28816040516121d99190614085565b60405180910390a150565b606060006121f061243e565b90508060040160008473ffffffffffffffffffffffffffffffffffffffff1673ffffffffffffffffffffffffffffffffffffffff168152602001908152602001600020805480602002602001604051908101604052809291908181526020016000905b8282101561239557838290600052602060002090600602016040518060c0016040529081600082015481526020016001820180546122909061447b565b80601f01602080910402602001604051908101604052809291908181526020018280546122bc9061447b565b80156123095780601f106122de57610100808354040283529160200191612309565b820191906000526020600020905b8154815290600101906020018083116122ec57829003601f168201915b505050505081526020016002820160009054906101000a900473ffffffffffffffffffffffffffffffffffffffff1673ffffffffffffffffffffffffffffffffffffffff1673ffffffffffffffffffffffffffffffffffffffff168152602001600382015481526020016004820154815260200160058201548152505081526020019060010190612253565b50505050915050919050565b6000806060600073__$af85ca67d5a286deac57543c12f2a1ab50$__63f6556c2a898989896040518563ffffffff1660e01b81526004016123e59493929190614cc4565b600060405180830381865af4158015612402573d6000803e3d6000fd5b505050506040513d6000823e3d601f19601f8201168201806040525081019061242b9190614d10565b9350935093509350945094509450949050565b6000807f3fc430cf53a7ea36e25a560ef7d768c9bb7c830bb49f736b17223d7ae06aaa1c90508091505090565b60405180610100016040528060008152602001600073ffffffffffffffffffffffffffffffffffffffff16815260200160608152602001600081526020016000151581526020016000815260200160008152602001600081525090565b6040518060c001604052806000815260200160608152602001600073ffffffffffffffffffffffffffffffffffffffff1681526020016000815260200160008152602001600081525090565b604051806101e0016040528060608152602001600081526020016000815260200160008152602001600063ffffffff16815260200160008152602001600060ff168152602001600060030b8152602001600060030b8152602001600073ffffffffffffffffffffffffffffffffffffffff168152602001600015158152602001600060038111156125a8576125a7612f64565b5b8152602001600073ffffffffffffffffffffffffffffffffffffffff168152602001600073ffffffffffffffffffffffffffffffffffffffff1681526020016000151581525090565b6040518060c0016040528060008152602001600073ffffffffffffffffffffffffffffffffffffffff168152602001612628612693565b815260200160001515815260200160008152602001600081525090565b6040518060c001604052806000815260200160608152602001600073ffffffffffffffffffffffffffffffffffffffff16815260200160608152602001600081526020016000151581525090565b6040518060400160405280600060030b8152602001600060030b81525090565b600073ffffffffffffffffffffffffffffffffffffffff82169050919050565b60006126de826126b3565b9050919050565b6126ee816126d3565b82525050565b6000819050919050565b612707816126f4565b82525050565b600060408201905061272260008301856126e5565b61272f60208301846126fe565b9392505050565b600082825260208201905092915050565b82818337600083830152505050565b6000601f19601f8301169050919050565b60006127738385612736565b9350612780838584612747565b61278983612756565b840190509392505050565b60006060820190506127a960008301876126e5565b6127b660208301866126fe565b81810360408301526127c9818486612767565b905095945050505050565b6000604051905090565b600080fd5b600080fd5b6127f1816126d3565b81146127fc57600080fd5b50565b60008135905061280e816127e8565b92915050565b600080fd5b600080fd5b7f4e487b7100000000000000000000000000000000000000000000000000000000600052604160045260246000fd5b61285682612756565b810181811067ffffffffffffffff821117156128755761287461281e565b5b80604052505050565b60006128886127d4565b9050612894828261284d565b919050565b600067ffffffffffffffff8211156128b4576128b361281e565b5b6128bd82612756565b9050602081019050919050565b60006128dd6128d884612899565b61287e565b9050828152602081018484840111156128f9576128f8612819565b5b612904848285612747565b509392505050565b600082601f83011261292157612920612814565b5b81356129318482602086016128ca565b91505092915050565b600080600060608486031215612953576129526127de565b5b6000612961868287016127ff565b935050602084013567ffffffffffffffff811115612982576129816127e3565b5b61298e8682870161290c565b925050604084013567ffffffffffffffff8111156129af576129ae6127e3565b5b6129bb8682870161290c565b9150509250925092565b6129ce816126f4565b81146129d957600080fd5b50565b6000813590506129eb816129c5565b92915050565b600060208284031215612a0757612a066127de565b5b6000612a15848285016129dc565b91505092915050565b612a27816126f4565b82525050565b612a36816126d3565b82525050565b600081519050919050565b600082825260208201905092915050565b60005b83811015612a76578082015181840152602081019050612a5b565b60008484015250505050565b6000612a8d82612a3c565b612a978185612a47565b9350612aa7818560208601612a58565b612ab081612756565b840191505092915050565b60008115159050919050565b612ad081612abb565b82525050565b600061010083016000830151612aef6000860182612a1e565b506020830151612b026020860182612a2d565b5060408301518482036040860152612b1a8282612a82565b9150506060830151612b2f6060860182612a1e565b506080830151612b426080860182612ac7565b5060a0830151612b5560a0860182612a1e565b5060c0830151612b6860c0860182612a1e565b5060e0830151612b7b60e0860182612a1e565b508091505092915050565b60006020820190508181036000830152612ba08184612ad6565b905092915050565b600060208284031215612bbe57612bbd6127de565b5b6000612bcc848285016127ff565b91505092915050565b600082825260208201905092915050565b6000612bf182612a3c565b612bfb8185612bd5565b9350612c0b818560208601612a58565b612c1481612756565b840191505092915050565b60008160030b9050919050565b612c3581612c1f565b82525050565b612c4481612abb565b82525050565b600060e0820190508181036000830152612c64818a612be6565b9050612c7360208301896126fe565b612c8060408301886126e5565b612c8d6060830187612c2c565b612c9a6080830186612c2c565b81810360a0830152612cac8185612be6565b9050612cbb60c0830184612c3b565b98975050505050505050565b600060ff82169050919050565b612cdd81612cc7565b8114612ce857600080fd5b50565b600081359050612cfa81612cd4565b92915050565b600063ffffffff82169050919050565b612d1981612d00565b8114612d2457600080fd5b50565b600081359050612d3681612d10565b92915050565b612d4581612c1f565b8114612d5057600080fd5b50565b600081359050612d6281612d3c565b92915050565b60008060008060008060c08789031215612d8557612d846127de565b5b6000612d9389828a016129dc565b9650506020612da489828a01612ceb565b9550506040612db589828a01612d27565b9450506060612dc689828a016129dc565b9350506080612dd789828a01612d53565b92505060a0612de889828a01612d53565b9150509295509295509295565b600080600080600060a08688031215612e1157612e106127de565b5b6000612e1f888289016129dc565b955050602086013567ffffffffffffffff811115612e4057612e3f6127e3565b5b612e4c8882890161290c565b9450506040612e5d888289016127ff565b9350506060612e6e888289016129dc565b9250506080612e7f888289016129dc565b9150509295509295909350565b600060c083016000830151612ea46000860182612a1e565b5060208301518482036020860152612ebc8282612a82565b9150506040830151612ed16040860182612a2d565b506060830151612ee46060860182612a1e565b506080830151612ef76080860182612a1e565b5060a0830151612f0a60a0860182612a1e565b508091505092915050565b60006020820190508181036000830152612f2f8184612e8c565b905092915050565b612f4081612d00565b82525050565b612f4f81612cc7565b82525050565b612f5e81612c1f565b82525050565b7f4e487b7100000000000000000000000000000000000000000000000000000000600052602160045260246000fd5b60048110612fa457612fa3612f64565b5b50565b6000819050612fb582612f93565b919050565b6000612fc582612fa7565b9050919050565b612fd581612fba565b82525050565b60006101e0830160008301518482036000860152612ff98282612a82565b915050602083015161300e6020860182612a1e565b5060408301516130216040860182612a1e565b5060608301516130346060860182612a1e565b5060808301516130476080860182612f37565b5060a083015161305a60a0860182612a1e565b5060c083015161306d60c0860182612f46565b5060e083015161308060e0860182612f55565b50610100830151613095610100860182612f55565b506101208301516130aa610120860182612a2d565b506101408301516130bf610140860182612ac7565b506101608301516130d4610160860182612fcc565b506101808301516130e9610180860182612a2d565b506101a08301516130fe6101a0860182612a2d565b506101c08301516131136101c0860182612ac7565b508091505092915050565b600060208201905081810360008301526131388184612fdb565b905092915050565b600081519050919050565b600082825260208201905092915050565b6000819050602082019050919050565b60006101e083016000830151848203600086015261318a8282612a82565b915050602083015161319f6020860182612a1e565b5060408301516131b26040860182612a1e565b5060608301516131c56060860182612a1e565b5060808301516131d86080860182612f37565b5060a08301516131eb60a0860182612a1e565b5060c08301516131fe60c0860182612f46565b5060e083015161321160e0860182612f55565b50610100830151613226610100860182612f55565b5061012083015161323b610120860182612a2d565b50610140830151613250610140860182612ac7565b50610160830151613265610160860182612fcc565b5061018083015161327a610180860182612a2d565b506101a083015161328f6101a0860182612a2d565b506101c08301516132a46101c0860182612ac7565b508091505092915050565b60006132bb838361316c565b905092915050565b6000602082019050919050565b60006132db82613140565b6132e5818561314b565b9350836020820285016132f78561315c565b8060005b85811015613333578484038952815161331485826132af565b945061331f836132c3565b925060208a019950506001810190506132fb565b50829750879550505050505092915050565b6000602082019050818103600083015261335f81846132d0565b905092915050565b60408201600082015161337d6000850182612f55565b5060208201516133906020850182612f55565b50505050565b60e0820160008201516133ac6000850182612a1e565b5060208201516133bf6020850182612a2d565b5060408201516133d26040850182613367565b5060608201516133e56080850182612ac7565b5060808201516133f860a0850182612a1e565b5060a082015161340b60c0850182612a1e565b50505050565b600060e0820190506134266000830184613396565b92915050565b60008060408385031215613443576134426127de565b5b6000613451858286016127ff565b9250506020613462858286016129dc565b9150509250929050565b600081519050919050565b600082825260208201905092915050565b6000819050602082019050919050565b600060c0830160008301516134b06000860182612a1e565b50602083015184820360208601526134c88282612a82565b91505060408301516134dd6040860182612a2d565b50606083015184820360608601526134f58282612a82565b915050608083015161350a6080860182612a1e565b5060a083015161351d60a0860182612ac7565b508091505092915050565b60006135348383613498565b905092915050565b6000602082019050919050565b60006135548261346c565b61355e8185613477565b93508360208202850161357085613488565b8060005b858110156135ac578484038952815161358d8582613528565b94506135988361353c565b925060208a01995050600181019050613574565b50829750879550505050505092915050565b600060208201905081810360008301526135d88184613549565b905092915050565b600081519050919050565b600082825260208201905092915050565b6000819050602082019050919050565b600060c0830160008301516136246000860182612a1e565b506020830151848203602086015261363c8282612a82565b91505060408301516136516040860182612a2d565b5060608301516136646060860182612a1e565b5060808301516136776080860182612a1e565b5060a083015161368a60a0860182612a1e565b508091505092915050565b60006136a1838361360c565b905092915050565b6000602082019050919050565b60006136c1826135e0565b6136cb81856135eb565b9350836020820285016136dd856135fc565b8060005b8581101561371957848403895281516136fa8582613695565b9450613705836136a9565b925060208a019950506001810190506136e1565b50829750879550505050505092915050565b6000602082019050818103600083015261374581846136b6565b905092915050565b600081519050919050565b600082825260208201905092915050565b6000819050602082019050919050565b6000610100830160008301516137926000860182612a1e565b5060208301516137a56020860182612a2d565b50604083015184820360408601526137bd8282612a82565b91505060608301516137d26060860182612a1e565b5060808301516137e56080860182612ac7565b5060a08301516137f860a0860182612a1e565b5060c083015161380b60c0860182612a1e565b5060e083015161381e60e0860182612a1e565b508091505092915050565b60006138358383613779565b905092915050565b6000602082019050919050565b60006138558261374d565b61385f8185613758565b93508360208202850161387185613769565b8060005b858110156138ad578484038952815161388e8582613829565b94506138998361383d565b925060208a01995050600181019050613875565b50829750879550505050505092915050565b600060208201905081810360008301526138d9818461384a565b905092915050565b600081519050919050565b600082825260208201905092915050565b6000819050602082019050919050565b60006139198383612a1e565b60208301905092915050565b6000602082019050919050565b600061393d826138e1565b61394781856138ec565b9350613952836138fd565b8060005b8381101561398357815161396a888261390d565b975061397583613925565b925050600181019050613956565b5085935050505092915050565b600060208201905081810360008301526139aa8184613932565b905092915050565b600060c0830160008301516139ca6000860182612a1e565b50602083015184820360208601526139e28282612a82565b91505060408301516139f76040860182612a2d565b5060608301518482036060860152613a0f8282612a82565b9150506080830151613a246080860182612a1e565b5060a0830151613a3760a0860182612ac7565b508091505092915050565b60006020820190508181036000830152613a5c81846139b2565b905092915050565b600080600060608486031215613a7d57613a7c6127de565b5b600084013567ffffffffffffffff811115613a9b57613a9a6127e3565b5b613aa78682870161290c565b9350506020613ab8868287016129dc565b9250506040613ac9868287016129dc565b9150509250925092565b60008060408385031215613aea57613ae96127de565b5b6000613af8858286016129dc565b9250506020613b09858286016127ff565b9150509250929050565b6000819050919050565b6000613b38613b33613b2e846126b3565b613b13565b6126b3565b9050919050565b6000613b4a82613b1d565b9050919050565b6000613b5c82613b3f565b9050919050565b613b6c81613b51565b82525050565b6000602082019050613b876000830184613b63565b92915050565b60008060008060808587031215613ba757613ba66127de565b5b6000613bb5878288016127ff565b945050602085013567ffffffffffffffff811115613bd657613bd56127e3565b5b613be28782880161290c565b9350506040613bf387828801612d53565b9250506060613c0487828801612d53565b91505092959194509250565b6000608082019050613c2560008301876126fe565b613c3260208301866126e5565b8181036040830152613c448185612be6565b9050613c536060830184612c3b565b95945050505050565b613c65816126d3565b82525050565b600082825260208201905092915050565b6000613c8782612a3c565b613c918185613c6b565b9350613ca1818560208601612a58565b613caa81612756565b840191505092915050565b6000606082019050613cca6000830186613c5c565b8181036020830152613cdc8185613c7c565b90508181036040830152613cf08184613c7c565b9050949350505050565b600081519050613d09816129c5565b92915050565b600060208284031215613d2557613d246127de565b5b6000613d3384828501613cfa565b91505092915050565b60006040820190508181036000830152613d568185612be6565b90508181036020830152613d6a8184612be6565b90509392505050565b613d7c816126f4565b82525050565b6000602082019050613d976000830184613d73565b92915050565b600080fd5b600080fd5b600081519050613db6816127e8565b92915050565b6000613dcf613dca84612899565b61287e565b905082815260208101848484011115613deb57613dea612819565b5b613df6848285612a58565b509392505050565b600082601f830112613e1357613e12612814565b5b8151613e23848260208601613dbc565b91505092915050565b613e3581612abb565b8114613e4057600080fd5b50565b600081519050613e5281613e2c565b92915050565b60006101008284031215613e6f57613e6e613d9d565b5b613e7a61010061287e565b90506000613e8a84828501613cfa565b6000830152506020613e9e84828501613da7565b602083015250604082015167ffffffffffffffff811115613ec257613ec1613da2565b5b613ece84828501613dfe565b6040830152506060613ee284828501613cfa565b6060830152506080613ef684828501613e43565b60808301525060a0613f0a84828501613cfa565b60a08301525060c0613f1e84828501613cfa565b60c08301525060e0613f3284828501613cfa565b60e08301525092915050565b600060208284031215613f5457613f536127de565b5b600082015167ffffffffffffffff811115613f7257613f716127e3565b5b613f7e84828501613e58565b91505092915050565b7f556e617574686f72697a65640000000000000000000000000000000000000000600082015250565b6000613fbd600c83612bd5565b9150613fc882613f87565b602082019050919050565b60006020820190508181036000830152613fec81613fb0565b9050919050565b7f4e6f2066756e647320617661696c61626c6520666f722077697468647261776160008201527f6c00000000000000000000000000000000000000000000000000000000000000602082015250565b600061404f602183612bd5565b915061405a82613ff3565b604082019050919050565b6000602082019050818103600083015261407e81614042565b9050919050565b600060208201905061409a60008301846126fe565b92915050565b60006020820190506140b56000830184613c5c565b92915050565b6000815190506140ca81612d3c565b92915050565b600080600080600080600060e0888a0312156140ef576140ee6127de565b5b600088015167ffffffffffffffff81111561410d5761410c6127e3565b5b6141198a828b01613dfe565b975050602061412a8a828b01613cfa565b965050604061413b8a828b01613da7565b955050606061414c8a828b016140bb565b945050608061415d8a828b016140bb565b93505060a088015167ffffffffffffffff81111561417e5761417d6127e3565b5b61418a8a828b01613dfe565b92505060c061419b8a828b01613e43565b91505092959891949750929550565b6141b381612cc7565b82525050565b6141c281612d00565b82525050565b6141d181612c1f565b82525050565b600060c0820190506141ec6000830189613d73565b6141f960208301886141aa565b61420660408301876141b9565b6142136060830186613d73565b61422060808301856141c8565b61422d60a08301846141c8565b979650505050505050565b600061425361424e61424984612cc7565b613b13565b6126f4565b9050919050565b61426381614238565b82525050565b600061428461427f61427a84612d00565b613b13565b6126f4565b9050919050565b61429481614269565b82525050565b600060a0820190506142af60008301886126fe565b6142bc60208301876126e5565b6142c9604083018661425a565b6142d6606083018561428b565b6142e360808301846126fe565b9695505050505050565b600060a0820190506143026000830188613d73565b81810360208301526143148187613c7c565b90506143236040830186613c5c565b6143306060830185613d73565b61433d6080830184613d73565b9695505050505050565b600060c0828403121561435d5761435c613d9d565b5b61436760c061287e565b9050600061437784828501613cfa565b600083015250602082015167ffffffffffffffff81111561439b5761439a613da2565b5b6143a784828501613dfe565b60208301525060406143bb84828501613da7565b60408301525060606143cf84828501613cfa565b60608301525060806143e384828501613cfa565b60808301525060a06143f784828501613cfa565b60a08301525092915050565b600060208284031215614419576144186127de565b5b600082015167ffffffffffffffff811115614437576144366127e3565b5b61444384828501614347565b91505092915050565b7f4e487b7100000000000000000000000000000000000000000000000000000000600052602260045260246000fd5b6000600282049050600182168061449357607f821691505b6020821081036144a6576144a561444c565b5b50919050565b6000604082840312156144c2576144c1613d9d565b5b6144cc604061287e565b905060006144dc848285016140bb565b60008301525060206144f0848285016140bb565b60208301525092915050565b600060e0828403121561451257614511613d9d565b5b61451c60c061287e565b9050600061452c84828501613cfa565b600083015250602061454084828501613da7565b6020830152506040614554848285016144ac565b604083015250608061456884828501613e43565b60608301525060a061457c84828501613cfa565b60808301525060c061459084828501613cfa565b60a08301525092915050565b600060e082840312156145b2576145b16127de565b5b60006145c0848285016144fc565b91505092915050565b60006040820190506145de6000830185613c5c565b6145eb6020830184613d73565b9392505050565b600067ffffffffffffffff82111561460d5761460c61281e565b5b602082029050602081019050919050565b600080fd5b600060c0828403121561463957614638613d9d565b5b61464360c061287e565b9050600061465384828501613cfa565b600083015250602082015167ffffffffffffffff81111561467757614676613da2565b5b61468384828501613dfe565b602083015250604061469784828501613da7565b604083015250606082015167ffffffffffffffff8111156146bb576146ba613da2565b5b6146c784828501613dfe565b60608301525060806146db84828501613cfa565b60808301525060a06146ef84828501613e43565b60a08301525092915050565b600061470e614709846145f2565b61287e565b905080838252602082019050602084028301858111156147315761473061461e565b5b835b8181101561477857805167ffffffffffffffff81111561475657614755612814565b5b8086016147638982614623565b85526020850194505050602081019050614733565b5050509392505050565b600082601f83011261479757614796612814565b5b81516147a78482602086016146fb565b91505092915050565b6000602082840312156147c6576147c56127de565b5b600082015167ffffffffffffffff8111156147e4576147e36127e3565b5b6147f084828501614782565b91505092915050565b600067ffffffffffffffff8211156148145761481361281e565b5b602082029050602081019050919050565b6000614838614833846147f9565b61287e565b9050808382526020820190506020840283018581111561485b5761485a61461e565b5b835b818110156148a257805167ffffffffffffffff8111156148805761487f612814565b5b80860161488d8982614347565b8552602085019450505060208101905061485d565b5050509392505050565b600082601f8301126148c1576148c0612814565b5b81516148d1848260208601614825565b91505092915050565b6000602082840312156148f0576148ef6127de565b5b600082015167ffffffffffffffff81111561490e5761490d6127e3565b5b61491a848285016148ac565b91505092915050565b600067ffffffffffffffff82111561493e5761493d61281e565b5b602082029050602081019050919050565b600061496261495d84614923565b61287e565b905080838252602082019050602084028301858111156149855761498461461e565b5b835b818110156149cc57805167ffffffffffffffff8111156149aa576149a9612814565b5b8086016149b78982613e58565b85526020850194505050602081019050614987565b5050509392505050565b600082601f8301126149eb576149ea612814565b5b81516149fb84826020860161494f565b91505092915050565b600060208284031215614a1a57614a196127de565b5b600082015167ffffffffffffffff811115614a3857614a376127e3565b5b614a44848285016149d6565b91505092915050565b600067ffffffffffffffff821115614a6857614a6761281e565b5b602082029050602081019050919050565b6000614a8c614a8784614a4d565b61287e565b90508083825260208201905060208402830185811115614aaf57614aae61461e565b5b835b81811015614ad85780614ac48882613cfa565b845260208401935050602081019050614ab1565b5050509392505050565b600082601f830112614af757614af6612814565b5b8151614b07848260208601614a79565b91505092915050565b600060208284031215614b2657614b256127de565b5b600082015167ffffffffffffffff811115614b4457614b436127e3565b5b614b5084828501614ae2565b91505092915050565b600060208284031215614b6f57614b6e6127de565b5b600082015167ffffffffffffffff811115614b8d57614b8c6127e3565b5b614b9984828501614623565b91505092915050565b614bab81613b51565b82525050565b6000604082019050614bc66000830185613d73565b614bd36020830184614ba2565b9392505050565b6000604082019050614bef60008301856126fe565b614bfc60208301846126e5565b9392505050565b60006060820190508181036000830152614c1d8186613c7c565b9050614c2c6020830185613d73565b614c396040830184613d73565b949350505050565b60006060820190508181036000830152614c5b8186612be6565b9050614c6a60208301856126fe565b614c7760408301846126fe565b949350505050565b6000608082019050614c946000830187613d73565b614ca16020830186613c5c565b614cae6040830185613d73565b614cbb6060830184614ba2565b95945050505050565b6000608082019050614cd96000830187613c5c565b8181036020830152614ceb8186613c7c565b9050614cfa60408301856141c8565b614d0760608301846141c8565b95945050505050565b60008060008060808587031215614d2a57614d296127de565b5b6000614d3887828801613cfa565b9450506020614d4987828801613da7565b935050604085015167ffffffffffffffff811115614d6a57614d696127e3565b5b614d7687828801613dfe565b9250506060614d8787828801613e43565b9150509295919450925056fea264697066735822122024c48c018f9025c3bca66ccbf8c9f8a8daf377b0868bf4a6067932586beebf5664736f6c63430008180033",
  "linkReferences": {
    "contracts/libraries/CollectorLib.sol": {
      "CollectorLib": [
        {
          "length": 20,
          "start": 2203
        },
        {
          "length": 20,
          "start": 5487
        },
        {
          "length": 20,
          "start": 6417
        }
      ]
    },
    "contracts/libraries/RecyclerLib.sol": {
      "RecyclerLib": [
        {
          "length": 20,
          "start": 2424
        },
        {
          "length": 20,
          "start": 3384
        },
        {
          "length": 20,
          "start": 5350
        },
        {
          "length": 20,
          "start": 5621
        },
        {
          "length": 20,
          "start": 6169
        },
        {
          "length": 20,
          "start": 6746
        },
        {
          "length": 20,
          "start": 9493
        }
      ]
    },
    "contracts/libraries/RequestLib.sol": {
      "RequestLib": [
        {
          "length": 20,
          "start": 3086
        },
        {
          "length": 20,
          "start": 3270
        },
        {
          "length": 20,
          "start": 6290
        },
        {
          "length": 20,
          "start": 6549
        },
        {
          "length": 20,
          "start": 7752
        },
        {
          "length": 20,
          "start": 8846
        }
      ]
    },
    "contracts/libraries/UserLib.sol": {
      "UserLib": [
        {
          "length": 20,
          "start": 2936
        },
        {
          "length": 20,
          "start": 5215
        }
      ]
    }
  },
  "deployedLinkReferences": {
    "contracts/libraries/CollectorLib.sol": {
      "CollectorLib": [
        {
          "length": 20,
          "start": 1840
        },
        {
          "length": 20,
          "start": 5124
        },
        {
          "length": 20,
          "start": 6054
        }
      ]
    },
    "contracts/libraries/RecyclerLib.sol": {
      "RecyclerLib": [
        {
          "length": 20,
          "start": 2061
        },
        {
          "length": 20,
          "start": 3021
        },
        {
          "length": 20,
          "start": 4987
        },
        {
          "length": 20,
          "start": 5258
        },
        {
          "length": 20,
          "start": 5806
        },
        {
          "length": 20,
          "start": 6383
        },
        {
          "length": 20,
          "start": 9130
        }
      ]
    },
    "contracts/libraries/RequestLib.sol": {
      "RequestLib": [
        {
          "length": 20,
          "start": 2723
        },
        {
          "length": 20,
          "start": 2907
        },
        {
          "length": 20,
          "start": 5927
        },
        {
          "length": 20,
          "start": 6186
        },
        {
          "length": 20,
          "start": 7389
        },
        {
          "length": 20,
          "start": 8483
        }
      ]
    },
    "contracts/libraries/UserLib.sol": {
      "UserLib": [
        {
          "length": 20,
          "start": 2573
        },
        {
          "length": 20,
          "start": 4852
        }
      ]
    }
  }
}