{
  "_format": "hh-sol-artifact-1",
  "contractName": "RequestLib",
  "sourceName": "contracts/libraries/RequestLib.sol",
  "abi": [
    {
      "inputs": [],
      "name": "ALLREADY_ACCEPTED",
      "type": "error"
    },
    {
      "inputs": [],
      "name": "ALREADY_ACCEPTED",
      "type": "error"
    },
    {
      "inputs": [],
      "name": "ALREADY_COMPLETED",
      "type": "error"
    },
    {
      "inputs": [],
      "name": "AMOUNT_LESS_THAN_AMOUNT_VALUED",
      "type": "error"
    },
    {
      "inputs": [],
      "name": "INVALIDAMOUNT",
      "type": "error"
    },
    {
      "inputs": [],
      "name": "LOWER_THAN_MINQUANTITY",
      "type": "error"
    },
    {
      "inputs": [],
      "name": "NOT_ACCEPTED_YET",
      "type": "error"
    },
    {
      "inputs": [],
      "name": "NOT_ASSIGNED",
      "type": "error"
    },
    {
      "inputs": [],
      "name": "NOT_AUTHORIZED",
      "type": "error"
    },
    {
      "inputs": [],
      "name": "NOT_FOUND",
      "type": "error"
    },
    {
      "inputs": [],
      "name": "NOT_REGISTERED",
      "type": "error"
    },
    {
      "inputs": [],
      "name": "OFFERNOTFOUND",
      "type": "error"
    },
    {
      "inputs": [],
      "name": "ONLY_A_RECYCLER",
      "type": "error"
    },
    {
      "inputs": [],
      "name": "RECYCLERNOTFOUND",
      "type": "error"
    },
    {
      "inputs": [],
      "name": "REGISTERED",
      "type": "error"
    },
    {
      "inputs": [],
      "name": "REQUESTALREADYASSIGNED",
      "type": "error"
    },
    {
      "inputs": [],
      "name": "REQUESTNOTFOUND",
      "type": "error"
    },
    {
      "anonymous": false,
      "inputs": [
        {
          "indexed": false,
          "internalType": "uint256",
          "name": "requestID",
          "type": "uint256"
        }
      ],
      "name": "CollectionRequestCanceled",
      "type": "event"
    },
    {
      "anonymous": false,
      "inputs": [
        {
          "indexed": false,
          "internalType": "address",
          "name": "_user",
          "type": "address"
        },
        {
          "indexed": false,
          "internalType": "int32",
          "name": "_latitude",
          "type": "int32"
        },
        {
          "indexed": false,
          "internalType": "int32",
          "name": "_longitude",
          "type": "int32"
        }
      ],
      "name": "LocationSet",
      "type": "event"
    },
    {
      "anonymous": false,
      "inputs": [
        {
          "indexed": false,
          "internalType": "address",
          "name": "userAddress",
          "type": "address"
        },
        {
          "indexed": false,
          "internalType": "int32",
          "name": "latitude",
          "type": "int32"
        },
        {
          "indexed": false,
          "internalType": "int32",
          "name": "longitude",
          "type": "int32"
        }
      ],
      "name": "NewUserJoined",
      "type": "event"
    },
    {
      "anonymous": false,
      "inputs": [
        {
          "indexed": false,
          "internalType": "uint256",
          "name": "requestID",
          "type": "uint256"
        },
        {
          "indexed": false,
          "internalType": "address",
          "name": "collectorAddress",
          "type": "address"
        }
      ],
      "name": "RequestAccepted",
      "type": "event"
    },
    {
      "anonymous": false,
      "inputs": [
        {
          "indexed": false,
          "internalType": "uint256",
          "name": "_requestId",
          "type": "uint256"
        }
      ],
      "name": "RequestCancelled",
      "type": "event"
    },
    {
      "anonymous": false,
      "inputs": [
        {
          "indexed": false,
          "internalType": "uint256",
          "name": "requestID",
          "type": "uint256"
        },
        {
          "indexed": false,
          "internalType": "address",
          "name": "collectorAddress",
          "type": "address"
        }
      ],
      "name": "RequestConfirmed",
      "type": "event"
    },
    {
      "anonymous": false,
      "inputs": [
        {
          "indexed": false,
          "internalType": "uint256",
          "name": "requestID",
          "type": "uint256"
        },
        {
          "indexed": false,
          "internalType": "address",
          "name": "userAddress",
          "type": "address"
        },
        {
          "indexed": false,
          "internalType": "address",
          "name": "recyclerAddress",
          "type": "address"
        },
        {
          "indexed": false,
          "internalType": "uint256",
          "name": "offerId",
          "type": "uint256"
        },
        {
          "indexed": false,
          "internalType": "uint256",
          "name": "weight",
          "type": "uint256"
        },
        {
          "indexed": false,
          "internalType": "uint256",
          "name": "priceAgreed",
          "type": "uint256"
        }
      ],
      "name": "RequestCreated",
      "type": "event"
    },
    {
      "anonymous": false,
      "inputs": [
        {
          "indexed": true,
          "internalType": "address",
          "name": "userAddress",
          "type": "address"
        },
        {
          "indexed": false,
          "internalType": "bool",
          "name": "isRegistered",
          "type": "bool"
        }
      ],
      "name": "UserCreated",
      "type": "event"
    },
    {
      "inputs": [],
      "name": "getAllCollectorRequests",
      "outputs": [
        {
          "internalType": "uint256[]",
          "name": "",
          "type": "uint256[]"
        }
      ],
      "stateMutability": "view",
      "type": "function"
    }
  ],
  "bytecode": "0x612b71610053600b82828239805160001a607314610046577f4e487b7100000000000000000000000000000000000000000000000000000000600052600060045260246000fd5b30600052607381538281f3fe730000000000000000000000000000000000000000301460806040526004361061006c5760003560e01c80632b5bb6a414610071578063554909011461009a5780635a4d7943146100c357806369d095f5146100ec5780639075b0a2146101155780639be32e851461013e575b600080fd5b81801561007d57600080fd5b5061009860048036038101906100939190612014565b61015c565b005b8180156100a657600080fd5b506100c160048036038101906100bc91906120a1565b610e7f565b005b8180156100cf57600080fd5b506100ea60048036038101906100e5919061213e565b611066565b005b8180156100f857600080fd5b50610113600480360381019061010e91906121aa565b6113ad565b005b81801561012157600080fd5b5061013c6004803603810190610137919061213e565b611841565b005b610146611a8c565b60405161015391906122cf565b60405180910390f35b6000610166611bfa565b905060008160060160008981526020019081526020016000206040518060a0016040529081600082015481526020016001820160009054906101000a900473ffffffffffffffffffffffffffffffffffffffff1673ffffffffffffffffffffffffffffffffffffffff1673ffffffffffffffffffffffffffffffffffffffff1681526020016002820180546101fa90612320565b80601f016020809104026020016040519081016040528092919081815260200182805461022690612320565b80156102735780601f1061024857610100808354040283529160200191610273565b820191906000526020600020905b81548152906001019060200180831161025657829003601f168201915b50505050508152602001600382015481526020016004820160009054906101000a900460ff161515151581525050905060008260090160003373ffffffffffffffffffffffffffffffffffffffff1673ffffffffffffffffffffffffffffffffffffffff16815260200190815260200160002090508060030160009054906101000a900460ff166103505761030733611c27565b5050610314338686611da0565b7f1c7a52659230b09cf86607b0422c07afead12b34ecc5a7a4eaebfcbf761b1b073386866040516103479392919061236f565b60405180910390a15b816080015161038b576040517faf70a7a800000000000000000000000000000000000000000000000000000000815260040160405180910390fd5b60008610156103c6576040517fcabd304a00000000000000000000000000000000000000000000000000000000815260040160405180910390fd5b6000836004016000846020015173ffffffffffffffffffffffffffffffffffffffff1673ffffffffffffffffffffffffffffffffffffffff1681526020019081526020016000208960ff1681548110610422576104216123a6565b5b90600052602060002090600602016040518060c00160405290816000820154815260200160018201805461045590612320565b80601f016020809104026020016040519081016040528092919081815260200182805461048190612320565b80156104ce5780601f106104a3576101008083540402835291602001916104ce565b820191906000526020600020905b8154815290600101906020018083116104b157829003601f168201915b505050505081526020016002820160009054906101000a900473ffffffffffffffffffffffffffffffffffffffff1673ffffffffffffffffffffffffffffffffffffffff1673ffffffffffffffffffffffffffffffffffffffff16815260200160038201548152602001600482015481526020016005820154815250509050600081600001510361058b576040517f7c4afa1100000000000000000000000000000000000000000000000000000000815260040160405180910390fd5b8060a001518863ffffffff1610156105cf576040517f4cababad00000000000000000000000000000000000000000000000000000000815260040160405180910390fd5b600084600b01600081546105e290612404565b9190508190559050600085600c01600083815260200190815260200160002090506001846004016000828254610618919061244c565b92505081905550818160010181905550338160060160096101000a81548173ffffffffffffffffffffffffffffffffffffffff021916908373ffffffffffffffffffffffffffffffffffffffff16021790555084602001518160070160006101000a81548173ffffffffffffffffffffffffffffffffffffffff021916908373ffffffffffffffffffffffffffffffffffffffff1602179055508a8160060160006101000a81548160ff021916908360ff160217905550898160040160006101000a81548163ffffffff021916908363ffffffff160217905550888160050181905550600081600601601e6101000a81548160ff0219169083600381111561072357610722612480565b5b0217905550826020015181600001908161073d9190612695565b50868160060160016101000a81548163ffffffff021916908360030b63ffffffff160217905550878160060160056101000a81548163ffffffff021916908360030b63ffffffff16021790555085600d0160003373ffffffffffffffffffffffffffffffffffffffff1673ffffffffffffffffffffffffffffffffffffffff1681526020019081526020016000208190806001815401808255809150506001900390600052602060002090600c020160009091909190915060008201816000019081610809919061277d565b506001820154816001015560028201548160020155600382015481600301556004820160009054906101000a900463ffffffff168160040160006101000a81548163ffffffff021916908363ffffffff160217905550600582015481600501556006820160009054906101000a900460ff168160060160006101000a81548160ff021916908360ff1602179055506006820160019054906101000a900460030b8160060160016101000a81548163ffffffff021916908360030b63ffffffff1602179055506006820160059054906101000a900460030b8160060160056101000a81548163ffffffff021916908360030b63ffffffff1602179055506006820160099054906101000a900473ffffffffffffffffffffffffffffffffffffffff168160060160096101000a81548173ffffffffffffffffffffffffffffffffffffffff021916908373ffffffffffffffffffffffffffffffffffffffff16021790555060068201601d9054906101000a900460ff1681600601601d6101000a81548160ff02191690831515021790555060068201601e9054906101000a900460ff1681600601601e6101000a81548160ff021916908360038111156109d1576109d0612480565b5b02179055506007820160009054906101000a900473ffffffffffffffffffffffffffffffffffffffff168160070160006101000a81548173ffffffffffffffffffffffffffffffffffffffff021916908373ffffffffffffffffffffffffffffffffffffffff1602179055506008820160009054906101000a900473ffffffffffffffffffffffffffffffffffffffff168160080160006101000a81548173ffffffffffffffffffffffffffffffffffffffff021916908373ffffffffffffffffffffffffffffffffffffffff1602179055506008820160149054906101000a900460ff168160080160146101000a81548160ff02191690831515021790555060098201548160090155600a82015481600a0155600b82015481600b0155505085600f0160008d81526020019081526020016000208190806001815401808255809150506001900390600052602060002090600c020160009091909190915060008201816000019081610b44919061277d565b506001820154816001015560028201548160020155600382015481600301556004820160009054906101000a900463ffffffff168160040160006101000a81548163ffffffff021916908363ffffffff160217905550600582015481600501556006820160009054906101000a900460ff168160060160006101000a81548160ff021916908360ff1602179055506006820160019054906101000a900460030b8160060160016101000a81548163ffffffff021916908360030b63ffffffff1602179055506006820160059054906101000a900460030b8160060160056101000a81548163ffffffff021916908360030b63ffffffff1602179055506006820160099054906101000a900473ffffffffffffffffffffffffffffffffffffffff168160060160096101000a81548173ffffffffffffffffffffffffffffffffffffffff021916908373ffffffffffffffffffffffffffffffffffffffff16021790555060068201601d9054906101000a900460ff1681600601601d6101000a81548160ff02191690831515021790555060068201601e9054906101000a900460ff1681600601601e6101000a81548160ff02191690836003811115610d0c57610d0b612480565b5b02179055506007820160009054906101000a900473ffffffffffffffffffffffffffffffffffffffff168160070160006101000a81548173ffffffffffffffffffffffffffffffffffffffff021916908373ffffffffffffffffffffffffffffffffffffffff1602179055506008820160009054906101000a900473ffffffffffffffffffffffffffffffffffffffff168160080160006101000a81548173ffffffffffffffffffffffffffffffffffffffff021916908373ffffffffffffffffffffffffffffffffffffffff1602179055506008820160149054906101000a900460ff168160080160146101000a81548160ff02191690831515021790555060098201548160090155600a82015481600a0155600b82015481600b015550507f5b55842672aaa440d337fd65bb0154c3a00b886297daf13f4f92aea626a9300b823387602001518e8e8e604051610e69969594939291906128d6565b60405180910390a1505050505050505050505050565b6000610e89611bfa565b9050600081600c01600084815260200190815260200160002090506000816001015403610ee2576040517f9e9468f300000000000000000000000000000000000000000000000000000000815260040160405180910390fd5b3373ffffffffffffffffffffffffffffffffffffffff168160060160099054906101000a900473ffffffffffffffffffffffffffffffffffffffff1673ffffffffffffffffffffffffffffffffffffffff1614610f6b576040517f3d83866f00000000000000000000000000000000000000000000000000000000815260040160405180910390fd5b80600601601d9054906101000a900460ff1615610fb4576040517f8c53d03500000000000000000000000000000000000000000000000000000000815260040160405180910390fd5b8060080160149054906101000a900460ff1615610ffd576040517ff58f825400000000000000000000000000000000000000000000000000000000815260040160405180910390fd5b600381600601601e6101000a81548160ff0219169083600381111561102557611024612480565b5b02179055507fee243f878b7fc2f54e934ca33783d4395d42bc07612e2bd4b8e0e178639f7a28836040516110599190612937565b60405180910390a1505050565b6000611070611bfa565b9050600081600c01600085815260200190815260200160002090503373ffffffffffffffffffffffffffffffffffffffff168160080160009054906101000a900473ffffffffffffffffffffffffffffffffffffffff1673ffffffffffffffffffffffffffffffffffffffff1614611114576040517fd6a0f13100000000000000000000000000000000000000000000000000000000815260040160405180910390fd5b8060080160149054906101000a900460ff1661115c576040517f0150104800000000000000000000000000000000000000000000000000000000815260040160405180910390fd5b80600601601d9054906101000a900460ff16156111a5576040517f8c53d03500000000000000000000000000000000000000000000000000000000815260040160405180910390fd5b600181600601601d6101000a81548160ff021916908315150217905550600281600601601e6101000a81548160ff021916908360038111156111ea576111e9612480565b5b0217905550806005015481600a016000828254611207919061244c565b925050819055508060040160009054906101000a900463ffffffff1663ffffffff1681600b01600082825461123c919061244c565b9250508190555060006064600a83600501546112589190612952565b61126291906129c3565b9050600081836005015461127691906129f4565b905060008460090160008560060160099054906101000a900473ffffffffffffffffffffffffffffffffffffffff1673ffffffffffffffffffffffffffffffffffffffff1673ffffffffffffffffffffffffffffffffffffffff1681526020019081526020016000209050818160050160008282546112f5919061244c565b925050819055508573ffffffffffffffffffffffffffffffffffffffff1663ed65316485600201546040518263ffffffff1660e01b81526004016113399190612937565b600060405180830381600087803b15801561135357600080fd5b505af1158015611367573d6000803e3d6000fd5b505050507fb67202e01de5d26f86def24fccaf7364a01b9f5d52d7b122157f5c10907f294f873360405161139c929190612a28565b60405180910390a150505050505050565b60006113b7611bfa565b905060008160000160008673ffffffffffffffffffffffffffffffffffffffff1673ffffffffffffffffffffffffffffffffffffffff1681526020019081526020016000209050600082600c01600088815260200190815260200160002090503373ffffffffffffffffffffffffffffffffffffffff168160070160009054906101000a900473ffffffffffffffffffffffffffffffffffffffff1673ffffffffffffffffffffffffffffffffffffffff16146114a0576040517f82bc9d7900000000000000000000000000000000000000000000000000000000815260040160405180910390fd5b8060080160149054906101000a900460ff16156114e9576040517fbc177a8900000000000000000000000000000000000000000000000000000000815260040160405180910390fd5b80600601601d9054906101000a900460ff1615611532576040517f8c53d03500000000000000000000000000000000000000000000000000000000815260040160405180910390fd5b600073ffffffffffffffffffffffffffffffffffffffff168160080160009054906101000a900473ffffffffffffffffffffffffffffffffffffffff1673ffffffffffffffffffffffffffffffffffffffff16146115bc576040517f0de81ff500000000000000000000000000000000000000000000000000000000815260040160405180910390fd5b80600501548510156115fa576040517fadea324100000000000000000000000000000000000000000000000000000000815260040160405180910390fd5b60018160080160146101000a81548160ff021916908315150217905550858160080160006101000a81548173ffffffffffffffffffffffffffffffffffffffff021916908373ffffffffffffffffffffffffffffffffffffffff160217905550600181600901600082825461166f919061244c565b92505081905550600181600601601e6101000a81548160ff0219169083600381111561169e5761169d612480565b5b021790555081600401600081546116b490612404565b9190508190555060008473ffffffffffffffffffffffffffffffffffffffff166365582f0483600501548460060160099054906101000a900473ffffffffffffffffffffffffffffffffffffffff168560070160009054906101000a900473ffffffffffffffffffffffffffffffffffffffff1660006040518563ffffffff1660e01b815260040161174893929190612a8c565b60206040518083038185885af1158015611766573d6000803e3d6000fd5b50505050506040513d601f19601f8201168201806040525081019061178b9190612ad8565b905080826002018190555083600e0160008873ffffffffffffffffffffffffffffffffffffffff1673ffffffffffffffffffffffffffffffffffffffff1681526020019081526020016000208890806001815401808255809150506001900390600052602060002001600090919091909150557fa74a28866064b16e695ebbf53f8b0f9aa0bb93885dbbcc373004f1a052cc4248888860405161182f929190612a28565b60405180910390a15050505050505050565b600061184b611bfa565b9050600081600c016000858152602001908152602001600020905080600601601d9054906101000a900460ff16156118af576040517f8c53d03500000000000000000000000000000000000000000000000000000000815260040160405180910390fd5b8060070160009054906101000a900473ffffffffffffffffffffffffffffffffffffffff1673ffffffffffffffffffffffffffffffffffffffff163373ffffffffffffffffffffffffffffffffffffffff161415801561195f57508060080160009054906101000a900473ffffffffffffffffffffffffffffffffffffffff1673ffffffffffffffffffffffffffffffffffffffff163373ffffffffffffffffffffffffffffffffffffffff1614155b15611996576040517f3d83866f00000000000000000000000000000000000000000000000000000000815260040160405180910390fd5b8273ffffffffffffffffffffffffffffffffffffffff1663356f9dfd82600201546040518263ffffffff1660e01b81526004016119d39190612937565b600060405180830381600087803b1580156119ed57600080fd5b505af1158015611a01573d6000803e3d6000fd5b50505050600181600601601d6101000a81548160ff021916908315150217905550600381600601601e6101000a81548160ff02191690836003811115611a4a57611a49612480565b5b02179055507fef59a0001e061d6024146ff061c594fe7dd6cd8036e34925ee279d24840ca50d84604051611a7e9190612937565b60405180910390a150505050565b60606000611a98611bfa565b9050600073ffffffffffffffffffffffffffffffffffffffff168160000160003373ffffffffffffffffffffffffffffffffffffffff1673ffffffffffffffffffffffffffffffffffffffff16815260200190815260200160002060020160009054906101000a900473ffffffffffffffffffffffffffffffffffffffff1673ffffffffffffffffffffffffffffffffffffffff1603611b64576040517f5ffce20a00000000000000000000000000000000000000000000000000000000815260040160405180910390fd5b80600e0160003373ffffffffffffffffffffffffffffffffffffffff1673ffffffffffffffffffffffffffffffffffffffff168152602001908152602001600020805480602002602001604051908101604052809291908181526020018280548015611bef57602002820191906000526020600020905b815481526020019060010190808311611bdb575b505050505091505090565b6000807f3fc430cf53a7ea36e25a560ef7d768c9bb7c830bb49f736b17223d7ae06aaa1c90508091505090565b6000806000611c34611bfa565b905060008160090160008673ffffffffffffffffffffffffffffffffffffffff1673ffffffffffffffffffffffffffffffffffffffff16815260200190815260200160002090508060030160009054906101000a900460ff1615611cc4576040517f0b0ab77600000000000000000000000000000000000000000000000000000000815260040160405180910390fd5b81600a0160008154611cd590612404565b9190508190558160000181905550848160010160006101000a81548173ffffffffffffffffffffffffffffffffffffffff021916908373ffffffffffffffffffffffffffffffffffffffff16021790555060018160030160006101000a81548160ff0219169083151502179055508473ffffffffffffffffffffffffffffffffffffffff167fa394211f4abc8b062e2f6a535011d7a7145dfb8e2aeef659ace63202ecaaa6da6001604051611d8a9190612b20565b60405180910390a2846001935093505050915091565b6000611daa611bfa565b90508060090160008573ffffffffffffffffffffffffffffffffffffffff1673ffffffffffffffffffffffffffffffffffffffff16815260200190815260200160002060030160009054906101000a900460ff16611e34576040517f60f4985300000000000000000000000000000000000000000000000000000000815260040160405180910390fd5b60405180604001604052808460030b81526020018360030b8152508160090160008673ffffffffffffffffffffffffffffffffffffffff1673ffffffffffffffffffffffffffffffffffffffff16815260200190815260200160002060020160008201518160000160006101000a81548163ffffffff021916908360030b63ffffffff16021790555060208201518160000160046101000a81548163ffffffff021916908360030b63ffffffff1602179055509050507fb62d5b9ebab6d647cec444c4655e03d9db5fe1cfe7e66dbed422bdfcca2a2a2f848484604051611f1d9392919061236f565b60405180910390a150505050565b600080fd5b6000819050919050565b611f4381611f30565b8114611f4e57600080fd5b50565b600081359050611f6081611f3a565b92915050565b600060ff82169050919050565b611f7c81611f66565b8114611f8757600080fd5b50565b600081359050611f9981611f73565b92915050565b600063ffffffff82169050919050565b611fb881611f9f565b8114611fc357600080fd5b50565b600081359050611fd581611faf565b92915050565b60008160030b9050919050565b611ff181611fdb565b8114611ffc57600080fd5b50565b60008135905061200e81611fe8565b92915050565b60008060008060008060c0878903121561203157612030611f2b565b5b600061203f89828a01611f51565b965050602061205089828a01611f8a565b955050604061206189828a01611fc6565b945050606061207289828a01611f51565b935050608061208389828a01611fff565b92505060a061209489828a01611fff565b9150509295509295509295565b6000602082840312156120b7576120b6611f2b565b5b60006120c584828501611f51565b91505092915050565b600073ffffffffffffffffffffffffffffffffffffffff82169050919050565b60006120f9826120ce565b9050919050565b600061210b826120ee565b9050919050565b61211b81612100565b811461212657600080fd5b50565b60008135905061213881612112565b92915050565b6000806040838503121561215557612154611f2b565b5b600061216385828601611f51565b925050602061217485828601612129565b9150509250929050565b612187816120ee565b811461219257600080fd5b50565b6000813590506121a48161217e565b92915050565b600080600080608085870312156121c4576121c3611f2b565b5b60006121d287828801611f51565b94505060206121e387828801612195565b93505060406121f487828801611f51565b925050606061220587828801612129565b91505092959194509250565b600081519050919050565b600082825260208201905092915050565b6000819050602082019050919050565b61224681611f30565b82525050565b6000612258838361223d565b60208301905092915050565b6000602082019050919050565b600061227c82612211565b612286818561221c565b93506122918361222d565b8060005b838110156122c25781516122a9888261224c565b97506122b483612264565b925050600181019050612295565b5085935050505092915050565b600060208201905081810360008301526122e98184612271565b905092915050565b7f4e487b7100000000000000000000000000000000000000000000000000000000600052602260045260246000fd5b6000600282049050600182168061233857607f821691505b60208210810361234b5761234a6122f1565b5b50919050565b61235a816120ee565b82525050565b61236981611fdb565b82525050565b60006060820190506123846000830186612351565b6123916020830185612360565b61239e6040830184612360565b949350505050565b7f4e487b7100000000000000000000000000000000000000000000000000000000600052603260045260246000fd5b7f4e487b7100000000000000000000000000000000000000000000000000000000600052601160045260246000fd5b600061240f82611f30565b91507fffffffffffffffffffffffffffffffffffffffffffffffffffffffffffffffff8203612441576124406123d5565b5b600182019050919050565b600061245782611f30565b915061246283611f30565b925082820190508082111561247a576124796123d5565b5b92915050565b7f4e487b7100000000000000000000000000000000000000000000000000000000600052602160045260246000fd5b600081519050919050565b7f4e487b7100000000000000000000000000000000000000000000000000000000600052604160045260246000fd5b60008190508160005260206000209050919050565b60006020601f8301049050919050565b600082821b905092915050565b60006008830261254b7fffffffffffffffffffffffffffffffffffffffffffffffffffffffffffffffff8261250e565b612555868361250e565b95508019841693508086168417925050509392505050565b6000819050919050565b600061259261258d61258884611f30565b61256d565b611f30565b9050919050565b6000819050919050565b6125ac83612577565b6125c06125b882612599565b84845461251b565b825550505050565b600090565b6125d56125c8565b6125e08184846125a3565b505050565b5b81811015612604576125f96000826125cd565b6001810190506125e6565b5050565b601f8211156126495761261a816124e9565b612623846124fe565b81016020851015612632578190505b61264661263e856124fe565b8301826125e5565b50505b505050565b600082821c905092915050565b600061266c6000198460080261264e565b1980831691505092915050565b6000612685838361265b565b9150826002028217905092915050565b61269e826124af565b67ffffffffffffffff8111156126b7576126b66124ba565b5b6126c18254612320565b6126cc828285612608565b600060209050601f8311600181146126ff57600084156126ed578287015190505b6126f78582612679565b86555061275f565b601f19841661270d866124e9565b60005b8281101561273557848901518255600182019150602085019450602081019050612710565b86831015612752578489015161274e601f89168261265b565b8355505b6001600288020188555050505b505050505050565b60008154905061277681612320565b9050919050565b81810361278b575050612863565b61279482612767565b67ffffffffffffffff8111156127ad576127ac6124ba565b5b6127b78254612320565b6127c2828285612608565b6000601f8311600181146127f157600084156127df578287015490505b6127e98582612679565b86555061285c565b601f1984166127ff876124e9565b965061280a866124e9565b60005b828110156128325784890154825560018201915060018501945060208101905061280d565b8683101561284f578489015461284b601f89168261265b565b8355505b6001600288020188555050505b5050505050505b565b61286e81611f30565b82525050565b600061288f61288a61288584611f66565b61256d565b611f30565b9050919050565b61289f81612874565b82525050565b60006128c06128bb6128b684611f9f565b61256d565b611f30565b9050919050565b6128d0816128a5565b82525050565b600060c0820190506128eb6000830189612865565b6128f86020830188612351565b6129056040830187612351565b6129126060830186612896565b61291f60808301856128c7565b61292c60a0830184612865565b979650505050505050565b600060208201905061294c6000830184612865565b92915050565b600061295d82611f30565b915061296883611f30565b925082820261297681611f30565b9150828204841483151761298d5761298c6123d5565b5b5092915050565b7f4e487b7100000000000000000000000000000000000000000000000000000000600052601260045260246000fd5b60006129ce82611f30565b91506129d983611f30565b9250826129e9576129e8612994565b5b828204905092915050565b60006129ff82611f30565b9150612a0a83611f30565b9250828203905081811115612a2257612a216123d5565b5b92915050565b6000604082019050612a3d6000830185612865565b612a4a6020830184612351565b9392505050565b6000819050919050565b6000612a76612a71612a6c84612a51565b61256d565b611f66565b9050919050565b612a8681612a5b565b82525050565b6000606082019050612aa16000830186612351565b612aae6020830185612351565b612abb6040830184612a7d565b949350505050565b600081519050612ad281611f3a565b92915050565b600060208284031215612aee57612aed611f2b565b5b6000612afc84828501612ac3565b91505092915050565b60008115159050919050565b612b1a81612b05565b82525050565b6000602082019050612b356000830184612b11565b9291505056fea264697066735822122009c60a8329da482c9dd2ea81cc1479fffba3fd57a60264ebf999de5fcb16d64164736f6c63430008180033",
  "linkReferences": {},
  "deployedLinkReferences": {}
}