{
  "_format": "hh-sol-artifact-1",
  "contractName": "CollectorLib",
  "sourceName": "contracts/libraries/CollectorLib.sol",
  "abi": [
    {
      "inputs": [],
      "name": "COLLECTORALREADYADDED",
      "type": "error"
    },
    {
      "inputs": [],
      "name": "NOT_AUTHORIZED",
      "type": "error"
    },
    {
      "inputs": [],
      "name": "NOT_FOUND",
      "type": "error"
    },
    {
      "inputs": [],
      "name": "RECYCLERNOTFOUND",
      "type": "error"
    },
    {
      "anonymous": false,
      "inputs": [
        {
          "indexed": true,
          "internalType": "uint256",
          "name": "collectorId",
          "type": "uint256"
        },
        {
          "indexed": true,
          "internalType": "address",
          "name": "_collectorAddress",
          "type": "address"
        },
        {
          "indexed": false,
          "internalType": "string",
          "name": "_name",
          "type": "string"
        },
        {
          "indexed": false,
          "internalType": "string",
          "name": "_contact",
          "type": "string"
        }
      ],
      "name": "collectorCreated",
      "type": "event"
    },
    {
      "inputs": [
        {
          "internalType": "address",
          "name": "_address",
          "type": "address"
        }
      ],
      "name": "getCollector",
      "outputs": [
        {
          "components": [
            {
              "internalType": "uint256",
              "name": "id",
              "type": "uint256"
            },
            {
              "internalType": "string",
              "name": "name",
              "type": "string"
            },
            {
              "internalType": "address",
              "name": "collectorAddress",
              "type": "address"
            },
            {
              "internalType": "string",
              "name": "contact",
              "type": "string"
            },
            {
              "internalType": "uint256",
              "name": "numberOfWasteCollected",
              "type": "uint256"
            },
            {
              "internalType": "bool",
              "name": "isAvailable",
              "type": "bool"
            }
          ],
          "internalType": "struct GreenCycle.Collector",
          "name": "",
          "type": "tuple"
        }
      ],
      "stateMutability": "view",
      "type": "function"
    },
    {
      "inputs": [
        {
          "internalType": "address",
          "name": "_recyclerAddress",
          "type": "address"
        }
      ],
      "name": "getRecyclerCollectors",
      "outputs": [
        {
          "components": [
            {
              "internalType": "uint256",
              "name": "id",
              "type": "uint256"
            },
            {
              "internalType": "string",
              "name": "name",
              "type": "string"
            },
            {
              "internalType": "address",
              "name": "collectorAddress",
              "type": "address"
            },
            {
              "internalType": "string",
              "name": "contact",
              "type": "string"
            },
            {
              "internalType": "uint256",
              "name": "numberOfWasteCollected",
              "type": "uint256"
            },
            {
              "internalType": "bool",
              "name": "isAvailable",
              "type": "bool"
            }
          ],
          "internalType": "struct GreenCycle.Collector[]",
          "name": "",
          "type": "tuple[]"
        }
      ],
      "stateMutability": "view",
      "type": "function"
    }
  ],
  "bytecode": "0x61155f610053600b82828239805160001a607314610046577f4e487b7100000000000000000000000000000000000000000000000000000000600052600060045260246000fd5b30600052607381538281f3fe730000000000000000000000000000000000000000301460806040526004361061004b5760003560e01c806301f1d45814610050578063768b3f67146100795780639e057252146100a9575b600080fd5b81801561005c57600080fd5b5061007760048036038101906100729190610cb5565b6100d9565b005b610093600480360381019061008e9190610d40565b6104c3565b6040516100a09190610f81565b60405180910390f35b6100c360048036038101906100be9190610d40565b6107a1565b6040516100d09190611033565b60405180910390f35b60006100e3610a82565b905060008160050160003373ffffffffffffffffffffffffffffffffffffffff1673ffffffffffffffffffffffffffffffffffffffff16815260200190815260200160002090503373ffffffffffffffffffffffffffffffffffffffff168160010160009054906101000a900473ffffffffffffffffffffffffffffffffffffffff1673ffffffffffffffffffffffffffffffffffffffff16146101b3576040517f3d83866f00000000000000000000000000000000000000000000000000000000815260040160405180910390fd5b60008260000160008773ffffffffffffffffffffffffffffffffffffffff1673ffffffffffffffffffffffffffffffffffffffff1681526020019081526020016000206000015414610231576040517fa9e0611b00000000000000000000000000000000000000000000000000000000815260040160405180910390fd5b600082600201600081548092919061024890611084565b91905055905060008360000160008873ffffffffffffffffffffffffffffffffffffffff1673ffffffffffffffffffffffffffffffffffffffff1681526020019081526020016000209050818160000181905550858160010190816102ad91906112d8565b50868160020160006101000a81548173ffffffffffffffffffffffffffffffffffffffff021916908373ffffffffffffffffffffffffffffffffffffffff1602179055508481600301908161030291906112d8565b506000816004018190555060018160050160006101000a81548160ff0219169083151502179055508360010160003373ffffffffffffffffffffffffffffffffffffffff1673ffffffffffffffffffffffffffffffffffffffff16815260200190815260200160002081908060018154018082558091505060019003906000526020600020906006020160009091909190915060008201548160000155600182018160010190816103b391906113c0565b506002820160009054906101000a900473ffffffffffffffffffffffffffffffffffffffff168160020160006101000a81548173ffffffffffffffffffffffffffffffffffffffff021916908373ffffffffffffffffffffffffffffffffffffffff1602179055506003820181600301908161042f91906113c0565b50600482015481600401556005820160009054906101000a900460ff168160050160006101000a81548160ff02191690831515021790555050508673ffffffffffffffffffffffffffffffffffffffff16827f57703cced4b8e55366ffa9909d3b79e6acfaf1f9d600abdac9dbfa3eb59f30cf88886040516104b29291906114f2565b60405180910390a350505050505050565b606060006104cf610a82565b90508060050160008473ffffffffffffffffffffffffffffffffffffffff1673ffffffffffffffffffffffffffffffffffffffff16815260200190815260200160002060040160009054906101000a900460ff16610559576040517faf70a7a800000000000000000000000000000000000000000000000000000000815260040160405180910390fd5b8060010160008473ffffffffffffffffffffffffffffffffffffffff1673ffffffffffffffffffffffffffffffffffffffff168152602001908152602001600020805480602002602001604051908101604052809291908181526020016000905b8282101561079557838290600052602060002090600602016040518060c0016040529081600082015481526020016001820180546105f7906110fb565b80601f0160208091040260200160405190810160405280929190818152602001828054610623906110fb565b80156106705780601f1061064557610100808354040283529160200191610670565b820191906000526020600020905b81548152906001019060200180831161065357829003601f168201915b505050505081526020016002820160009054906101000a900473ffffffffffffffffffffffffffffffffffffffff1673ffffffffffffffffffffffffffffffffffffffff1673ffffffffffffffffffffffffffffffffffffffff1681526020016003820180546106df906110fb565b80601f016020809104026020016040519081016040528092919081815260200182805461070b906110fb565b80156107585780601f1061072d57610100808354040283529160200191610758565b820191906000526020600020905b81548152906001019060200180831161073b57829003601f168201915b50505050508152602001600482015481526020016005820160009054906101000a900460ff161515151581525050815260200190600101906105ba565b50505050915050919050565b6107a9610aaf565b60006107b3610a82565b905060008160000160008573ffffffffffffffffffffffffffffffffffffffff1673ffffffffffffffffffffffffffffffffffffffff1681526020019081526020016000209050600073ffffffffffffffffffffffffffffffffffffffff168160020160009054906101000a900473ffffffffffffffffffffffffffffffffffffffff1673ffffffffffffffffffffffffffffffffffffffff1603610884576040517f5ffce20a00000000000000000000000000000000000000000000000000000000815260040160405180910390fd5b8160000160008573ffffffffffffffffffffffffffffffffffffffff1673ffffffffffffffffffffffffffffffffffffffff1681526020019081526020016000206040518060c0016040529081600082015481526020016001820180546108ea906110fb565b80601f0160208091040260200160405190810160405280929190818152602001828054610916906110fb565b80156109635780601f1061093857610100808354040283529160200191610963565b820191906000526020600020905b81548152906001019060200180831161094657829003601f168201915b505050505081526020016002820160009054906101000a900473ffffffffffffffffffffffffffffffffffffffff1673ffffffffffffffffffffffffffffffffffffffff1673ffffffffffffffffffffffffffffffffffffffff1681526020016003820180546109d2906110fb565b80601f01602080910402602001604051908101604052809291908181526020018280546109fe906110fb565b8015610a4b5780601f10610a2057610100808354040283529160200191610a4b565b820191906000526020600020905b815481529060010190602001808311610a2e57829003601f168201915b50505050508152602001600482015481526020016005820160009054906101000a900460ff16151515158152505092505050919050565b6000807f3fc430cf53a7ea36e25a560ef7d768c9bb7c830bb49f736b17223d7ae06aaa1c90508091505090565b6040518060c001604052806000815260200160608152602001600073ffffffffffffffffffffffffffffffffffffffff16815260200160608152602001600081526020016000151581525090565b6000604051905090565b600080fd5b600080fd5b600073ffffffffffffffffffffffffffffffffffffffff82169050919050565b6000610b3c82610b11565b9050919050565b610b4c81610b31565b8114610b5757600080fd5b50565b600081359050610b6981610b43565b92915050565b600080fd5b600080fd5b6000601f19601f8301169050919050565b7f4e487b7100000000000000000000000000000000000000000000000000000000600052604160045260246000fd5b610bc282610b79565b810181811067ffffffffffffffff82111715610be157610be0610b8a565b5b80604052505050565b6000610bf4610afd565b9050610c008282610bb9565b919050565b600067ffffffffffffffff821115610c2057610c1f610b8a565b5b610c2982610b79565b9050602081019050919050565b82818337600083830152505050565b6000610c58610c5384610c05565b610bea565b905082815260208101848484011115610c7457610c73610b74565b5b610c7f848285610c36565b509392505050565b600082601f830112610c9c57610c9b610b6f565b5b8135610cac848260208601610c45565b91505092915050565b600080600060608486031215610cce57610ccd610b07565b5b6000610cdc86828701610b5a565b935050602084013567ffffffffffffffff811115610cfd57610cfc610b0c565b5b610d0986828701610c87565b925050604084013567ffffffffffffffff811115610d2a57610d29610b0c565b5b610d3686828701610c87565b9150509250925092565b600060208284031215610d5657610d55610b07565b5b6000610d6484828501610b5a565b91505092915050565b600081519050919050565b600082825260208201905092915050565b6000819050602082019050919050565b6000819050919050565b610dac81610d99565b82525050565b600081519050919050565b600082825260208201905092915050565b60005b83811015610dec578082015181840152602081019050610dd1565b60008484015250505050565b6000610e0382610db2565b610e0d8185610dbd565b9350610e1d818560208601610dce565b610e2681610b79565b840191505092915050565b610e3a81610b31565b82525050565b60008115159050919050565b610e5581610e40565b82525050565b600060c083016000830151610e736000860182610da3565b5060208301518482036020860152610e8b8282610df8565b9150506040830151610ea06040860182610e31565b5060608301518482036060860152610eb88282610df8565b9150506080830151610ecd6080860182610da3565b5060a0830151610ee060a0860182610e4c565b508091505092915050565b6000610ef78383610e5b565b905092915050565b6000602082019050919050565b6000610f1782610d6d565b610f218185610d78565b935083602082028501610f3385610d89565b8060005b85811015610f6f5784840389528151610f508582610eeb565b9450610f5b83610eff565b925060208a01995050600181019050610f37565b50829750879550505050505092915050565b60006020820190508181036000830152610f9b8184610f0c565b905092915050565b600060c083016000830151610fbb6000860182610da3565b5060208301518482036020860152610fd38282610df8565b9150506040830151610fe86040860182610e31565b50606083015184820360608601526110008282610df8565b91505060808301516110156080860182610da3565b5060a083015161102860a0860182610e4c565b508091505092915050565b6000602082019050818103600083015261104d8184610fa3565b905092915050565b7f4e487b7100000000000000000000000000000000000000000000000000000000600052601160045260246000fd5b600061108f82610d99565b91507fffffffffffffffffffffffffffffffffffffffffffffffffffffffffffffffff82036110c1576110c0611055565b5b600182019050919050565b7f4e487b7100000000000000000000000000000000000000000000000000000000600052602260045260246000fd5b6000600282049050600182168061111357607f821691505b602082108103611126576111256110cc565b5b50919050565b60008190508160005260206000209050919050565b60006020601f8301049050919050565b600082821b905092915050565b60006008830261118e7fffffffffffffffffffffffffffffffffffffffffffffffffffffffffffffffff82611151565b6111988683611151565b95508019841693508086168417925050509392505050565b6000819050919050565b60006111d56111d06111cb84610d99565b6111b0565b610d99565b9050919050565b6000819050919050565b6111ef836111ba565b6112036111fb826111dc565b84845461115e565b825550505050565b600090565b61121861120b565b6112238184846111e6565b505050565b5b818110156112475761123c600082611210565b600181019050611229565b5050565b601f82111561128c5761125d8161112c565b61126684611141565b81016020851015611275578190505b61128961128185611141565b830182611228565b50505b505050565b600082821c905092915050565b60006112af60001984600802611291565b1980831691505092915050565b60006112c8838361129e565b9150826002028217905092915050565b6112e182610db2565b67ffffffffffffffff8111156112fa576112f9610b8a565b5b61130482546110fb565b61130f82828561124b565b600060209050601f8311600181146113425760008415611330578287015190505b61133a85826112bc565b8655506113a2565b601f1984166113508661112c565b60005b8281101561137857848901518255600182019150602085019450602081019050611353565b868310156113955784890151611391601f89168261129e565b8355505b6001600288020188555050505b505050505050565b6000815490506113b9816110fb565b9050919050565b8181036113ce5750506114a6565b6113d7826113aa565b67ffffffffffffffff8111156113f0576113ef610b8a565b5b6113fa82546110fb565b61140582828561124b565b6000601f8311600181146114345760008415611422578287015490505b61142c85826112bc565b86555061149f565b601f1984166114428761112c565b965061144d8661112c565b60005b8281101561147557848901548255600182019150600185019450602081019050611450565b86831015611492578489015461148e601f89168261129e565b8355505b6001600288020188555050505b5050505050505b565b600082825260208201905092915050565b60006114c482610db2565b6114ce81856114a8565b93506114de818560208601610dce565b6114e781610b79565b840191505092915050565b6000604082019050818103600083015261150c81856114b9565b9050818103602083015261152081846114b9565b9050939250505056fea26469706673582212201319d2a45aef3829ffcceb51989b54bfe6bcf95c61149a76d629b9b1e19bfa6f64736f6c63430008180033",
  "linkReferences": {},
  "deployedLinkReferences": {}
}